:101A13003D3D3D3D3D3D3D3D3D3D3D3D3D3D3D3DF3
:101A23003D3D3D3D3D3D3D3D3D3D3D3D3D3D3D3DE3
:101A33003D3D3D3D3D3D3D3D3D3D3D3D3D3D3D3DD3
:101A43003D3D3D3D3D3D3D0A002A2A2A2A2A2A2AB8
:101A53002A2A2A2A2A2A2A2A2A2A2A2A2A2A2042D5
:101A630075726E20436F64652058202A2A2A2A2A19
:101A73002A2A2A2A2A2A2A2A2A2A2A2A2A2A2A2AC3
:101A83000A002A202020202020202020202020207F
:101A93002020202020202020202020202020202043
:101AA3002020202020202020202020202020202033
:101AB30020202020202020202A0A002A2020202045
:101AC30056657273696F6E3A2053444B312E303032
:101AD3002E30302831313A32303A3136204170726B
:101AE3002032202032303135292020202020202090
:101AF300202A0A002A2020202020417574686F7252
:101B03003A204C69616F6B657972653C4C69616F12
:101B13006B6579726540666F786D61696C2E636F72
:101B23006D3E20202020202020202A0A002A202069
:101B3300417574686F723A204368657272794079AF
:101B43006373656D692E636F6D2E636E20407961DB
:101B53006E6368656E6720636F6D70616E792020B8
:101B63002020202A0A002A2A2A2A2A2A2A2A2A2A3A
:101B73002A2A2A2A2A2A2A2A2A2A2A2A2A2A2A2AC2
:101B83002A2A2A2A2A2A2A2A2A2A2A2A2A2A2A2AB2
:101B93002A2A2A2A2A2A2A2A2A2A2A2A2A0A000A0C
:101BA3000A0A53797374656D204C6F6164696E67BB
:101BB3002E2E2E0A000A0A0A53797374656D204C7F
:091BC3006F6164204F6B210A00E0
:102800007BFF7A1A7913122BB47BFF7A1A794C1258
:102810002BB47BFF7A1A7985122BB47BFF7A1A7955
:10282000BE122BB47BFF7A1A79F7122BB47BFF7A96
:102830001B7930122BB47BFF7A1A7985122BB47B6B
:10284000FF7A1B7969122BB47BFF7A1A7913122B4A
:10285000B47BFF7A1B79A2122BB47BFF7A1B79B869
:03286000022BB494
:1028C5007B017A0279A09002907404F07F10122B9C
:1028D5000574FFFFFEFDFC9002A0E0F8A3E0F9A35C
:1028E500E0FAA3E0FBC312172C60177FFF7EFF7D84
:1028F5000F7C009002A0E0F8A3A3A3E0D312172C4D
:10290500401B9002A4121791000000007B017A027F
:0D29150079A490028B7404F07F10122CD472
:012922002292
:0F2E8B00122392122C20E4FDFF122446022AC3C8
:012F0C0022A2
:092EE300122F0C122ED8022E8BC6
:0B2EC200122EE312280012181980FBEA
:022F0500C18089
:072EF5000000007F18DFFE62
:012EFC0022B3
:052EA900122EAED2A7BD
:072EAE000000007F0ADFFEB7
:012EB50022FA
:0A2ECD0000007F6C7E90DEFEDFFC4B
:012ED70022D8
:102D6E00122EF5D2A7122EF5D2A6122EF5A2A682FB
:0F2D7E00A7500AC2A6122EF5C2A7022EF5C32235
:102E7B00122EF5C2A6122EF5D2A7122EF5D2A6222D
:0C2B4400AC07122D6E7FA0122B50AF04C6
:022B5000AE07CE
:102B5200E4FD122EAEEE30E704D2A68002C2A61227
:102B62002EA9C2A7EE25E0FE0DEDB408E5122EAEA9
:0D2B7200D2A6122EA9A2A69200C2A7A20010
:012B7F002233
:022C7A00AE07A3
:102C7C00E4FD122EAED2A6FCED25E0FD122EA930FD
:102C8C00A6010DC2A70CECB408EE122EAED2A6EE25
:0B2C9C006002C2A6122EA9C2A7AF055D
:012CA700220A
:102E2500AC05AB07122D6E7FA0122B50AF03122BF2
:072E35004B122E7B022ECD93
:102CD400122B4490028BE0FF14F0EF6016121524BF
:102CE400FF122B50740129F9E43AFA0CECC394FF57
:0A2CF40040E122122E7B122ECD22A9
:102DDD00122B44122D6E7FA1122B50E4FF122C7A70
:072DED00AE07122E7BAF06BA
:012DF40022BC
:102B0500AC07900290E06036122B46122D6E7FA125
:102B1500122B50E014F0900290E0FF14F0EF6012D9
:102B25007F01122C7AEF12156A740129F9E43AFA39
:0F2B350080E4E4FF122C7AEF12156A122E7B2235
:100026000000000000000000005F00000000070064
:10003600070000147F147F1400242A7F2A1200234D
:10004600130864620036495522500000050300007B
:1000560000001C224100000041221C000014083E42
:1000660008140008083E0808000050300000000888
:10007600080808080000606000000020100804025C
:10008600003E5149453E0000427F4000004261511A
:100096004946002141454B31001814127F100027B4
:1000A60045454539003C4A49493000017109050377
:1000B60000364949493600064949291E00003636A8
:1000C600000000005636000000081422410000140B
:1000D60014141414000041221408000201510906E8
:1000E60000324979413E007E1111117E007F494957
:1000F6004936003E41414122007F4141221C007F9A
:1001060049494941007F09090901003E4149497AA7
:10011600007F0808087F0000417F41000020404121
:100126003F01007F08142241007F40404040007F8D
:10013600020C027F007F0408107F003E4141413ED1
:10014600007F09090906003E4151215E007F091919
:1001560029460046494949310001017F0101003F16
:100166004040403F001F2040201F003F4038403F96
:1001760000631408146300070870080700615149FA
:10018600454300007F4141000002040810200000A2
:1001960041417F000004020102040040404040400B
:1001A600000001020400002054545478007F4844A3
:1001B600443800384444442000384444487F0038DA
:1001C6005454541800087E090102000C5252523E43
:1001D600007F080404780000447D4000002040446D
:1001E6003D00007F102844000000417F4000007C55
:1001F60004180478007C0804047800384444443821
:10020600007C1414140800081414187C007C0804DC
:10021600040800485454542000043F444020003C45
:100226004040207C001C2040201C003C4030403CCC
:10023600004428102844000C5050503C004464549C
:100246004C440000083641000000007F000000001A
:1002560041360800001008081008000000000000E1
:10026600000000000000000000003F400000000009
:10027600000000003000400030004000000009008F
:100286000BC03D000BC03D00090018C024407FE0B4
:10029600224031800000180024C01B000D8032402F
:1002A600018003801C4027401C800740004010004E
:1002B60060000000000000000000000000000000D8
:1002C6001F80204040200000402020401F8000006A
:1002D6000000090006001F80060009000000040057
:1002E60004003F80040004000000001000600000CD
:1002F60000000000000004000400040004000400E4
:100306000000000000400000000000000000002087
:1003160001C006003800400000001F802040204039
:1003260020401F800000000010403FC00040000039
:10033600000018C0214022402440184000001080D0
:100346002040244024401B80000002000D001100C4
:100356003FC0014000003C802440244024402380CC
:1003660000001F80244024403440038000003000F9
:10037600200027C03800200000001B8024402440B5
:1003860024401B8000001C0022C0224022401F8007
:10039600000000000000084000000000000000000F
:1003A60000000460000000000000000004000A00D5
:1003B60011002080404009000900090009000900D9
:1003C600000000004040208011000A0004001800D0
:1003D600200023402400180000001F8020402740F2
:1003E60029401F400000004007C039000F0001C02F
:1003F600004020403FC0244024401B8000001F8056
:100406002040204020403080000020403FC0204057
:1004160020401F80000020403FC024402E4030C0B6
:10042600000020403FC024402E00300000000F0096
:100436001080204022403380020020403FC004004C
:1004460004003FC02040204020403FC020402040C4
:1004560000000060202020203FC020002000204017
:100466003FC024400B0030C0204020403FC0204009
:100476000040004000C03FC03C0003C03C003FC0FD
:10048600000020403FC00C4023003FC020001F80DA
:100496002040204020401F80000020403FC02440D4
:1004A6002400180000001F802140214020E01FA0EA
:1004B600000020403FC02440260019C0004018C05C
:1004C60024402440224031800000300020403FC0BC
:1004D60020403000000020003F80004000403F8068
:1004E600200020003E0001C0070038002000380030
:1004F60007C03C0007C038000000204039C0060095
:1005060039C0204000002000384007C03840200095
:100516000000304021C02640384020C000000000C6
:1005260000007FE0402040200000000070000C002A
:100536000380004000000000402040207FE00000D3
:100546000000000020004000200000000000001015
:100556000010001000100010001000000000400005
:10056600000000000000000002800540054003C0B6
:10057600004020003FC0044004400380000000000B
:10058600038004400440064000000000038004404D
:1005960024403FC000400000038005400540034062
:1005A6000000000004401FC024402440200000003A
:1005B60002E0055005500650042020403FC004408C
:1005C600040003C000400000044027C000400000B3
:1005D600000000100010041027E00000000020407A
:1005E6003FC00140070004C00440204020403FC0F7
:1005F60000400040000007C0040007C0040003C01C
:100606000000044007C00440040003C0004000008E
:1006160003800440044003800000041007F00450E7
:10062600044003800000000003800440045007F0EB
:100636000010044007C0024004000400000000004F
:1006460006400540054004C00000000004001F806D
:10065600044000400000040007800040044007C03A
:1006660000400400070004C00180060004000600E4
:1006760001C0070001C006000000044006C00100DA
:1006860006C0044000000410071004E001800600C4
:1006960004000000044005C00640044000000000BD
:1006A600000004007BE04020000000000000000085
:1006B600FFF000000000000040207BE00400000086
:1006C60000004000800040002000200040000000A4
:1006D6000000000000000000000000000000000014
:1006E600000000001FCC000C00000000000000000D
:1006F60008003000600008003000600000000220A2
:1007060003FC1E20022003FC1E2002200000000025
:100716000E1811043FFF10840C78000000000F0033
:1007260010840F3800C0077818840078000000781D
:100736000F8410C411240E9800E4008400080800F9
:1007460068007000000000000000000000000000CB
:100756000000000007E01818200440020000000016
:1007660040022004181807E00000000000000240C4
:10077600024001800FF0018002400240000000802C
:10078600008000800FF800800080008000000001DB
:10079600000D000E00000000000000000000000038
:1007A60000800080008000800080008000800000C3
:1007B600000C000C0000000000000000000000001B
:1007C60000060018006001800600180020000000E6
:1007D60007F0080810041004080807F000000000DD
:1007E600080408041FFC00040004000000000000C8
:1007F6000E0C10141024104411840E0C000000007E
:100806000C1810041104110412880C70000000006A
:1008160000E00320042408241FFC0024000000003C
:100826001F98108411041104108810700000000035
:1008360007F00888110411041888007000000000F1
:100846001C00100010FC13001C001000000000002B
:100856000E3811441084108411440E380000000034
:100866000700088C10441044088807F000000000B8
:1008760000000000030C030C000000000000000054
:10088600000000010106000000000000000000005A
:100896000080014002200410080810040000022015
:1008A6000220022002200220022002200000000076
:1008B6001004080804100220014000800000000017
:1008C6000E001200100C106C10800F00000003E0E8
:1008D6000C1813E4142417C4082807D000000004D9
:1008E600003C03C41C40074000E4001C0004100444
:1008F6001FFC1104110411040E880070000003E0AF
:100906000C1810041004100410081C100000100429
:100916001FFC100410041004080807F0000010045F
:100926001FFC1104110417C4100408180000100459
:100936001FFC1104110017C010000800000003E09E
:100946000C181004100410441C7800400000100419
:100956001FFC10840080008010841FFC100400001F
:10096600100410041FFC1004100400000000000313
:100976000001100110011FFE1000100000001004FD
:100986001FFC110403801464181C100400001004DA
:100996001FFC1004000400040004000C00001004F6
:1009A6001FFC1F0000FC1F001FFC100400001004A9
:1009B6001FFC0C04030000E010181FFC100007F0D9
:1009C6000808100410041004080807F000001004BA
:1009D6001FFC10841080108010800F00000007F0AC
:1009E600081810241024101C080A07F2000010042E
:1009F6001FFC1104110011C011300E0C0004000080
:100A06000E1C11041084108410441C3800001800B9
:100A1600100010041FFC1004100018000000100045
:100A26001FF810040004000410041FF81000100042
:100A36001E0011E0001C007013801C0010001FC077
:100A4600103C00E01F0000E0103C1FC00000100436
:100A5600180C163401C001C01634180C100410000E
:100A66001C00130400FC13041C0010000000080402
:100A7600101C1064108413041C04101800000000DD
:100A8600000000007FFE400240024002000000001D
:100A960030000C0003800060001C00030000000012
:100AA6004002400240027FFE0000000000000000FD
:100AB600000020004000400040002000000000012F
:100AC6000001000100010001000100010001000019
:100AD6004000400020000000000000000000000070
:100AE6000098012401440144014400FC0004100064
:100AF6001FFC00880104010400880070000000004B
:100B06000070008801040104010400880000000050
:100B1600007000880104010411081FFC0004000095
:100B260000F8014401440144014400C800000000EB
:100B3600010401040FFC1104110411001800000047
:100B460000D601290129012901C901060000100466
:100B56001FFC008401000100010400FC00040000E9
:100B66000104190419FC0004000400000000000040
:100B7600000300010101190119FE00000000100424
:100B86001FFC0024004001B4010C01040000000019
:100B9600100410041FFC00040004000000000104FF
:100BA60001FC0104010001FC0104010000FC010438
:100BB60001FC008401000100010400FC00040000A7
:100BC60000F8010401040104010400F80000010119
:100BD60001FF008501040104008800700000000088
:100BE6000070008801040104010501FF00010104F1
:100BF600010401FC008401040100018000000000E2
:100C060000CC0124012401240124019800000000E5
:100C16000100010007F801040104000000000100C2
:100C260001F8000400040004010801FC00040100AE
:100C360001800170000C001001600180010001F0CC
:100C4600010C003001C00030010C01F00100000071
:100C56000104018C00740170018C01040000010183
:100C660001810171000E0018016001800100000081
:100C76000184010C013401440184010C00000000D0
:100C860000000000000001003EFC4002400200009F
:100C9600000000000000FFFF000000000000000050
:100CA600400240023EFC010000000000000000007F
:100CB60060008000800040004000200020004010BE
:100CC6007FF84910491049207FFF48A08881488253
:100CD600388C0FF01888E88448830882000000806A
:100CE60041004FFC7210421043F900014FF24804D4
:100CF60058186BE0481048084FE640030000008093
:100D0600010006001FFFE00050801480148014804C
:100D1600FFFF14801484148214FC000000000004F9
:100D26000804060401C40084FFFC00040004000457
:100D3600FFFC0044018406041C0C080400000000AB
:100D460000001FF01220122012201220FFFC122297
:100D56001222122212221FF20002000E0000008050
:100D660000804080408040804082408147FE48802D
:100D76005080608040800080018000800000082054
:100D8600484049804E007FFF8A0089200020442089
:100D9600334000400040FFFF0080008000001080CC
:100DA60010821101FFFE120014020002130412C881
:100DB6001230FE30124813841206100400000000A0
:100DC6000002000200020002000200027FFE020290
:100DD60002020202020202020006000200000000F5
:100DE6004000400040004000400040007FFE4400BC
:100DF6004600438041004000C00040000000420819
:100E060042087FF04211429207040018FFE00004F6
:100E1600420442047FFC42044204420400000200F1
:100E26004200320023FE0004440855FF5550555039
:100E3600FD505552555155FE440004000000000077
:100E4600010107027904111811E01100FF001100D9
:100E560011FC1102110211020102000E0000002015
:100E6600802080209FFF922092209220FFE09220F7
:100E7600922292219FFE80208020002000000040C8
:100E8600008151014A0146F55A9362910291E2911D
:100E96001A9326F54A0113012181010000007FFF04
:100EA60040004840542063C0113E1104110411044F
:100EB600FFFC110411041104113E01000000001092
:100EC6001110111011101110FFFF0000000000009A
:100ED600FFFF111011101110111010100000082042
:100EE6000620807F618006021002108210829082A6
:100EF6007FFE108210821082108210020000020211
:100F0600020CFFF082048202FFFC020202040218B5
:100F1600FFE082048202FFFC0200020000000001E2
:100F26000002000C7FF044404440444044407FFFB0
:100F360044404440444244417FFE0000000000011A
:100F46000002000C1FF01100110011009100510069
:100F560071001100110011001F00000000000000C8
:100F6600000000000000000000000000000000007B
:100F7600000000000000000000000000000000006B
:100F860000000003E000001FF800007F800001FE63
:100F9600000003E0000003E00000078000000F806F
:100FA60000000F0000001E0780001E1F00001C32FC
:100FB60000001C72C0001C7EC7001E7E1F801EFE25
:100FC6003FC01EFF3FC01FFFFFE00FFFFFE00FFF08
:100FD600FFE007FFFFC007FFFFC003FFFF8001FF21
:100FE600FF0000FFFE00003FFC00000FF0000000C5
:100FF600000000000000000000000000008000006B
:1010060000800000008000000080001FFEBE003F40
:10101600FE82003FFE8200308280003082AE0030C9
:1010260082800031C69E001FFEA8001F7CA8000E0D
:10103600389E000000800000009C0037FEA20037AA
:10104600FEA20000009C000000800001F8BE000324
:10105600FC8800070E94000606A200040280000425
:1010660002BE000402AA000606AA00070EA200039A
:10107600FC800001F8A20000009400060088001F12
:10108600FCB0001FFE80001FFEBE000602A8000086
:1010960000AC0001F8920003FC8000077EBE00064B
:1010A6004EAA000446AA000446A200044680000692
:1010B60046BE000346A20001C4B60000809C0000A4
:1010C60000800000F0BE0003FCAA0003FCAA000694
:1010D60006A200040280000402BA000402AA000468
:1010E60006AA000004AE00000080003FFE80003F1C
:1010F600FEAE00060080000600BE000600A2000646
:1011060000AA000600AE0007FE800007FEBE000330
:10111600FEA0000000A0000000BE0000008000004D
:1011260000800000008000000080000000800000B9
:1011360000000000000000000000000000000000A9
:101146000000000000000000000000000000000099
:0E11560000000000000000000000000000008B
:102CA800EF540FC454F0FEEF54F0C4540F4EFF54C9
:102CB8003325E025E0FEEF54CC1313543F4EFF5468
:0C2CC8005525E0FEEF54AAC3134EFF2276
:102DC300EF4E60157D087C07ED1DAA0470011C4AB7
:092DD30070F6EF1F70EA1E80E7A4
:012DDC0022D4
:102CFE00ED6004D2B48002C2B4C2B7E4FEC2B3EF38
:102D0E0030E704D2B28002C2B2D2B3EF25E0FF0E9A
:082D1E00EEB408E9D2B7D2B40B
:012D2600228A
:10000300AC07ED24B0FFE4FD122CFEEC54F0C45415
:100013000F4410FF122CFEEC540F4401FF022CFE80
:102AC300E4FCEC24B4FFE4FD122CFE7F04122CFE84
:102AD3007F10122CFEE4FB75F004EBA42400F582B6
:102AE300E5F03400F583E5822CF582E43583F58344
:102AF300E0FF7D01122CFE0BEBB480DB0CECB40485
:012B0300C110
:012B040022AE
:072C1900E490027BF0A3F040
:102C2000E4FFE4FE75F004EEA42400F582E5F03440
:102C300000F583E5822FF582E43583F583E4F00E19
:092C4000EEB480E00FEFB404D9FA
:012C49002268
:0B259E00FFA3E0C399FD90029AE0FB50
:1025A900E4900255F0EFD3947F4003022644ED9462
:1025B9003F4003022644ED131313541FFEC374074F
:1025C9009E900254F0ED5407FEC374079EFE7401F9
:1025D900A806088002C333D8FC900255F0EB90029C
:1025E90054602AE0FE75F004EFA42400F582E5F0BA
:1025F9003400F583E5822EF582E43583F583C083C3
:10260900C082E0FF900255E0FEEF4E8029E0FE75A2
:10261900F004EFA42400F582E5F03400F583E582A7
:102629002EF582E43583F583C083C082E0FF9002F2
:0B26390055E0F4FEEF5ED082D083F08D
:012644002273
:0C1D7B00FBED2409900238F0A37401F085
:0C1D8700900235EFF0A905900237EBF058
:101D9300E9FFA3E0C39FFEE4940090023AF0A3CED0
:101DA300F0900235E0FFC3EB9FFEE4940090023C09
:101DB300F0A3CEF090023AE0FEA3E0FFC3EE64800E
:101DC30094805015C3E49FFFE49E90023AF0A3EF82
:101DD300F090023F74FFF0800690023F7401F09090
:101DE300023CE0FEA3E0FFC3EE648094805013C383
:101DF300E49FFFE49E90023CF0A3EFF0A374FFF096
:101E0300800690023E7401F0900235E0FFAD019030
:101E13000239E0FB1225A990023AE0FEA3E0FFA3FA
:101E2300E0FAA3E0FBD39FEE6480F8EA6480984075
:101E330059EAA2E713EB13FF90023AA3E0C39FFC16
:101E4300900237E0FF900235E06F7003021EE0C39B
:101E5300EC64809480401090023FE029F990023CAA
:101E6300A3E0FFC3EC9FFC90023EE0FF900235E04D
:101E73002FF090023AA3E02CFC900235E0FFAD0175
:101E8300900239E0FB1225A980B690023AE0A2E75E
:101E930013A3E013FFA3A3E0C39FFC900238E06900
:101EA300603BC3EC64809480401590023EE0FF9059
:101EB3000235E02FF090023AA3E0FFC3EC9FFC90C1
:101EC300023FE029F990023CA3E02CFC900235E0AC
:0D1ED300FFAD01900239E0FB1225A980BE91
:011EE00022DF
:102B8000FD90000212153D2F14FB9002AB7401F072
:062B9000AC07AA03A90531
:102B9600ECD39A4006AF02AA04AC07AF04AD01908D
:0D2BA60002ABE0FB1225A90CEAC39C50EE27
:012BB30022FF
:062D2700AC05AA03A90798
:102D2D00ECD39A4006AF02AA04AC07AF01AD0490F4
:0D2D3D0002AFE0FB1225A90CEAC39C50EE8A
:012D4A002266
:10292300900291EFF0A3EDF0A3EBF0900295E0900D
:1029330002ABF0122B90900291E0FF900294E0FD25
:10294300900293E0FB900295E09002ABF0122B9083
:10295300900291E0FFA3E0FD900294E0FBA3E090DE
:1029630002AFF0122D27900293E0FF900292E0FD58
:0E297300900294E0FBA3E09002AFF0022D274B
:0F264500900270EDF090026FEFF0900271EBF0E9
:10265400EFD39B401690026FE0FF900274F090025B
:1026640071E090026FF0900271EFF0900272E0FF5F
:10267400900270E0FED39F400F900274EEF090023F
:1026840070EFF0900272EEF0900272E0FF90027030
:10269400E0FDB5071590026FE0FF900271E0FB903A
:1026A4000273E09002ABF0022B90900271E0FF9075
:1026B400026FE06F602B900272E0FF900270E0FD09
:1026C400D39F501D90026FE0FF900271E0FB9002D7
:1026D40073E09002ABF0122B90900270E004F08053
:0126E400D520
:0126E50022D2
:1029DA009002B0EFF0AE03A905EE6043EEFD90025F
:1029EA00B0E02DFDE433FCD3ED9480EC6480948058
:1029FA00502DEEFDE92DFDE433FCD3ED9420EC647B
:102A0A00809480501A9002B0E0FFAD012EFBE92EAF
:102A1A00900294F09002B3E0900295F012292322DA
:102A2A009002B4EFF0AE03A905EE6043EEFD90020A
:102A3A00B4E02DFDE433FCD3ED9480EC6480948003
:102A4A00502DEEFDE92DFDE433FCD3ED9420EC642A
:102A5A00809480501A9002B4E0FFAD012EFBE92E5B
:102A6A00900272F09002B7E0900273F012264522AB
:0E21E100900256EBF0A3EAF0A3E9F0A3EDF0B4
:1021EF0070030222CA900259E0B40135900256E002
:1021FF00FBA3E475F0011215F9A9F0FA121524905A
:10220F00025BF0900256E0FBA3E0FAA3E0F912158F
:10221F0024FC90025BE0FFAD0490025AE0FB122514
:10222F00A9900256E0FBA3E475F0011215F9A9F08D
:10223F00FA12152490025BF0900256E0FBA3E475AE
:10224F00F0011215F9A9F0FA121524FC90025E7430
:10225F0001F0900259E0FF90025EE0C39F505C9046
:10226F000256E0FBA3E475F0011215F9A9F0FA127A
:10227F00152490025CF0900256E0FBA3E475F00188
:10228F001215F9A9F0FA12152490025DF090025B75
:10229F00E0FFAD04A3E0FBA3E0900238F090025AF8
:1022AF00E0900239F0121D8790025CE090025BF023
:0B22BF0090025DE0FCA3E004F08097BB
:0122CA0022F1
:0824F500900296EFF0A3EDF058
:1024FD00E4FCAF03A907EF25E0FFC374039FFAECDB
:10250D00D399400302259D900296E02CFFA3E0296C
:10251D001225A3900296E02C12259E900296E0C300
:10252D009CFFA3E0291225A3900296E0C39C1225DF
:10253D009E900296E029FFA3E02C1225A39002960F
:10254D00E029FFA3E0C39C1225A3900296E0C39956
:10255D00FFA3E02C1225A3900296E0C399FFA3E000
:10256D00C39C1225A3C3EA64809480500FAF040C62
:10257D00EF25E025E024062AFA02250CAF0119AE5D
:10258D00040CC3EE9F25E025E0240A2AFA02250C4F
:01259D00221B
:0B11640090025FEBF0A3EAF0A3E9F0BB
:10116F0090000212153DFEC39414401690025FE0EA
:10117F00FBA3E0FAA3E0F990000312153DC394140A
:10118F0050037F0022EEFF1215242FFFE433FED30E
:10119F00EF9480EE6480948040037F002290025F82
:1011AF00E0FBA3E0FAA3E0F990000312153DFF90D6
:1011BF00000112153D2FFFE433FED3EF9420EE64B0
:1011CF0080948040037F002290025FE0FBA3E0FA4F
:1011DF00A3E0F9121524FCFFC00790000112153D82
:1011EF00FD90000212153D2C14FBC00390025FE02E
:1011FF00FB90000312153DFF90000112153D2F14B7
:10120F00900272F0E4A3F0D003D0071226459002AB
:10121F005FE0FBA3E0FAA3E0F9121524FCFFC0077F
:10122F0090000112153DFD90000212153D2C14FB8C
:10123F00C00390025FE0FB90000312153DFF90008A
:10124F000112153D2F14900294F0A37401F0D003F6
:10125F00D00712292390025FE0FBA3E0FAA3E0F985
:10126F00121524FF90000112153D2409122B8090B6
:10127F00025FE0FBA3E0FAA3E0F990000212153D34
:10128F00FF1215242F24F6FF90000112153DFD24A7
:10129F0009FB9002AF7401F0122D2790025FE0FB63
:1012AF00A3E0FAA3E0F990000212153DFF121524F6
:1012BF002FFE24F6FF90000112153DFDEE14121DB6
:1012CF007B90025FE0FBA3E0FAA3E0F9900002122B
:1012DF00153DFF1215242FFE14FF90000112153D2E
:1012EF00FDEE24F6121D7B90025FE0FBA3E0FAA354
:1012FF00E0F99000041217C2E94A700302139890A4
:10130F00025FE0FBA3E0FAA3E0F99000041217C21A
:10131F00900262EBF0A3EAF0A3E9F090025FE0FB2A
:10132F00A3E0FAA3E0F9121524FF2402900265F05E
:10133F0090000112153D04900266F0900002121504
:10134F003D2F14900267F0900265E0FF3395E0FEA9
:10135F00EF2408FFE43EFE900267E0FD3395E0FCCA
:10136F00D3EF9DEC6480F8EE648098501C9002627D
:10137F00E0FBA3E0FAA3E0F9121524600C121EE1C2
:10138F00900265E02406F080BE90025FE0FBA3E0D0
:10139F00FAA3E0F99000071217C2E94A700302148A
:1013AF003B90025FE0FBA3E0FAA3E0F99000071285
:1013BF0017C2900262EBF0A3EAF0A3E9F090025F8C
:1013CF00E0FBA3E0FAA3E0F9121524FF2402900238
:1013DF0065F090000112153D240C900266F090000C
:1013EF000212153D2F14900267F0900265E0FF3353
:1013FF0095E0FEEF2408FFE43EFE900267E0FD3328
:10140F0095E0FCD3EF9DEC6480F8EE648098501C5F
:10141F00900262E0FBA3E0FAA3E0F9121524600C3E
:10142F00121EE1900265E02406F080BE90025FE09C
:10143F00FBA3E0FAA3E0F990000A1217C2E94A7081
:10144F000302152190025FE0FBA3E0FAA3E0F990FD
:10145F00000312153DC3941950037F002290025FC1
:10146F00E0FBA3E0FAA3E0F9121524FF90000312AA
:10147F00153DFE90000112153D2E24F6122B809083
:10148F00025FE0FBA3E0FAA3E0F990000A1217C293
:10149F00900262EBF0A3EAF0A3E9F090025FE0FBA9
:1014AF00A3E0FAA3E0F9121524FF2403900265F0DC
:1014BF0090000312153DFE90000112153D2E24F7EA
:1014CF00900266F090000212153D2F14900267F003
:1014DF00900265E0FF3395E0FEEF2408FFE43EFE47
:1014EF00900267E0FD3395E0FCD3EF9DEC6480F84C
:1014FF00EE648098501C900262E0FBA3E0FAA3E038
:10150F00F9121524600C121EE1900265E02406F01A
:04151F0080BE7F010A
:0115230022A5
:072C4A0090029CEDF0A903CC
:102C5100AC07ECD399501F90029CE0FA90029EE0E1
:102C6100FFEAD39F500DAF04AD02A3E0FB1225A9EB
:092C71000A80E90C80DC022AC390
:101EE100900265E0FFA3E0FD900262E0FBA3E475D0
:101EF100F0011215F9A9F0FA121524FB74079002EA
:061F01006BF0A37401F077
:0C1F0700900268EFF090026AEBF0A90570
:101F130090026EE9F090026AE024E0F0E4FC9002A3
:101F23006BE0FFECC39F4003021FE9EFB407299066
:101F3300026AE075F006A42426F582E5F03400F584
:101F430083E5822CF582E43583F583E493FF122C39
:101F5300A890026DEFF0803890026BE090026AB4B3
:101F63000C0FE075F00CA42460F582E5F0340280D8
:101F73000DE075F010A424D4F582E5F03406F58362
:101F8300E5822CF582E43583F583E49390026DF0CA
:101F9300E4FA90026DE030E70E900268E0FFAD01D5
:101FA30090026CE0FB8013900268E0FFAD019002A9
:101FB3006CE070047B0180027B001225A990026D06
:101FC300E025E0F009A3E0FFC3E99FFE90026BE088
:101FD300B5060AA907900268E004F080050AEAB48E
:061FE30008B00C021F21F2
:011FE90022D5
:082A7A00900275EFF0A3EDF0EE
:102A8200A312179100000001900276E0FF14F0EF0C
:102A92006020A3E0F8A3E0F9A3E0FAA3E0FB900230
:102AA20075E0FFE4FCFDFE12160F90027712178507
:102AB20080D6900277E0FCA3E0FDA3E0FEA3E0FF56
:012AC20022F1
:0822CB00900240EFF0A3EDF0DA
:1022D300E490024AF0900248F0900246E0FF900238
:1022E30048E0FEC39F4003022391C3EF9E14FD7F8A
:1022F3000A122A7AA804A905AA06AB07900242E0AB
:10230300FCA3E0FDA3E0FEA3E0FF12169AE47B0A20
:10231300FAF9F812169A900249EBF0A3E0703A909A
:102323000246E014FF900248E0FEC39F502BA3E057
:102333007021900247E0FCC3138EF0A4FF9002408B
:10234300E02FFFA3E0FD90026BECF0A37401F07BA0
:1023530020802F90024A7401F0900247E0FEC313DD
:10236300FFA3E0FDEF8DF0A4FF900240E02FFFA359
:10237300E0FD900249E02430FB90026BEEF0A37481
:0E23830001F0121F07900248E004F00222DC75
:012391002229
:1020E70090027BEFF0A3EDF0A3EBF0A3EAF0A3E9F6
:1020F700F090027DE0FBA3E0FAA3E0F9121524704B
:10210700030221E0900280E06410704090027BE0BF
:10211700D3947A4007E4F0A3E02410F090027CE027
:10212700D394204003122C1990027BE0FFA3E0FD1B
:10213700A3E0FBA3E0FAA3E0F9121524FB74101245
:102147001EFF90027BE02408F00221D3900280E07A
:10215700640C703890027BE0D3947A4007E4F0A3D4
:10216700E02410F090027CE0D394204003122C1955
:1021770090027BE0FFA3E0FDA3E0FBA3E0FAA3E06E
:10218700F9121524FB90026B740C803690027BE0E9
:10219700D3947A4007E4F0A3E02410F090027CE0A7
:1021A700D394204003122C1990027BE0FFA3E0FD9B
:1021B700A3E0FBA3E0FAA3E0F9121524FB90026B5E
:1021C7007407121F0290027BE02406F090027EE45F
:0A21D70075F0011215E30220F82252
:0C26E600900281EFF0900283EBF0A90558
:1026F200900286E9F0E4FCECC39410900283E0754A
:10270200F020A424C4F582E5F0340CF583E5822C94
:10271200F582E43583F583E493900285F0E4FA9040
:102722000285E030E70E900281E0FFAD0190028465
:10273200E0FB8013900281E0FFAD01900284E07023
:10274200047B0180027B001225A9900285E025E02E
:10275200F009A3E0FFC3E99FFEBE100AA907900299
:1027620081E004F080050AEAB408B40CEC6420703D
:0127720086E0
:012773002243
:04244600AC05A90731
:10244A00ECFF900252E4F0A3EFF0E490024EF0A306
:10245A00F090024EE0FEA3E0FFC3EE9402400302B6
:10246A0024F474642FF582740F3EF583E493FF908D
:10247A00024CE4F0A3EFF0E4900250F0A3F09002D3
:10248A004DE0AF01AD0430E7047B018002E4FB12AA
:10249A0025A990024DE025E0F090024CE033F00CC3
:1024AA00ECFF900252E0FAA3E0FBC3EF9BFFE49A31
:1024BA00FEEF64204E7005AC0309801D900251E0C6
:1024CA0004F07006900250E004F0C3900251E094C8
:1024DA0008900250E0940040A590024FE004F0708A
:0A24EA000690024EE004F002245BAD
:0124F40022C5
:10239200D2B67F647E00122DC3C2B67F647E001265
:1023A2002DC3D2B6E4FD7FFD122CFE7F12122CFE4D
:1023B2007FAE122CFE7F20122CFE7F02122CFE7F9B
:1023C200B4122CFEE4FF122CFE7F10122CFE7F6052
:1023D200122CFE7FD5122CFE7FF0122CFE7FA8124B
:1023E2002CFE7F1F122CFE7FD3122CFEE4FF122C38
:1023F200FE7FA1122CFE7FC0122CFE7FD8122CFE73
:102402007F05122CFE7FDA122CFE7F12122CFE7F29
:10241200D9122CFE7FF1122CFE7F81122CFE7FBF7F
:10242200122CFE7FDB122CFE7F34122CFE7FA412B4
:102432002CFE7FA6122CFE7FAF122CFE122C20E463
:04244200FF02000392
:1028630090024C12178553877F759850438E0490BE
:10287300024CE0F8A3E0F9A3E0FAA3E0FB7F007EBB
:10288300307D2A7C0012169AEFF404F5D790024C9F
:10289300E0F8A3E0F9A3E0FAA3E0FB7F007E307D3C
:1028A3002A7C0012169AC3E49FFFE49EFE74019DE6
:1028B300FDE49CFC780812173D8FD6438E01438EAE
:0228C3001022E1
:0B2ED8007F007EC27D017C00022863A9
:082EFD008F993099FDC2992262
:102BB40090024DEBF0A3EAF0A3E9F090024DE0FBA4
:102BC400A3E0FAA3E0F9121524601790024DA3E4E0
:102BD40075F0011215F9A9F0FA121524FF122E3C12
:032BE40080D92273
:102E3C00AE07EEB40A097F0D122EFD7F0A8002AF99
:072E4C0006122EFDAF062265
:102E5300EFC3940AEF50052430FD80032437FDAF00
:042E630005022E3CFA
:102D8D00AC077F20122E3CECC4540FFF122E53ECD7
:0B2D9D00540FFF122E537F20022E3C2B
:03002300022DF5B6
:062DF500C0E0C083C082B3
:0B2DFB00309808C29890024BE599F058
:072E0600D082D083D0E0323E
:092EEC00D2A0C2A3C2A2C2A1221D
:102E6700E4FEEF3392A3C2A1D2A1EF25E0FF0EEE5D
:032E7700B408EFAD
:012E7A002235
:102DA800C2A2AF051DEF6010121524FF122E677422
:0B2DB8000129F9E43AFA80EAD2A222D5
:102981000A7374617274206D61736B3A20706163B4
:102991006B61676520747970652031202C2050416E
:1029A100434B5F414444203D2030202C2049435F6C
:1029B100414444203D20300A0A000A00504E5F5431
:1029C1004D50204249542031353A300A006D61732F
:0929D1006B206F766572210A008B
:042F07004102000083
:0C2EB600759DFFE4F5BDF5BE75BC8022E3
:102D4B00EF4488F5BC00000000E5BC30E4FB53BC4D
:102D5B00EFAFBDEF75F004A4ADBE7C002DFFEC35DD
:032D6B00F0FE2255
:052E0D00E4FF122D4B53
:102E1200C3E49FFD74049EFC12158E7C037DE812B0
:032E2200157C22FA
:101BCC00C291C2C6C290C2C5000000000000000055
:101BDC000000122E0D900205EEF0A3EFF0000000B5
:101BEC00007F01122D4B122E1290020DEEF0A3EF7E
:101BFC00F0000000007F02122D4B122E12900215E5
:101C0C00EEF0A3EFF0000000007F03122D4B122E1C
:101C1C001290021DEEF0A3EFF0000000007F041202
:101C2C002D4B122E12900225EEF0A3EFF0000000C7
:101C3C00007F05122D4B122E12A3EEF0A3EFF00035
:101C4C000000007F06122D4B122E12A3EEF0A3EF14
:101C5C00F0000000007F07122D4B122E12A3EEF0A5
:101C6C00A3EFF0C291C2C6D290D2C5000000000012
:101C7C000000000000122E0D900207EEF0A3EFF012
:101C8C00000000007F01122D4B122E1290020FEE5D
:101C9C00F0A3EFF0000000007F02122D4B122E1269
:101CAC00900217EEF0A3EFF0000000007F03122D5E
:101CBC004B122E1290021FEEF0A3EFF0D291D2C66F
:101CCC00C290C2C500000000000000000000122EEF
:101CDC000D900209EEF0A3EFF0000000007F01125E
:101CEC002D4B122E12900211EEF0A3EFF00000001B
:101CFC00007F02122D4B122E12900219EEF0A3EF60
:101D0C00F0000000007F03122D4B122E12900221C6
:101D1C00EEF0A3EFF0D291D2C6D290D2C500000063
:101D2C0000000000000000122E0D90020BEEF0A33C
:101D3C00EFF0000000007F01122D4B122E129002CA
:101D4C0013EEF0A3EFF0000000007F02122D4B12F7
:101D5C002E1290021BEEF0A3EFF0000000007F03A8
:0F1D6C00122D4B122E12900223EEF0A3EFF02255
:101FEA00AB0790020112179100000000EB60030298
:101FFA0020CD900234E05401FF900204E054FE4FD9
:10200A00F0900234E0540225E0FF900204E054FB11
:10201A004FF0900234E0540425E025E0FF900204DA
:10202A00E054EF4FF0900234E0540833333354F85D
:10203A00FF900204E054BF4FF0900234E05410C401
:10204A00540FFF900203E054FE4FF0900234E05424
:10205A00201313543FFF900203E054F74FF090020D
:10206A0034E05440C313FF900203E054DF4FF09072
:10207A000234E05480C313FF900203E054BF4FF0D0
:10208A00900233E05401C43333335480FF90020387
:10209A00E0547F4FF0900233E05402FF900202E0D6
:1020AA0054FD4FF0900233E05404FF900202E054D2
:1020BA00FB4FF0900233E05408FF900202E054F71D
:1020CA004FF022EB64016014900231E0FCA3E0FDC2
:0D20DA00A3E0FEA3E0FF9002011217852293
:0E2E9A00D20190022D12179100000000A2013B
:012EA8002207
:102BE700122E9A402C90022DE0FCA3E0FDA3E0FEFC
:102BF700A3E0FF900201E0F8A3E0F9A3E0FAA3E065
:102C07006FFFEA6EFEE96DFDE86CFC9002B81217E3
:012C17008537
:012C18002299
:1018190090023112179100000000900201121791F5
:10182900000000007BFF7A297981122BB490020015
:10183900E06003021A0AFF121FEA7BFF7A2979BBCB
:10184900122BB47BFF7A2979BD122BB4900233E0B5
:10185900C41313135401FF122D8D900233E0C413E6
:10186900135401FF122D8D900233E0C4135401FF6C
:10187900122D8D900233E0C45401FF122D8D900278
:1018890033E01313135401FF122D8D900233E0132B
:10189900135401FF122D8D900233E0C3135401FF3D
:1018A900122D8D900233E05401FF122D8D900234D8
:1018B900E0C41313135401FF122D8D900234E0C4B8
:1018C90013135401FF122D8D900234E0C4135401F7
:1018D900FF122D8D900234E0C45401FF122D8D901A
:1018E9000234E01313135401FF122D8D900234E0DA
:1018F90013135401FF122D8D900234E0C3135401C8
:10190900FF122D8D900234E05401FF122D8D7BFFC3
:101919007A2979BD122BB4900203E0C4131313542E
:1019290001FF122D8D900203E0C413135401FF121D
:101939002D8D900203E0C4135401FF122D8D9002E6
:1019490003E0C45401FF122D8D900203E013131319
:101959005401FF122D8D900203E013135401FF125D
:101969002D8D900203E0C3135401FF122D8D9002B7
:1019790003E05401FF122D8D900204E0C4131313E8
:101989005401FF122D8D900204E0C413135401FF7A
:10199900122D8D900204E0C4135401FF122D8D9075
:1019A9000204E0C45401FF122D8D900204E01313C8
:1019B900135401FF122D8D900204E013135401FFFB
:1019C900122D8D900204E0C3135401FF122D8D9046
:1019D9000204E05401FF122D8D7BFF7A2979BB1295
:1019E9002BB4900231121750E47BFF7A0FF9F8D328
:1019F90012172C40030218369002007401F00218E5
:0A1A0900367BFF7A2979CE022BB458
:0300000002277460
:0C277400787FE4F6D8FD7581200227BBB9
:10152400BB010689828A83E0225002E722BBFE02C5
:09153400E32289828A83E49322F8
:10153D00BB010CE58229F582E5833AF583E0225063
:10154D0006E92582F8E622BBFE06E92582F8E222AD
:0D155D00E58229F582E5833AF583E49322C7
:10156A00BB010689828A83F0225002F722BBFE0160
:02157A00F3225A
:10157C00EF8DF0A4A8F0CF8CF0A428CE8DF0A42E83
:02158C00FE223D
:10158E00BC000BBE0029EF8DF084FFADF022E4CC41
:10159E00F875F008EF2FFFEE33FEEC33FCEE9DEC0A
:1015AE00984005FCEE9DFE0FD5F0E9E4CEFD22ED50
:1015BE00F8F5F0EE8420D21CFEADF075F008EF2F9A
:1015CE00FFED33FD4007985006D5F0F222C398FD8B
:0515DE000FD5F0EA2228
:1015E300C5F0F8A3E028F0C5F0F8E5821582700293
:0615F3001583E038F02230
:1015F900A3F8E0C5F025F0F0E582158270021583A5
:06160900E0C838F0E82201
:10160F00E88FF0A4CC8BF0A42CFCE98EF0A42CFC7A
:10161F008AF0EDA42CFCEA8EF0A4CDA8F08BF0A4F8
:10162F002DCC3825F0FDE98FF0A42CCD35F0FCEB57
:10163F008EF0A4FEA9F0EB8FF0A4CFC5F02ECD391C
:0F164F00FEE43CFCEAA42DCE35F0FDE43CFC2289
:10165E0075F008758200EF2FFFEE33FECD33CDCC43
:10166E0033CCC58233C5829BED9AEC99E5829840C6
:10167E000CF582EE9BFEED9AFDEC99FC0FD5F0D6A3
:10168E00E4CEFBE4CDFAE4CCF9A88222B800C1B9CD
:10169E000059BA002DEC8BF084CFCECDFCE5F0CB0B
:1016AE00F97818EF2FFFEE33FEED33FDEC33FCEB44
:1016BE0033FB10D703994004EB99FB0FD8E5E4F9FF
:1016CE00FA227818EF2FFFEE33FEED33FDEC33FCEC
:1016DE00C933C910D7059BE99A4007EC9BFCE99AE0
:1016EE00F90FD8E0E4C9FAE4CCFB2275F010EF2F25
:1016FE00FFEE33FEED33FDCC33CCC833C810D70725
:10170E009BEC9AE899400AED9BFDEC9AFCE899F85F
:0E171E000FD5F0DAE4CDFBE4CCFAE4C8F922F2
:10172C00EB9FF5F0EA9E42F0E99D42F0E89C45F013
:01173C00228A
:10173D00E8600FECC313FCED13FDEE13FEEF13FF8A
:03174D00D8F122AE
:101750007401FF3395E0FEFDFCA3A3A3E0CF2FF0BF
:10176000E582158270021583E0CE3EF0E582158297
:1017700070021583E0CD3DF0E5821582700215837D
:05178000E0CC3CF0226A
:0C178500ECF0A3EDF0A3EEF0A3EFF022D7
:10179100A8828583F0D083D0821217A81217A812CD
:1017A10017A81217A8E473E493A3C583C5F0C583F2
:1017B100C8C582C8F0A3C583C5F0C583C8C582C8A2
:0117C1002205
:1017C200BB010DE58229F582E5833AF5830217FB19
:1017D2005007E92582F80217F2BBFE07E92582F8D5
:1017E200021804E58229F582E5833AF58302180D91
:10278000022EC2E493A3F8E493A34003F68001F27F
:1027900008DFF48029E493A3F85407240CC8C3335A
:1027A000C4540F4420C8834004F456800146F6DF29
:1027B000E4800B0102040810204080902F05E47E85
:1027C000019360BCA3FF543F30E509541FFEE4931E
:1027D000A360010ECF54C025E060A840B8E493A3E5
:1027E000FAE493A3F8E493A3C8C582C8CAC583CA10
:1027F000F0A3C8C582C8CAC583CADFE9DEE780BEC8
:012F0B0000C5
:0917F200E6FB08E6FA08E6F9221C
:0917FB00E0FBA3E0FAA3E0F922EF
:09180400E2FB08E2FA08E2F92215
:0C180D00E493FB740193FA740293F92237
:00000001FF
