:1031ED003D3D3D3D3D3D3D3D3D3D3D3D3D3D3D3D02
:1031FD003D3D3D3D3D3D3D3D3D3D3D3D3D3D3D3DF2
:10320D003D3D3D3D3D3D3D3D3D3D3D3D3D3D3D3DE1
:10321D003D3D3D3D3D3D3D0A002A2A2A2A2A2A2AC6
:10322D002A2A2A2A2A2A2A2A2A2A2A2A2A2A2042E3
:10323D0075726E20436F64652058202A2A2A2A2A27
:10324D002A2A2A2A2A2A2A2A2A2A2A2A2A2A2A2AD1
:10325D000A002A202020202020202020202020208D
:10326D002020202020202020202020202020202051
:10327D002020202020202020202020202020202041
:10328D0020202020202020202A0A002A2020202053
:10329D0056657273696F6E3A2053444B312E303040
:1032AD002E30302831313A32303A31362041707279
:1032BD00203220203230313529202020202020209E
:1032CD00202A0A002A2020202020417574686F7260
:1032DD003A204C69616F6B657972653C4C69616F21
:1032ED006B6579726540666F786D61696C2E636F81
:1032FD006D3E20202020202020202A0A002A202078
:10330D00417574686F723A204368657272794079BD
:10331D006373656D692E636F6D2E636E20407961E9
:10332D006E6368656E6720636F6D70616E792020C6
:10333D002020202A0A002A2A2A2A2A2A2A2A2A2A48
:10334D002A2A2A2A2A2A2A2A2A2A2A2A2A2A2A2AD0
:10335D002A2A2A2A2A2A2A2A2A2A2A2A2A2A2A2AC0
:10336D002A2A2A2A2A2A2A2A2A2A2A2A2A0A000A1A
:10337D000A0A53797374656D204C6F6164696E67C9
:10338D002E2E2E0A000A0A0A53797374656D204C8D
:10339D006F6164204F6B210A004E6F746963650085
:1033AD00204E4F204D454E55210020565436323576
:1033BD0033382D42310020565436323533382D42B4
:1033CD00320020434F420020464C555348203234A2
:0733DD003032204F4B2100AC
:104D660090046DEFF0A3EDF0A3EBF0900442E09019
:104D76000470F0900443E0F9A3E0FAA3E090047114
:104D8600C9F0A3EAF0A3E9F0900446E0F9A3E0FA3B
:104D9600A3E0900474C9F0A3EAF0A3E9F0900449F3
:104DA600E0F9A3E0FAA3E0900477C9F0A3EAF0A340
:034DB600E9F022FF
:104BE5007BFF7A3179ED12504A7BFF7A32792612B2
:104BF500504A7BFF7A32795F12504A7BFF7A3279CD
:104C05009812504A7BFF7A3279D112504A7BFF7A4B
:104C150033790A12504A7BFF7A32795F12504A7B08
:104C2500FF7A33794312504A7BFF7A3179ED12507E
:104C35004A7BFF7A33797C12504A7BFF7A3379922B
:034C450002504AD0
:104CAA007B017A0479BA9004487404F07F10124F99
:104CBA002974FFFFFEFDFC9004BAE0F8A3E0F9A313
:104CCA00E0FAA3E0FBC3122AA160177FFF7EFF7DF3
:104CDA000F7C009004BAE0F8A3A3A3E0D3122AA1A0
:104CEA00401B900466122AD1000000007B017A045E
:0D4CFA0079669004477404F07F1012519AFF
:014D07002289
:105489001247131250847B01E4FDFF12464E024E6F
:01549900E72B
:10523F00E4F591F592F595F596F5B1F5B2F5B3F56F
:10524F00B4F5C9F5CAF593F59443B4227591FFF5FA
:08525F00925395074396F822D3
:104F680012523F1254CA1254E1125489125500E4E5
:104F780090047AF0900461122AD100000000900495
:104F88005D122AD100000000C2C6D287E490046AEC
:0C4F9800F090046504F0E490046CF0223A
:1044BA00E4900437F0900436F0FF12431602458068
:1044CA00900436E060030245869004C9E060F190EA
:1044DA0004C7E024FD602414603D240270E2E490E5
:1044EA0004C9F090047A04F0900437E070D2900482
:1044FA00657402F090043614F080C5E49004C9F0A3
:10450A0090047A04F0900437E070B5900465740161
:10451A00F0900436F080A9E49004C9F090047A047B
:10452A00F0900437E0709978007C007D017B017A75
:10453A000279007E027F001228739004427420F0F0
:10454A00A374FFF0A37433F0A374A6F0A374FFF06E
:10455A00A37433F0A374ADF0A3E4F0A3F0A3F07B4B
:10456A003CFD7F1E124D667B017A04796D12237120
:0C457A0090046C7401F0124EE70244CA79
:014586002212
:1033E400E4900438F0900437F0900436F07F011232
:1033F40043168077900436E060030235AA9004C92E
:10340400E060F19004C7E024FD603B146070240286
:1034140070E2E49004C9F090047A04F0900437E078
:103424006018A3E0FF14F0EFD3940050037403F08A
:10343400900438E0FF123E4C8031E4900465F09033
:10344400043604F080AEE49004C9F090047A04F0E9
:10345400900437E0601AA3E0FF04F0EFC394034044
:1034640002E4F0900438E0FF123E4C124EE78084F0
:103474009004657402F090043614F00233F8E4907A
:1034840004C9F090047A04F0900437E07003023524
:1034940096A3E0B4030A1250849004367401F02217
:1034A400900438E0703178007C007D017B017A0261
:1034B40079007E02FF1228739004427420F0A374F2
:1034C400FFF0A37433F0A374A6F0A374FFF0A37405
:1034D40033F0A374B78070900438E06401703178DD
:1034E400007C007D017B017A0279007E02FF1228B4
:1034F400739004427420F0A374FFF0A37433F0A318
:1035040074A6F0A374FFF0A37433F0A374C38037DC
:10351400900438E06402705178007C007D017B01E6
:103524007A0279007E02FF1228739004427420F01C
:10353400A374FFF0A37433F0A374A6F0A374FFF094
:10354400A37433F0A374CFF0A3E4F0A3F0A3F07B4F
:1035540050FD7F14124D667B017A04796D1223713C
:1035640090046C7401F0124EE7125084900438E019
:10357400FF90046BF0FB900461122AD1000000005C
:1035840090045D122AD100000000AF031238F50246
:1035940033F8125084E4FF123E4C124EE790043785
:0635A4007401F00233F88F
:0135AA0022FE
:1043EA00E4900437F0900436F07F02124316024438
:1043FA00B3900436E060030244B99004C9E060F166
:10440A009004C7E024FD602314603C240270E2E4B7
:10441A009004C9F090047A04F0900437E070D290C6
:10442A0004657401F0900436F080C6E49004C9F083
:10443A0090047A04F0900437E070B6E4900465F0D2
:10444A0090043604F080AAE49004C9F090047A0437
:10445A00F0900437E0709A1254BB78007C007D011A
:10446A007B017A0279007E027F001228739004424F
:10447A007420F0A374FFF0A37433F0A374A6F0A31E
:10448A0074FFF0A37433F0A374D4F0A3E4F0A3F0A0
:10449A00A3F07B64FD7F0A124D667B017A04796D75
:0F44AA0012237190046C7401F0124EE70243FB71
:0144B90022E0
:0100060022D7
:104FE000124F68D2C1124BE5D2AFC2C19004661213
:104FF0002AD100000001125084900465E014600C76
:1050000014600E240270F21244BA80ED1233E48070
:06501000E81243EA80E310
:02526700C18004
:075509000000007F18DFFE27
:015510002278
:05000E00120013D2A155
:070013000000007F0ADFFE80
:01001A0022C3
:0A54D60000007F6C7E90DEFEDFFC1C
:0154E00022A9
:10531C00125509D2A1125509D2A2125509A2A28284
:0F532C00A1500AC2A2125509C2A1025509C322FB
:1054AB00125509C2A2125509D2A1125509D2A22234
:0C4FA400AC0712531C7FA0124FB0AF04EA
:024FB000AE074A
:104FB200E4FD120013EE30E704D2A28002C2A21274
:104FC200000EC2A1EE25E0FE0DEDB408E5120013BD
:0D4FD200D2A212000EA2A29200C2A1A20063
:014FDF0022AF
:02514000AE07B8
:10514200E4FD120013D2A2FCED25E0FD12000E30A8
:10515200A2010DC2A10CECB408EE120013D2A2EE11
:0B5162006002C2A212000EC2A1AF0545
:01516D00221F
:10540A00AC05AB0712531C7FA0124FB0AF03124F6B
:07541A00AB1254AB0254D6A3
:10519A00124FA4900447E0FF14F0EF60161228990A
:1051AA00FF124FB0740129F9E43AFA0CECC394FFE8
:0A51BA0040E1221254AB1254D62239
:1053C200124FA412531C7FA1124FB0E4FF1251409E
:0753D200AE071254ABAF0659
:0153D90022B1
:104F2900AC07900448E06036124FA612531C7FA1CB
:104F3900124FB0E014F0900448E0FF14F0EF601253
:104F49007F01125140EF1228DF740129F9E43AFA7E
:0F4F590080E4E4FF125140EF1228DF1254AB2224
:0E54BB00E4FAAF02E4FD12540A0AEAB4FFF468
:0154C90022C0
:054EA20090043FEFF059
:104EA70070107B017A0479409004487404F0E4FFA1
:104EB700801C90043FE07B017A047940900448B459
:104EC70001077404F07F0880057404F07F16124F01
:0F4ED70029900440E0FCA3E0FDA3E0FEA3E0FF70
:014EE60022A9
:054B680090043FEFF096
:104B6D00ED7031E070107B017A0479409004487447
:104B7D0004F07F24805090043FE07B017A0479405B
:104B8D00900448B401077404F07F4080397404F038
:104B9D007F56803290043FE070107B017A0479409B
:104BAD009004487404F07F32801C90043FE07B0138
:104BBD007A047940900448B401077404F07F48806A
:104BCD00057404F07F64124F29900440E0FCA3E0CB
:074BDD00FDA3E0FEA3E0FFD1
:014BE40022AE
:10002600312E565436323533382D423100322E5663
:100036005436323533382D423200332E434F420088
:10004600342E52455455524E00534144443A0052C0
:100056004144443A000000000000000000005F0038
:100066000000000700070000147F147F1400242AF4
:100076007F2A120023130864620036495522500075
:10008600000503000000001C224100000041221C64
:10009600000014083E08140008083E080800005036
:1000A6003000000008080808080000606000000032
:1000B6002010080402003E5149453E0000427F40A0
:1000C60000004261514946002141454B3100181458
:1000D600127F10002745454539003C4A4949300002
:1000E600017109050300364949493600064949297F
:1000F6001E000036360000000056360000000814C8
:1001060022410000141414141400004122140800A3
:10011600020151090600324979413E007E11111152
:100126007E007F49494936003E41414122007F41D8
:1001360041221C007F49494941007F090909010004
:100146003E4149497A007F0808087F0000417F4107
:1001560000002040413F01007F08142241007F40FB
:10016600404040007F020C027F007F0408107F00A1
:100176003E4141413E007F09090906003E415121A9
:100186005E007F09192946004649494931000101A7
:100196007F0101003F4040403F001F2040201F00DC
:1001A6003F4038403F006314081463000708700896
:1001B6000700615149454300007F414100000204A8
:1001C600081020000041417F0000040201020400E3
:1001D60040404040400000010204000020545454B6
:1001E60078007F484444380038444444200038446A
:1001F60044487F00385454541800087E0901020010
:100206000C5252523E007F080404780000447D40A0
:1002160000002040443D00007F10284400000041BB
:100226007F4000007C04180478007C0804047800F1
:100236003844444438007C14141408000814141874
:100246007C007C0804040800485454542000043FF1
:10025600444020003C4040207C001C2040201C00E4
:100266003C4030403C004428102844000C5050507C
:100276003C004464544C4400000836410000000031
:100286007F00000000413608000010080810080032
:100296000000000000000000000000000000003F19
:1002A6004000000000000000003000400030004028
:1002B60000000009000BC03D000BC03D00090018FE
:1002C600C024407FE0224031800000180024C01B7B
:1002D600000D803240018003801C4027401C8007AF
:1002E6004000401000600000000000000000000018
:1002F60000000000001F8020404020000040202019
:10030600401F8000000000090006001F800600094B
:10031600000000040004003F800400040000000008
:10032600100060000000000000000004000400044B
:10033600000400040000000000004000000000006F
:10034600000000002001C006003800400000001F29
:10035600802040204020401F800000000010403FC9
:10036600C000400000000018C02140224024401870
:1003760040000010802040244024401B80000002E2
:10038600000D0011003FC0014000003C80244024C5
:10039600402440238000001F802440244034400332
:1003A6008000003000200027C03800200000001B1D
:1003B600802440244024401B8000001C0022C022D0
:1003C6004022401F8000000000000008400000009E
:1003D60000000000000000046000000000000000B3
:1003E6000004000A001100208040400900090009AD
:1003F6000009000900000000004040208011000AAA
:100406000004001800200023402400180000001FEC
:10041600802040274029401F400000004007C03987
:10042600000F0001C0004020403FC0244024401B74
:100436008000001F802040204020403080000020A7
:10044600403FC0204020401F80000020403FC02485
:10045600402E4030C0000020403FC024402E0030D7
:100466000000000F00108020402240338002002050
:10047600403FC0040004003FC02040204020403FD1
:10048600C02040204000000060202020203FC020E7
:1004960000200020403FC024400B0030C0204020F8
:1004A600403FC020400040004000C03FC03C000329
:1004B600C03C003FC0000020403FC00C4023003F2E
:1004C600C020001F802040204020401F80000020C8
:1004D600403FC024402400180000001F8021402116
:1004E6004020E01FA0000020403FC0244026001905
:1004F600C0004018C0244024402240318000003013
:100506000020403FC020403000000020003F800017
:100516004000403F80200020003E0001C007003818
:10052600002000380007C03C0007C038000000204B
:100536004039C0060039C02040000020003840077E
:10054600C0384020000000304021C02640384020FE
:10055600C00000000000007FE040204020000000B6
:100566000070000C000380004000000000402040A6
:10057600207FE00000000000002000400020000076
:100586000000000010001000100010001000100005
:10059600000000400000000000000000000280058E
:1005A60040054003C0004020003FC0044004400313
:1005B6008000000000038004400440064000000064
:1005C600000380044024403FC00040000003800533
:1005D60040054003400000000004401FC0244024A2
:1005E600402000000002E00550055006500420207F
:1005F600403FC00440040003C00040000004402700
:10060600C000400000000000100010041027E000A9
:1006160000000020403FC00140070004C004402005
:100626004020403FC000400040000007C0040007D3
:10063600C0040003C00000044007C00440040003D7
:10064600C000400000038004400440038000000412
:100656001007F004500440038000000000038004EB
:1006660040045007F00010044007C0024004000494
:10067600000000000006400540054004C0000000E0
:100686000004001F800440004000000400078000B2
:1006960040044007C000400400070004C001800673
:1006A600000400060001C0070001C00600000004A7
:1006B6004006C0010006C0044000000410071004F4
:1006C600E00180060004000000044005C006400466
:1006D6004000000000000004007BE0402000000015
:1006E6000000000000FFF000000000000040207B3A
:1006F600E0040000000000400080004000200020D0
:1007060000400000000000000000000000000000A3
:100716000000000000000000001FCC000C000000DC
:100726000000000000080030006000080030006093
:10073600000000022003FC1E20022003FC1E2002F3
:1007460020000000000E1811043FFF10840C7800F2
:100756000000000F0010840F3800C00778188400CE
:1007660078000000780F8410C411240E9800E4006D
:100776008400080800680070000000000000000007
:1007860000000000000000000007E01818200440E8
:10079600020000000040022004181807E0000000D4
:1007A6000000000240024001800FF001800240027A
:1007B6004000000080008000800FF800800080006C
:1007C6008000000001000D000E0000000000000087
:1007D6000000000000008000800080008000800093
:1007E6008000800000000C000C00000000000000EB
:1007F60000000000000006001800600180060018D6
:10080600002000000007F00808100410040808077C
:10081600F000000000080408041FFC0004000400A7
:1008260000000000000E0C10141024104411840E59
:100836000C000000000C1810041104110412880C9E
:10084600700000000000E00320042408241FFC00C0
:1008560024000000001F9810841104110410881051
:10086600700000000007F0088811041104188800C1
:1008760070000000001C00100010FC13001C00108B
:1008860000000000000E3811441084108411440E3C
:1008960038000000000700088C1044104408880740
:1008A600F00000000000000000030C030C00000034
:1008B600000000000000000001010600000000002A
:1008C600000000000000800140022004100808100B
:1008D6000400000220022002200220022002200240
:1008E6002000000000100408080410022001400047
:1008F60080000000000E001200100C106C10800F1B
:1009060000000003E00C1813E4142417C408280799
:10091600D000000004003C03C41C40074000E40073
:100926001C000410041FFC1104110411040E88009D
:1009360070000003E00C1810041004100410081CCA
:1009460010000010041FFC1004100410040808070F
:10095600F0000010041FFC1104110417C410040851
:1009660018000010041FFC1104110017C010000825
:1009760000000003E00C181004100410441C78005A
:1009860040000010041FFC10840080008010841FAB
:10099600FC10040000100410041FFC1004100400D6
:1009A60000000000030001100110011FFE100010DE
:1009B60000000010041FFC110403801464181C10AE
:1009C60004000010041FFC100400040004000400CE
:1009D6000C000010041FFC1F0000FC1F001FFC1071
:1009E60004000010041FFC0C04030000E010181F94
:1009F600FC100007F008081004100410040808078B
:100A0600F0000010041FFC10841080108010800F6E
:100A160000000007F0081810241024101C080A070C
:100A2600F2000010041FFC1104110011C011300E59
:100A36000C000400000E1C11041084108410441CC9
:100A46003800001800100010041FFC1004100018D5
:100A560000000010001FF810040004000410041F1A
:100A6600F8100010001E0011E0001C007013801C1E
:100A76000010001FC0103C00E01F0000E0103C1FEB
:100A8600C000001004180C163401C001C01634183A
:100A96000C100410001C00130400FC13041C0010AE
:100AA6000000000804101C1064108413041C0410B9
:100AB6001800000000000000007FFE4002400240D7
:100AC600020000000030000C0003800060001C00E3
:100AD60003000000004002400240027FFE000000CA
:100AE6000000000000000020004000400040002000
:100AF60000000000010001000100010001000100EA
:100B0600010001000040004000200000000000003D
:100B16000000000000009801240144014401440043
:100B2600FC000410001FFC0088010401040088007A
:100B36007000000000007000880104010401040038
:100B46008800000000007000880104010411081FDD
:100B5600FC0004000000F801440144014401440083
:100B6600C800000000010401040FFC110411041167
:100B7600001800000000D601290129012901C90138
:100B860006000010041FFC0084010001000104009F
:100B9600FC000400000104190419FC000400040010
:100BA6000000000000000300010101190119FE0008
:100BB60000000010041FFC0024004001B4010C01D9
:100BC6000400000000100410041FFC0004000400D0
:100BD600000000010401FC0104010001FC01040104
:100BE6000000FC010401FC00840100010001040076
:100BF600FC0004000000F8010401040104010400E3
:100C0600F80000010101FF008501040104008800CD
:100C16007000000000007000880104010401050155
:100C2600FF00010104010401FC008401040100012C
:100C3600800000000000CC012401240124012401CD
:100C460098000000000100010007F80104010400FB
:100C5600000000010001F80004000400040108017E
:100C6600FC0004010001800170000C00100160010D
:100C760080010001F0010C003001C00030010C01C0
:100C8600F0010000000104018C00740170018C0168
:100C9600040000010101810171000E0018016001CC
:100CA60080010000000184010C013401440184012B
:100CB6000C0000000000000000000001003EFC40A7
:100CC6000240020000000000000000FFFF000000DC
:100CD6000000000000400240023EFC01000000004F
:100CE60000000000006000800080004000400020FE
:100CF60000200040107FF84910491049207FFF4826
:100D0600A088814882388C0FF01888E884488308C8
:100D1600820000008041004FFC7210421043F9002F
:100D2600014FF2480458186BE0481048084FE64057
:100D36000300000080010006001FFFE00050801441
:100D46008014801480FFFF14801484148214FC0025
:100D560000000000040804060401C40084FFFC002F
:100D66000400040004FFFC0044018406041C0C0873
:100D7600040000000000001FF012201220122012B2
:100D860020FFFC12221222122212221FF20002005F
:100D96000E000000800080408040804080408240FD
:100DA6008147FE488050806080408000800180003E
:100DB6008000000820484049804E007FFF8A008955
:100DC6002000204420334000400040FFFF00800008
:100DD600800000108010821101FFFE120014020034
:100DE60002130412C81230FE301248138412061081
:100DF60004000000000002000200020002000200DF
:100E0600027FFE0202020202020202020200060043
:100E1600020000000040004000400040004000404A
:100E2600007FFE44004600438041004000C0004071
:100E3600000000420842087FF04211429207040077
:100E460018FFE00004420442047FFC4204420442CC
:100E560004000002004200320023FE00044408554C
:100E6600FF55505550FD505552555155FE440004FE
:100E76000000000000010107027904111811E011B9
:100E860000FF00110011FC11021102110201020003
:100E96000E00000020802080209FFF92209220924A
:100EA60020FFE09220922292219FFE802080200047
:100EB6002000000040008151014A0146F55A936224
:100EC600910291E2911A9326F54A011301218101BB
:100ED6000000007FFF40004840542063C0113E11CF
:100EE6000411041104FFFC110411041104113E0144
:100EF60000000000101110111011101110FFFF005A
:100F06000000000000FFFF11101110111011101049
:100F160010000008200620807F6180060210021063
:100F260082108290827FFE108210821082108210C0
:100F36000200000202020CFFF082048202FFFC02A1
:100F46000202040218FFE082048202FFFC02000291
:100F560000000000010002000C7FF04440444044C1
:100F66004044407FFF44404440444244417FFE00A9
:100F760000000000010002000C1FF011001100111A
:100F8600009100510071001100110011001F0000B6
:100F9600000000FFFFFFFF800000018000000186C7
:100FA6000000018F0000018F803E0187C07F75839E
:100FB600E0735581F0F35580F9FF55807FFF5D8022
:100FC6003FFE01801FFC01801FF87D83FFF8558FCF
:100FD600FFF0559FFFE055BFFFE055BFFFFC01BC8A
:100FE6003F3E01B81F3F41B01F3F41801F1F7D801C
:100FF6001F0E41803E0041807E000180FC00018181
:10100600FC000181F000018000000180000001FF6A
:10101600FFFFFFFFFFFFFF8000000180000001804F
:1010260000000180000001800000018004000180B2
:101036000C007D800C0045801C0145801C0345800A
:101046003C0701807C0E01807C1C7D80FC3C058178
:10105600FC780581FCF07D83DDE001879FC0018778
:101066001F80418E1F00419C1E007DB81C0041B0B0
:10107600180041A0180001801000018000000180C6
:10108600000001800000018000000180000001FFD7
:10109600FFFFFFFFFFFFFF800000018000000180CF
:1010A6000000018000000180000001801F00018017
:1010B6003F807D80FFE05181E1F05983C0F82587AC
:1010C600807C0187003C018E001E758E000E558EB9
:1010D600000E558E00065D8F000201878002018793
:1010E600C0004183E8004181E8007D80F80041802E
:1010F60038004180F8000180000001800000018076
:10110600000001800000018000000180000001FF56
:10111600FFFFFF0000000000000000080000000CB8
:101126000030000E00300007003000038030000160
:10113600C0300000C03000001FFFFE007FFFFE0031
:10114600F0000001C0000003803000070030000EF0
:101156000030000C003000080030000000000007DE
:10116600FF3C3C0FFFFC3E0E03F81E0C01F00E0C7C
:1011760001F00E0C01F00E0C01F00E0C01F00E0C3D
:1011860001F00E0C01F00E0C01F81E0E03FFFE0F0F
:101196008FFFFE078F3FFC000000000000000000EC
:1011A6000000000000000000000000000000000039
:1011B6000000000000000000000000000000000029
:1011C6000000000000000000000000000000000019
:1011D600204000002180000027FE00003A080000A1
:1011E6002208000023FC0000010100004106000067
:1011F6007FF80000410000004100000041000000AF
:101206007FFF000041000000010000000000000018
:1012160000010000000600001FF800001100000099
:10122600110800001104000011F800001001000070
:1012360010020000FF8400001068000090180000F3
:101246005064000013820000101F00000000000020
:101256002410000024600000258000007FFF0000AD
:10126600C50000004480000000200000442000006B
:10127600332000000020000000200000FFFF0000D7
:101286000040000000400000004000000000000098
:10129600082000000822000008410000FFFE0000B0
:1012A6000880000009010000100100001102000082
:1012B60011C2000011340000FF08000011140000E4
:1012C6001162000011810000100100000000000002
:1012D6000000000000000000000000000000000008
:1012E60000000000000000000000000000000000F8
:1012F60000000000000000000000000000000000E8
:1013060000000000000000000000000000000000D7
:03131600000000D4
:10516E00EF540FC454F0FEEF54F0C4540F4EFF54DE
:10517E003325E025E0FEEF54CC1313543F4EFF547D
:0C518E005525E0FEEF54AAC3134EFF228B
:1053A800EF4E60157D087C07ED1DAA0470011C4AAC
:0953B80070F6EF1F70EA1E80E799
:0153C10022C9
:1051C400ED6004D2A58002C2A5C2A3E4FEC2A6EF8C
:1051D40030E704D2A78002C2A7D2A6EF25E0FF0ED3
:0851E400EEB408E9D2A3D2A544
:0151EC0022A0
:1052FC00AC07ED24B0FFE4FD1251C4EC54F0C454DF
:10530C000F4410FF1251C4EC540F4401FF0251C45E
:104EE700E4FCEC24B4FFE4FD1251C47F041251C466
:104EF7007F101251C4E4FB75F004EBA42400F58283
:104F0700E5F03402F583E5822CF582E43583F583F9
:104F1700E0FF7D011251C40BEBB480DB0CECB40451
:014F2700C1C8
:014F28002266
:07507D00E490044DF0A3F0E4
:10508400E4FFE4FE75F004EEA42400F582E5F034B8
:1050940002F583E5822FF582E43583F583E4F00E8F
:0950A400EEB480E00FEFB404D972
:0150AD0022E0
:0B487000FFA3E0C399FD9004B4E0FB3F
:10487B00E490045CF0EFD3947F4003024916ED946F
:10488B003F4003024916ED131313541FFEC3740765
:10489B009E90045BF0ED5407FEC374079EFE7401FB
:1048AB00A806088002C333D8FC90045CF0EB90049C
:1048BB005B602AE0FE75F004EFA42400F582E5F0BE
:1048CB003402F583E5822EF582E43583F583C083CC
:1048DB00C082E0FF90045CE0FEEF4E8029E0FE75A5
:1048EB00F004EFA42400F582E5F03402F583E582B1
:1048FB002EF582E43583F583C083C082E0FF9004FC
:0B490B005CE0F4FEEF5ED082D083F091
:01491600227E
:0C3A8000FBED2409900450F0A37401F049
:0C3A8C0090044DEFF0A90590044FEBF002
:103A9800E9FFA3E0C39FFEE49400900452F0A3CE94
:103AA800F090044DE0FFC3EB9FFEE49400900454B3
:103AB800F0A3CEF0900452E0FEA3E0FFC3EE6480D2
:103AC80094805015C3E49FFFE49E900452F0A3EF46
:103AD800F090045774FFF080069004577401F0903A
:103AE8000454E0FEA3E0FFC3EE648094805013C347
:103AF800E49FFFE49E900454F0A3EFF0A374FFF05A
:103B080080069004567401F090044DE0FFAD0190DA
:103B18000451E0FB12487B900452E0FEA3E0FFA3AF
:103B2800E0FAA3E0FBD39FEE6480F8EA6480984053
:103B380059EAA2E713EB13FF900452A3E0C39FFCDA
:103B480090044FE0FF90044DE06F7003023BE5C323
:103B5800EC648094804010900457E029F990045454
:103B6800A3E0FFC3EC9FFC900456E0FF90044DE0F7
:103B78002FF0900452A3E02CFC90044DE0FFAD011F
:103B8800900451E0FB12487B80B6900452E0A2E713
:103B980013A3E013FFA3A3E0C39FFC900450E069C4
:103BA800603BC3EC648094804015900456E0FF901D
:103BB800044DE02FF0900452A3E0FFC3EC9FFC906B
:103BC8000457E029F9900454A3E02CFC90044DE03C
:0D3BD800FFAD01900451E0FB12487B80BE60
:013BE50022BD
:10501600FD9000021228B22F14FB9004517401F087
:06502600AC07AA03A90576
:10502C00ECD39A4006AF02AA04AC07AF04AD0190D2
:0D503C000451E0FB12487B0CEAC39C50EECF
:015049002244
:0652B500AC05AA03A907E5
:1052BB00ECD39A4006AF02AA04AC07AF01AD049041
:0D52CB000450E0FB12487B0CEAC39C50EE3F
:0152D80022B3
:104D0800900448EFF0A3EDF0A3EBF090044CE09092
:104D18000451F0125026900448E0FF90044BE0FD47
:104D280090044AE0FB90044CE0900451F0125026A5
:104D3800900448E0FFA3E0FD90044BE0FBA3E09063
:104D48000450F01252B590044AE0FF900449E0FD87
:0E4D580090044BE0FBA3E0900450F00252B533
:0F491700900449EDF0900448EFF090044AEBF063
:10492600EFD39B4016900448E0FF90044DF09004AE
:104936004AE0900448F090044AEFF090044BE0FF00
:10494600900449E0FED39F400F90044DEEF0900492
:1049560049EFF090044BEEF090044BE0FF900449D1
:10496600E0FDB50715900448E0FF90044AE0FB908F
:10497600044CE0900451F002502690044AE0FF9067
:104986000448E06F602B90044BE0FF900449E0FD83
:10499600D39F501D900448E0FF90044AE0FB90042A
:1049A6004CE0900451F0125026900449E004F08047
:0149B600D52B
:0149B70022DD
:104DB9009004BEEFF0AE03A905EE6043EEFD90044A
:104DC900BEE02DFDE433FCD3ED9480EC6480948047
:104DD900502DEEFDE92DFDE433FCD3ED9420EC6478
:104DE900809480501A9004BEE0FFAD012EFBE92E9D
:104DF90090044BF09004C1E090044CF0124D08224D
:104E09009004C2EFF0AE03A905EE6043EEFD9004F5
:104E1900C2E02DFDE433FCD3ED9480EC64809480F2
:104E2900502DEEFDE92DFDE433FCD3ED9420EC6427
:104E3900809480501A9004C2E0FFAD012EFBE92E48
:104E490090044BF09004C5E090044CF012491722ED
:0E414B0090049BEBF0A3EAF0A3E9F0A3EDF0E3
:10415900700302423490049EE0B4013590049BE060
:10416900FBA3E475F00112296EA9F0FA12289990BF
:1041790004A0F090049BE0FBA3E0FAA3E0F9122865
:1041890099FC9004A0E0FFAD0490049FE0FB124865
:104199007B90049BE0FBA3E475F00112296EA9F062
:1041A900FA1228999004A0F090049BE0FBA3E4750F
:1041B900F00112296EA9F0FA122899FC9004A3744F
:1041C90001F090049EE0FF9004A3E0C39F505C902F
:1041D900049BE0FBA3E475F00112296EA9F0FA1221
:1041E90028999004A1F090049BE0FBA3E475F001E9
:1041F90012296EA9F0FA1228999004A2F09004A04D
:10420900E0FFAD04A3E0FBA3E0900450F090049F0D
:10421900E0900451F0123A8C9004A1E09004A0F0CF
:0B4229009004A2E0FCA3E004F08097EA
:014234002267
:0847C7009004B0EFF0A3EDF047
:1047CF00E4FCAF03A907EF25E0FFC374039FFAECE6
:1047DF00D399400302486F9004B0E02CFFA3E02967
:1047EF001248759004B0E02C1248709004B0E0C3EA
:1047FF009CFFA3E0291248759004B0E0C39C1248B7
:10480F00709004B0E029FFA3E02C1248759004B01B
:10481F00E029FFA3E0C39C1248759004B0E0C39950
:10482F00FFA3E02C1248759004B0E0C399FFA3E0FA
:10483F00C39C124875C3EA64809480500FAF040C78
:10484F00EF25E025E024062AFA0247DEAF0119AE74
:10485F00040CC3EE9F25E025E0240A2AFA0247DE66
:01486F002226
:0B23710090043FEBF0A3EAF0A3E9F0BA
:10237C009000021228B2FEC39414401690043FE061
:10238C00FBA3E0FAA3E0F99000031228B2C3941463
:10239C0050037F0022EEFF1228992FFFE433FED367
:1023AC00EF9480EE6480948040037F002290043F81
:1023BC00E0FBA3E0FAA3E0F99000031228B2FF902F
:1023CC0000011228B22FFFE433FED3EF9420EE6409
:1023DC0080948040037F002290043FE0FBA3E0FA4E
:1023EC00A3E0F9122899FCFFC0079000011228B253
:1023FC00FD9000021228B22C14FBC00390043FE0A5
:10240C00FB9000031228B2FF9000011228B22F1487
:10241C0090044BF0E4A3F0D003D0071249179004BA
:10242C003FE0FBA3E0FAA3E0F9122899FCFFC007F8
:10243C009000011228B2FD9000021228B22C14FB5D
:10244C00C00390043FE0FB9000031228B2FF900001
:10245C00011228B22F1490044BF0A37401F0D00396
:10246C00D007124D0890043FE0FBA3E0FAA3E0F97B
:10247C00122899FF9000011228B2240912501690CC
:10248C00043FE0FBA3E0FAA3E0F99000021228B2AB
:10249C00FF1228992F24F6FF9000011228B2FD2478
:1024AC0009FB9004507401F01252B590043FE0FB0C
:1024BC00A3E0FAA3E0F99000021228B2FF122899C7
:1024CC002FFE24F6FF9000011228B2FDEE14123AF2
:1024DC008090043FE0FBA3E0FAA3E0F99000021225
:1024EC0028B2FF1228992FFE14FF9000011228B277
:1024FC00FDEE24F6123A8090043FE0FBA3E0FAA331
:10250C00E0F9900004122B02E94A70030225CB90EB
:10251C00043FE0FBA3E0FAA3E0F9900004122B02C5
:10252C00900442EBF0A3EAF0A3E9F090043FE0FB47
:10253C00A3E0FAA3E0F9122899FF2402900445F0D5
:10254C009000011228B204900446F0900002122868
:10255C00B22F14900447F0900445E0FF3395E0FE51
:10256C00EF2408FFE43EFE900447E0FD3395E0FCC9
:10257C00D3EF9DEC6480F8EE648098504290044256
:10258C00E0FBA3E0FAA3E0F912289960329004452D
:10259C00E0FFA3E0FD900442E0FBA3E475F0011220
:1025AC00296EA9F0FA122899FB9004577407F0A32E
:1025BC007401F0124068900445E02406F080989075
:1025CC00043FE0FBA3E0FAA3E0F9900007122B0212
:1025DC00E94A700302269490043FE0FBA3E0FAA3BF
:1025EC00E0F9900007122B02900442EBF0A3EAF002
:1025FC00A3E9F090043FE0FBA3E0FAA3E0F9122872
:10260C0099FF2402900445F09000011228B2240C8A
:10261C00900446F09000021228B22F14900447F058
:10262C00900445E0FF3395E0FEEF2408FFE43EFE06
:10263C00900447E0FD3395E0FCD3EF9DEC6480F80B
:10264C00EE6480985042900442E0FBA3E0FAA3E0D1
:10265C00F91228996032900445E0FFA3E0FD900444
:10266C0042E0FBA3E475F00112296EA9F0FA1228DE
:10267C0099FB9004577407F0A37401F01240689012
:10268C000445E02406F0809890043FE0FBA3E0FAB8
:10269C00A3E0F990000A122B02E94A70030227A06A
:1026AC0090043FE0FBA3E0FAA3E0F99000031228AA
:1026BC00B2C3941950037F002290043FE0FBA3E0C7
:1026CC00FAA3E0F9122899FF9000031228B2FE90A9
:1026DC0000011228B22E24F612501690043FE0FB93
:1026EC00A3E0FAA3E0F990000A122B02900442EB4B
:1026FC00F0A3EAF0A3E9F090043FE0FBA3E0FAA317
:10270C00E0F9122899FF2403900445F0900003127D
:10271C0028B2FE9000011228B22E24F7900446F045
:10272C009000021228B22F14900447F0900445E058
:10273C00FF3395E0FEEF2408FFE43EFE900447E0F3
:10274C00FD3395E0FCD3EF9DEC6480F8EE6480984B
:10275C005042900442E0FBA3E0FAA3E0F91228995E
:10276C006032900445E0FFA3E0FD900442E0FBA33F
:10277C00E475F00112296EA9F0FA122899FB900465
:10278C00577407F0A37401F0124068900445E024DC
:06279C0006F080987F01A9
:0127A2002214
:075110009004B6EDF0A903C5
:10511700AC07ECD399501F9004B6E0FA9004B8E0BE
:10512700FFEAD39F500DAF04AD02A3E0FB12487B0B
:095137000A80E90C80DC024EE75D
:10405600FFA3E02408FD9004577407F0A37401F051
:024066007B2DB0
:0C406800900454EFF0900456EBF0A90512
:1040740090045AE9F0900456E024E0F0E4FC900443
:1040840057E0FFECC39F400302414AEFB407299075
:104094000456E075F006A4245BF582E5F03400F5DF
:1040A40083E5822CF582E43583F583E493FF125192
:1040B4006E900459EFF08038900457E0900456B4A1
:1040C4000C0FE075F00CA42495F582E5F034028021
:1040D4000DE075F010A42409F582E5F03407F583AA
:1040E400E5822CF582E43583F583E493900459F05A
:1040F400E4FA900459E030E70E900454E0FFAD0177
:10410400900458E0FB8013900454E0FFAD01900448
:1041140058E070047B0180027B0012487B900459B4
:10412400E025E0F009A3E0FFC3E99FFE900457E017
:10413400B5060AA907900454E004F080050AEAB41D
:0641440008B00C024082ED
:01414A002252
:084E59009004A4EFF0A3EDF0BA
:104E6100A3122AD1000000019004A5E0FF14F0EF85
:104E71006020A3E0F8A3E0F9A3E0FAA3E0FB90042B
:104E8100A4E0FFE4FCFDFE1229849004A6122AC5C9
:104E910080D69004A6E0FCA3E0FDA3E0FEA3E0FF22
:014EA10022EE
:08458700900490EFF0A3EDF0A9
:10458F00E490049AF0900498F0900496E0FF900461
:10459F0098E0FEC39F400302464DC3EF9E14FD7F7C
:1045AF000A124E59A804A905AA06AB07900492E077
:1045BF00FCA3E0FDA3E0FEA3E0FF122A0FE47B0AB9
:1045CF00FAF9F8122A0F900499EBF0A3E0703A90E1
:1045DF000496E014FF900498E0FEC39F502BA3E0D5
:1045EF007021900497E0FCC3138EF0A4FF90049009
:1045FF00E02FFFA3E0FD900457ECF0A37401F07BD4
:10460F0020802F90049A7401F0900497E0FEC3135A
:10461F00FFA3E0FDEF8DF0A4FF900490E02FFFA328
:10462F00E0FD900499E02430FB900457EEF0A37462
:0E463F0001F0124068900498E004F0024598E3
:01464D00224A
:103D29007BFF7A007940900452740CF0A37401F07F
:043D3900E4FD7F4ED8
:103D3D0090044DEFF0A3EDF0A3EBF0A3EAF0A3E9AF
:103D4D00F090044FE0FBA3E0FAA3E0F9122899707C
:103D5D0003023E4B900452E06410704C90044DE011
:103D6D00D3947A4007E4F0A3E02410F090044EE0E1
:103D7D00D39420400312507D90044DE0FFA3E0FD4D
:103D8D00A3E0FBA3E0FAA3E0F9122899FB900457F6
:103D9D007410F0900453E0900458F01240689004B1
:103DAD004DE02408F0023E3E900452E0640C703861
:103DBD0090044DE0D3947A4007E4F0A3E02410F092
:103DCD0090044EE0D39420400312507D90044DE0BA
:103DDD00FFA3E0FDA3E0FBA3E0FAA3E0F91228990D
:103DED00FB900457740C803690044DE0D3947A40C8
:103DFD0007E4F0A3E02410F090044EE0D3942040AB
:103E0D000312507D90044DE0FFA3E0FDA3E0FBA362
:103E1D00E0FAA3E0F9122899FB9004577407F0908B
:103E2D000453E0900458F012406890044DE02406CD
:0F3E3D00F0900450E475F001122958023D4E2216
:0C4A4E009004AAEFF09004ACEBF0A90576
:104A5A009004AFE9F0E4FCECC394109004ACE07568
:104A6A00F020A424F9F582E5F0340CF583E5822CD4
:104A7A00F582E43583F583E4939004AEF0E4FA908A
:104A8A0004AEE030E70E9004AAE0FFAD019004AD59
:104A9A00E0FB80139004AAE0FFAD019004ADE07042
:104AAA00047B0180027B0012487B9004AEE025E083
:104ABA00F009A3E0FFC3E99FFEBE100AA90790040C
:104ACA00AAE004F080050AEAB408B40CEC64207089
:014ADA008655
:014ADB0022B8
:09464E00900436EBF0AC05A9075D
:10465700ECFF90043DE4F0A3EFF0E4900439F0A3FD
:10466700F0900439E0FEA3E0FFC3EE94024003029A
:10467700471274192FF58274113EF583E493FF9066
:104687000437E4F0A3EFF0E490043BF0A3F09004C8
:1046970038E030E70BAF01AD04900436E0FB801043
:1046A700AF01AD04900436E070047B0180027B000B
:1046B70012487B900438E025E0F0900437E033F0AF
:1046C7000CECFF90043DE0FAA3E0FBC3EF9BFFE493
:1046D7009AFEEF64204E7005AC0309801D90043CE0
:1046E700E004F0700690043BE004F0C390043CE063
:1046F700940890043BE09400409490043AE004F05E
:0B4707007006900439E004F0024668E0
:014712002284
:103F5D0090043D74FFF0A37410F0A37419F07B016D
:043F6D00E4FD7F30C0
:0F3F710090043AEFF090043CEBF090043BEDF03D
:103F8000FF900446E4F0A3EFF0E4900442F0A3F0C5
:103F900090043DE0FBA3E0FAA3E0F9122899FF901A
:103FA0000440E4F0A3EFF090043EE475F001122920
:103FB00058E4900444F0A3F0900441E030E70D9001
:103FC000043AE0FFA3E0FDA3E0FB801290043AE096
:103FD000FFA3E0FDA3E070047B0180027B00124898
:103FE0007B900441E025E0F0900440E033F0900441
:103FF0003BE004F0E0FF900446E0FCA3E0FDC3EFEB
:104000009DFFE49CFEEF64204E700D90043BEDF0AC
:1040100090043AE004F0801D900445E004F070063E
:10402000900444E004F0C3900445E09408900444F4
:10403000E094004083900443E004F0700690044252
:10404000E004F0C3900443E09480900442E09400C4
:054050005003023F9047
:014055002248
:10431600900439EFF0900457740CF0A37401F07B0D
:104326003C7D0BE4FF124068900457740CF0A374B4
:1043360001F07B3E7D0B7F78124068900439E07077
:104346002D90043D74FFF0A3740FF0A37499F0E46C
:10435600FBFD7F0A123F71123F5D90043D74FFF032
:10436600A37410F0A37499F07B01E40243E3900474
:1043760039E0640190043D703D74FFF0A3740FF0C2
:10438600A37499F07B01E4FD7F0A123F7190043D0E
:1043960074FFF0A37410F0A37419F0E4FBFD7F30F2
:1043A600123F7190043D74FFF0A37410F0A374994A
:1043B600F07B01E4802774FFF0A3740FF0A37499D7
:1043C600F07B01E4FD7F0A123F71123F5D90043DD0
:1043D60074FFF0A37410F0A37499F0E4FBFD7F560C
:0443E600123F7122EF
:103E4C00900439EFF070297BFF7A007926900452A8
:103E5C00740CF0E4A3F0FDFF123D3D7BFF7A00797A
:103E6C0033900452740CF0A37401F07D0FE4802F96
:103E7C00900439E0640170407BFF7A00792690044D
:103E8C0052740CF0A37401F0E4FDFF123D3D7BFF76
:103E9C007A007933900452740CF0E4A3F07D0FFF98
:103EAC00123D3D123D297BFF7A00794690045274F5
:103EBC000CF0A37401023F54900439E064027BFFC0
:103ECC007A007926900452704A740CF0A37401F0B5
:103EDC00E4FDFF123D3D7BFF7A0079339004527470
:103EEC000CF0A37401F07D0FE4FF123D3D7BFF7AD3
:103EFC00007940900452740CF0E4A3F0FD7F4E1254
:103F0C003D3D7BFF7A007946900452740CF0A3740B
:103F1C00018035740CF0A37401F0E4FDFF123D3DFB
:103F2C007BFF7A007933900452740CF0A37401F087
:103F3C007D0FE4FF123D3D123D297BFF7A0079464F
:103F4C00900452740CF0E4A3F07D0F7F4E123D3DB3
:013F5C002242
:10131900900443EFF0A3EDF0EF2404FF7BFF7A0084
:10132900794F9004527407F0A37401F0123D3D9077
:101339000443E02404FFA3E02410FD7BFF7A007935
:10134900559004527407F0A37401F0123D3D9004C6
:1013590050741FF0A37401F07B26E4FD7F26123A36
:101369008CE4900450F0A304F07B28E4FD7F26125E
:101379003A8C900450740FF0A37401F07B287D0F10
:101389007F26123A8C900450741FF0A37401F07BED
:10139900287D1F7F26123A8C900443E02424F0E034
:1013A9002406FFC007900445E0FCA3E0FDA3E0FE8E
:1013B900A3E0FF7817122AB2EF5401FFEF2430FBA4
:1013C9009004577407F0A37401F0900444E0FDD031
:1013D90007124068900443E0240CFFC007900445BD
:1013E900E0FCA3E0FDA3E0FEA3E0FF7816122AB219
:1013F900EF5401FFEF2430FB9004577407F0A374F6
:1014090001F0900444E0FDD007124068900443E0E5
:101419002412FFC007900445E0FCA3E0FDA3E0FE11
:10142900A3E0FF7815122AB2EF5401FFEF2430FB35
:101439009004577407F0A37401F0900444E0FDD0C0
:1014490007124068900443E02418FFC00790044540
:10145900E0FCA3E0FDA3E0FEA3E0FF7814122AB2AA
:10146900EF5401FFEF2430FB9004577407F0A37485
:1014790001F0900444E0FDD007124068900443E075
:10148900241EFFA3E012405B900443E02424FFC024
:1014990007900445E0FCA3E0FDA3E0FEA3E0FF788C
:1014A90013122AB2EF5401FFEF2430FB9004577452
:1014B90007F0A37401F0900444E0FDD007124068DE
:1014C900900443E0242AFFC007900445E0FCA3E010
:1014D900FDA3E0FEA3E0FF7812122AB2EF5401FF48
:1014E900EF2430FB9004577407F0A37401F09004C3
:1014F90044E0FDD007124068900443E02430FFC067
:1015090007900445E0FCA3E0FDA3E0FEA3E0FF781B
:1015190011122AB2EF5401FFEF2430FB90045774E3
:1015290007F0A37401F0900444E0FDD0071240686D
:10153900900443E02436FFC007900445E0FCA3E093
:10154900FDA3E0FEA3E0FF7810122AB2EF5401FFD9
:10155900EF2430FB9004577407F0A37401F0900452
:1015690044E0FDD007124068900443E0243CFFA307
:10157900E012405B900443E02442FFC00790044519
:10158900E0FCA3E0FDA3E0FEA3E0FF780F122AB27E
:10159900EF5401FFEF2430FB9004577407F0A37454
:1015A90001F0900444E0FDD007124068900443E044
:1015B9002448FFC007900445E0FCA3E0FDA3E0FE3A
:1015C900A3E0FF780E122AB2EF5401FFEF2430FB9B
:1015D9009004577407F0A37401F0900444E0FDD01F
:1015E90007124068900443E0244EFFC00790044569
:1015F900E0FCA3E0FDA3E0FEA3E0FF780D122AB210
:10160900EF5401FFEF2430FB9004577407F0A374E3
:1016190001F0900444E0FDD007124068900443E0D3
:101629002454FFC007900445E0FCA3E0FDA3E0FEBD
:10163900A3E0FF780C122AB2EF5401FFEF2430FB2C
:101649009004577407F0A37401F0900444E0FDD0AE
:1016590007124068900443E02406FFC007A3E02472
:1016690008FDC005A3E0FCA3E0FDA3E0FEA3E0FFA5
:10167900780B122AB2EF5401FFEF2430FB90045784
:101689007407F0A37401F0D005D0071240689004E4
:1016990043E0240CFFC007A3E02408FDC005A3E034
:1016A900FCA3E0FDA3E0FEA3E0FF780A122AB2EF53
:1016B9005401FFEF2430FB9004577407F0A3740121
:1016C900F0D005D007124068900443E02412FFC00F
:1016D90007A3E02408FDC005A3E0FCA3E0FDA3E007
:1016E900FEA3E0FF7809122AB2EF5401FFEF24307C
:1016F900FB9004577407F0A37401F0D005D00712CA
:101709004068900443E02418FFC007A3E02408FDC3
:10171900C005A3E0FCA3E0FDA3E0FEA3E0FF780879
:10172900122AB2EF5401FFEF2430FB9004577407DB
:10173900F0A37401F0D005D007124068900443E08B
:10174900241E124056900443E02424FFC007A3E05E
:101759002408FDC005A3E0FCA3E0FDA3E0FEA3E08F
:10176900FF7807122AB2EF5401FFEF2430FB9004EF
:10177900577407F0A37401F0D005D00712406890A0
:101789000443E0242AFFC007A3E02408FDC005A301
:10179900E0FCA3E0FDA3E0FEA3E0FF7806122AB275
:1017A900EF5401FFEF2430FB9004577407F0A37442
:1017B90001F0D005D007124068900443E02430FFBF
:1017C900C007A3E02408FDC005A3E0FCA3E0FDA336
:1017D900E0FEA3E0FF7805122AB2EF5401FFEF24DF
:1017E90030FB9004577407F0A37401F0D005D007BB
:1017F900124068900443E02436FFC007A3E02408A0
:10180900FDC005A3E0FCA3E0FDA3E0FEA3E0FF7893
:1018190004122AB2EF5401FFEF2430FB90045774ED
:1018290007F0A37401F0D005D00712406890044373
:10183900E0243C124056900443E02442FFC007A331
:10184900E02408FDC005A3E0FCA3E0FDA3E0FEA39E
:10185900E0FF7803122AB2EF5401FFEF2430FB9026
:1018690004577407F0A37401F0D005D0071240683B
:10187900900443E02448FFC007A3E02408FDC00505
:10188900A3E0FCA3E0FDA3E0FEA3E0FF7802122A97
:10189900B2EF5401FFEF2430FB9004577407F0A313
:1018A9007401F0D005D007124068900443E0244E3B
:1018B900FFC007A3E02408FDC005A3E0FCA3E0FDE9
:1018C900A3E0FEA3E0FF7801122AB2EF5401FFEF73
:1018D9002430FB9004577407F0A37401F0D005D0AD
:1018E90007124068900443E02454FFC007A3E02492
:1018F90008FDC005A3E0FCA3A3E0FEA3E05401FF9B
:10190900EF2430FB9004577407F0A37401F0D0055D
:10191900D007124068900443E02406FFC007A3E003
:101929002410FDC005900449E0FCA3E0FDA3E0FEFE
:10193900A3E0FF7817122AB2EF5401FFEF2430FB1E
:101949009004577407F0A37401F0D005D007124032
:1019590068900443E0240CFFC007A3E02410FDC0F5
:1019690005900449E0FCA3E0FDA3E0FEA3E0FF78B5
:1019790016122AB2EF5401FFEF2430FB900457747A
:1019890007F0A37401F0D005D00712406890044312
:10199900E02412FFC007A3E02410FDC0059004490C
:1019A900E0FCA3E0FDA3E0FEA3E0FF7815122AB254
:1019B900EF5401FFEF2430FB9004577407F0A37430
:1019C90001F0D005D007124068900443E02418FFC5
:1019D900C007A3E02410FDC005900449E0FCA3E082
:1019E900FDA3E0FEA3E0FF7814122AB2EF5401FF31
:1019F900EF2430FB9004577407F0A37401F0D0056D
:101A0900D007124068900443E0241EFFA3E024108D
:101A190012405B900443E02424FFC007A3E0241094
:101A2900FDC005900449E0FCA3E0FDA3E0FEA3E0AE
:101A3900FF7813122AB2EF5401FFEF2430FB900410
:101A4900577407F0A37401F0D005D00712406890CD
:101A59000443E0242AFFC007A3E02410FDC0059039
:101A69000449E0FCA3E0FDA3E0FEA3E0FF78121225
:101A79002AB2EF5401FFEF2430FB9004577407F0AA
:101A8900A37401F0D005D007124068900443E02404
:101A990030FFC007A3E02410FDC005900449E0FC15
:101AA900A3E0FDA3E0FEA3E0FF7811122AB2EF54F0
:101AB90001FFEF2430FB9004577407F0A37401F081
:101AC900D005D007124068900443E02436FFC007D0
:101AD900A3E02410FDC005900449E0FCA3E0FDA3A8
:101AE900E0FEA3E0FF7810122AB2EF5401FFEF24C1
:101AF90030FB9004577407F0A37401F0D005D007A8
:101B0900124068900443E0243CFFA3E024101240F3
:101B19005B900443E02442FFC007A3E02410FDC00A
:101B290005900449E0FCA3E0FDA3E0FEA3E0FF78F3
:101B39000F122AB2EF5401FFEF2430FB90045774BF
:101B490007F0A37401F0D005D00712406890044350
:101B5900E02448FFC007A3E02410FDC00590044914
:101B6900E0FCA3E0FDA3E0FEA3E0FF780E122AB299
:101B7900EF5401FFEF2430FB9004577407F0A3746E
:101B890001F0D005D007124068900443E0244EFFCD
:101B9900C007A3E02410FDC005900449E0FCA3E0C0
:101BA900FDA3E0FEA3E0FF780D122AB2EF5401FF76
:101BB900EF2430FB9004577407F0A37401F0D005AB
:101BC900D007124068900443E02454FFC007A3E003
:101BD9002410FDC005900449E0FCA3E0FDA3E0FE4C
:101BE900A3E0FF780C122AB2EF5401FFEF2430FB77
:101BF9009004577407F0A37401F0D005D007124080
:101C090068900443E02406FFC007A3E02418FDC040
:101C190005900449E0FCA3E0FDA3E0FEA3E0FF7802
:101C29000B122AB2EF5401FFEF2430FB90045774D2
:101C390007F0A37401F0D005D0071240689004435F
:101C4900E0240CFFC007A3E02418FDC00590044957
:101C5900E0FCA3E0FDA3E0FEA3E0FF780A122AB2AC
:101C6900EF5401FFEF2430FB9004577407F0A3747D
:101C790001F0D005D007124068900443E02412FF18
:101C8900C007A3E02418FDC005900449E0FCA3E0C7
:101C9900FDA3E0FEA3E0FF7809122AB2EF5401FF89
:101CA900EF2430FB9004577407F0A37401F0D005BA
:101CB900D007124068900443E02418FFC007A3E04E
:101CC9002418FDC005900449E0FCA3E0FDA3E0FE53
:101CD900A3E0FF7808122AB2EF5401FFEF2430FB8A
:101CE9009004577407F0A37401F0D005D00712408F
:101CF90068900443E0241EFFA3E0241812405B907F
:101D09000443E02424FFC007A3E02418FDC0059084
:101D19000449E0FCA3E0FDA3E0FEA3E0FF7807127D
:101D29002AB2EF5401FFEF2430FB9004577407F0F7
:101D3900A37401F0D005D007124068900443E02451
:101D49002AFFC007A3E02418FDC005900449E0FC60
:101D5900A3E0FDA3E0FEA3E0FF7806122AB2EF5448
:101D690001FFEF2430FB9004577407F0A37401F0CE
:101D7900D005D007124068900443E02430FFC00723
:101D8900A3E02418FDC005900449E0FCA3E0FDA3ED
:101D9900E0FEA3E0FF7805122AB2EF5401FFEF2419
:101DA90030FB9004577407F0A37401F0D005D007F5
:101DB900124068900443E02436FFC007A3E02418CA
:101DC900FDC005900449E0FCA3E0FDA3E0FEA3E00B
:101DD900FF7804122AB2EF5401FFEF2430FB90047C
:101DE900577407F0A37401F0D005D007124068902A
:101DF9000443E0243CFFA3E0241812405B90044311
:101E0900E02442FFC007A3E02418FDC0059004495F
:101E1900E0FCA3E0FDA3E0FEA3E0FF7803122AB2F1
:101E2900EF5401FFEF2430FB9004577407F0A374BB
:101E390001F0D005D007124068900443E02448FF20
:101E4900C007A3E02418FDC005900449E0FCA3E005
:101E5900FDA3E0FEA3E0FF7802122AB2EF5401FFCE
:101E6900EF2430FB9004577407F0A37401F0D005F8
:101E7900D007124068900443E0244EFFC007A3E056
:101E89002418FDC005900449E0FCA3E0FDA3E0FE91
:101E9900A3E0FF7801122AB2EF5401FFEF2430FBCF
:101EA9009004577407F0A37401F0D005D0071240CD
:101EB90068900443E02454FFC007A3E02418FDC040
:101EC90005900449E0FCA3A3E0FEA3E05401FFEF61
:101ED9002430FB9004577407F0A37401F0D005D0A7
:041EE9000702406844
:10471300D2A47F647E001253A8C2A47F647E0012D9
:1047230053A8D2A4E4FD7FFD1251C47F121251C4D9
:104733007FAE1251C47F201251C47F021251C47F35
:10474300B41251C4E4FF1251C47F101251C47F60EC
:104753001251C47FD51251C47FF01251C47FA812E5
:1047630051C47F1F1251C47FD31251C4E4FF1251AD
:10477300C47FA11251C47FC01251C47FD81251C447
:104783007F051251C47FDA1251C47F121251C47FC4
:10479300D91251C47FF11251C47F811251C47FBF1A
:1047A3001251C47FDB1251C47F341251C47FA4124F
:1047B30051C47FA61251C47FAF1251C4125084E476
:0447C300FF0252FCA3
:104C4800900436122AC553877F759850438E049076
:104C58000436E0F8A3E0F9A3E0FAA3E0FB7F007EC6
:104C6800307D2A7C00122A0FEFF404F5D790043621
:104C7800E0F8A3E0F9A3E0FAA3E0FB7F007E307D33
:104C88002A7C00122A0FC3E49FFFE49EFE74019D54
:104C9800FDE49CFC7808122AB28FD6438E01438E1D
:024CA8001022D8
:0B54E1007F007EC27D017C00024C4871
:085511008F993099FDC2992227
:10504A00900436EBF0A3EAF0A3E9F0900436E0FB13
:10505A00A3E0FAA3E0F91228996017900436A3E4B2
:10506A0075F00112296EA9F0FA122899FF1254213B
:03507A0080D922B8
:10542100AE07EEB40A097F0D1255117F0A8002AF53
:0754310006125511AF06221F
:10544E00EFC3940AEF50052430FD80032437FDAFDF
:04545E0005025421CE
:10535700AC077F20125421ECC4540FFF12544EECBB
:0B536700540FFF12544E7F200254210F
:030023000253DAAB
:0653DA00C0E0C083C082A8
:0B53E000309808C298900434E599F062
:0753EB00D082D083D0E03234
:0954F700D287C284C286C285225C
:10546200E4FEEF339284C285D285EF25E0FF0EEE93
:03547200B408EF8C
:015475002214
:10537200C286AF051DEF6010122899FF12546274A5
:0B5382000129F9E43AFA80EAD2862201
:1050DF00204E472121200020202020202000504159
:1050EF005353212100496E666F004F4B3A004E47D4
:1050FF003A004144443A00534144442D4E6F2E3AF6
:01510F00009F
:0C54CA00759DFFE4F5BDF5BE75BC8022A9
:1052D900EF4488F5BC00000000E5BC30E4FB53BC9A
:1052E900EFAFBDEF75F004A4ADBE7C002DFFEC352A
:0352F900F0FE22A2
:0550AE00E4FF1252D9DD
:1050B3008F828E837E037FE8AD82AC83122B32C056
:1050C30006C007AE83AF82C3E49FFF74049EAB07A1
:0C50D300FAE4F9F8D007D006122A0F22E8
:1035AB00C283C281C282C280000000000000000002
:1035BB0000001250AE900404EEF0A3EFF0000000F8
:1035CB00007F011252D91250B390040CEEF0A3EF0E
:1035DB00F0000000007F021252D91250B390041475
:1035EB00EEF0A3EFF0000000007F031252D912504F
:1035FB00B390041CEEF0A3EFF0000000007F041268
:10360B0052D91250B3900424EEF0A3EFF000000057
:10361B00007F051252D91250B3900426EEF0A3EF9F
:10362B00F0000000007F061252D91250B39004280C
:10363B00EEF0A3EFF0000000007F071252D91250FA
:10364B00B390042AEEF0A3EFF0C283C281D282D2F0
:10365B0080000000000000000000001250AE90043B
:10366B0006EEF0A3EFF0000000007F011252D9121A
:10367B0050B390040EEEF0A3EFF0000000007F02B9
:10368B001252D91250B3900416EEF0A3EFF00000D3
:10369B0000007F031252D91250B390041EEEF0A318
:1036AB00EFF0D283D281C282C28000000000000002
:1036BB00000000001250AE900408EEF0A3EFF000F3
:1036CB000000007F011252D91250B3900410EEF09B
:1036DB00A3EFF0000000007F021252D91250B390FA
:1036EB000418EEF0A3EFF0000000007F031252D994
:1036FB001250B3900420EEF0A3EFF0D283D281D21C
:10370B0082D280000000000000000000001250AECA
:10371B0090040AEEF0A3EFF0000000007F011252BC
:10372B00D91250B3900412EEF0A3EFF0000000009A
:10373B007F021252D91250B390041AEEF0A3EFF09D
:10374B00000000007F031252D91250B3900422EEF6
:05375B00F0A3EFF022D5
:103BE600AB07900400122AD100000000EB640160CC
:103BF60003023C78900433E0540125E0FF9004036F
:103C0600E054FD4FF0900433E0540225E025E0FF38
:103C1600900403E054F74FF0900433E05404333338
:103C26003354F8FF900403E054DF4FF0900433E080
:103C36005408C454F0FF900403E0547F4FF09004FE
:103C460033E05410131313541FFF900402E054FD85
:103C56004FF0900433E054201313543FFF900402B6
:103C6600E054F74FF0900433E054401313543F02EE
:103C76003D0AEB6003023D14900433E05401FF90CB
:103C86000403E054FE4FF0900433E0540225E0FFB5
:103C9600900403E054FB4FF0900433E0540425E015
:103CA60025E0FF900403E054EF4FF0900433E05416
:103CB6000833333354F8FF900403E054BF4FF090B9
:103CC6000433E05410C4540FFF900402E054FE4F36
:103CD600F0900433E05420131313541FFF90040292
:103CE600E054FB4FF0900433E05440131313541F79
:103CF600FF900402E054F74FF0900433E054801331
:103D06001313541FFF900402E054EF4FF022900467
:103D160030E0FCA3E0FDA3E0FEA3E0FF9004001268
:033D26002AC52289
:102ED400D20190042C122AD100000000900403E0D7
:102EE40030E01AC3900405E094F4900404E09401E3
:102EF400400990042FE04401F08002C201900403D1
:102F0400E0C31330E01AC3900407E094F49004067D
:102F1400E09401400990042FE04402F08002C201D1
:102F2400900403E01313543F30E01AC3900409E003
:102F340094F4900408E09401400990042FE04404C0
:102F4400F08002C201900403E0131313541F30E015
:102F54001AC390040BE094F490040AE0940140092D
:102F640090042FE04408F08002C201900403E0C4FE
:102F7400540F30E01AC390040DE094F490040CE074
:102F84009401400990042FE04410F08002C20190A3
:102F94000403E0C413540730E01AC390040FE09410
:102FA400F490040EE09401400990042FE04420F0D2
:102FB4008002C201900403E0C41313540330E01AE6
:102FC400C3900411E094F4900410E094014009903B
:102FD400042FE04440F08002C201900403E0C413D3
:102FE4001313540130E01AC3900413E094F49004D2
:102FF40012E09401400990042FE04480F08002C262
:1030040001900402E030E01AC3900415E094F490B7
:103014000414E09401400990042EE04401F080027D
:10302400C201900402E0C31330E01AC3900417E015
:1030340094F4900416E09401400990042EE04402B4
:10304400F08002C201900402E01313543F30E01AEE
:10305400C3900419E094F4900418E094014009909A
:10306400042EE04404F08002C201900402E0131331
:1030740013541F30E01AC390041BE094F490041A14
:10308400E09401400990042EE04408F08002C2015B
:10309400900402E0C4540F30E01AC390041DE0947D
:1030A400F490041CE09401400990042EE04410F0D4
:1030B4008002C201900402E0C413540730E01AC332
:1030C40090041FE094F490041EE0940140099004DD
:1030D4002EE04420F08002C201900402E0C41313E5
:1030E400540330E01AC3900421E094F4900420E0E7
:1030F4009401400990042EE04440F08002C2019003
:103104000402E0C4131313540130E01AC3900423DF
:10311400E094F4900422E09401400990042EE044E9
:1031240080F08002C201900401E030E01AC39004F0
:1031340025E094F4900424E09401400990042DE0E7
:103144004401F08002C201900401E0C31330E01A8C
:10315400C3900427E094F4900426E094014009907D
:10316400042DE04402F08002C201900401E0131334
:10317400543F30E01AC3900429E094F4900428E00A
:103184009401400990042DE04404F08002C20190AF
:103194000401E0131313541F30E01AC390042BE00E
:1031A40094F490042AE09401400990042DE044082A
:1031B400F08002C201900400E0FCA3E0FDA3E0FE65
:1031C400A3E0FF900445122AC590042CE0FCA3E080
:1031D400FDA3E0FEA3E0FF900449122AC5E4FDFF2D
:0831E400121319124EE7A201BB
:0131EC0022C0
:1051ED00780490043BE0FCA3E0FDA3E0FEA3E0FF08
:0751FD00122AB2EF540FFF6C
:10520400EFC3940AEF50052430FE80032437FEAF29
:015214000693
:015215002276
:101EED00122ED4500302216090042CE0FCA3E0FDDF
:101EFD00A3E0FEA3E0FF900400E0F8A3E0F9A3E067
:101F0D00FAA3E06FFFEA6EFEE96DFDE86CFC90044C
:101F1D003B122AC590043BE0FCA3E0FDA3E0FEA329
:101F2D00E0FF7810122AB278041251FDAB0790042D
:101F3D00577407F0A37401F07D08E4FF1240689018
:101F4D00043BE0FCA3E0FDA3E0FEA3E0FF7810124C
:101F5D0051FDAB079004577407F0A37401F07D0891
:101F6D007F0612406890043BE0FCA3E0FDA3E0FE79
:101F7D00A3E0FF7808122AB278041251FDAB079046
:101F8D0004577407F0A37401F07D087F0C124068AC
:101F9D0090043BE0FCA3E0FDA3E0FEA3E0FF780886
:101FAD001251FDAB079004577407F0A37401F07D37
:101FBD00087F1212406890043BE0FCA3E0FDA3E013
:101FCD00FEA3E0FF78041251FDAB07900457740790
:101FDD00F0A37401F07D087F1812406890043BE077
:101FED00FCA3E0FDA3E0FEA3E0540FFF125204ABEF
:101FFD00079004577407F0A37401F07D087F1E123B
:10200D0040687BFF7A5079DF9004527407F0A37417
:10201D0001F07D18E4FF123D3D124EE790045DE0A6
:10202D00FCA3E0FDA3E0FEA3E02401FFE43EFEE4FB
:10203D003DFDE43CFC90045D122AC590046BE070FC
:10204D00417B017A04793F9004487404F07F321289
:10205D004F2990043FE0FCA3E0FDA3E0FEA3E024A4
:10206D0001FFE43EFEE43DFDE43CFC90043F122AFA
:10207D00C57B017A04793F9004477404F07F3202E6
:10208D00211C90046BE0640170407B017A04793F60
:10209D009004487404F07F48124F2990043FE0FCEF
:1020AD00A3E0FDA3E0FEA3E02401FFE43EFEE43D3A
:1020BD00FDE43CFC90043F122AC57B017A04793F74
:1020CD009004477404F07F48804590046BE0B4029F
:1020DD00417B017A04793F9004487404F07F6412C7
:1020ED004F2990043FE0FCA3E0FDA3E0FEA3E02414
:1020FD0001FFE43EFEE43DFDE43CFC90043F122A6A
:10210D00C57B017A04793F9004477404F07F641213
:10211D00519A7B017A04793F9004487404F07F80D2
:10212D00124F2990043FE0FCA3E0FDA3E0FEA3E0E5
:10213D002401FFE43EFEE43DFDE43CFC90043F122F
:10214D002AC57B017A04793F9004477404F07F809F
:10215D0002236D7BFF7A5079E69004527407F0A349
:10216D007401F07D08E4FF123D3D7BFF7A5079ED5F
:10217D009004527407F0A37401F07D18E4FF123D32
:10218D003D124EE7900430E0FCA3E0FDA3E0FEA37A
:10219D00E02401FFE43EFEE43DFDE43CFC90043010
:1021AD00122AC590046BE0600464017041E47FFF66
:1021BD00FEFDFC900430E0F8A3E0F9A3E0FAA3E003
:1021CD00FBD3122AA1400A900430122AD10000003C
:1021DD000090046BE07B017A04793090044770071E
:1021ED007404F0E4FF80427404F07F08803B900497
:1021FD006BE0B402377FFF7EFF7D0F7C00900430D3
:10220D00E0F8A3E0F9A3E0FAA3E0FBD3122AA14082
:10221D000A900430122AD1000000007B017A047963
:10222D00309004477404F07F1612519A900461E0C7
:10223D00FCA3E0FDA3E0FEA3E02401FFE43EFEE4E9
:10224D003DFDE43CFC900461122AC590046BE070E6
:10225D00417B017A04793F9004487404F07F241285
:10226D004F2990043FE0FCA3E0FDA3E0FEA3E02492
:10227D0001FFE43EFEE43DFDE43CFC90043F122AE8
:10228D00C57B017A04793F9004477404F07F2402E2
:10229D00232C90046BE0640170407B017A04793F3C
:1022AD009004487404F07F40124F2990043FE0FCE5
:1022BD00A3E0FDA3E0FEA3E02401FFE43EFEE43D28
:1022CD00FDE43CFC90043F122AC57B017A04793F62
:1022DD009004477404F07F40804590046BE0B40295
:1022ED00417B017A04793F9004487404F07F5612C3
:1022FD004F2990043FE0FCA3E0FDA3E0FEA3E02402
:10230D0001FFE43EFEE43DFDE43CFC90043F122A57
:10231D00C57B017A04793F9004477404F07F56120F
:10232D00519A7B017A04793F9004487404F07F72CE
:10233D00124F2990043FE0FCA3E0FDA3E0FEA3E0D3
:10234D002401FFE43EFEE43DFDE43CFC90043F121D
:10235D002AC57B017A04793F9004477404F07F729B
:03236D0012519A70
:01237000224A
:10533B0090043B122AC57B017A04793B7D041253FE
:0C534B0072D2C6C28790046A7401F0227E
:10528F00123BE6900400E0FCA3E0FDA3E0FEA3E0E8
:10529F00FF12533B90046AE060030080F71235ABB6
:0652AF00125084021EED06
:102B860078007C007D017B017A0279007E027F005D
:102B96001228739004427420F0A374FFF0A37450BB
:102BA600F0A374F4F0A3E4F0A3F0A3F0F9A3C9F042
:102BB600A3F0A3E9F07B78E4FDFF124D667B017A72
:102BC60004796D12237190046BE0FFE4FD124B68EB
:102BD60090043B122AC57BFF7A5079F9900452740F
:102BE60007F0A37401F07D0B7F02123D3D90043B7C
:102BF600E0FCA3E0FDA3E0FEA3E0FF7810122AB2FA
:102C060078041251FDAB079004577407F0A37401C2
:102C1600F07D0B7F1612406878101251EFAB0790CB
:102C260004577407F0A37401F07D0B7F1C124068F3
:102C360090043BE0FCA3E0FDA3E0FEA3E0FF7808E0
:102C4600122AB278041251FDAB079004577407F0AC
:102C5600A37401F07D0B7F2212406890043BE0FCD8
:102C6600A3E0FDA3E0FEA3E0FF78081251FDAB0749
:102C76009004577407F0A37401F07D0B7F2812406F
:102C8600681251EDAB079004577407F0A37401F076
:102C96007D0B7F2E12406890043BE0FCA3E0FDA371
:102CA600E0FEA3E0540FFF125204AB0790045774E2
:102CB60007F0A37401F07D0B7F3412406890046B1B
:102CC600E0FF7D01124B6890043B122AC57BFF7A18
:102CD6005079FD9004527407F0A37401F07D0B7FC8
:102CE6003E123D3D90043BE0FCA3E0FDA3E0FEA3C5
:102CF600E0FF7810122AB278041251FDAB07900457
:102D0600577407F0A37401F07D0B7F521240689050
:102D1600043BE0FCA3E0FDA3E0FEA3E0FF78101275
:102D260051FDAB079004577407F0A37401F07D0BB7
:102D36007F5812406890043BE0FCA3E0FDA3E0FE50
:102D4600A3E0FF7808122AB278041251FDAB07906F
:102D560004577407F0A37401F07D0B7F5E12406880
:102D660090043BE0FCA3E0FDA3E0FEA3E0FF7808AF
:102D76001251FDAB079004577407F0A37401F07D60
:102D86000B7F641240681251EDAB0790045774072D
:102D9600F0A37401F07D0B7F6A12406890043BE05B
:102DA600FCA3E0FDA3E0FEA3E0540FFF125204AB28
:102DB600079004577407F0A37401F07D0B7F70121F
:102DC600406890046BE0FF124EA290043B122AC5A5
:102DD6007BFF7A5179019004527407F0A37401F0D5
:102DE6007D147F02123D3D90043BE0FCA3E0FDA371
:102DF600E0FEA3E0FF7810122AB278041251FDAB70
:102E0600079004577407F0A37401F07D147F16121F
:102E1600406890043BE0FCA3E0FDA3E0FEA3E0FFD6
:102E260078101251FDAB079004577407F0A3740194
:102E3600F07D147F1C12406890043BE0FCA3E0FD8B
:102E4600A3E0FEA3E0FF7808122AB278041251FD2F
:102E5600AB079004577407F0A37401F07D147F222A
:102E660012406890043BE0FCA3E0FDA3E0FEA3E073
:102E7600FF78081251FDAB079004577407F0A3744E
:102E860001F07D147F281240681251EDAB079004C3
:102E9600577407F0A37401F07D147F2E12406890DA
:102EA600043BE0FCA3E0FDA3E0FEA3E0540FFF1209
:102EB6005204AB079004577407F0A37401F07D1415
:0E2EC6007F3412406890046C7402F0024EE7F4
:0538F500900439EFF022
:1038FA00E4A3F0124EA2900430122AC57BFF7A513B
:10390A007906900452740CF0A37401F0E4FD7F1E52
:10391A00123D3D900430E0FCA3E0FDA3E0FEA3E0ED
:10392A00FF7810122AB27804122AB2EF540FFF124B
:10393A005204AB07900457740CF0A37401F07D0F86
:10394A00E4FF124068900430E0FCA3E0FDA3E0FE2F
:10395A00A3E0FF7810122AB2EF540FFF125204AB01
:10396A0007900457740CF0A37401F07D0F7F0812BE
:10397A004068900430E0FCA3E0FDA3E0FEA3E0FF72
:10398A007808122AB27804122AB2EF540FFF1252A0
:10399A0004AB07900457740CF0A37401F07D0F7FF9
:1039AA0010124068900430E0FCA3E0FDA3E0FEA3FF
:1039BA00E0FF7808122AB2EF540FFF125204AB0745
:1039CA00900457740CF0A37401F07D0F7F18124015
:1039DA0068900430E0FCA3E0FDA3E0FEA3E0FF78DA
:1039EA0004122AB2EF540FFF125204AB0790045785
:1039FA00740CF0A37401F07D0F7F201240689004CC
:103A0A0030E0FCA3E0FDA3E0FEA3E0540FFF125256
:103A1A0004AB07900457740CF0A37401F07D0F7F78
:103A2A0028124068124EE778007C007D017B017AFB
:103A3A000279007E027F0012287390043AE0703502
:103A4A009004C7E0B401159004C9E0600FE4F09057
:103A5A00047A04F0900439E0FF12528F9004C7E010
:103A6A00B404D79004C9E060D1E4F090047A04F079
:053A7A00122B8680C53F
:013A7F002224
:10526900410480004104810041048200410483001B
:0D52790041048400410485004204860000C9
:10549A00C28C438E805389F0758A46758CFEC28D04
:0154AA0022DF
:10547600C28E438E4053890FE4F58B758D28C28FFB
:03548600D28E22A1
:0B54EC0043B10453B2FBC2B2C28822DD
:0955000012549A125476D2AB2227
:1053F200D2A8E4900488F0A3F090048C122AD10081
:08540200000000D28CD2AB22A5
:10543800C2A8C28CE4900488F0A3F090048C122ACD
:06544800D100000000226B
:0300030002376061
:10376000C0E0C0F0C083C082C0D075D000C000C02F
:0B37700002C003C004C005C006C00773
:10377B00900480E0600302384D20B203023816A398
:10378B00E0FF700D900488F0A3F090048104F080AA
:10379B007AEF64027075900488E0FEA3E0FF90045A
:1037AB007BEEF0A3EFF0900488E4F0A3F09004819B
:1037BB00F0C390047EE09F90047DE09E504D9004FA
:1037CB007BE0FEA3E0FFC3947DEE9400403DD3EF7E
:1037DB0094EEEE940250349004807401F090047FC8
:1037EB007418F07C007D281228F17D7C122903EFE0
:1037FB007803CEC313CE13D8F9FDAC067E037FE856
:10380B0012290390048AEEF0A3EFF030B2030238D2
:10381B00DC900481E0900488B4011CE0FFA3E090ED
:10382B00047DCFF0A3EFF0900488E4F0A3F09004B4
:10383B00817402F00238DCE4F0A3F0900481F00212
:10384B0038DC20B227900488E0FEA3E0FF90047DD3
:10385B00EEF0A3EFF0900488E4F0A3F0D3EF941E06
:10386B00EE9400406C900480E4F0806530B262907E
:10387B000488E0FEA3E0FF90047BEEF0FAA3EFF0E8
:10388B00FB900488E4F0A3F090048CE0FCA3E0FD33
:10389B00A3E0FEA3E0FF7801122AB290048C122A57
:1038AB00C5D390047EE09B90047DE09A4019900470
:1038BB008CE0FCA3E0FDA3E0FEA3E0FFED4480FD64
:1038CB00EC90048C122AC590047FE014F07002A3D4
:0138DB00F0FC
:1038DC00D007D006D005D004D003D002D000D0D071
:0938EC00D082D083D0F0D0E0328C
:03000B0002538D10
:10538D00C0E0C083C082900489E004F070069004F0
:0B539D0088E004F0D082D083D0E03222
:03001B0002423569
:10423500C0E0C0F0C083C082C0D075D000C000C04F
:0D42450001C002C003C004C005C006C007D0
:10425200900483E004F0900482E004F0E0C39464EC
:104262004004E4F0B2C5900483E0D3940F400812F6
:1042720049B8900483E4F090047AE0B40117D2C103
:10428200900484E0FF04F0EFC394054008C2C1E447
:10429200F090047AF090046AE0B4011A900485E088
:1042A200FF04F0EFC39407400DC2C6D28790046AA0
:1042B200E4F0900485F090046CE0FF603C7E007CAA
:1042C200017D901228F1900486E475F00112296EA6
:1042D200FCC3E5F09FEC9E4020900486E4F0A3F03E
:1042E20090046CF078007C027D017B017A007900F9
:0942F2007E02FF122873124EE750
:1042FB00D007D006D005D004D003D002D001D00017
:0B430B00D0D0D082D083D0F0D0E032C0
:085286004104C9004104C60007
:1052160020C2047404801E20C3047403801720C4B3
:10522600047402801020A0047401800920B704745D
:0952360005800274FF1228DF223A
:1049B80090043574FFF0FF7B017A047935125216A2
:1049C800900435E0FEF4702C9004C8E0FDC3941206
:1049D80040099004C6E04440FF800DEDC3940340B5
:1049E800079004C6E04430FF9004C6EEF0E490045B
:1049F800C8F0804C9004C6E0FE900435E0FD6E607F
:104A08000F9004C6EDF0E49004C8F0A304F08030E1
:104A18009004C8E004F0E0FDB40304AF068021ED83
:104A2800B412099004C6E04410FF80149004C8E052
:104A3800B4170D9004C6E04420FF9004C87412F027
:054A48009004C7EFF02F
:014A4D002246
:03000000024ADCD5
:0C4ADC00787FE4F6D8FD758120024B23A2
:1027A300E709F608DFFA8046E709F208DFFA803E18
:1027B30088828C83E709F0A3DFFA8032E309F60805
:1027C300DFFA8078E309F208DFFA807088828C836D
:1027D300E309F0A3DFFA806489828A83E0A3F60821
:1027E300DFFA805889828A83E0A3F208DFFA804CFB
:1027F30080D280FA80C680D4806980F280338010D2
:1028030080A680EA809A80A880DA80E280CA80333A
:1028130089828A83ECFAE493A3C8C582C8CCC583B2
:10282300CCF0A3C8C582C8CCC583CCDFE9DEE78082
:102833000D89828A83E493A3F608DFF9ECFAA9F001
:10284300EDFB2289828A83ECFAE0A3C8C582C8CC57
:10285300C583CCF0A3C8C582C8CCC583CCDFEADE70
:10286300E880DB89828A83E493A3F208DFF980CCD2
:1028730088F0EF60010E4E60C388F0ED2402B404CB
:102883000050B9F582EB2402B4040050AF23234572
:0628930082239027F3737D
:10289900BB010689828A83E0225002E722BBFE023D
:0928A900E32289828A83E4932270
:1028B200BB010CE58229F582E5833AF583E02250DB
:1028C20006E92582F8E622BBFE06E92582F8E22225
:0D28D200E58229F582E5833AF583E493223F
:1028DF00BB010689828A83F0225002F722BBFE01D8
:0228EF00F322D2
:1028F100EF8DF0A4A8F0CF8CF0A428CE8DF0A42EFB
:02290100FE22B4
:10290300BC000BBE0029EF8DF084FFADF022E4CCB8
:10291300F875F008EF2FFFEE33FEEC33FCEE9DEC81
:10292300984005FCEE9DFE0FD5F0E9E4CEFD22EDC7
:10293300F8F5F0EE8420D21CFEADF075F008EF2F11
:10294300FFED33FD4007985006D5F0F222C398FD02
:052953000FD5F0EA229F
:10295800C5F0F8A3E028F0C5F0F8E582158270020A
:062968001583E038F022A7
:10296E00A3F8E0C5F025F0F0E5821582700215831C
:06297E00E0C838F0E82279
:10298400E88FF0A4CC8BF0A42CFCE98EF0A42CFCF2
:102994008AF0EDA42CFCEA8EF0A4CDA8F08BF0A470
:1029A4002DCC3825F0FDE98FF0A42CCD35F0FCEBCF
:1029B4008EF0A4FEA9F0EB8FF0A4CFC5F02ECD3994
:0F29C400FEE43CFCEAA42DCE35F0FDE43CFC2201
:1029D30075F008758200EF2FFFEE33FECD33CDCCBB
:1029E30033CCC58233C5829BED9AEC99E58298403E
:1029F3000CF582EE9BFEED9AFDEC99FC0FD5F0D61B
:102A0300E4CEFBE4CDFAE4CCF9A88222B800C1B944
:102A13000059BA002DEC8BF084CFCECDFCE5F0CB82
:102A2300F97818EF2FFFEE33FEED33FDEC33FCEBBB
:102A330033FB10D703994004EB99FB0FD8E5E4F976
:102A4300FA227818EF2FFFEE33FEED33FDEC33FC63
:102A5300C933C910D7059BE99A4007EC9BFCE99A57
:102A6300F90FD8E0E4C9FAE4CCFB2275F010EF2F9C
:102A7300FFEE33FEED33FDCC33CCC833C810D7079C
:102A83009BEC9AE899400AED9BFDEC9AFCE899F8D7
:0E2A93000FD5F0DAE4CDFBE4CCFAE4C8F9226A
:102AA100EB9FF5F0EA9E42F0E99D42F0E89C45F08B
:012AB1002202
:102AB200E8600FECC313FCED13FDEE13FEEF13FF02
:032AC200D8F12226
:0C2AC500ECF0A3EDF0A3EEF0A3EFF02284
:102AD100A8828583F0D083D082122AE8122AE812D4
:102AE1002AE8122AE8E473E493A3C583C5F0C583F9
:102AF100C8C582C8F0A3C583C5F0C583C8C582C84F
:012B010022B1
:102B0200BB010DE58229F582E5833AF583022B6844
:102B12005007E92582F8022B5FBBFE07E92582F800
:102B2200022B71E58229F582E5833AF583022B7A3D
:102B3200EC8EF0A4CCC5F0CCCDF8EFA4CEC5F02D30
:102B4200FDE43CFCE8A42EC8C5F03DFDE43CFCEFEE
:0D2B5200A4FFE5F028FEE43DFDE43CFC227C
:104AE800024FE0E493A3F8E493A34003F68001F2B5
:104AF80008DFF48029E493A3F85407240CC8C333CF
:104B0800C4540F4420C8834004F456800146F6DF9D
:104B1800E4800B0102040810204080905267E47E74
:104B2800019360BCA3FF543F30E509541FFEE49392
:104B3800A360010ECF54C025E060A840B8E493A359
:104B4800FAE493A3F8E493A3C8C582C8CAC583CA84
:104B5800F0A3C8C582C8CAC583CADFE9DEE780BE3C
:01528E00001F
:092B5F00E6FB08E6FA08E6F9229B
:092B6800E0FBA3E0FAA3E0F9226E
:092B7100E2FB08E2FA08E2F92295
:0C2B7A00E493FB740193FA740293F922B7
:00000001FF
