:1031DF003D3D3D3D3D3D3D3D3D3D3D3D3D3D3D3D10
:1031EF003D3D3D3D3D3D3D3D3D3D3D3D3D3D3D3D00
:1031FF003D3D3D3D3D3D3D3D3D3D3D3D3D3D3D3DF0
:10320F003D3D3D3D3D3D3D0A002A2A2A2A2A2A2AD4
:10321F002A2A2A2A2A2A2A2A2A2A2A2A2A2A2042F1
:10322F0075726E20436F64652058202A2A2A2A2A35
:10323F002A2A2A2A2A2A2A2A2A2A2A2A2A2A2A2ADF
:10324F000A002A202020202020202020202020209B
:10325F00202020202020202020202020202020205F
:10326F00202020202020202020202020202020204F
:10327F0020202020202020202A0A002A2020202061
:10328F0056657273696F6E3A2053444B312E30304E
:10329F002E30302831313A32303A31362041707287
:1032AF0020322020323031352920202020202020AC
:1032BF00202A0A002A2020202020417574686F726E
:1032CF003A204C69616F6B657972653C4C69616F2F
:1032DF006B6579726540666F786D61696C2E636F8F
:1032EF006D3E20202020202020202A0A002A202086
:1032FF00417574686F723A204368657272794079CC
:10330F006373656D692E636F6D2E636E20407961F7
:10331F006E6368656E6720636F6D70616E792020D4
:10332F002020202A0A002A2A2A2A2A2A2A2A2A2A56
:10333F002A2A2A2A2A2A2A2A2A2A2A2A2A2A2A2ADE
:10334F002A2A2A2A2A2A2A2A2A2A2A2A2A2A2A2ACE
:10335F002A2A2A2A2A2A2A2A2A2A2A2A2A0A000A28
:10336F000A0A53797374656D204C6F6164696E67D7
:10337F002E2E2E0A000A0A0A53797374656D204C9B
:10338F006F6164204F6B210A004E6F746963650093
:10339F00204E4F204D454E55210020565436323584
:1033AF0033382D42310020565436323533382D42C2
:1033BF00320020434F420020464C555348203234B0
:0733CF003032204F4B2100BA
:104F520090046DEFF0A3EDF0A3EBF0900446E09027
:104F62000470F0900447E0F9A3E0FAA3E090047122
:104F7200C9F0A3EAF0A3E9F090044AE0F9A3E0FA49
:104F8200A3E0900474C9F0A3EAF0A3E9F090044D01
:104F9200E0F9A3E0FAA3E0900477C9F0A3EAF0A352
:034FA200E9F02211
:104D7C007BFF7A3179DF1252707BFF7A327918120D
:104D8C0052707BFF7A3279511252707BFF7A3279F2
:104D9C008A1252707BFF7A3279C31252707BFF7A7F
:104DAC003279FC1252707BFF7A3279511252707B3D
:104DBC00FF7A3379351252707BFF7A3179DF1252D8
:104DCC00707BFF7A33796E1252707BFF7A33798461
:034DDC0002527010
:104E41007B017A0479BD9004487404F07F101251FB
:104E51005574FFFFFEFDFC9004BDE0F8A3E0F9A34B
:104E6100E0FAA3E0FBC3122A4E60177FFF7EFF7DAD
:104E71000F7C009004BDE0F8A3A3A3E0D3122A4E57
:104E8100401B900466122A91000000007B017A0405
:0D4E910079669004477404F07F101253EA14
:014E9E0022F1
:10548F001248401252AA7B01E4FDFF12477B9004A1
:10549F0039741EF0A37401F07B7C7D1A7F24124DAA
:0454AF00120250D3C2
:10520800E4F591F592F595F596F5B1F5B2F5B3F5A6
:10521800B4F5C9F5CAF593F59443B4227591FFF531
:10522800925395074396F843B10453B1FB53C9DF32
:0452380043CA202223
:105115001252081256C91256E012548F1256BBE4A9
:1051250090047AF0900461122A9100000000900426
:105135005D122A9100000000C2C6D287E490046A7D
:10514500F090046504F0E490046CF0C2C7C2CD226F
:1045E700E4900437F0900436F0FF1244430246ADDE
:1045F700900436E060030246B39004CCE060F1908B
:1046070004CAE024FD602414603D240270E2E490B3
:1046170004CCF090047A04F0900437E070D2900450
:10462700657402F090043614F080C5E49004CCF071
:1046370090047A04F0900437E070B5900465740133
:10464700F0900436F080A9E49004CCF090047A044A
:10465700F0900437E0709978007C007D017B017A47
:104667000279007E027F001228759004467420F0BC
:10467700A374FFF0A37433F0A37498F0A374FFF04E
:10468700A37433F0A3749FF0A3E4F0A3F0A3F07B2B
:104697003CFD7F1E124F527B017A04796D12237302
:0C46A70090046C7401F01250D30245F72F
:0146B30022E4
:1033D600E4900438F0900437F0900436F07F011240
:1033E60044438077900436E0600302359C9004CC19
:1033F600E060F19004CAE024FD603B146070240292
:1034060070E2E49004CCF090047A04F0900437E083
:103416006018A3E0FF14F0EFD3940050037403F098
:10342600900438E0FF123F6C8031E4900465F09020
:10343600043604F080AEE49004CCF090047A04F0F4
:10344600900437E0601AA3E0FF04F0EFC394034052
:1034560002E4F0900438E0FF123F6C1250D38084EF
:103466009004657402F090043614F00233EAE49096
:1034760004CCF090047A04F0900437E0700302352F
:1034860088A3E0B4030A1252AA9004367401F0220B
:10349600900438E0703178007C007D017B017A026F
:1034A60079007E02FF1228759004467420F0A374FA
:1034B600FFF0A37433F0A37498F0A374FFF0A37421
:1034C60033F0A374A98070900438E06401703178F9
:1034D600007C007D017B017A0279007E02FF1228C2
:1034E600759004467420F0A374FFF0A37433F0A320
:1034F6007498F0A374FFF0A37433F0A374B5803707
:10350600900438E06402705178007C007D017B01F4
:103516007A0279007E02FF1228759004467420F024
:10352600A374FFF0A37433F0A37498F0A374FFF0B0
:10353600A37433F0A374C1F0A3E4F0A3F0A3F07B6B
:1035460050FD7F14124F527B017A04796D1223735A
:1035560090046C7401F01250D31252AA900438E011
:10356600FF90046BF0FB900461122A9100000000AA
:1035760090045D122A9100000000AF031237470243
:1035860033EA1252AAE4FF123F6C1250D39004376A
:063596007401F00233EAAB
:01359C00220C
:10451700E4900437F0900436F07F021244430245DA
:10452700E0900436E060030245E69004CCE060F1D9
:104537009004CAE024FD602314603C240270E2E486
:104547009004CCF090047A04F0900437E070D29095
:1045570004657401F0900436F080C6E49004CCF052
:1045670090047A04F0900437E070B6E4900465F0A4
:1045770090043604F080AAE49004CCF090047A0406
:10458700F0900437E0709A1256AC78007C007D01F9
:104597007B017A0279007E027F001228759004461B
:1045A7007420F0A374FFF0A37433F0A37498F0A3FE
:1045B70074FFF0A37433F0A374C6F0A3E4F0A3F080
:1045C700A3F07B64FD7F0A124F527B017A04796D59
:0F45D70012237390046C7401F01250D302452824
:0145E60022B2
:0100060022D7
:1051D000C2C1125115D2C1124D7CD2AFC2C19004CE
:1051E00066122A91000000011252AA900465E01490
:1051F000600C14600E240270F21245E780ED123349
:08520000D680E812451780E397
:02530500C18065
:0756FF000000007F18DFFE30
:015706002280
:05000E00120013D2A155
:070013000000007F0ADFFE80
:01001A0022C3
:0A56D50000007F6C7E90DEFEDFFC1B
:0156DF0022A8
:10551A001256FFD2A11256FFD2A21256FFA2A2829F
:0F552A00A1500AC2A21256FFC2A10256FFC3220D
:10569C001256FFC2A21256FFD2A11256FFD2A2225C
:0C519400AC0712551A7FA01251A0AF0406
:0251A000AE0758
:1051A200E4FD120013EE30E704D2A28002C2A21282
:1051B200000EC2A1EE25E0FE0DEDB408E5120013CB
:0D51C200D2A212000EA2A29200C2A1A20071
:0151CF0022BD
:02536500AE0791
:10536700E4FD120013D2A2FCED25E0FD12000E3081
:10537700A2010DC2A10CECB408EE120013D2A2EEEA
:0B5387006002C2A212000EC2A1AF051E
:0153920022F8
:10562200AC05AB0712551A7FA01251A0AF0312515D
:075632009B12569C0256D5A5
:1053EA00125194900447E0FF14F0EF601612289BC4
:1053FA00FF1251A0740129F9E43AFA0CECC394FFA4
:0A540A0040E12212569C1256D522F2
:1055DA0012519412551A7FA11251A0E4FF12536579
:0755EA00AE0712569CAF064C
:0155F1002297
:10515500AC07900448E0603612519612551A7FA1AB
:105165001251A0E014F0900448E0FF14F0EF601233
:105175007F01125365EF1228E1740129F9E43AFA27
:0F51850080E4E4FF125365EF1228E112569C22DA
:0E56AC00E4FAAF02E4FD1256220AEAB4FFF45B
:0156BA0022CD
:05508E0090043FEFF06B
:1050930070107B017A0479409004487404F0E4FFB3
:1050A300801C90043FE07B017A047940900448B46B
:1050B30001077404F07F0880057404F07F16125111
:0F50C30055900440E0FCA3E0FDA3E0FEA3E0FF56
:0150D20022BB
:054C950090043FEFF068
:104C9A00ED7031E070107B017A0479409004487419
:104CAA0004F07F24805090043FE07B017A0479402D
:104CBA00900448B401077404F07F4080397404F00A
:104CCA007F56803290043FE070107B017A0479406D
:104CDA009004487404F07F32801C90043FE07B010A
:104CEA007A047940900448B401077404F07F48803C
:104CFA00057404F07F64125155900440E0FCA3E06F
:074D0A00FDA3E0FEA3E0FFA2
:014D1100227F
:10002600312E565436323533382D423100322E5663
:100036005436323533382D423200332E434F420088
:10004600342E52455455524E00534144443A0052C0
:100056004144443A000000000000000000005F0038
:100066000000000700070000147F147F1400242AF4
:100076007F2A120023130864620036495522500075
:10008600000503000000001C224100000041221C64
:10009600000014083E08140008083E080800005036
:1000A6003000000008080808080000606000000032
:1000B6002010080402003E5149453E0000427F40A0
:1000C60000004261514946002141454B3100181458
:1000D600127F10002745454539003C4A4949300002
:1000E600017109050300364949493600064949297F
:1000F6001E000036360000000056360000000814C8
:1001060022410000141414141400004122140800A3
:10011600020151090600324979413E007E11111152
:100126007E007F49494936003E41414122007F41D8
:1001360041221C007F49494941007F090909010004
:100146003E4149497A007F0808087F0000417F4107
:1001560000002040413F01007F08142241007F40FB
:10016600404040007F020C027F007F0408107F00A1
:100176003E4141413E007F09090906003E415121A9
:100186005E007F09192946004649494931000101A7
:100196007F0101003F4040403F001F2040201F00DC
:1001A6003F4038403F006314081463000708700896
:1001B6000700615149454300007F414100000204A8
:1001C600081020000041417F0000040201020400E3
:1001D60040404040400000010204000020545454B6
:1001E60078007F484444380038444444200038446A
:1001F60044487F00385454541800087E0901020010
:100206000C5252523E007F080404780000447D40A0
:1002160000002040443D00007F10284400000041BB
:100226007F4000007C04180478007C0804047800F1
:100236003844444438007C14141408000814141874
:100246007C007C0804040800485454542000043FF1
:10025600444020003C4040207C001C2040201C00E4
:100266003C4030403C004428102844000C5050507C
:100276003C004464544C4400000836410000000031
:100286007F00000000413608000010080810080032
:100296000000000000000000000000000000003F19
:1002A6004000000000000000003000400030004028
:1002B60000000009000BC03D000BC03D00090018FE
:1002C600C024407FE0224031800000180024C01B7B
:1002D600000D803240018003801C4027401C8007AF
:1002E6004000401000600000000000000000000018
:1002F60000000000001F8020404020000040202019
:10030600401F8000000000090006001F800600094B
:10031600000000040004003F800400040000000008
:10032600100060000000000000000004000400044B
:10033600000400040000000000004000000000006F
:10034600000000002001C006003800400000001F29
:10035600802040204020401F800000000010403FC9
:10036600C000400000000018C02140224024401870
:1003760040000010802040244024401B80000002E2
:10038600000D0011003FC0014000003C80244024C5
:10039600402440238000001F802440244034400332
:1003A6008000003000200027C03800200000001B1D
:1003B600802440244024401B8000001C0022C022D0
:1003C6004022401F8000000000000008400000009E
:1003D60000000000000000046000000000000000B3
:1003E6000004000A001100208040400900090009AD
:1003F6000009000900000000004040208011000AAA
:100406000004001800200023402400180000001FEC
:10041600802040274029401F400000004007C03987
:10042600000F0001C0004020403FC0244024401B74
:100436008000001F802040204020403080000020A7
:10044600403FC0204020401F80000020403FC02485
:10045600402E4030C0000020403FC024402E0030D7
:100466000000000F00108020402240338002002050
:10047600403FC0040004003FC02040204020403FD1
:10048600C02040204000000060202020203FC020E7
:1004960000200020403FC024400B0030C0204020F8
:1004A600403FC020400040004000C03FC03C000329
:1004B600C03C003FC0000020403FC00C4023003F2E
:1004C600C020001F802040204020401F80000020C8
:1004D600403FC024402400180000001F8021402116
:1004E6004020E01FA0000020403FC0244026001905
:1004F600C0004018C0244024402240318000003013
:100506000020403FC020403000000020003F800017
:100516004000403F80200020003E0001C007003818
:10052600002000380007C03C0007C038000000204B
:100536004039C0060039C02040000020003840077E
:10054600C0384020000000304021C02640384020FE
:10055600C00000000000007FE040204020000000B6
:100566000070000C000380004000000000402040A6
:10057600207FE00000000000002000400020000076
:100586000000000010001000100010001000100005
:10059600000000400000000000000000000280058E
:1005A60040054003C0004020003FC0044004400313
:1005B6008000000000038004400440064000000064
:1005C600000380044024403FC00040000003800533
:1005D60040054003400000000004401FC0244024A2
:1005E600402000000002E00550055006500420207F
:1005F600403FC00440040003C00040000004402700
:10060600C000400000000000100010041027E000A9
:1006160000000020403FC00140070004C004402005
:100626004020403FC000400040000007C0040007D3
:10063600C0040003C00000044007C00440040003D7
:10064600C000400000038004400440038000000412
:100656001007F004500440038000000000038004EB
:1006660040045007F00010044007C0024004000494
:10067600000000000006400540054004C0000000E0
:100686000004001F800440004000000400078000B2
:1006960040044007C000400400070004C001800673
:1006A600000400060001C0070001C00600000004A7
:1006B6004006C0010006C0044000000410071004F4
:1006C600E00180060004000000044005C006400466
:1006D6004000000000000004007BE0402000000015
:1006E6000000000000FFF000000000000040207B3A
:1006F600E0040000000000400080004000200020D0
:1007060000400000000000000000000000000000A3
:100716000000000000000000001FCC000C000000DC
:100726000000000000080030006000080030006093
:10073600000000022003FC1E20022003FC1E2002F3
:1007460020000000000E1811043FFF10840C7800F2
:100756000000000F0010840F3800C00778188400CE
:1007660078000000780F8410C411240E9800E4006D
:100776008400080800680070000000000000000007
:1007860000000000000000000007E01818200440E8
:10079600020000000040022004181807E0000000D4
:1007A6000000000240024001800FF001800240027A
:1007B6004000000080008000800FF800800080006C
:1007C6008000000001000D000E0000000000000087
:1007D6000000000000008000800080008000800093
:1007E6008000800000000C000C00000000000000EB
:1007F60000000000000006001800600180060018D6
:10080600002000000007F00808100410040808077C
:10081600F000000000080408041FFC0004000400A7
:1008260000000000000E0C10141024104411840E59
:100836000C000000000C1810041104110412880C9E
:10084600700000000000E00320042408241FFC00C0
:1008560024000000001F9810841104110410881051
:10086600700000000007F0088811041104188800C1
:1008760070000000001C00100010FC13001C00108B
:1008860000000000000E3811441084108411440E3C
:1008960038000000000700088C1044104408880740
:1008A600F00000000000000000030C030C00000034
:1008B600000000000000000001010600000000002A
:1008C600000000000000800140022004100808100B
:1008D6000400000220022002200220022002200240
:1008E6002000000000100408080410022001400047
:1008F60080000000000E001200100C106C10800F1B
:1009060000000003E00C1813E4142417C408280799
:10091600D000000004003C03C41C40074000E40073
:100926001C000410041FFC1104110411040E88009D
:1009360070000003E00C1810041004100410081CCA
:1009460010000010041FFC1004100410040808070F
:10095600F0000010041FFC1104110417C410040851
:1009660018000010041FFC1104110017C010000825
:1009760000000003E00C181004100410441C78005A
:1009860040000010041FFC10840080008010841FAB
:10099600FC10040000100410041FFC1004100400D6
:1009A60000000000030001100110011FFE100010DE
:1009B60000000010041FFC110403801464181C10AE
:1009C60004000010041FFC100400040004000400CE
:1009D6000C000010041FFC1F0000FC1F001FFC1071
:1009E60004000010041FFC0C04030000E010181F94
:1009F600FC100007F008081004100410040808078B
:100A0600F0000010041FFC10841080108010800F6E
:100A160000000007F0081810241024101C080A070C
:100A2600F2000010041FFC1104110011C011300E59
:100A36000C000400000E1C11041084108410441CC9
:100A46003800001800100010041FFC1004100018D5
:100A560000000010001FF810040004000410041F1A
:100A6600F8100010001E0011E0001C007013801C1E
:100A76000010001FC0103C00E01F0000E0103C1FEB
:100A8600C000001004180C163401C001C01634183A
:100A96000C100410001C00130400FC13041C0010AE
:100AA6000000000804101C1064108413041C0410B9
:100AB6001800000000000000007FFE4002400240D7
:100AC600020000000030000C0003800060001C00E3
:100AD60003000000004002400240027FFE000000CA
:100AE6000000000000000020004000400040002000
:100AF60000000000010001000100010001000100EA
:100B0600010001000040004000200000000000003D
:100B16000000000000009801240144014401440043
:100B2600FC000410001FFC0088010401040088007A
:100B36007000000000007000880104010401040038
:100B46008800000000007000880104010411081FDD
:100B5600FC0004000000F801440144014401440083
:100B6600C800000000010401040FFC110411041167
:100B7600001800000000D601290129012901C90138
:100B860006000010041FFC0084010001000104009F
:100B9600FC000400000104190419FC000400040010
:100BA6000000000000000300010101190119FE0008
:100BB60000000010041FFC0024004001B4010C01D9
:100BC6000400000000100410041FFC0004000400D0
:100BD600000000010401FC0104010001FC01040104
:100BE6000000FC010401FC00840100010001040076
:100BF600FC0004000000F8010401040104010400E3
:100C0600F80000010101FF008501040104008800CD
:100C16007000000000007000880104010401050155
:100C2600FF00010104010401FC008401040100012C
:100C3600800000000000CC012401240124012401CD
:100C460098000000000100010007F80104010400FB
:100C5600000000010001F80004000400040108017E
:100C6600FC0004010001800170000C00100160010D
:100C760080010001F0010C003001C00030010C01C0
:100C8600F0010000000104018C00740170018C0168
:100C9600040000010101810171000E0018016001CC
:100CA60080010000000184010C013401440184012B
:100CB6000C0000000000000000000001003EFC40A7
:100CC6000240020000000000000000FFFF000000DC
:100CD6000000000000400240023EFC01000000004F
:100CE60000000000006000800080004000400020FE
:100CF60000200040107FF84910491049207FFF4826
:100D0600A088814882388C0FF01888E884488308C8
:100D1600820000008041004FFC7210421043F9002F
:100D2600014FF2480458186BE0481048084FE64057
:100D36000300000080010006001FFFE00050801441
:100D46008014801480FFFF14801484148214FC0025
:100D560000000000040804060401C40084FFFC002F
:100D66000400040004FFFC0044018406041C0C0873
:100D7600040000000000001FF012201220122012B2
:100D860020FFFC12221222122212221FF20002005F
:100D96000E000000800080408040804080408240FD
:100DA6008147FE488050806080408000800180003E
:100DB6008000000820484049804E007FFF8A008955
:100DC6002000204420334000400040FFFF00800008
:100DD600800000108010821101FFFE120014020034
:100DE60002130412C81230FE301248138412061081
:100DF60004000000000002000200020002000200DF
:100E0600027FFE0202020202020202020200060043
:100E1600020000000040004000400040004000404A
:100E2600007FFE44004600438041004000C0004071
:100E3600000000420842087FF04211429207040077
:100E460018FFE00004420442047FFC4204420442CC
:100E560004000002004200320023FE00044408554C
:100E6600FF55505550FD505552555155FE440004FE
:100E76000000000000010107027904111811E011B9
:100E860000FF00110011FC11021102110201020003
:100E96000E00000020802080209FFF92209220924A
:100EA60020FFE09220922292219FFE802080200047
:100EB6002000000040008151014A0146F55A936224
:100EC600910291E2911A9326F54A011301218101BB
:100ED6000000007FFF40004840542063C0113E11CF
:100EE6000411041104FFFC110411041104113E0144
:100EF60000000000101110111011101110FFFF005A
:100F06000000000000FFFF11101110111011101049
:100F160010000008200620807F6180060210021063
:100F260082108290827FFE108210821082108210C0
:100F36000200000202020CFFF082048202FFFC02A1
:100F46000202040218FFE082048202FFFC02000291
:100F560000000000010002000C7FF04440444044C1
:100F66004044407FFF44404440444244417FFE00A9
:100F760000000000010002000C1FF011001100111A
:100F8600009100510071001100110011001F0000B6
:100F9600000000FFFFFFFF800000018000000186C7
:100FA6000000018F0000018F803E0187C07F75839E
:100FB600E0735581F0F35580F9FF55807FFF5D8022
:100FC6003FFE01801FFC01801FF87D83FFF8558FCF
:100FD600FFF0559FFFE055BFFFE055BFFFFC01BC8A
:100FE6003F3E01B81F3F41B01F3F41801F1F7D801C
:100FF6001F0E41803E0041807E000180FC00018181
:10100600FC000181F000018000000180000001FF6A
:10101600FFFFFFFFFFFFFF8000000180000001804F
:1010260000000180000001800000018004000180B2
:101036000C007D800C0045801C0145801C0345800A
:101046003C0701807C0E01807C1C7D80FC3C058178
:10105600FC780581FCF07D83DDE001879FC0018778
:101066001F80418E1F00419C1E007DB81C0041B0B0
:10107600180041A0180001801000018000000180C6
:10108600000001800000018000000180000001FFD7
:10109600FFFFFFFFFFFFFF800000018000000180CF
:1010A6000000018000000180000001801F00018017
:1010B6003F807D80FFE05181E1F05983C0F82587AC
:1010C600807C0187003C018E001E758E000E558EB9
:1010D600000E558E00065D8F000201878002018793
:1010E600C0004183E8004181E8007D80F80041802E
:1010F60038004180F8000180000001800000018076
:10110600000001800000018000000180000001FF56
:10111600FFFFFF0000000000000000080000000CB8
:101126000030000E00300007003000038030000160
:10113600C0300000C03000001FFFFE007FFFFE0031
:10114600F0000001C0000003803000070030000EF0
:101156000030000C003000080030000000000007DE
:10116600FF3C3C0FFFFC3E0E03F81E0C01F00E0C7C
:1011760001F00E0C01F00E0C01F00E0C01F00E0C3D
:1011860001F00E0C01F00E0C01F81E0E03FFFE0F0F
:101196008FFFFE078F3FFC000000000000000000EC
:1011A6000000000000000000000000000000000039
:1011B6000000000000000000000000000000000029
:1011C6000000000000000000000000000000000019
:1011D600204000002180000027FE00003A080000A1
:1011E6002208000023FC0000010100004106000067
:1011F6007FF80000410000004100000041000000AF
:101206007FFF000041000000010000000000000018
:1012160000010000000600001FF800001100000099
:10122600110800001104000011F800001001000070
:1012360010020000FF8400001068000090180000F3
:101246005064000013820000101F00000000000020
:101256002410000024600000258000007FFF0000AD
:10126600C50000004480000000200000442000006B
:10127600332000000020000000200000FFFF0000D7
:101286000040000000400000004000000000000098
:10129600082000000822000008410000FFFE0000B0
:1012A6000880000009010000100100001102000082
:1012B60011C2000011340000FF08000011140000E4
:1012C6001162000011810000100100000000000002
:1012D6000000000000000000000000000000000008
:1012E60000000000000000000000000000000000F8
:1012F60000000000000000000000000000000000E8
:1013060000000000000000000000000000000000D7
:03131600000000D4
:10539300EF540FC454F0FEEF54F0C4540F4EFF54B7
:1053A3003325E025E0FEEF54CC1313543F4EFF5456
:0C53B3005525E0FEEF54AAC3134EFF2264
:1055A600EF4E60157D087C07ED1DAA0470011C4AAC
:0955B60070F6EF1F70EA1E80E799
:0155BF0022C9
:10541400ED6004D2A58002C2A5C2A3E4FEC2A6EF39
:1054240030E704D2A78002C2A7D2A6EF25E0FF0E80
:08543400EEB408E9D2A3D2A5F1
:01543C00224D
:1054FA00AC07ED24B0FFE4FD125414EC54F0C4548C
:10550A000F4410FF125414EC540F4401FF025414B8
:1050D300E4FCEC24B4FFE4FD1254147F04125414D2
:1050E3007F10125414E4FB75F004EBA42400F58242
:1050F300E5F03402F583E5822CF582E43583F5830C
:10510300E0FF7D011254140BEBB480DB0CECB40410
:01511300C1DA
:015114002278
:0752A300E490044DF0A3F0BC
:1052AA00E4FFE4FE75F004EEA42400F582E5F03490
:1052BA0002F583E5822FF582E43583F583E4F00E67
:0952CA00EEB480E00FEFB404D94A
:0152D30022B8
:0B499D00FFA3E0C399FD9004B7E0FB0E
:1049A800E490045CF0EFD3947F4003024A43ED9413
:1049B8003F4003024A43ED131313541FFEC3740709
:1049C8009E90045BF0ED5407FEC374079EFE7401CD
:1049D800A806088002C333D8FC90045CF0EB90046E
:1049E8005B602AE0FE75F004EFA42400F582E5F090
:1049F8003402F583E5822EF582E43583F583C0839E
:104A0800C082E0FF90045CE0FEEF4E8029E0FE7576
:104A1800F004EFA42400F582E5F03402F583E58282
:104A28002EF582E43583F583C083C082E0FF9004CD
:0B4A38005CE0F4FEEF5ED082D083F063
:014A43002250
:0C3A5D00FBED2409900450F0A37401F06C
:0C3A690090044DEFF0A90590044FEBF025
:103A7500E9FFA3E0C39FFEE49400900452F0A3CEB7
:103A8500F090044DE0FFC3EB9FFEE49400900454D6
:103A9500F0A3CEF0900452E0FEA3E0FFC3EE6480F5
:103AA50094805015C3E49FFFE49E900452F0A3EF69
:103AB500F090045774FFF080069004577401F0905D
:103AC5000454E0FEA3E0FFC3EE648094805013C36A
:103AD500E49FFFE49E900454F0A3EFF0A374FFF07D
:103AE50080069004567401F090044DE0FFAD0190FE
:103AF5000451E0FB1249A8900452E0FEA3E0FFA3A5
:103B0500E0FAA3E0FBD39FEE6480F8EA6480984076
:103B150059EAA2E713EB13FF900452A3E0C39FFCFD
:103B250090044FE0FF90044DE06F7003023BC2C369
:103B3500EC648094804010900457E029F990045477
:103B4500A3E0FFC3EC9FFC900456E0FF90044DE01A
:103B55002FF0900452A3E02CFC90044DE0FFAD0142
:103B6500900451E0FB1249A880B6900452E0A2E708
:103B750013A3E013FFA3A3E0C39FFC900450E069E7
:103B8500603BC3EC648094804015900456E0FF9040
:103B9500044DE02FF0900452A3E0FFC3EC9FFC908E
:103BA5000457E029F9900454A3E02CFC90044DE05F
:0D3BB500FFAD01900451E0FB1249A880BE55
:013BC20022E0
:10523C00FD9000021228B42F14FB9004557401F059
:06524C00AC07AA03A9054E
:10525200ECD39A4006AF02AA04AC07AF04AD0190AA
:0D5262000455E0FB1249A80CEAC39C50EE75
:01526F00221C
:0654B300AC05AA03A907E5
:1054B900ECD39A4006AF02AA04AC07AF01AD049041
:0D54C9000454E0FB1249A80CEAC39C50EE0D
:0154D60022B3
:104E9F0090044CEFF0A3EDF0A3EBF0900450E090F2
:104EAF000455F012524C90044CE0FF90044FE0FD7B
:104EBF0090044EE0FB900450E0900455F012524CD9
:104ECF0090044CE0FFA3E0FD90044FE0FBA3E090C3
:104EDF000454F01254B390044EE0FF90044DE0FDE3
:0E4EEF0090044FE0FBA3E0900454F00254B393
:0F4A440090044DEDF090044CEFF090044EEBF029
:104A5300EFD39B401690044CE0FF900451F0900478
:104A63004EE090044CF090044EEFF090044FE0FFC2
:104A730090044DE0FED39F400F900451EEF090045C
:104A83004DEFF090044FEEF090044FE0FF90044D93
:104A9300E0FDB5071590044CE0FF90044EE0FB9059
:104AA3000450E0900455F002524C90044EE0FF9005
:104AB300044CE06F602B90044FE0FF90044DE0FD49
:104AC300D39F501D90044CE0FF90044EE0FB9004F4
:104AD30050E0900455F012524C90044DE004F080E5
:014AE300D5FD
:014AE40022AF
:104FA5009004C1EFF0AE03A905EE6043EEFD900459
:104FB500C1E02DFDE433FCD3ED9480EC6480948056
:104FC500502DEEFDE92DFDE433FCD3ED9420EC648A
:104FD500809480501A9004C1E0FFAD012EFBE92EAC
:104FE50090044FF09004C4E0900450F0124E9F22BC
:104FF5009004C5EFF0AE03A905EE6043EEFD900405
:10500500C5E02DFDE433FCD3ED9480EC6480948001
:10501500502DEEFDE92DFDE433FCD3ED9420EC6439
:10502500809480501A9004C5E0FFAD012EFBE92E57
:1050350090044FF09004C8E0900450F0124A4422C6
:0E43590090049EEBF0A3EAF0A3E9F0A3EDF0D0
:1043670070030244429004A1E0B4013590049EE03A
:10437700FBA3E475F00112291BA9F0FA12289B9000
:1043870004A3F090049EE0FBA3E0FAA3E0F912284F
:104397009BFC9004A3E0FFAD049004A2E0FB12494C
:1043A700A890049EE0FBA3E475F00112291BA9F075
:1043B700FA12289B9004A3F090049EE0FBA3E475F7
:1043C700F00112291BA9F0FA12289BFC9004A6748D
:1043D70001F09004A1E0FF9004A6E0C39F505C9019
:1043E700049EE0FBA3E475F00112291BA9F0FA1261
:1043F700289B9004A4F090049EE0FBA3E475F001D1
:1044070012291BA9F0FA12289B9004A5F09004A387
:10441700E0FFAD04A3E0FBA3E0900450F09004A2FA
:10442700E0900451F0123A699004A4E09004A3F0DC
:0B4437009004A5E0FCA3E004F08097D7
:014442002257
:0848F4009004B3EFF0A3EDF016
:1048FC00E4FCAF03A907EF25E0FFC374039FFAECB8
:10490C00D399400302499C9004B3E02CFFA3E02907
:10491C001249A29004B3E02C12499D9004B3E0C359
:10492C009CFFA3E0291249A29004B3E0C39C124956
:10493C009D9004B3E029FFA3E02C1249A29004B38C
:10494C00E029FFA3E0C39C1249A29004B3E0C399F1
:10495C00FFA3E02C1249A29004B3E0C399FFA3E09B
:10496C00C39C1249A2C3EA64809480500FAF040C1C
:10497C00EF25E025E024062AFA02490BAF0119AE17
:10498C00040CC3EE9F25E025E0240A2AFA02490B09
:01499C0022F8
:0B237300900443EBF0A3EAF0A3E9F0B4
:10237E009000021228B4FEC394144016900443E059
:10238E00FBA3E0FAA3E0F99000031228B4C394145F
:10239E0050037F0022EEFF12289B2FFFE433FED363
:1023AE00EF9480EE6480948040037F00229004437B
:1023BE00E0FBA3E0FAA3E0F99000031228B4FF902B
:1023CE0000011228B42FFFE433FED3EF9420EE6405
:1023DE0080948040037F0022900443E0FBA3E0FA48
:1023EE00A3E0F912289BFCFFC0079000011228B44D
:1023FE00FD9000021228B42C14FBC003900443E09D
:10240E00FB9000031228B4FF9000011228B42F1481
:10241E0090044FF0E4A3F0D003D007124A44900486
:10242E0043E0FBA3E0FAA3E0F912289BFCFFC007F0
:10243E009000011228B4FD9000021228B42C14FB57
:10244E00C003900443E0FB9000031228B4FF9000F9
:10245E00011228B42F1490044FF0A37401F0D0038E
:10246E00D007124E9F900443E0FBA3E0FAA3E0F9DD
:10247E0012289BFF9000011228B4240912523C909E
:10248E000443E0FBA3E0FAA3E0F99000021228B4A3
:10249E00FF12289B2F24F6FF9000011228B4FD2472
:1024AE0009FB9004547401F01254B3900443E0FB02
:1024BE00A3E0FAA3E0F99000021228B4FF12289BC1
:1024CE002FFE24F6FF9000011228B4FDEE14123AEE
:1024DE005D900443E0FBA3E0FAA3E0F99000021242
:1024EE0028B4FF12289B2FFE14FF9000011228B46F
:1024FE00FDEE24F6123A5D900443E0FBA3E0FAA34E
:10250E00E0F9900004122AC2E94A70030225CD9028
:10251E000443E0FBA3E0FAA3E0F9900004122AC200
:10252E00900446EBF0A3EAF0A3E9F0900443E0FB3D
:10253E00A3E0FAA3E0F912289BFF2402900449F0CD
:10254E009000011228B40490044AF0900002122860
:10255E00B42F1490044BF0900449E0FF3395E0FE45
:10256E00EF2408FFE43EFE90044BE0FD3395E0FCC3
:10257E00D3EF9DEC6480F8EE648098504290044650
:10258E00E0FBA3E0FAA3E0F912289B603290044925
:10259E00E0FFA3E0FD900446E0FBA3E475F001121A
:1025AE00291BA9F0FA12289BFB9004577407F0A37D
:1025BE007401F0124188900449E02406F08098904E
:1025CE000443E0FBA3E0FAA3E0F9900007122AC24D
:1025DE00E94A7003022696900443E0FBA3E0FAA3B7
:1025EE00E0F9900007122AC2900446EBF0A3EAF03D
:1025FE00A3E9F0900443E0FBA3E0FAA3E0F912286C
:10260E009BFF2402900449F09000011228B4240C80
:10261E0090044AF09000021228B42F1490044BF04C
:10262E00900449E0FF3395E0FEEF2408FFE43EFE00
:10263E0090044BE0FD3395E0FCD3EF9DEC6480F805
:10264E00EE6480985042900446E0FBA3E0FAA3E0CB
:10265E00F912289B6032900449E0FFA3E0FD90043C
:10266E0046E0FBA3E475F00112291BA9F0FA12282B
:10267E009BFB9004577407F0A37401F012418890ED
:10268E000449E02406F08098900443E0FBA3E0FAAE
:10269E00A3E0F990000A122AC2E94A70030227A2A7
:1026AE00900443E0FBA3E0FAA3E0F99000031228A4
:1026BE00B4C3941950037F0022900443E0FBA3E0BF
:1026CE00FAA3E0F912289BFF9000031228B4FE90A3
:1026DE0000011228B42E24F612523C900443E0FB63
:1026EE00A3E0FAA3E0F990000A122AC2900446EB86
:1026FE00F0A3EAF0A3E9F0900443E0FBA3E0FAA311
:10270E00E0F912289BFF2403900449F09000031275
:10271E0028B4FE9000011228B42E24F790044AF03B
:10272E009000021228B42F1490044BF0900449E04C
:10273E00FF3395E0FEEF2408FFE43EFE90044BE0ED
:10274E00FD3395E0FCD3EF9DEC6480F8EE64809849
:10275E005042900446E0FBA3E0FAA3E0F912289B56
:10276E006032900449E0FFA3E0FD900446E0FBA335
:10277E00E475F00112291BA9F0FA12289BFB9004B4
:10278E00577407F0A37401F0124188900449E024B5
:06279E0006F080987F01A7
:0127A4002212
:075335009004B9EDF0A9039B
:10533C00AC07ECD399501F9004B9E0FA9004BBE091
:10534C00FFEAD39F500DAF04AD02A3E0FB1249A8B6
:09535C000A80E90C80DC0250D348
:10417600FFA3E02408FD9004577407F0A37401F030
:024186007B2D8F
:0C418800900454EFF0900456EBF0A905F1
:1041940090045AE9F0900456E024E0F0E4FC900422
:1041A40057E0FFECC39F400302426AEFB407299033
:1041B4000456E075F006A4245BF582E5F03400F5BE
:1041C40083E5822CF582E43583F583E493FF12536F
:1041D40093900459EFF08038900457E0900456B45B
:1041E4000C0FE075F00CA42495F582E5F034028000
:1041F4000DE075F010A42409F582E5F03407F58389
:10420400E5822CF582E43583F583E493900459F038
:10421400E4FA900459E030E70E900454E0FFAD0155
:10422400900458E0FB8013900454E0FFAD01900427
:1042340058E070047B0180027B001249A890045965
:10424400E025E0F009A3E0FFC3E99FFE900457E0F6
:10425400B5060AA907900454E004F080050AEAB4FC
:0642640008B00C0241A2AB
:01426A002231
:085045009004A7EFF0A3EDF0C9
:10504D00A3122A91000000019004A8E0FF14F0EFD4
:10505D006020A3E0F8A3E0F9A3E0FAA3E0FB90043D
:10506D00A7E0FFE4FCFDFE1229319004A9122A8568
:10507D0080D69004A9E0FCA3E0FDA3E0FEA3E0FF31
:01508D002200
:0846B400900493EFF0A3EDF078
:1046BC00E490049DF090049BF0900499E0FF90042A
:1046CC009BE0FEC39F400302477AC3EF9E14FD7F1D
:1046DC000A125045A804A905AA06AB07900495E058
:1046EC00FCA3E0FDA3E0FEA3E0FF1229BCE47B0ADF
:1046FC00FAF9F81229BC90049CEBF0A3E0703A9004
:10470C000499E014FF90049BE0FEC39F502BA3E0A0
:10471C00702190049AE0FCC3138EF0A4FF900493D4
:10472C00E02FFFA3E0FD900457ECF0A37401F07BA5
:10473C0020802F90049D7401F090049AE0FEC31326
:10474C00FFA3E0FDEF8DF0A4FF900493E02FFFA3F7
:10475C00E0FD90049CE02430FB900457EEF0A37431
:0E476C0001F012418890049BE004F00246C563
:01477A00221C
:103E49007BFF7A007940900452740CF0A37401F05E
:043E5900E4FD7F4EB7
:103E5D0090044DEFF0A3EDF0A3EBF0A3EAF0A3E98E
:103E6D00F090044FE0FBA3E0FAA3E0F912289B7059
:103E7D0003023F6B900452E06410704C90044DE0CF
:103E8D00D3947A4007E4F0A3E02410F090044EE0C0
:103E9D00D3942040031252A390044DE0FFA3E0FD04
:103EAD00A3E0FBA3E0FAA3E0F912289BFB900457D3
:103EBD007410F0900453E0900458F012418890046F
:103ECD004DE02408F0023F5E900452E0640C70381F
:103EDD0090044DE0D3947A4007E4F0A3E02410F071
:103EED0090044EE0D3942040031252A390044DE071
:103EFD00FFA3E0FDA3E0FBA3E0FAA3E0F912289BEA
:103F0D00FB900457740C803690044DE0D3947A40A6
:103F1D0007E4F0A3E02410F090044EE0D394204089
:103F2D00031252A390044DE0FFA3E0FDA3E0FBA319
:103F3D00E0FAA3E0F912289BFB9004577407F09068
:103F4D000453E0900458F012418890044DE024068B
:0F3F5D00F0900450E475F001122905023E6E2227
:0C4B7B009004ADEFF09004AFEBF0A90542
:104B87009004B2E9F0E4FCECC394109004AFE07534
:104B9700F020A424F9F582E5F0340CF583E5822CA6
:104BA700F582E43583F583E4939004B1F0E4FA9059
:104BB70004B1E030E70E9004ADE0FFAD019004B022
:104BC700E0FB80139004ADE0FFAD019004B0E0700E
:104BD700047B0180027B001249A89004B1E025E024
:104BE700F009A3E0FFC3E99FFEBE100AA9079004DE
:104BF700ADE004F080050AEAB408B40CEC64207058
:014C07008626
:014C08002289
:0B4D1200900436EFF0A3EDF0A3EBF0EF
:104D1D00A3E090044FF090043AE0900450F0124E4E
:104D2D009FE490043BF0900436E0FF900438E0C31C
:104D3D009FFF90043BE0FEC39F5033900436E0FC90
:104D4D0004FFA3E004FDEC2EFB900439E014900465
:104D5D004FF090043AE0900450F0124A441250D3B0
:0E4D6D001256D51256D590043BE004F080B8E3
:014D7B002215
:09477B00900436EBF0AC05A9072F
:10478400ECFF90043DE4F0A3EFF0E4900439F0A3CF
:10479400F0900439E0FEA3E0FFC3EE94024003026C
:1047A400483F74192FF58274113EF583E493FF900A
:1047B4000437E4F0A3EFF0E490043BF0A3F090049A
:1047C40038E030E70BAF01AD04900436E0FB801015
:1047D400AF01AD04900436E070047B0180027B00DD
:1047E4001249A8900438E025E0F0900437E033F053
:1047F4000CECFF90043DE0FAA3E0FBC3EF9BFFE465
:104804009AFEEF64204E7005AC0309801D90043CB1
:10481400E004F0700690043BE004F0C390043CE034
:10482400940890043BE09400409490043AE004F02F
:0B4834007006900439E004F002479584
:01483F002256
:10407D0090043D74FFF0A37410F0A37419F07B014C
:04408D00E4FD7F309F
:0F40910090043AEFF090043CEBF090043BEDF01C
:1040A000FF900446E4F0A3EFF0E4900442F0A3F0A4
:1040B00090043DE0FBA3E0FAA3E0F912289BFF90F7
:1040C0000440E4F0A3EFF090043EE475F0011229FF
:1040D00005E4900444F0A3F0900441E030E70D9033
:1040E000043AE0FFA3E0FDA3E0FB801290043AE075
:1040F000FFA3E0FDA3E070047B0180027B00124976
:10410000A8900441E025E0F0900440E033F09004F2
:104110003BE004F0E0FF900446E0FCA3E0FDC3EFC9
:104120009DFFE49CFEEF64204E700D90043BEDF08B
:1041300090043AE004F0801D900445E004F070061D
:10414000900444E004F0C3900445E09408900444D3
:10415000E094004083900443E004F0700690044231
:10416000E004F0C3900443E09480900442E09400A3
:0541700050030240B005
:014175002227
:10444300900439EFF0900457740CF0A37401F07BDF
:104453003C7D0BE4FF124188900457740CF0A37465
:1044630001F07B3E7D0B7F78124188900439E07028
:104473002D90043D74FFF0A3740FF0A37499F0E43E
:10448300FBFD7F0A12409112407D90043D74FFF0C2
:10449300A37410F0A37499F07B01E4024510900417
:1044A30039E0640190043D703D74FFF0A3740FF094
:1044B300A37499F07B01E4FD7F0A12409190043DBF
:1044C30074FFF0A37410F0A37419F0E4FBFD7F30C4
:1044D30012409190043D74FFF0A37410F0A37499FB
:1044E300F07B01E4802774FFF0A3740FF0A37499A9
:1044F300F07B01E4FD7F0A12409112407D90043D60
:1045030074FFF0A37410F0A37499F0E4FBFD7F56DD
:04451300124091229F
:103F6C00900439EFF070297BFF7A00792690045287
:103F7C00740CF0E4A3F0FDFF123E5D7BFF7A007938
:103F8C0033900452740CF0A37401F07D0FE4802F75
:103F9C00900439E0640170407BFF7A00792690042C
:103FAC0052740CF0A37401F0E4FDFF123E5D7BFF34
:103FBC007A007933900452740CF0E4A3F07D0FFF77
:103FCC00123E5D123E497BFF7A0079469004527492
:103FDC000CF0A37401024074900439E064027BFF7E
:103FEC007A007926900452704A740CF0A37401F094
:103FFC00E4FDFF123E5D7BFF7A007933900452742E
:10400C000CF0A37401F07D0FE4FF123E5D7BFF7A90
:10401C00007940900452740CF0E4A3F0FD7F4E1232
:10402C003E5D7BFF7A007946900452740CF0A374C9
:10403C00018035740CF0A37401F0E4FDFF123E5DB9
:10404C007BFF7A007933900452740CF0A37401F066
:10405C007D0FE4FF123E5D123E497BFF7A007946EC
:10406C00900452740CF0E4A3F07D0F7F4E123E5D71
:01407C002221
:10131900900443EFF0A3EDF0EF2404FF7BFF7A0084
:10132900794F9004527407F0A37401F0123E5D9056
:101339000443E02404FFA3E02410FD7BFF7A007935
:10134900559004527407F0A37401F0123E5D9004A5
:1013590050741FF0A37401F07B26E4FD7F26123A36
:1013690069E4900450F0A304F07B28E4FD7F261281
:101379003A69900450740FF0A37401F07B287D0F33
:101389007F26123A69900450741FF0A37401F07B10
:10139900287D1F7F26123A69900443E02424F0E057
:1013A9002406FFC007900445E0FCA3E0FDA3E0FE8E
:1013B900A3E0FF7817122A5FEF5401FFEF2430FBF7
:1013C9009004577407F0A37401F0900444E0FDD031
:1013D90007124188900443E0240CFFC0079004459C
:1013E900E0FCA3E0FDA3E0FEA3E0FF7816122A5F6C
:1013F900EF5401FFEF2430FB9004577407F0A374F6
:1014090001F0900444E0FDD007124188900443E0C4
:101419002412FFC007900445E0FCA3E0FDA3E0FE11
:10142900A3E0FF7815122A5FEF5401FFEF2430FB88
:101439009004577407F0A37401F0900444E0FDD0C0
:1014490007124188900443E02418FFC0079004451F
:10145900E0FCA3E0FDA3E0FEA3E0FF7814122A5FFD
:10146900EF5401FFEF2430FB9004577407F0A37485
:1014790001F0900444E0FDD007124188900443E054
:10148900241EFFA3E012417B900443E02424FFC003
:1014990007900445E0FCA3E0FDA3E0FEA3E0FF788C
:1014A90013122A5FEF5401FFEF2430FB90045774A5
:1014B90007F0A37401F0900444E0FDD007124188BD
:1014C900900443E0242AFFC007900445E0FCA3E010
:1014D900FDA3E0FEA3E0FF7812122A5FEF5401FF9B
:1014E900EF2430FB9004577407F0A37401F09004C3
:1014F90044E0FDD007124188900443E02430FFC046
:1015090007900445E0FCA3E0FDA3E0FEA3E0FF781B
:1015190011122A5FEF5401FFEF2430FB9004577436
:1015290007F0A37401F0900444E0FDD0071241884C
:10153900900443E02436FFC007900445E0FCA3E093
:10154900FDA3E0FEA3E0FF7810122A5FEF5401FF2C
:10155900EF2430FB9004577407F0A37401F0900452
:1015690044E0FDD007124188900443E0243CFFA3E6
:10157900E012417B900443E02442FFC007900445F8
:10158900E0FCA3E0FDA3E0FEA3E0FF780F122A5FD1
:10159900EF5401FFEF2430FB9004577407F0A37454
:1015A90001F0900444E0FDD007124188900443E023
:1015B9002448FFC007900445E0FCA3E0FDA3E0FE3A
:1015C900A3E0FF780E122A5FEF5401FFEF2430FBEE
:1015D9009004577407F0A37401F0900444E0FDD01F
:1015E90007124188900443E0244EFFC00790044548
:1015F900E0FCA3E0FDA3E0FEA3E0FF780D122A5F63
:10160900EF5401FFEF2430FB9004577407F0A374E3
:1016190001F0900444E0FDD007124188900443E0B2
:101629002454FFC007900445E0FCA3E0FDA3E0FEBD
:10163900A3E0FF780C122A5FEF5401FFEF2430FB7F
:101649009004577407F0A37401F0900444E0FDD0AE
:1016590007124188900443E02406FFC007A3E02451
:1016690008FDC005A3E0FCA3E0FDA3E0FEA3E0FFA5
:10167900780B122A5FEF5401FFEF2430FB900457D7
:101689007407F0A37401F0D005D0071241889004C3
:1016990043E0240CFFC007A3E02408FDC005A3E034
:1016A900FCA3E0FDA3E0FEA3E0FF780A122A5FEFA6
:1016B9005401FFEF2430FB9004577407F0A3740121
:1016C900F0D005D007124188900443E02412FFC0EE
:1016D90007A3E02408FDC005A3E0FCA3E0FDA3E007
:1016E900FEA3E0FF7809122A5FEF5401FFEF2430CF
:1016F900FB9004577407F0A37401F0D005D00712CA
:101709004188900443E02418FFC007A3E02408FDA2
:10171900C005A3E0FCA3E0FDA3E0FEA3E0FF780879
:10172900122A5FEF5401FFEF2430FB90045774072E
:10173900F0A37401F0D005D007124188900443E06A
:10174900241E124176900443E02424FFC007A3E03D
:101759002408FDC005A3E0FCA3E0FDA3E0FEA3E08F
:10176900FF7807122A5FEF5401FFEF2430FB900442
:10177900577407F0A37401F0D005D007124188907F
:101789000443E0242AFFC007A3E02408FDC005A301
:10179900E0FCA3E0FDA3E0FEA3E0FF7806122A5FC8
:1017A900EF5401FFEF2430FB9004577407F0A37442
:1017B90001F0D005D007124188900443E02430FF9E
:1017C900C007A3E02408FDC005A3E0FCA3E0FDA336
:1017D900E0FEA3E0FF7805122A5FEF5401FFEF2432
:1017E90030FB9004577407F0A37401F0D005D007BB
:1017F900124188900443E02436FFC007A3E024087F
:10180900FDC005A3E0FCA3E0FDA3E0FEA3E0FF7893
:1018190004122A5FEF5401FFEF2430FB9004577440
:1018290007F0A37401F0D005D00712418890044352
:10183900E0243C124176900443E02442FFC007A310
:10184900E02408FDC005A3E0FCA3E0FDA3E0FEA39E
:10185900E0FF7803122A5FEF5401FFEF2430FB9079
:1018690004577407F0A37401F0D005D0071241881A
:10187900900443E02448FFC007A3E02408FDC00505
:10188900A3E0FCA3E0FDA3E0FEA3E0FF7802122A97
:101899005FEF5401FFEF2430FB9004577407F0A366
:1018A9007401F0D005D007124188900443E0244E1A
:1018B900FFC007A3E02408FDC005A3E0FCA3E0FDE9
:1018C900A3E0FEA3E0FF7801122A5FEF5401FFEFC6
:1018D9002430FB9004577407F0A37401F0D005D0AD
:1018E90007124188900443E02454FFC007A3E02471
:1018F90008FDC005A3E0FCA3A3E0FEA3E05401FF9B
:10190900EF2430FB9004577407F0A37401F0D0055D
:10191900D007124188900443E02406FFC007A3E0E2
:101929002410FDC005900449E0FCA3E0FDA3E0FEFE
:10193900A3E0FF7817122A5FEF5401FFEF2430FB71
:101949009004577407F0A37401F0D005D007124131
:1019590088900443E0240CFFC007A3E02410FDC0D5
:1019690005900449E0FCA3E0FDA3E0FEA3E0FF78B5
:1019790016122A5FEF5401FFEF2430FB90045774CD
:1019890007F0A37401F0D005D007124188900443F1
:10199900E02412FFC007A3E02410FDC0059004490C
:1019A900E0FCA3E0FDA3E0FEA3E0FF7815122A5FA7
:1019B900EF5401FFEF2430FB9004577407F0A37430
:1019C90001F0D005D007124188900443E02418FFA4
:1019D900C007A3E02410FDC005900449E0FCA3E082
:1019E900FDA3E0FEA3E0FF7814122A5FEF5401FF84
:1019F900EF2430FB9004577407F0A37401F0D0056D
:101A0900D007124188900443E0241EFFA3E024106C
:101A190012417B900443E02424FFC007A3E0241073
:101A2900FDC005900449E0FCA3E0FDA3E0FEA3E0AE
:101A3900FF7813122A5FEF5401FFEF2430FB900463
:101A4900577407F0A37401F0D005D00712418890AC
:101A59000443E0242AFFC007A3E02410FDC0059039
:101A69000449E0FCA3E0FDA3E0FEA3E0FF78121225
:101A79002A5FEF5401FFEF2430FB9004577407F0FD
:101A8900A37401F0D005D007124188900443E024E3
:101A990030FFC007A3E02410FDC005900449E0FC15
:101AA900A3E0FDA3E0FEA3E0FF7811122A5FEF5443
:101AB90001FFEF2430FB9004577407F0A37401F081
:101AC900D005D007124188900443E02436FFC007AF
:101AD900A3E02410FDC005900449E0FCA3E0FDA3A8
:101AE900E0FEA3E0FF7810122A5FEF5401FFEF2414
:101AF90030FB9004577407F0A37401F0D005D007A8
:101B0900124188900443E0243CFFA3E024101241D1
:101B19007B900443E02442FFC007A3E02410FDC0EA
:101B290005900449E0FCA3E0FDA3E0FEA3E0FF78F3
:101B39000F122A5FEF5401FFEF2430FB9004577412
:101B490007F0A37401F0D005D0071241889004432F
:101B5900E02448FFC007A3E02410FDC00590044914
:101B6900E0FCA3E0FDA3E0FEA3E0FF780E122A5FEC
:101B7900EF5401FFEF2430FB9004577407F0A3746E
:101B890001F0D005D007124188900443E0244EFFAC
:101B9900C007A3E02410FDC005900449E0FCA3E0C0
:101BA900FDA3E0FEA3E0FF780D122A5FEF5401FFC9
:101BB900EF2430FB9004577407F0A37401F0D005AB
:101BC900D007124188900443E02454FFC007A3E0E2
:101BD9002410FDC005900449E0FCA3E0FDA3E0FE4C
:101BE900A3E0FF780C122A5FEF5401FFEF2430FBCA
:101BF9009004577407F0A37401F0D005D00712417F
:101C090088900443E02406FFC007A3E02418FDC020
:101C190005900449E0FCA3E0FDA3E0FEA3E0FF7802
:101C29000B122A5FEF5401FFEF2430FB9004577425
:101C390007F0A37401F0D005D0071241889004433E
:101C4900E0240CFFC007A3E02418FDC00590044957
:101C5900E0FCA3E0FDA3E0FEA3E0FF780A122A5FFF
:101C6900EF5401FFEF2430FB9004577407F0A3747D
:101C790001F0D005D007124188900443E02412FFF7
:101C8900C007A3E02418FDC005900449E0FCA3E0C7
:101C9900FDA3E0FEA3E0FF7809122A5FEF5401FFDC
:101CA900EF2430FB9004577407F0A37401F0D005BA
:101CB900D007124188900443E02418FFC007A3E02D
:101CC9002418FDC005900449E0FCA3E0FDA3E0FE53
:101CD900A3E0FF7808122A5FEF5401FFEF2430FBDD
:101CE9009004577407F0A37401F0D005D00712418E
:101CF90088900443E0241EFFA3E0241812417B903E
:101D09000443E02424FFC007A3E02418FDC0059084
:101D19000449E0FCA3E0FDA3E0FEA3E0FF7807127D
:101D29002A5FEF5401FFEF2430FB9004577407F04A
:101D3900A37401F0D005D007124188900443E02430
:101D49002AFFC007A3E02418FDC005900449E0FC60
:101D5900A3E0FDA3E0FEA3E0FF7806122A5FEF549B
:101D690001FFEF2430FB9004577407F0A37401F0CE
:101D7900D005D007124188900443E02430FFC00702
:101D8900A3E02418FDC005900449E0FCA3E0FDA3ED
:101D9900E0FEA3E0FF7805122A5FEF5401FFEF246C
:101DA90030FB9004577407F0A37401F0D005D007F5
:101DB900124188900443E02436FFC007A3E02418A9
:101DC900FDC005900449E0FCA3E0FDA3E0FEA3E00B
:101DD900FF7804122A5FEF5401FFEF2430FB9004CF
:101DE900577407F0A37401F0D005D0071241889009
:101DF9000443E0243CFFA3E0241812417B900443F0
:101E0900E02442FFC007A3E02418FDC0059004495F
:101E1900E0FCA3E0FDA3E0FEA3E0FF7803122A5F44
:101E2900EF5401FFEF2430FB9004577407F0A374BB
:101E390001F0D005D007124188900443E02448FFFF
:101E4900C007A3E02418FDC005900449E0FCA3E005
:101E5900FDA3E0FEA3E0FF7802122A5FEF5401FF21
:101E6900EF2430FB9004577407F0A37401F0D005F8
:101E7900D007124188900443E0244EFFC007A3E035
:101E89002418FDC005900449E0FCA3E0FDA3E0FE91
:101E9900A3E0FF7801122A5FEF5401FFEF2430FB22
:101EA9009004577407F0A37401F0D005D0071241CC
:101EB90088900443E02454FFC007A3E02418FDC020
:101EC90005900449E0FCA3A3E0FEA3E05401FFEF61
:101ED9002430FB9004577407F0A37401F0D005D0A7
:041EE9000702418823
:10484000D2A47F647E001255A6C2A47F647E0012AB
:1048500055A6D2A4E4FD7FFD1254147F1212541405
:104860007FAE1254147F201254147F021254147F0E
:10487000B4125414E4FF1254147F101254147F60C5
:104880001254147FD51254147FF01254147FA812BE
:1048900054147F1F1254147FD3125414E4FF125483
:1048A000147FA11254147FC01254147FD8125414D0
:1048B0007F051254147FDA1254147F121254147F9D
:1048C000D91254147FF11254147F811254147FBFF3
:1048D0001254147FDB1254147F341254147FA41228
:1048E00054147FA61254147FAF1254141252AAE427
:0448F000FF0254FA75
:104DDF00900436122A8553877F759850438E04901E
:104DEF000436E0F8A3E0F9A3E0FAA3E0FB7F007E2E
:104DFF00307D2A7C001229BCEFF404F5D7900436DD
:104E0F00E0F8A3E0F9A3E0FAA3E0FB7F007E307D9A
:104E1F002A7C001229BCC3E49FFFE49EFE74019D0F
:104E2F00FDE49CFC7808122A5F8FD6438E01438ED7
:024E3F0010223F
:0B56E0007F007EC27D017C00024DDFD8
:085707008F993099FDC299222F
:10527000900436EBF0A3EAF0A3E9F0900436E0FBEB
:10528000A3E0FAA3E0F912289B6017900436A3E488
:1052900075F00112291BA9F0FA12289BFF1256394A
:0352A00080D92290
:10563900AE07EEB40A097F0D1257077F0A8002AF41
:0756490006125707AF06220D
:10565000EFC3940AEF50052430FD80032437FDAFDB
:0456600005025639B0
:10555500AC077F20125639ECC4540FFF125650EC9D
:0B556500540FFF1256507F20025639F1
:030023000255F291
:0655F200C0E0C083C0828E
:0B55F800309808C298900434E599F048
:07560300D082D083D0E03219
:0956F600D287C284C286C285225B
:10566400E4FEEF339284C285D285EF25E0FF0EEE8F
:03567400B408EF88
:015677002210
:10557000C286AF051DEF601012289BFF125664749F
:0B5580000129F9E43AFA80EAD2862201
:104EFD00436F6465204E6F2E3A00204E47212120CE
:104F0D000020202020202000504153532121004912
:104F1D006E666F00565436323533382D4231005699
:104F2D005436323533382D423200434F42004F4B09
:104F3D003A004E473A004144443A00534144442D0F
:054F4D004E6F2E3A003A
:0C56C900759DFFE4F5BDF5BE75BC8022A8
:1054D700EF4488F5BC00000000E5BC30E4FB53BC9A
:1054E700EFAFBDEF75F004A4ADBE7C002DFFEC352A
:0354F700F0FE22A2
:0552D400E4FF1254D7B5
:1052D9008F828E837E037FE8AD82AC83122AF2C06F
:1052E90006C007AE83AF82C3E49FFF74049EAB0779
:0C52F900FAE4F9F8D007D0061229BC2214
:10359D00C283C281C282C2801256D51252D4900407
:1035AD0004EEF0A3EFF0000000007F011254D712DB
:1035BD0052D990040CEEF0A3EFF0000000007F0252
:1035CD001254D71252D9900414EEF0A3EFF000006C
:1035DD0000007F031254D71252D990041CEEF0A3B1
:1035ED00EFF0000000007F041254D71252D990045E
:1035FD0024EEF0A3EFF0000000007F051254D71267
:10360D0052D9900426EEF0A3EFF0000000007F06E3
:10361D001254D71252D9900428EEF0A3EFF0000007
:10362D0000007F071254D71252D990042AEEF0A34E
:10363D00EFF0C283C281D282D2801256D51252D4FB
:10364D00900406EEF0A3EFF0000000007F0112548D
:10365D00D71252D990040EEEF0A3EFF00000000047
:10366D0090040EE0FF12555590040EA3E0FF125585
:10367D00557F021254D71252D9900416EEF0A3EFD3
:10368D00F0000000007F031254D71252D990041E8F
:10369D00EEF0A3EFF0D283D281C282C2801256D552
:1036AD001252D4900408EEF0A3EFF0000000007F5A
:1036BD00011254D71252D9900410EEF0A3EFF0007E
:1036CD000000007F021254D71252D9900418EEF068
:1036DD00A3EFF0000000007F031254D71252D990CF
:1036ED000420EEF0A3EFF0D283D281D282D28012E9
:1036FD0056D51252D490040AEEF0A3EFF00000005C
:10370D00007F011254D71252D9900412EEF0A3EF9C
:10371D00F0000000007F021254D71252D990041A03
:10372D00EEF0A3EFF0000000007F031254D7125209
:09373D00D9900422EEF0A3EFF094
:013746002260
:103BC300AB07900400122A9100000000EB6401602F
:103BD30003023C55900433E0540125E0FF900403B5
:103BE300E054FD4FF0900433E0540225E025E0FF5C
:103BF300900403E054F74FF0900433E0540433335C
:103C03003354F8FF900403E054DF4FF0900433E0A3
:103C13005408C454F0FF900403E0547F4FF0900421
:103C230033E05410131313541FFF900402E054FDA8
:103C33004FF0900433E054201313543FFF900402D9
:103C4300E054F74FF0900433E054401313543F0211
:103C53003CE7EB6003023CF1900433E05401FF9036
:103C63000403E054FE4FF0900433E0540225E0FFD8
:103C7300900403E054FB4FF0900433E0540425E038
:103C830025E0FF900403E054EF4FF0900433E05439
:103C93000833333354F8FF900403E054BF4FF090DC
:103CA3000433E05410C4540FFF900402E054FE4F59
:103CB300F0900433E05420131313541FFF900402B5
:103CC300E054FB4FF0900433E05440131313541F9C
:103CD300FF900402E054F74FF0900433E054801354
:103CE3001313541FFF900402E054EF4FF02290048B
:103CF30030E0FCA3E0FDA3E0FEA3E0FF900400128C
:033D03002A8522EC
:102EC600D20190042C122A9100000000900433E0F5
:102ED60030E01AC3900405E0942C900404E09401B9
:102EE600400990042FE04401F08002C201900433AF
:102EF600E0C31330E01AC3900407E0942C90040654
:102F0600E09401400990042FE04402F08002C201DF
:102F1600900433E01313543F30E01AC3900409E0E1
:102F2600942C900408E09401400990042FE0440496
:102F3600F08002C201900433E0131313541F30E0F3
:102F46001AC390040BE0942C90040AE09401400903
:102F560090042FE04408F08002C201900433E0C4DC
:102F6600540F30E01AC390040DE0942C90040CE04A
:102F76009401400990042FE04410F08002C20190B1
:102F86000433E0C413540730E01AC390040FE094EE
:102F96002C90040EE09401400990042FE04420F0A8
:102FA6008002C201900433E0C41313540330E01AC4
:102FB600C3900411E0942C900410E0940140099011
:102FC600042FE04440F08002C201900433E0C413B1
:102FD6001313540130E01AC3900413E0942C9004A8
:102FE60012E09401400990042FE04480F08002C270
:102FF60001900432E030E01AC3900415E0942C905E
:103006000414E09401400990042EE04401F080028B
:10301600C201900432E0C31330E01AC3900417E0F3
:10302600942C900416E09401400990042EE044028A
:10303600F08002C201900432E01313543F30E01ACC
:10304600C3900419E0942C900418E0940140099070
:10305600042EE04404F08002C201900432E013130F
:1030660013541F30E01AC390041BE0942C90041AEA
:10307600E09401400990042EE04408F08002C20169
:10308600900432E0C4540F30E01AC390041DE0945B
:103096002C90041CE09401400990042EE04410F0AA
:1030A6008002C201900432E0C413540730E01AC310
:1030B60090041FE0942C90041EE0940140099004B3
:1030C6002EE04420F08002C201900432E0C41313C3
:1030D600540330E01AC3900421E0942C900420E0BD
:1030E6009401400990042EE04440F08002C2019011
:1030F6000432E0C4131313540130E01AC3900423BE
:10310600E0942C900422E09401400990042EE044BF
:1031160080F08002C201900431E030E01AC39004CE
:1031260025E0942C900424E09401400990042DE0BD
:103136004401F08002C201900431E0C31330E01A6A
:10314600C3900427E0942C900426E0940140099053
:10315600042DE04402F08002C201900431E0131312
:10316600543F30E01AC3900429E0942C900428E0E0
:103176009401400990042DE04404F08002C20190BD
:103186000431E0131313541F30E01AC390042BE0EC
:10319600942C90042AE09401400990042DE0440800
:1031A600F08002C201900430E0FCA3E0FDA3E0FE43
:1031B600A3E0FF900445122A8590042CE0FCA3E0CE
:1031C600FDA3E0FEA3E0FF900449122A85E4FDFF7B
:0831D6001213191250D3A201DB
:0131DE0022CE
:10543D00780490043BE0FCA3E0FDA3E0FEA3E0FFB5
:07544D00122A5FEF540FFF6C
:10545400EFC3940AEF50052430FE80032437FEAFD7
:015464000641
:015465002224
:103D06001255C01256D578007C007D017B017A02DF
:103D160079007E027F001228759004467420F0A375
:103D260074FFF0A3744EF0A374FDF0A3E4F0A3F0C7
:103D3600A3F0F9A3C9F0A3F0A3E9F07B78E4FDFFB3
:103D4600124F527B017A04796D12237390048FE02F
:103D5600FCA3E0FDA3E0FEA3E0FF7810122A5F7843
:103D66000412544DAB07900457740CF0A37401F081
:103D76007D107F1612418890048FE0FCA3E0FDA31E
:103D8600E0FEA3E0FF781012544DAB079004577481
:103D96000CF0A37401F07D107F1E12418890048FF1
:103DA600E0FCA3E0FDA3E0FEA3E0FF7808122A5F93
:103DB600780412544DAB07900457740CF0A37401A9
:103DC600F07D107F2A12418890048FE0FCA3E0FD6D
:103DD600A3E0FEA3E0FF780812544DAB079004570A
:103DE600740CF0A37401F07D107F321241889004A8
:103DF6008FE0FCA3E0FDA3E0FEA3E0FF78041254ED
:103E06004DAB07900457740CF0A37401F07D107F3E
:103E16003E12418890048FE0FCA3E0FDA3E0FEA3E0
:103E2600E0540FFF125454AB07900457740CF0A3E0
:103E36007401F07D107F4612418890046C7401F085
:033E46000250D354
:101EED00122EC6500302216090042CE0FCA3E0FDED
:101EFD00A3E0FEA3E0FF900400E0F8A3E0F9A3E067
:101F0D00FAA3E06FFFEA6EFEE96DFDE86CFC90044C
:101F1D003B122A8590043BE0FCA3E0FDA3E0FEA369
:101F2D00E0FF7810122A5F780412544DAB0790042D
:101F3D00577407F0A37401F07D08E4FF12418890F7
:101F4D00043BE0FCA3E0FDA3E0FEA3E0FF7810124C
:101F5D00544DAB079004577407F0A37401F07D083E
:101F6D007F0612418890043BE0FCA3E0FDA3E0FE58
:101F7D00A3E0FF7808122A5F780412544DAB079046
:101F8D0004577407F0A37401F07D087F0C1241888B
:101F9D0090043BE0FCA3E0FDA3E0FEA3E0FF780886
:101FAD0012544DAB079004577407F0A37401F07DE4
:101FBD00087F1212418890043BE0FCA3E0FDA3E0F2
:101FCD00FEA3E0FF780412544DAB0790045774073D
:101FDD00F0A37401F07D087F1812418890043BE056
:101FED00FCA3E0FDA3E0FEA3E0540FFF125454AB9D
:101FFD00079004577407F0A37401F07D087F1E123B
:10200D0041887BFF7A4F79079004527407F0A374CF
:10201D0001F07D18E4FF123E5D1250D390045DE097
:10202D00FCA3E0FDA3E0FEA3E02401FFE43EFEE4FB
:10203D003DFDE43CFC90045D122A8590046BE0703C
:10204D00417B017A04793F9004487404F07F321289
:10205D00515590043FE0FCA3E0FDA3E0FEA3E02476
:10206D0001FFE43EFEE43DFDE43CFC90043F122AFA
:10207D00857B017A04793F9004477404F07F320226
:10208D00211C90046BE0640170407B017A04793F60
:10209D009004487404F07F4812515590043FE0FCC1
:1020AD00A3E0FDA3E0FEA3E02401FFE43EFEE43D3A
:1020BD00FDE43CFC90043F122A857B017A04793FB4
:1020CD009004477404F07F48804590046BE0B4029F
:1020DD00417B017A04793F9004487404F07F6412C7
:1020ED00515590043FE0FCA3E0FDA3E0FEA3E024E6
:1020FD0001FFE43EFEE43DFDE43CFC90043F122A6A
:10210D00857B017A04793F9004477404F07F641253
:10211D0053EA7B017A04793F9004487404F07F8080
:10212D0012515590043FE0FCA3E0FDA3E0FEA3E0B7
:10213D002401FFE43EFEE43DFDE43CFC90043F122F
:10214D002A857B017A04793F9004477404F07F80DF
:10215D0002236D7BFF7A4F790E9004527407F0A322
:10216D007401F07D08E4FF123E5D7BFF7A4F791517
:10217D009004527407F0A37401F07D18E4FF123E31
:10218D005D1250D3900430E0FCA3E0FDA3E0FEA36C
:10219D00E02401FFE43EFEE43DFDE43CFC90043010
:1021AD00122A8590046BE0600464017041E47FFFA6
:1021BD00FEFDFC900430E0F8A3E0F9A3E0FAA3E003
:1021CD00FBD3122A4E400A900430122A91000000CF
:1021DD000090046BE07B017A04793090044770071E
:1021ED007404F0E4FF80427404F07F08803B900497
:1021FD006BE0B402377FFF7EFF7D0F7C00900430D3
:10220D00E0F8A3E0F9A3E0FAA3E0FBD3122A4E40D5
:10221D000A900430122A91000000007B017A0479A3
:10222D00309004477404F07F161253EA900461E075
:10223D00FCA3E0FDA3E0FEA3E02401FFE43EFEE4E9
:10224D003DFDE43CFC900461122A8590046BE07026
:10225D00417B017A04793F9004487404F07F241285
:10226D00515590043FE0FCA3E0FDA3E0FEA3E02464
:10227D0001FFE43EFEE43DFDE43CFC90043F122AE8
:10228D00857B017A04793F9004477404F07F240222
:10229D00232C90046BE0640170407B017A04793F3C
:1022AD009004487404F07F4012515590043FE0FCB7
:1022BD00A3E0FDA3E0FEA3E02401FFE43EFEE43D28
:1022CD00FDE43CFC90043F122A857B017A04793FA2
:1022DD009004477404F07F40804590046BE0B40295
:1022ED00417B017A04793F9004487404F07F5612C3
:1022FD00515590043FE0FCA3E0FDA3E0FEA3E024D4
:10230D0001FFE43EFEE43DFDE43CFC90043F122A57
:10231D00857B017A04793F9004477404F07F56124F
:10232D0053EA7B017A04793F9004487404F07F727C
:10233D0012515590043FE0FCA3E0FDA3E0FEA3E0A5
:10234D002401FFE43EFEE43DFDE43CFC90043F121D
:10235D002A857B017A04793F9004477404F07F72DB
:06236D001253EA023D06D6
:1055390090043B122A857B017A04793B7D0412553C
:0C55490070D2C6C28790046A7401F02280
:1053BF00C2C7123BC3900430E0FCA3E0FDA3E0FEA4
:1053CF00A3E0FF12553990046AE060030080F712E2
:0B53DF00359D1252AA121EEDD2C7220B
:102B460078007C007D017B017A0279007E027F009D
:102B56001228759004467420F0A374FFF0A3744FF6
:102B6600F0A3741CF0A3E4F0A3F0A3F0F9A3C9F05A
:102B7600A3F0A3E9F07B78E4FDFF124F527B017AC4
:102B860004796D12237390046BE0FFE4FD124C95FB
:102B960090043B122A8590046BE070087BFF7A4F05
:102BA6007921801390046BE07BFFB401067A4F799C
:102BB6002C80047A4F79379004527407F0A374017D
:102BC600F07D027F1E123E5D7BFF7A4F793B9004BB
:102BD600527407F0A37401F07D0B7F02123E5D90E4
:102BE600043BE0FCA3E0FDA3E0FEA3E0FF781012A7
:102BF6002A5F780412544DAB079004577407F0A36C
:102C06007401F07D0B7F16124188781012543FAB89
:102C1600079004577407F0A37401F07D0B7F1C1214
:102C2600418890043BE0FCA3E0FDA3E0FEA3E0FFA7
:102C36007808122A5F780412544DAB079004577433
:102C460007F0A37401F07D0B7F2212418890043BAC
:102C5600E0FCA3E0FDA3E0FEA3E0FF780812544DDC
:102C6600AB079004577407F0A37401F07D0B7F281F
:102C760012418812543DAB079004577407F0A374B1
:102C860001F07D0B7F2E12418890043BE0FCA3E00F
:102C9600FDA3E0FEA3E0540FFF125454AB079004CB
:102CA600577407F0A37401F07D0B7F3412418890AE
:102CB600046BE0FF7D01124C9590043B122A857B44
:102CC600FF7A4F793F9004527407F0A37401F07DA8
:102CD6000B7F3E123E5D90043BE0FCA3E0FDA3E0CB
:102CE600FEA3E0FF7810122A5F780412544DAB075A
:102CF6009004577407F0A37401F07D0B7F521241C4
:102D06008890043BE0FCA3E0FDA3E0FEA3E0FF788F
:102D16001012544DAB079004577407F0A37401F0DA
:102D26007D0B7F5812418890043BE0FCA3E0FDA395
:102D3600E0FEA3E0FF7808122A5F780412544DAB38
:102D4600079004577407F0A37401F07D0B7F5E12A1
:102D5600418890043BE0FCA3E0FDA3E0FEA3E0FF76
:102D6600780812544DAB079004577407F0A374010A
:102D7600F07D0B7F6412418812543DAB07900457D7
:102D86007407F0A37401F07D0B7F6A1241889004EA
:102D96003BE0FCA3E0FDA3E0FEA3E0540FFF1254CA
:102DA60054AB079004577407F0A37401F07D0B7FB2
:102DB6007012418890046BE0FF12508E90043B1213
:102DC6002A857BFF7A4F79439004527407F0A374E7
:102DD60001F07D147F02123E5D90043BE0FCA3E00F
:102DE600FDA3E0FEA3E0FF7810122A5F78041254D8
:102DF6004DAB079004577407F0A37401F07D147F60
:102E06001C12418890043BE0FCA3E0FDA3E0FEA376
:102E1600E0FF781012544DAB079004577407F0A3E7
:102E26007401F07D147F2212418890043BE0FCA3DC
:102E3600E0FDA3E0FEA3E0FF7808122A5F78041203
:102E4600544DAB079004577407F0A37401F07D143A
:102E56007F2812418890043BE0FCA3E0FDA3E0FE3E
:102E6600A3E0FF780812544DAB079004577407F09F
:102E7600A37401F07D147F2E12418812543DAB07D6
:102E86009004577407F0A37401F07D147F34124147
:102E96008890043BE0FCA3E0FDA3E0FEA3E0540F12
:102EA600FF125454AB079004577407F0A37401F053
:102EB6007D147F3A12418890046C7402F00250D35C
:05374700900439EFF0D1
:10374C00E4A3F012508E900430122A857BFF7A4F3E
:10375C007948900452740CF0A37401F0E4FD7F1EC0
:10376C00123E5D900430E0FCA3E0FDA3E0FEA3E07C
:10377C00FF7810122A5F7804122A5FEF540FFF12A1
:10378C005454AB07900457740CF0A37401F07D0FE4
:10379C00E4FF124188900430E0FCA3E0FDA3E0FEBE
:1037AC00A3E0FF7810122A5FEF540FFF125454ABB2
:1037BC0007900457740CF0A37401F07D0F7F08126E
:1037CC004188900430E0FCA3E0FDA3E0FEA3E0FF01
:1037DC007808122A5F7804122A5FEF540FFF1254F4
:1037EC0054AB07900457740CF0A37401F07D0F7F59
:1037FC0010124188900430E0FCA3E0FDA3E0FEA38E
:10380C00E0FF7808122A5FEF540FFF125454AB07F5
:10381C00900457740CF0A37401F07D0F7F181241C3
:10382C0088900430E0FCA3E0FDA3E0FEA3E0FF7869
:10383C0004122A5FEF540FFF125454AB0790045735
:10384C00740CF0A37401F07D0F7F2012418890045A
:10385C0030E0FCA3E0FDA3E0FEA3E0540FFF125404
:10386C0054AB07900457740CF0A37401F07D0F7FD8
:10387C00281241881250D378007C007D017B017A9C
:10388C000279007E027F0012287590043AE07035B0
:10389C009004CAE0B401159004CCE0600FE4F09001
:1038AC00047A04F0900439E0FF1253BF9004CAE08C
:1038BC00B404D79004CCE060D1E4F090047A04F026
:0538CC00122B4680C52F
:0138D10022D4
:105307004104800041048100440482000000004100
:105317000486004104870041048800420489000094
:0553270042048B0000B0
:1055C000D2A8E490048DF0A3F0A3122A9100000069
:0A55D00000D28CD2A9D2C7D2CD229E
:10560A00C2A8C28CE490048DF0A3F0A3122A9100E0
:08561A00000000C2C7C2CD224E
:10568B00C28C438E805389F0758A46758CFEC28D11
:01569B0022EC
:10567800C28E438E4053890FE4F58B758D28C28FF7
:03568800D28E229D
:0B56EB0043B10453B2FBC2B2C28822DC
:0E56BB0012568B125678D2AB1256EB0255C027
:030003000238D2EE
:1038D200C0E0C0F0C083C082C0D075D000C000C0BC
:0B38E20002C003C004C005C006C00700
:1038ED00900480E0600302399430B264A3E0FF706D
:1038FD000D90048DF0A3F090048104F08052EF64DC
:10390D0002704D90048DE0FEA3E0FF90047BEEF07D
:10391D00A3EFF090048DE4F0A3F0900481F0C39038
:10392D00047EE09F90047DE09E502590047BE0FE98
:10393D00A3E0FFC3947DEE94004015D3EF94EEEE1B
:10394D009402500C9004807401F090047F7418F070
:10395D0030B203023A44900481E090048DB4011C0E
:10396D00E0FFA3E090047DCFF0A3EFF090048DE491
:10397D00F0A3F09004817402F0023A44E4F0A3F055
:10398D00900481F0023A4420B22690048DE0FEA30B
:10399D00E0FF90047DEEF0A3EFF090048DE4F0A332
:1039AD00F0D3EF941EEE94005003023A44023A3FD6
:1039BD0020B203023A4490048DE0FEA3E0FF900490
:1039CD007BEEF0FAA3EFF0FB90048DE4F0A3F09002
:1039DD000482E0FCA3E0FDA3E0FEA3E0FF7801126A
:1039ED002A72900482122A85D390047EE09B900463
:1039FD007DE09A4017900482E0FCA3E0FDA3E0FE79
:103A0D00A3E04401FFEC900482122A8590047FE02C
:103A1D0014F07023900482E0FCA3E0FDA3E0FEA36C
:103A2D00E0FF90048F122A85900482122A910000E3
:073A3D000000900480E4F09A
:103A4400D007D006D005D004D003D002D000D0D007
:093A5400D082D083D0F0D0E03222
:03000B0002558B10
:10558B00C0E0C083C08290048EE004F070069004EB
:0B559B008DE004F0D082D083D0E0321D
:03001B0002426B33
:10426B00C0E0C0F0C083C082C0D075D000C000C019
:0D427B0001C002C003C004C005C006C0079A
:10428800900487E004F0900486E004F0E0C39464AE
:104298004004E4F0B2C5900487E0D3940F400812BC
:1042A8004AE5900487E4F090047AE0B40117D2C19B
:1042B800900488E0FF04F0EFC394054008C2C1E40D
:1042C800F090047AF090046AE0B4012490048BE43E
:1042D80075F00112291BFEC3E5F09407EE94004027
:1042E8000FC2C6D28790046AE4F090048BF0A3F062
:1042F80090046CE0FF603F7E007C017D901228F303
:10430800900489E475F00112291BFCC3E5F09FECC9
:104318009E4023900489E4F0A3F090046CF07800A8
:104328007C027D017B017A0079007E02FF122875EC
:064338001250D312560AD8
:10433E00D007D006D005D004D003D002D001D000D3
:0B434E00D0D0D082D083D0F0D0E0327D
:08532C004104CC004104C9005A
:1054660020C2047404801E20C3047403801720C461
:10547600047402801020A0047401800920B704740B
:0954860005800274FF1228E122E6
:104AE50090043574FFF0FF7B017A04793512546622
:104AF500900435E0FEF4702C9004CBE0FDC39412D5
:104B050040099004C9E04440FF800DEDC394034083
:104B1500079004C9E04430FF9004C9EEF0E4900426
:104B2500CBF0804C9004C9E0FE900435E0FD6E604A
:104B35000F9004C9EDF0E49004CBF0A304F08030AD
:104B45009004CBE004F0E0FDB40304AF068021ED52
:104B5500B412099004C9E04410FF80149004CBE01E
:104B6500B4170D9004C9E04420FF9004CB7412F0F3
:054B75009004CAEFF0FE
:014B7A002218
:03000000024C09A6
:0C4C0900787FE4F6D8FD758120024C5045
:1027A500E709F608DFFA8046E709F208DFFA803E16
:1027B50088828C83E709F0A3DFFA8032E309F60803
:1027C500DFFA8078E309F208DFFA807088828C836B
:1027D500E309F0A3DFFA806489828A83E0A3F6081F
:1027E500DFFA805889828A83E0A3F208DFFA804CF9
:1027F50080D280FA80C680D4806980F280338010D0
:1028050080A680EA809A80A880DA80E280CA803338
:1028150089828A83ECFAE493A3C8C582C8CCC583B0
:10282500CCF0A3C8C582C8CCC583CCDFE9DEE78080
:102835000D89828A83E493A3F608DFF9ECFAA9F0FF
:10284500EDFB2289828A83ECFAE0A3C8C582C8CC55
:10285500C583CCF0A3C8C582C8CCC583CCDFEADE6E
:10286500E880DB89828A83E493A3F208DFF980CCD0
:1028750088F0EF60010E4E60C388F0ED2402B404C9
:102885000050B9F582EB2402B4040050AF23234570
:0628950082239027F57379
:10289B00BB010689828A83E0225002E722BBFE023B
:0928AB00E32289828A83E493226E
:1028B400BB010CE58229F582E5833AF583E02250D9
:1028C40006E92582F8E622BBFE06E92582F8E22223
:0D28D400E58229F582E5833AF583E493223D
:1028E100BB010689828A83F0225002F722BBFE01D6
:0228F100F322D0
:1028F300EF8DF0A4A8F0CF8CF0A428CE8DF0A42EF9
:02290300FE22B2
:10290500C5F0F8A3E028F0C5F0F8E582158270025D
:062915001583E038F022FA
:10291B00A3F8E0C5F025F0F0E5821582700215836F
:06292B00E0C838F0E822CC
:10293100E88FF0A4CC8BF0A42CFCE98EF0A42CFC45
:102941008AF0EDA42CFCEA8EF0A4CDA8F08BF0A4C3
:102951002DCC3825F0FDE98FF0A42CCD35F0FCEB22
:102961008EF0A4FEA9F0EB8FF0A4CFC5F02ECD39E7
:0F297100FEE43CFCEAA42DCE35F0FDE43CFC2254
:1029800075F008758200EF2FFFEE33FECD33CDCC0E
:1029900033CCC58233C5829BED9AEC99E582984091
:1029A0000CF582EE9BFEED9AFDEC99FC0FD5F0D66E
:1029B000E4CEFBE4CDFAE4CCF9A88222B800C1B998
:1029C0000059BA002DEC8BF084CFCECDFCE5F0CBD6
:1029D000F97818EF2FFFEE33FEED33FDEC33FCEB0F
:1029E00033FB10D703994004EB99FB0FD8E5E4F9CA
:1029F000FA227818EF2FFFEE33FEED33FDEC33FCB7
:102A0000C933C910D7059BE99A4007EC9BFCE99AAA
:102A1000F90FD8E0E4C9FAE4CCFB2275F010EF2FEF
:102A2000FFEE33FEED33FDCC33CCC833C810D707EF
:102A30009BEC9AE899400AED9BFDEC9AFCE899F82A
:0E2A40000FD5F0DAE4CDFBE4CCFAE4C8F922BD
:102A4E00EB9FF5F0EA9E42F0E99D42F0E89C45F0DE
:012A5E002255
:102A5F00E8600FECC313FCED13FDEE13FEEF13FF55
:032A6F00D8F12279
:102A7200E8600FEFC333FFEE33FEED33FDEC33FCC2
:032A8200D8F12266
:0C2A8500ECF0A3EDF0A3EEF0A3EFF022C4
:102A9100A8828583F0D083D082122AA8122AA81294
:102AA1002AA8122AA8E473E493A3C583C5F0C583B9
:102AB100C8C582C8F0A3C583C5F0C583C8C582C88F
:012AC10022F2
:102AC200BB010DE58229F582E5833AF583022B28C5
:102AD2005007E92582F8022B1FBBFE07E92582F881
:102AE200022B31E58229F582E5833AF583022B3AFE
:102AF200EC8EF0A4CCC5F0CCCDF8EFA4CEC5F02D71
:102B0200FDE43CFCE8A42EC8C5F03DFDE43CFCEF2E
:0D2B1200A4FFE5F028FEE43DFDE43CFC22BC
:104C15000251D0E493A3F8E493A34003F68001F294
:104C250008DFF48029E493A3F85407240CC8C333A0
:104C3500C4540F4420C8834004F456800146F6DF6F
:104C4500E4800B0102040810204080905305E47EA7
:104C5500019360BCA3FF543F30E509541FFEE49364
:104C6500A360010ECF54C025E060A840B8E493A32B
:104C7500FAE493A3F8E493A3C8C582C8CAC583CA56
:104C8500F0A3C8C582C8CAC583CADFE9DEE780BE0E
:015334000078
:092B1F00E6FB08E6FA08E6F922DB
:092B2800E0FBA3E0FAA3E0F922AE
:092B3100E2FB08E2FA08E2F922D5
:0C2B3A00E493FB740193FA740293F922F7
:00000001FF
