:102419003D3D3D3D3D3D3D3D3D3D3D3D3D3D3D3DE3
:102429003D3D3D3D3D3D3D3D3D3D3D3D3D3D3D3DD3
:102439003D3D3D3D3D3D3D3D3D3D3D3D3D3D3D3DC3
:102449003D3D3D3D3D3D3D0A002A2A2A2A2A2A2AA8
:102459002A2A2A2A2A2A2A2A2A2A2A2A2A2A2042C5
:1024690075726E20436F64652058202A2A2A2A2A09
:102479002A2A2A2A2A2A2A2A2A2A2A2A2A2A2A2AB3
:102489000A002A202020202020202020202020206F
:102499002020202020202020202020202020202033
:1024A9002020202020202020202020202020202023
:1024B90020202020202020202A0A002A2020202035
:1024C90056657273696F6E3A2053444B312E303022
:1024D9002E30302831313A32303A3136204170725B
:1024E9002032202032303135292020202020202080
:1024F900202A0A002A2020202020417574686F7242
:102509003A204C69616F6B657972653C4C69616F02
:102519006B6579726540666F786D61696C2E636F62
:102529006D3E20202020202020202A0A002A202059
:10253900417574686F723A2043686572727940799F
:102549006373656D692E636F6D2E636E20407961CB
:102559006E6368656E6720636F6D70616E792020A8
:102569002020202A0A002A2A2A2A2A2A2A2A2A2A2A
:102579002A2A2A2A2A2A2A2A2A2A2A2A2A2A2A2AB2
:102589002A2A2A2A2A2A2A2A2A2A2A2A2A2A2A2AA2
:102599002A2A2A2A2A2A2A2A2A2A2A2A2A0A000AFC
:1025A9000A0A53797374656D204C6F6164696E67AB
:1025B9002E2E2E0A000A0A0A53797374656D204C6F
:1025C9006F6164204F6B210A000A20C9E8D6C3B89D
:1025D900EEC2EBCFDF200A00536574206D617820CD
:1025E9006C696E65004E6F7469636500205365748C
:1025F900204F4B21000AB8EEC2EBCFDFC9E8D6C3A2
:10260900CEAA203A200020CCF50A000AA1BEC9E8CA
:10261900D6C3A1BF20B8EEC2EB20B2E2CAD40A00E9
:10262900594553004E4F004552415345204D454DA4
:102639004F5252592E2E2E00455241534520444F98
:102649004E4521000ABCC7C2BCB2C1B3CDEAB3C969
:102659000A00436C65617220616C6C206D656D6F59
:102669007272793F000AC9E8D6C320A1BEB8EEC28A
:10267900EBA1BF20B2E2CAD40A000AC9E8D6C32036
:10268900B8EEC2EB20A1BEB2E2CAD4A1BF0A00448F
:1026990045434F4445000AC7EBB8FCBBBB5539203D
:1026A900A3BA434434303532200A00436865636B6A
:1026B9002055392020434434303532000AC7EBB85D
:1026C900FCBBBB55313220A3BA43443430353220E8
:1026D9000A00436865636B20553132204344343026
:1026E9003532004861726477617265206572726F74
:1026F900723A000A0AD7DCC9D5C2BCCFDFA1BECA6B
:10270900AEBDF8D6C6A1BF203A20002020D7EEB42E
:10271900F3C9D5C2BCB5D8D6B7A1BECAAEC1F9BD39
:10272900F8D6C6A1BF3A000A0A414443B2C9BCAFB0
:10273900CDA8B5C0B2E2CAD4203A0A2D2D2D2D2D2F
:102749002D2D2D2D2D2D2D2D2D2D2D2D2D2D2D2DB0
:102759002D2D2D2D2D2D2D2D2D2D2D2D2D2D2D2DA0
:102769002D2D2D2D2D2D2D2D2D2D2D2D2D2D2D2D90
:102779002D2D2D2D20000ACDA8B5C030A3BA2020BB
:1027890020000ACDA8B5C031A3BA202020000ACD67
:10279900A8B5C032A3BA202020000ACDA8B5C033FD
:1027A900A3BA202020000ACDA8B5C034A3BA20209E
:1027B90020000ACDA8B5C035A3BA202020000ACD33
:1027C900A8B5C036A3BA202020000ACDA8B5C037C5
:1027D900A3BA202020000ACDA8B5C038A3BA20206A
:1027E90020000ACDA8B5C039A3BA202020000ACDFF
:1027F900A8B5C03130A3BA202020000ACDA8B5C0A1
:102809003131A3BA202020000ACDA8B5C03132A3A6
:10281900BA202020000ACDA8B5C03133A3BA2020A0
:1028290020000ACDA8B5C03134A3BA202020000A5F
:10283900CDA8B5C03135A3BA202020000ACDA8B54E
:10284900C03136A3BA202020000ACDA8B5C031373F
:10285900A3BA202020000ACDA8B5C03138A3BA20D8
:102869002020000ACDA8B5C03139A3BA2020200004
:102879000AC8E7B9FBC4B3B8F6CDA8B5C0D6B5CE7A
:10288900AA30BBF2D0A1D3DA3030204630A3ACC78E
:0E289900EBB8FCBBBB434434303532210A009F
:1060B80090047EEFF0A3EDF0A3EBF0900426E090BF
:1060C8000481F0900427E0F9A3E0FAA3E0900482A9
:1060D800C9F0A3EAF0A3E9F090042AE0F9A3E0FAF2
:1060E800A3E0900485C9F0A3EAF0A3E9F090042D99
:1060F800E0F9A3E0FAA3E0900488C9F0A3EAF0A3CA
:03610800E9F02299
:105ED2007BFF7A2479191263ED7BFF7A24795212BF
:105EE20063ED7BFF7A24798B1263ED7BFF7A247951
:105EF200C41263ED7BFF7A2479FD1263ED7BFF7A96
:105F02002579361263ED7BFF7A24798B1263ED7B60
:105F1200FF7A25796F1263ED7BFF7A247919126378
:105F2200ED7BFF7A2579A81263ED7BFF7A2579BE96
:035F32000263ED1A
:10605A007B017A0479D29004147404F07F101263DD
:10606A000A74FFFFFEFDFC9004D2E0F8A3E0F9A356
:10607A00E0FAA3E0FBC3122BA560177FFF7EFF7D2A
:10608A000F7C009004D2E0F8A3A3A3E0D3122BA5BF
:10609A00401B900476122BE8000000007B017A0472
:0D60AA0079769004147404F07F1012653CA8
:0160B70022C6
:106609001257FC1264277B01E4FDFF1257379004EF
:1066190005741EF0A37401F07B7C7D1A7F24125F40
:04662900FA0262C847
:10638500E4F591F592F595F596F5B1F5B2F5B3F518
:10639500B4F5C9F5CAF593F59443B4227591FFF5A3
:1063A500925395074396F843B10453B1FB53C9D7AC
:0463B50043CA28228D
:05610B00900409EFF013
:1061100090040B122BE800000001E490040AF090B8
:106120000409E0FFA3E0C39F5023A3E0FCA3E0FD2C
:10613000A3E0FEA3E0FFE47B02FAF9F8122A8890BC
:10614000040B122BDC90040AE004F080D290040BC4
:0B615000E0FCA3E0FDA3E0FEA3E0FFE5
:01615B002221
:105DF20012638512683C12682F12685312660912E8
:105E02006821E490048FF0900471122BE8000000E6
:105E12000090046D122BE800000000C2C6D287E495
:105E220090047AF090047504F0E490047DF0C2C707
:105E3200C2CD7FA012673A90047BEFF0D394145046
:105E420006E0C39401500C90047B7414F0FD7FA013
:105E52001267B190047BE0FF12610B90048B022B5E
:015E6200DC63
:10431000E4900407F07BFF7A2579D21263ED7FA049
:1043200012673A900408EFF090047BF0D394145095
:1043300006E0C39401500C90047B7414F0FD7FA040
:104340001267B190047BE0FF900408F012610B90BB
:10435000048B122BDC12642790042F7407F0A374D3
:1043600001F07B307D0EE4FF1251E890042F7407BA
:10437000F0A37401F07B327D0E7F731251E890043C
:104380002F7407F0A37401F07B307D0E7F791251FA
:10439000E87BFF7A2579E190041F740CF0A3740187
:1043A000F0E4FD7F14124C5B900407E060030244CC
:1043B000D990040C7413F0A304F0900408E0900466
:1043C0000EF0A37401F07B6E7D0F7F09124FA012D7
:1043D00062C89004E1E060D09004DFE01470030252
:1043E00044C324FE602314603A240270BBE49004AA
:1043F000E1F090048F04F0900408E0FF14F0EFD394
:10440000940150A47414F0809FE49004E1F09004AF
:104410008F04F0900408E0FF04F0EFC39414408888
:104420000244D3E49004E1F090048F04F090042659
:104430007420F0A374FFF0A37425F0A374EEF0A32E
:1044400074FFF0A37425F0A374F5F0A3E4F0A3F0D7
:10445000A3F07B50FD7F141260B87B017A04797E53
:10446000122C9D1262C8900408E0FF90047BF012A9
:10447000610B90048B122BDC90047BE0FD7FA0127B
:1044800067B11268481268481268481268487BFF92
:104490007A2579FE1263ED90047BE075F00A84249E
:1044A00030FF12679A90047BE075F00A84E5F024EF
:1044B00030FF12679A7BFF7A26790F1263ED900422
:1044C000078010E49004E1F090048F04F012642758
:0944D0009004077401F00243A8F6
:0144D90022C0
:103C4C00E4900406F0900405F0900404F090040352
:103C5C00F0900402F0FF12559C1262C87BFF7A268A
:103C6C0079141263ED900402E06003023E9090041C
:103C7C00E1E060F19004DFE0147003023E7A24FE70
:103C8C00606A147003023D77240270D9E49004E159
:103C9C00F090048F04F0900403E06042900405E07F
:103CAC0064017027A3E0FF04F0EFC394014002E429
:103CBC00F07BFF7A26792990041F740CF09004068F
:103CCC00E070047F0180637F00805F900404E0FF5C
:103CDC0014F0EFD3940050037403F0023E59900497
:103CEC00757402F090040214F0023C71E49004E14B
:103CFC00F090048F04F0900403E06062900405E0FF
:103D0C0064017048A3E0FF14F0EFD39400500374E7
:103D1C0001F07BFF7A26792990041F740CF0900433
:103D2C0006E070047F0180027F00900420EFF07D9C
:103D3C00147F46124C5B7BFF7A26792D90041F74FE
:103D4C000CF0900406E0900420023E40900404E045
:103D5C00FF04F0EFC394034002E4F0023E599004D8
:103D6C00757401F0900402F0023C71E49004E1F0EF
:103D7C0090048F04F0900403E07003023E67A3E00C
:103D8C0064026003023E4AA3E064017062A3E06037
:103D9C00461264277BFF7A26793090041F740CF04E
:103DAC00A37401F07D0A7F02124C5B1262C812628E
:103DBC003B1264277BFF7A26794190041F740CF028
:103DCC00A37401F07D0A7F02124C5B1262C87BFF68
:103DDC007A26794D1263ED126427900404E0FF12E9
:103DEC004E851262C8E4900405F0A3F0023C719079
:103DFC0004057401F01264277BFF7A26795B90042A
:103E0C001F740CF0A37401F0E4FD7F02124C5B7B79
:103E1C00FF7A26792990041F740CF0A37401F07DAD
:103E2C00147F46124C5B7BFF7A26792D90041F740D
:103E3C000CF0E4A3F07D147F6E124C5B80179004A1
:103E4C0004E06003023C71124310126427900404D6
:103E5C00E0FF124E851262C8023C71126427900476
:103E6C0004E0FF124E851262C89004038010E490A7
:103E7C0004E1F090048F04F01264279004027401A2
:043E8C00F0023C7193
:013E9000220F
:104D6A00E4900404F0900403F0900402F07F01122E
:104D7A00559C1262C87BFF7A26796E1263ED900405
:104D8A0002E06003024E849004E1E060F19004DFE7
:104D9A00E0147003024E6E24FE603414605D240237
:104DAA0070DCE49004E1F090048F04F0900403E0D6
:104DBA006011A3E0FF14F0EFD39400502F7403F0B6
:104DCA00024E4DE4900475F090040204F080AFE4C2
:104DDA009004E1F090048F04F0900403E0600FA3C4
:104DEA00E0FF04F0EFC394034002E4F0805590041E
:104DFA00757402F090040214F08083E49004E1F0E8
:104E0A0090048F04F0900403E06046A3E0B4030A20
:104E1A001264279004027401F02212642790040499
:104E2A00E0FF90047CF0FB900471122BE800000074
:104E3A000090046D122BE800000000AF031239B88D
:104E4A00126427900404E0FF1250B11262C8024DA6
:104E5A0088126427900404E0FF1250B11262C890CD
:104E6A0004038010E49004E1F090048F04F01264CB
:0A4E7A00279004027401F0024D8835
:014E8400220B
:1040D300900404122BE800000000E4900403F09025
:1040E3000402F01267827F0212559C1262C87BFFA2
:1040F3007A2679831263ED900402E0600302430F92
:10410300A3E070030242609004A4A3A3A3E0540FAE
:10411300FFE4FEFDFCFBFAF9F8C3122BA560149033
:1041230004A4E0FCA3E0FDA3E0FEA3E0FF900404ED
:10413300122BDC900404E0FCA3E0FDA3E0FEA3E06B
:10414300FFEC4D4E4F7003024260900404A3A3A3FF
:10415300E07810122BB67804122BB6EF540FFFE45D
:104163001265A6AB0790042F740CF0A37401F07DC5
:10417300107F241251E8900404E0FCA3E0FDA3E0C7
:10418300FEA3E0FF7810122BB6EF540FFFE4126585
:10419300A6AB0790042F740CF0A37401F07D107F7D
:1041A3002A1251E8900404E0FCA3E0FDA3E0FEA37F
:1041B300E0FF7808122BB67804122BB6EF540FFFEA
:1041C300E41265A6AB0790042F740CF0A37401F0FE
:1041D3007D107F361251E8900404E0FCA3E0FDA3B8
:1041E300E0FEA3E0FF7808122BB6EF540FFFE412B2
:1041F30065A6AB0790042F740CF0A37401F07D1037
:104203007F3C1251E8900404E0FCA3E0FDA3E0FE30
:10421300A3E0FF7804122BB6EF540FFFE41265A658
:10422300AB0790042F740CF0A37401F07D107F484A
:104233001251E8900404E0FCA3E0FDA3E0FEA3E038
:10424300540FFFE41265A6AB0790042F740CF0A380
:104253007401F07D107F4E1251E81262C89004E1A0
:10426300E070030240FA9004DFE01470030242F9A5
:1042730024FE602A146047240260030240FAE4909B
:1042830004E1F090048F04F0900403E06003024023
:10429300FA9004757401F0900402F00240FAE4907D
:1042A30004E1F090048F04F0900403E06003024003
:1042B300FAE4900475F090040204F00240FAE490EA
:1042C30004E1F090048F04F0900403E060030240E3
:1042D300FA12676A1264277BFF7A26799890041F83
:1042E300740CF0A37401F0E4FD7F2E124C5B126298
:1042F300C89004038010E49004E1F090048F04F06C
:0C4303001264279004027401F00240FADA
:01430F00228B
:10481900E4900402F0126427D390043EE09464907B
:10482900043DE094004069D3900440E0946490040E
:104839003FE09400405AD3900442E09464900441CC
:10484900E09400404BD3900444E09464900443E026
:104859009400403CD3900446E09464900445E0946D
:1048690000402DD3900448E09464900447E09400FC
:10487900401ED390044AE09464900449E0940040B7
:104889000FD390044CE0946490044BE094005026BC
:104899009004027401F07BFF7A26799F1263ED7B05
:1048A900FF7A2679B490041F740CF0A37401F07D8B
:1048B9000BE4FF124C5BD390044EE0946490044DDA
:1048C900E094004069D3900450E0946490044FE070
:1048D9009400405AD3900452E09464900451E094B7
:1048E90000404BD3900454E09464900453E0940046
:1048F900403CD3900456E09464900455E094004001
:104909002DD3900458E09464900457E09400401E1D
:10491900D390045AE09464900459E09400400FD372
:1049290090045CE0946490045BE094005026900449
:10493900027411F07BFF7A2679C51263ED7BFF7A49
:104949002679DB90041F740CF0A37401F07D16E442
:10495900FF124C5B900402E060197BFF7A2679EC28
:1049690090041F740CF0A37401F0E4FDFF124C5B7A
:104979001262C89004DFE0B404159004E1E0600F0E
:10498900E4F090048F04F0126427E4900402F0909C
:044999000402E0FF35
:01499D0022F7
:1036F600C2C1125DF2D2C1125ED27BFF7A2679FC7C
:103706001263ED90047BE075F00A842430FF1267A3
:103716009A90047BE075F00A84E5F02430FF126786
:103726009A7BFF7A2779141263ED90048BE0FCA351
:10373600E0FDA3E0FEA3E0FF7810122BB61266CFE1
:1037460090048BE0FCA3E0FDA3E0FEA3E0FF780875
:10375600122BB61266CF90048BA3A3A3E0FF1266CA
:10376600CF1244DA7BFF7A2779301263ED7BFF7A3A
:1037760027797F1263ED90043DE0FF1266CF900437
:103786003DA3E0FF1266CF7BFF7A27798B1263EDAC
:1037960090043FE0FF1266CF90043FA3E0FF12665D
:1037A600CF7BFF7A2779971263ED900441E0FF12F1
:1037B60066CF900441A3E0FF1266CF7BFF7A27799C
:1037C600A31263ED900443E0FF1266CF900443A377
:1037D600E0FF1266CF7BFF7A2779AF1263ED900484
:1037E60045E0FF1266CF900445A3E0FF1266CF7B4B
:1037F600FF7A2779BB1263ED900447E0FF1266CF8C
:10380600900447A3E0FF1266CF7BFF7A2779C712A1
:1038160063ED900449E0FF1266CF900449A3E0FFF0
:103826001266CF7BFF7A2779D31263ED90044BE0C3
:10383600FF1266CF90044BA3E0FF1266CF7BFF7AA0
:103846002779DF1263ED90044DE0FF1266CF9004F6
:103856004DA3E0FF1266CF7BFF7A2779EB1263ED6B
:1038660090044FE0FF1266CF90044FA3E0FF12666C
:10387600CF7BFF7A2779F71263ED900451E0FF12B0
:1038860066CF900451A3E0FF1266CF7BFF7A2879BA
:10389600041263ED900453E0FF1266CF900453A325
:1038A600E0FF1266CF7BFF7A2879111263ED900450
:1038B60055E0FF1266CF900455A3E0FF1266CF7B5A
:1038C600FF7A28791E1263ED900457E0FF1266CF47
:1038D600900457A3E0FF1266CF7BFF7A28792B125C
:1038E60063ED900459E0FF1266CF900459A3E0FF00
:1038F6001266CF7BFF7A2879381263ED90045BE07D
:10390600FF1266CF90045BA3E0FF1266CF7BFF7ABF
:103916002879451263ED90045DE0FF1266CF9004AE
:103926005DA3E0FF1266CF7BFF7A2879521263ED22
:1039360090045FE0FF1266CF90045FA3E0FF12667B
:10394600CF7BFF7A28795F1263ED900461E0FF1266
:1039560066CF900461A3E0FF1266CF7BFF7A2879D9
:103966006C1263ED900463E0FF1266CF900463A3CC
:10397600E0FF1266CF7BFF7A2879791263EDD2AF2A
:10398600C2C1900476122BE80000000112642712CF
:103996004819EF70FA900475E014600C14600E2458
:1039A6000270EC123C4C80E7124D6A80E21240D362
:0239B60080DDB2
:02648200C180D7
:076872000000007F18DFFEAB
:0168790022FC
:05000E00120013D2A155
:070013000000007F0ADFFE80
:01001A0022C3
:0A68480000007F6C7E90DEFEDFFC96
:016852002223
:10669400126872D2A1126872D2A2126872A2A28285
:0F66A400A1500AC2A2126872C2A1026872C32278
:10681100126872C2A2126872D2A1126872D2A22246
:0C634900AC071266947FA0126355AF04ED
:02635500AE0791
:10635700E4FD120013EE30E704D2A28002C2A212BB
:10636700000EC2A1EE25E0FE0DEDB408E512001304
:0D637700D2A212000EA2A29200C2A1A200AA
:0163840022F6
:0264E200AE0703
:1064E400E4FD120013D2A2FCED25E0FD12000E30F3
:1064F400A2010DC2A10CECB408EE120013D2A2EE5C
:0B6504006002C2A212000EC2A1AF058F
:01650F002269
:1067B100AC05AB071266947FA0126355AF03126359
:0467C1005002681109
:10653C00126349900414E0FF14F0EF601612299DC9
:10654C00FF126355740129F9E43AFA0CECC394FF79
:0A655C0040E1221268111268482283
:10673A001263491266947FA1126355E4FF1264E260
:07674A00AE07126811AF0653
:016751002225
:10630A00AC07900414E0603612634B1266947FA1C6
:10631A00126355E014F0900414E0FF14F0EF6012D9
:10632A007F011264E2EF1229E3740129F9E43AFACF
:0F633A0080E4E4FF1264E2EF1229E312681122FB
:10623B0090042F741EF0A37401F07B7E7D1AE4FF93
:10624B00125F3AE4900407F0900407E0FFC394FF59
:10625B005025E4FD1267B1E0C31304FB90042F74C7
:10626B001DF0A37401F07D1BFF125AAE1262C89091
:07627B000407E004F080D1EC
:0162820022F9
:0562830090040BEFF098
:1062880070107B017A04790C9004147404F0E4FF14
:10629800801C90040BE07B017A04790C900414B400
:1062A80001077404F07F0880057404F07F161263F8
:0F62B8000A90040CE0FCA3E0FDA3E0FEA3E0FFCE
:0162C70022B4
:055CFF0090040BEFF022
:105D0400ED7031E070107B017A04790C9004147406
:105D140004F07F24805090040BE07B017A04790C1A
:105D2400900414B401077404F07F4080397404F0C3
:105D34007F56803290040BE070107B017A04790C5A
:105D44009004147404F07F32801C90040BE07B01F7
:105D54007A04790C900414B401077404F07F488029
:105D6400057404F07F6412630A90040CE0FCA3E061
:075D7400FDA3E0FEA3E0FF28
:015D7B002205
:10002600312E565436323533382D423100322E5663
:100036005436323533382D423200332E434F420088
:10004600342E52455455524E00312E534554204CB1
:10005600494E4500322E5345542053454E530033E6
:100066002E455241534500534144443A00524144BF
:10007600443A000000000000000000005F0000009D
:10008600000700070000147F147F1400242A7F2A2B
:1000960012002313086462003649552250000005F9
:1000A60003000000001C224100000041221C000049
:1000B60014083E08140008083E08080000503000E6
:1000C6000000080808080800006060000000201012
:1000D600080402003E5149453E0000427F400000B0
:1000E6004261514946002141454B31001814127FA7
:1000F60010002745454539003C4A49493000017101
:1001060009050300364949493600064949291E00B2
:100116000036360000000056360000000814224162
:1001260000001414141414000041221408000201E3
:1001360051090600324979413E007E1111117E00B7
:100146007F49494936003E41414122007F414122D3
:100156001C007F49494941007F09090901003E41C8
:1001660049497A007F0808087F0000417F41000066
:100176002040413F01007F08142241007F4040405B
:1001860040007F020C027F007F0408107F003E4182
:1001960041413E007F09090906003E4151215E00AA
:1001A6007F091929460046494949310001017F0165
:1001B60001003F4040403F001F2040201F003F40BD
:1001C60038403F00631408146300070870080700EE
:1001D600615149454300007F414100000204081077
:1001E60020000041417F000004020102040040405B
:1001F600404040000001020400002054545478009E
:100206007F48444438003844444420003844444835
:100216007F00385454541800087E090102000C521D
:1002260052523E007F080404780000447D400000DE
:100236002040443D00007F102844000000417F40DC
:1002460000007C04180478007C0804047800384414
:10025600444438007C1414140800081414187C0054
:100266007C0804040800485454542000043F4440C9
:1002760020003C4040207C001C2040201C003C40CC
:1002860030403C004428102844000C5050503C009C
:100296004464544C440000083641000000007F00CE
:1002A6000000004136080000100808100800000091
:1002B600000000000000000000000000003F4000B9
:1002C6000000000000000030004000300040000048
:1002D6000009000BC03D000BC03D00090018C024FA
:1002E600407FE0224031800000180024C01B000D32
:1002F600803240018003801C4027401C800740005C
:100306004010006000000000000000000000000037
:100316000000001F80204040200000402020401F99
:100326008000000000090006001F8006000900008A
:1003360000040004003F80040004000000001000D8
:100346006000000000000000000400040004000437
:100356000004000000000000400000000000000053
:1003660000002001C006003800400000001F802069
:1003760040204020401F800000000010403FC00089
:10038600400000000018C0214022402440184000D0
:100396000010802040244024401B80000002000DF5
:1003A6000011003FC0014000003C8024402440244E
:1003B60040238000001F80244024403440038000F6
:1003C600003000200027C03800200000001B8024D9
:1003D60040244024401B8000001C0022C0224022F2
:1003E600401F8000000000000008400000000000E0
:1003F600000000000004600000000000000000048F
:10040600000A001100208040400900090009000987
:10041600000900000000004040208011000A00048E
:10042600001800200023402400180000001F802030
:1004360040274029401F400000004007C039000FF8
:100446000001C0004020403FC0244024401B8000E3
:10045600001F802040204020403080000020403F88
:10046600C0204020401F80000020403FC024402E76
:100476004030C0000020403FC024402E0030000025
:10048600000F001080204022403380020020403FB1
:10049600C0040004003FC02040204020403FC02050
:1004A60040204000000060202020203FC020002087
:1004B6000020403FC024400B0030C0204020403F79
:1004C600C020400040004000C03FC03C0003C03C8C
:1004D600003FC0000020403FC00C4023003FC0202A
:1004E600001F802040204020401F80000020403F09
:1004F600C024402400180000001F80214021402015
:10050600E01FA0000020403FC02440260019C00084
:100516004018C02440244022403180000030002092
:10052600403FC020403000000020003F80004000D7
:10053600403F80200020003E0001C0070038002018
:1005460000380007C03C0007C038000000204039D2
:10055600C0060039C0204000002000384007C038DF
:100566004020000000304021C02640384020C00016
:1005760000000000007FE0402040200000000070E6
:10058600000C000380004000000000402040207F57
:10059600E0000000000000200040002000000000F5
:1005A60000001000100010001000100010000000E5
:1005B6000040000000000000000000028005400529
:1005C6004003C0004020003FC004400440038000B8
:1005D60000000003800440044006400000000003C1
:1005E60080044024403FC0004000000380054005D1
:1005F6004003400000000004401FC0244024402067
:1006060000000002E0055005500650042020403F3F
:10061600C00440040003C000400000044027C0009E
:10062600400000000000100010041027E000000049
:100636000020403FC00140070004C0044020402085
:10064600403FC000400040000007C0040007C0044F
:100656000003C00000044007C00440040003C000BB
:10066600400000038004400440038000000410079B
:10067600F00450044003800000000003800440049E
:100686005007F00010044007C002400400040000B8
:1006960000000006400540054004C00000000004BC
:1006A600001F800440004000000400078000400452
:1006B6004007C000400400070004C0018006000493
:1006C60000060001C0070001C00600000004400645
:1006D600C0010006C0044000000410071004E00139
:1006E60080060004000000044005C00640044000E7
:1006F600000000000004007BE04020000000000035
:10070600000000FFF000000000000040207BE00435
:100716000000000000400080004000200020004053
:1007260000000000000000000000000000000000C3
:10073600000000000000001FCC000C0000000000BC
:100746000000000800300060000800300060000073
:1007560000022003FC1E20022003FC1E20022000B3
:100766000000000E1811043FFF10840C78000000F2
:10077600000F0010840F3800C00778188400780036
:100786000000780F8410C411240E9800E400840041
:10079600080800680070000000000000000000006B
:1007A6000000000000000007E018182004400200C6
:1007B60000000040022004181807E00000000000B6
:1007C600000240024001800FF0018002400240001A
:1007D600000080008000800FF8008000800080000C
:1007E600000001000D000E000000000000000000E7
:1007F60000000000800080008000800080008000F3
:10080600800000000C000C0000000000000000004A
:100816000000000006001800600180060018002095
:1008260000000007F0080810041004080807F0008C
:10083600000000080408041FFC0004000400000077
:100846000000000E0C10141024104411840E0C002D
:100856000000000C1810041104110412880C70001A
:1008660000000000E00320042408241FFC002400EC
:100876000000001F981084110411041088107000E5
:1008860000000007F00888110411041888007000A1
:100896000000001C00100010FC13001C00100000DB
:1008A6000000000E3811441084108411440E3800E4
:1008B6000000000700088C10441044088807F00068
:1008C60000000000000000030C030C000000000004
:1008D600000000000000010106000000000000000A
:1008E60000000000800140022004100808100400E7
:1008F6000002200220022002200220022002200004
:1009060000000010040808041002200140008000C6
:100916000000000E001200100C106C10800F00007A
:100926000003E00C1813E4142417C4082807D000A9
:10093600000004003C03C41C40074000E4001C0007
:100946000410041FFC1104110411040E8800700029
:100956000003E00C1810041004100410081C10000A
:100966000010041FFC100410041004080807F0000F
:100976000010041FFC1104110417C4100408180009
:100986000010041FFC1104110017C010000800001D
:100996000003E00C181004100410441C78004000FA
:1009A6000010041FFC10840080008010841FFC10BF
:1009B600040000100410041FFC10041004000000C2
:1009C6000000030001100110011FFE1000100000BE
:1009D6000010041FFC110403801464181C1004008A
:1009E6000010041FFC1004000400040004000C00A6
:1009F6000010041FFC1F0000FC1F001FFC10040059
:100A06000010041FFC0C04030000E010181FFC106B
:100A16000007F00808100410041004080807F00086
:100A26000010041FFC10841080108010800F00003E
:100A36000007F0081810241024101C080A07F200FA
:100A46000010041FFC1104110011C011300E0C001F
:100A56000400000E1C11041084108410441C38007D
:100A6600001800100010041FFC10041000180000ED
:100A76000010001FF810040004000410041FF810F2
:100A86000010001E0011E0001C007013801C0010F6
:100A9600001FC0103C00E01F0000E0103C1FC0001B
:100AA600001004180C163401C001C01634180C10BE
:100AB6000410001C00130400FC13041C00100000AA
:100AC600000804101C1064108413041C0410180081
:100AD600000000000000007FFE40024002400200CD
:100AE60000000030000C0003800060001C000300C2
:100AF6000000004002400240027FFE0000000000AD
:100B060000000000002000400040004000200000DF
:100B160000000100010001000100010001000100C8
:100B2600010000400040002000000000000000001E
:100B36000000000098012401440144014400FC0027
:100B46000410001FFC0088010401040088007000E6
:100B56000000000070008801040104010400880000
:100B6600000000007000880104010411081FFC0049
:100B760004000000F8014401440144014400C80097
:100B8600000000010401040FFC11041104110018F7
:100B960000000000D601290129012901C90106002A
:100BA6000010041FFC008401000100010400FC0089
:100BB6000400000104190419FC00040004000000EC
:100BC600000000000300010101190119FE000000E8
:100BD6000010041FFC0024004001B4010C010400B5
:100BE600000000100410041FFC00040004000000B4
:100BF60000010401FC0104010001FC0104010000E4
:100C0600FC010401FC008401000100010400FC0059
:100C160004000000F8010401040104010400F800C6
:100C260000010101FF008501040104008800700035
:100C36000000000070008801040104010501FF00A6
:100C4600010104010401FC0084010401000180008B
:100C560000000000CC012401240124012401980095
:100C66000000000100010007F80104010400000073
:100C760000010001F8000400040004010801FC0062
:100C860004010001800170000C0010016001800168
:100C96000001F0010C003001C00030010C01F00130
:100CA6000000000104018C00740170018C01040035
:100CB60000010101810171000E001801600180012F
:100CC6000000000184010C013401440184010C0080
:100CD60000000000000000000001003EFC40024051
:100CE600020000000000000000FFFF0000000000FE
:100CF600000000400240023EFC010000000000002F
:100D060000000060008000800040004000200020BD
:100D16000040107FF84910491049207FFF48A088FD
:100D2600814882388C0FF01888E88448830882004E
:100D360000008041004FFC7210421043F900014F41
:100D4600F2480458186BE0481048084FE640030084
:100D5600000080010006001FFFE000508014801490
:100D6600801480FFFF14801484148214FC00000099
:100D76000000040804060401C40084FFFC0004000B
:100D8600040004FFFC0044018406041C0C08040053
:100D960000000000001FF01220122012201220FF77
:100DA600FC12221222122212221FF20002000E0050
:100DB6000000800080408040804080408240814723
:100DC600FE48805080608040800080018000800066
:100DD600000820484049804E007FFF8A0089200095
:100DE600204420334000400040FFFF008000800088
:100DF60000108010821101FFFE120014020002137F
:100E06000412C81230FE3012481384120610040071
:100E16000000000002000200020002000200027F41
:100E2600FE020202020202020202020006000200A2
:100E36000000004000400040004000400040007FAD
:100E4600FE44004600438041004000C000400000D0
:100E560000420842087FF04211429207040018FF40
:100E6600E00004420442047FFC42044204420400BF
:100E76000002004200320023FE0004440855FF55DC
:100E8600505550FD505552555155FE440004000032
:100E9600000000010107027904111811E01100FF9A
:100EA60000110011FC1102110211020102000E00D4
:100EB600000020802080209FFF922092209220FF19
:100EC600E09220922292219FFE8020802000200026
:100ED600000040008151014A0146F55A9362910291
:100EE60091E2911A9326F54A01130121810100002E
:100EF600007FFF40004840542063C0113E1104119A
:100F0600041104FFFC110411041104113E01000038
:100F16000000101110111011101110FFFF00000039
:100F2600000000FFFF111011101110111010100019
:100F36000008200620807F618006021002108210C1
:100F46008290827FFE108210821082108210020030
:100F5600000202020CFFF082048202FFFC0202027F
:100F6600040218FFE082048202FFFC020002000075
:100F76000000010002000C7FF0444044404440441D
:100F8600407FFF44404440444244417FFE0000000D
:100F96000000010002000C1FF01100110011009169
:100FA60000510071001100110011001F0000000027
:100FB60000FFFFFFFF8000000180000001860000A7
:100FC600018F0000018F803E0187C07F7583E0732B
:100FD6005581F0F35580F9FF55807FFF5D803FFE18
:100FE60001801FFC01801FF87D83FFF8558FFFF0FD
:100FF600559FFFE055BFFFE055BFFFFC01BC3F3EDC
:1010060001B81F3F41B01F3F41801F1F7D801F0E4B
:1010160041803E0041807E000180FC000181FC0091
:101026000181F000018000000180000001FFFFFF48
:10103600FFFFFFFFFF80000001800000018000002D
:1010460001800000018000000180040001800C0086
:101056007D800C0045801C0145801C0345803C07B3
:1010660001807C0E01807C1C7D80FC3C0581FC7827
:101076000581FCF07D83DDE001879FC001871F802D
:10108600418E1F00419C1E007DB81C0041B0180017
:1010960041A01800018010000180000001800000BE
:1010A60001800000018000000180000001FFFFFFB9
:1010B600FFFFFFFFFF8000000180000001800000AD
:1010C6000180000041800000418000007D8000001A
:1010D6004180000041800000018000007D8000000A
:1010E600558FFFFC5587FFF85583FFF05581FFE0CC
:1010F6000180FFC075807F8055803F0055801E00AF
:1011060055800C005D8000000180000041800000D9
:10111600418000007D800000418000004180000089
:1011260001800000018000000180000001FFFFFF38
:10113600FF0000000000000000080000000C003066
:10114600000E003000070030000380300001C03080
:101156000000C03000001FFFFE007FFFFE00F00011
:101166000001C0000003803000070030000E003090
:10117600000C003000080030000000000007FF3CB3
:101186003C0FFFFC3E0E03F81E0C01F00E0C01F0A6
:101196000E0C01F00E0C01F00E0C01F00E0C01F01D
:1011A6000E0C01F00E0C01F81E0E03FFFE0F8FFF52
:1011B600FE078F3FFC00000000000000000000005A
:1011C6000000000000000000000000000000000019
:1011D6000000000000000000000000000000000009
:1011E6000000000000000000000000000000204099
:1011F60000002180000027FE00003A0800002208B7
:10120600000023FC000001010000410600007FF8F9
:1012160000004100000041000000410000007FFF87
:101226000000410000000100000000000000000175
:101236000000000600001FF8000011000000110861
:1012460000001104000011F8000010010000100257
:101256000000FF8400001068000090180000506431
:10126600000013820000101F000000000000241080
:10127600000024600000258000007FFF0000C500FC
:1012860000004480000000200000442000003320BD
:1012960000000020000000200000FFFF00000040CA
:1012A6000000004000000040000000000000082090
:1012B60000000822000008410000FFFE0000088030
:1012C600000009010000100100001102000011C217
:1012D600000011340000FF08000011140000116224
:1012E6000000118100001001000000000000000055
:1012F60000000000000000000000000000000000E8
:1013060000000000000000000000000000000000D7
:1013160000000000000000000000000000000000C7
:1013260000000000000000000000000000000000B7
:0113360000B6
:10651000EF540FC454F0FEEF54F0C4540F4EFF5428
:106520003325E025E0FEEF54CC1313543F4EFF54C7
:0C6530005525E0FEEF54AAC3134EFF22D5
:10672000EF4E60157D087C07ED1DAA0470011C4A20
:0967300070F6EF1F70EA1E80E70D
:01673900223D
:10656600ED6004D2A58002C2A5C2A3E4FEC2A6EFD6
:1065760030E704D2A78002C2A7D2A6EF25E0FF0E1D
:08658600EEB408E9D2A3D2A58E
:01658E0022EA
:10667400AC07ED24B0FFE4FD126566EC54F0C4549D
:106684000F4410FF126566EC540F4401FF02656667
:1062C800E4FCEC24B4FFE4FD1265667F0412656605
:1062D8007F10126566E4FB75F004EBA42400F582D8
:1062E800E5F03402F583E5822CF582E43583F58305
:1062F800E0FF7D011265660BEBB480DB0CECB404A7
:01630800C1D3
:016309002271
:07642000E490041AF0A3F060
:10642700E4FFE4FE75F004EEA42400F582E5F03401
:1064370002F583E5822FF582E43583F583E4F00ED8
:09644700EEB480E00FEFB404D9BB
:016450002229
:0B5A0200FFA3E0C399FD9004CCE0FB83
:105A0D00E4900438F0EFD3947F4003025AA8ED944C
:105A1D003F4003025AA8ED131313541FFEC374071E
:105A2D009E900437F0ED5407FEC374079EFE74017B
:105A3D00A806088002C333D8FC900438F0EB90041C
:105A4D0037602AE0FE75F004EFA42400F582E5F03E
:105A5D003402F583E5822EF582E43583F583C08328
:105A6D00C082E0FF900438E0FEEF4E8029E0FE7525
:105A7D00F004EFA42400F582E5F03402F583E5820D
:105A8D002EF582E43583F583C083C082E0FF900458
:0B5A9D0038E0F4FEEF5ED082D083F012
:015AA80022DB
:0C499E00FBED240990042FF0A37401F03D
:0C49AA0090042CEFF0A90590042EEBF017
:1049B600E9FFA3E0C39FFEE49400900431F0A3CE88
:1049C600F090042CE0FFC3EB9FFEE49400900433C8
:1049D600F0A3CEF0900431E0FEA3E0FFC3EE6480C6
:1049E60094805015C3E49FFFE49E900431F0A3EF3A
:1049F600F090043674FFF080069004367401F0904F
:104A06000433E0FEA3E0FFC3EE648094805013C33A
:104A1600E49FFFE49E900433F0A3EFF0A374FFF04D
:104A260080069004357401F090042CE0FFAD0190EF
:104A36000430E0FB125A0D900431E0FEA3E0FFA320
:104A4600E0FAA3E0FBD39FEE6480F8EA6480984026
:104A560059EAA2E713EB13FF900431A3E0C39FFCCE
:104A660090042EE0FF90042CE06F7003024B03C30A
:104A7600EC648094804010900436E029F990043369
:104A8600A3E0FFC3EC9FFC900435E0FF90042CE00C
:104A96002FF0900431A3E02CFC90042CE0FFAD0134
:104AA600900430E0FB125A0D80B6900431E0A2E784
:104AB60013A3E013FFA3A3E0C39FFC90042FE069B8
:104AC600603BC3EC648094804015900435E0FF9011
:104AD600042CE02FF0900431A3E0FFC3EC9FFC9080
:104AE6000436E029F9900433A3E02CFC90042CE072
:0D4AF600FFAD01900430E0FB125A0D80BEB0
:014B0300228F
:1063B900FD9000021229B62F14FB9004357401F0E8
:0663C900AC07AA03A905C0
:1063CF00ECD39A4006AF02AA04AC07AF04AD01901C
:0D63DF000435E0FB125A0D0CEAC39C50EE91
:0163EC00228E
:06662D00AC05AA03A90759
:10663300ECD39A4006AF02AA04AC07AF01AD0490B5
:0D6643000434E0FB125A0D0CEAC39C50EE2B
:016650002227
:055F3500E0900430F0D3
:105F3A0090042CEFF0A3EDF0A3EBF0900430E09086
:105F4A000435F01263C990042CE0FF90042FE0FDA1
:105F5A0090042EE0FB900430E0900435F01263C9FF
:105F6A0090042CE0FFA3E0FD90042FE0FBA3E09057
:105F7A000434F012662D90042EE0FF90042DE0FD0B
:0E5F8A0090042FE0FBA3E0900434F002662D9B
:055AA900E0900430F064
:0F5AAE0090042DEDF090042CEFF090042EEBF00F
:105ABD00EFD39B401690042CE0FF900431F090043E
:105ACD002EE090042CF090042EEFF090042FE0FFC8
:105ADD0090042DE0FED39F400F900431EEF0900422
:105AED002DEFF090042FEEF090042FE0FF90042D99
:105AFD00E0FDB5071590042CE0FF90042EE0FB901F
:105B0D000430E0900435F00263C990042EE0FF905C
:105B1D00042CE06F602B90042FE0FF90042DE0FD2E
:105B2D00D39F501D90042CE0FF90042EE0FB9004B9
:105B3D0030E0900435F01263C990042DE004F0803C
:015B4D00D582
:015B4E002234
:10615C009004D6EFF0AE03A905EE603EEEFD900480
:10616C00D6E02DFDE433FCD3ED9480EC6480948078
:10617C005028EEFDE92DFDE433FCD3ED9420EC64C6
:10618C0080948050159004D6E0FFAD012EFBE92ED3
:0B619C0090042FF09004D9125F352210
:1061A7009004DAEFF0AE03A905EE603EEEFD900431
:1061B700DAE02DFDE433FCD3ED9480EC6480948029
:1061C7005028EEFDE92DFDE433FCD3ED9420EC647B
:1061D70080948050159004DAE0FFAD012EFBE92E84
:0B61E70090042FF09004DD125AA92252
:0E54B2009004B3EBF0A3EAF0A3E9F0A3EDF051
:1054C000700302559B9004B6E0B401359004B3E03C
:1054D000FBA3E475F001122A72A9F0FA12299D903B
:1054E00004B8F09004B3E0FBA3E0FAA3E0F91229BA
:1054F0009DFC9004B8E0FFAD049004B7E0FB125AA5
:105500000D9004B3E0FBA3E475F001122A72A9F038
:10551000FA12299D9004B8F09004B3E0FBA3E4755F
:10552000F001122A72A9F0FA12299DFC9004BB74B2
:1055300001F09004B6E0FF9004BBE0C39F505C9084
:1055400004B3E0FBA3E475F001122A72A9F0FA1289
:10555000299D9004B9F09004B3E0FBA3E475F00139
:10556000122A72A9F0FA12299D9004BAF09004B898
:10557000E0FFAD04A3E0FBA3E090042FF09004B79C
:10558000E0900430F01249AA9004B9E09004B8F019
:0B5590009004BAE0FCA3E004F0809758
:01559B0022ED
:0858B0009004C8EFF0A3EDF035
:1058B800E4FCAF03A907EF25E0FFC374039FFAECEC
:1058C800D39940030259589004C8E02CFFA3E0295B
:1058D800125A079004C8E02C125A029004C8E0C378
:1058E8009CFFA3E029125A079004C8E0C39C125AEF
:1058F800029004C8E029FFA3E02C125A079004C8BC
:10590800E029FFA3E0C39C125A079004C8E0C3999A
:10591800FFA3E02C125A079004C8E0C399FFA3E044
:10592800C39C125A07C3EA64809480500FAF040CDA
:10593800EF25E025E024062AFA0258C7AF0119AE80
:10594800040CC3EE9F25E025E0240A2AFA0258C772
:01595800222C
:0B2C9D00900423EBF0A3EAF0A3E9F0A1
:102CA8009000021229B6FEC394144016900423E043
:102CB800FBA3E0FAA3E0F99000031229B6C3941429
:102CC80050037F0022EEFF12299D2FFFE433FED32D
:102CD800EF9480EE6480948040037F002290042368
:102CE800E0FBA3E0FAA3E0F99000031229B6FF90F5
:102CF80000011229B62FFFE433FED3EF9420EE64CF
:102D080080948040037F0022900423E0FBA3E0FA34
:102D1800A3E0F912299DFCFFC0079000011229B613
:102D2800FD9000021229B62C14FBC003900423E086
:102D3800FB9000031229B6FF9000011229B62F1448
:102D480090042FF0E4A3F0D003D007125AAE9004F9
:102D580023E0FBA3E0FAA3E0F912299DFCFFC007DA
:102D68009000011229B6FD9000021229B62C14FB1E
:102D7800C003900423E0FB9000031229B6FF9000E3
:102D8800011229B62F1490042FF0A37401F0D00378
:102D9800D007125F3A900423E0FBA3E0FAA3E0F91E
:102DA80012299DFF9000011229B624091263B990D7
:102DB8000423E0FBA3E0FAA3E0F99000021229B68D
:102DC800FF12299D2F24F6FF9000011229B6FD2439
:102DD80009FB9004347401F012662D900423E0FB83
:102DE800A3E0FAA3E0F99000021229B6FF12299D88
:102DF8002FFE24F6FF9000011229B6FDEE141249A9
:102E08009E900423E0FBA3E0FAA3E0F990000212ED
:102E180029B6FF12299D2FFE14FF9000011229B632
:102E2800FDEE24F612499E900423E0FBA3E0FAA3EA
:102E3800E0F9900004122C19E94A7003022ED1908F
:102E48000423E0FBA3E0FAA3E0F9900004122C1994
:102E5800900426EBF0A3EAF0A3E9F0900423E0FB4A
:102E6800A3E0FAA3E0F912299DFF2402900429F0B7
:102E78009000011229B60490042AF0900002122949
:102E8800B62F1490042BF0900429E0FF3395E0FE50
:102E9800EF2408FFE43EFE90042BE0FD3395E0FCB0
:102EA800D3EF9DEC6480F8EE648098501C90042663
:102EB800E0FBA3E0FAA3E0F912299D600C1251C2CD
:102EC800900429E02406F080BE900423E0FBA3E0F0
:102ED800FAA3E0F9900007122C19E94A7003022FAF
:102EE80074900423E0FBA3E0FAA3E0F99000071232
:102EF8002C19900426EBF0A3EAF0A3E9F090042340
:102F0800E0FBA3E0FAA3E0F912299DFF2402900454
:102F180029F09000011229B6240C90042AF09000A0
:102F2800021229B62F1490042BF0900429E0FF33E5
:102F380095E0FEEF2408FFE43EFE90042BE0FD330D
:102F480095E0FCD3EF9DEC6480F8EE648098501C0B
:102F5800900426E0FBA3E0FAA3E0F912299D600C97
:102F68001251C2900429E02406F080BE900423E0A8
:102F7800FBA3E0FAA3E0F990000A122C19E94A70C1
:102F88000302305A900423E0FBA3E0FAA3E0F9908F
:102F980000031229B6C3941950037F00229004231A
:102FA800E0FBA3E0FAA3E0F912299DFF90000312C9
:102FB80029B6FE9000011229B62E24F61263B990A4
:102FC8000423E0FBA3E0FAA3E0F990000A122C190D
:102FD800900426EBF0A3EAF0A3E9F0900423E0FBC9
:102FE800A3E0FAA3E0F912299DFF2403900429F035
:102FF8009000031229B6FE9000011229B62E24F77C
:1030080090042AF09000021229B62F1490042BF095
:10301800900429E0FF3395E0FEEF2408FFE43EFE2C
:1030280090042BE0FD3395E0FCD3EF9DEC6480F831
:10303800EE648098501C900426E0FBA3E0FAA3E01D
:10304800F912299D600C1251C2900429E02406F05F
:0430580080BE7F01B6
:01305C002251
:0764B2009004CEEDF0A903F8
:1064B900AC07ECD399501F9004CEE0FA9004D0E0D9
:1064C900FFEAD39F500DAF04AD02A3E0FB125A0DB2
:0964D9000A80E90C80DC0262C8B3
:1051C200900429E0FFA3E0FD900426E0FBA3E47530
:1051D200F001122A72A9F0FA12299DFB90042F7491
:0651E20007F0A37401F0C8
:0C51E80090042CEFF090042EEBF0A905D1
:1051F400900432E9F090042EE024E0F0E4FC900402
:105204002FE0FFECC39F40030252CAEFB40729907A
:10521400042EE075F006A42479F582E5F03400F557
:1052240083E5822CF582E43583F583E493FF1265EC
:1052340010900431EFF0803890042FE090042EB4E5
:105244000C0FE075F00CA424B3F582E5F034028071
:105254000DE075F010A42427F582E5F03407F583FA
:10526400E5822CF582E43583F583E493900431F0F0
:10527400E4FA900431E030E70E90042CE0FFAD0135
:10528400900430E0FB801390042CE0FFAD01900407
:1052940030E070047B0180027B00125A0D900431CF
:1052A400E025E0F009A3E0FFC3E99FFE90042FE0AE
:1052B400B5060AA90790042CE004F080050AEAB4B4
:0652C40008B00C025202CA
:0152CA0022C1
:0861F2009004BCEFF0A3EDF0F6
:1061FA00A3122BE8000000019004BDE0FF14F0EFA9
:10620A006020A3E0F8A3E0F9A3E0FAA3E0FB90047E
:10621A00BCE0FFE4FCFDFE122A889004BE122BDCCF
:10622A0080D69004BEE0FCA3E0FDA3E0FEA3E0FF5D
:01623A002241
:085670009004A8EFF0A3EDF097
:10567800E49004B2F09004B0F09004AEE0FF90041F
:10568800B0E0FEC39F4003025736C3EF9E14FD7F70
:105698000A1261F2A804A905AA06AB079004AAE0B9
:1056A800FCA3E0FDA3E0FEA3E0FF122B13E47B0ABA
:1056B800FAF9F8122B139004B1EBF0A3E0703A90CA
:1056C80004AEE014FF9004B0E0FEC39F502BA3E0AB
:1056D80070219004AFE0FCC3138EF0A4FF9004A8DF
:1056E800E02FFFA3E0FD90042FECF0A37401F07B02
:1056F80020802F9004B27401F09004AFE0FEC31331
:10570800FFA3E0FDEF8DF0A4FF9004A8E02FFFA316
:10571800E0FD9004B1E02430FB90042FEEF0A37478
:0E57280001F01251E89004B0E004F002568146
:015736002250
:104C47007A0079407BFF90041F740CF0A37401F085
:044C5700E4FD7F4EAB
:104C5B0090041AEFF0A3EDF0A3EBF0A3EAF0A3E9B5
:104C6B00F090041CE0FBA3E0FAA3E0F912299D707D
:104C7B0003024D6990041FE06410704C90041AE01D
:104C8B00D3947A4007E4F0A3E02410F090041BE0E7
:104C9B00D39420400312642090041AE0FFA3E0FD9C
:104CAB00A3E0FBA3E0FAA3E0F912299DFB90042FEC
:104CBB007410F0900420E0900430F01251E890044E
:104CCB001AE02408F0024D5C90041FE0640C70386D
:104CDB0090041AE0D3947A4007E4F0A3E0240CF09C
:104CEB0090041BE0D39420400312642090041AE03C
:104CFB00FFA3E0FDA3E0FBA3E0FAA3E0F912299DDB
:104D0B00FB90042F740C803690041AE0D3947A40F5
:104D1B0007E4F0A3E02408F090041BE0D3942040B8
:104D2B000312642090041AE0FFA3E0FDA3E0FBA3B1
:104D3B00E0FAA3E0F912299DFB90042F7407F09081
:104D4B000420E0900430F01251E890041AE024069D
:0F4D5B00F090041DE475F001122A5C024C6C22EA
:0C5BE5009004C2EFF09004C4EBF0A9059E
:105BF1009004C7E9F0E4FCECC394109004C4E07590
:105C0100F020A42417F582E5F0340DF583E5822C0C
:105C1100F582E43583F583E4939004C6F0E4FA90C9
:105C210004C6E030E70E9004C2E0FFAD019004C568
:105C3100E0FB80139004C2E0FFAD019004C5E07069
:105C4100047B0180027B00125A0D9004C6E025E01E
:105C5100F009A3E0FFC3E99FFEBE100AA907900463
:105C6100C2E004F080050AEAB408B40CEC642070C8
:015C710086AC
:015C7200220F
:105D7C00900412EFF0A3EDF0A3EBF0900412E0FF0F
:105D8C00C007A3E0FDA3E0FEC3EF9EFBED2E900445
:105D9C002FF0900415E0900430F0D0071249AA902F
:105DAC000412E0FFC007A3E0FDA3E0FEEF2EFBED25
:105DBC002E90042FF0900415E0900430F0D00712D0
:105DCC0049AA900414E0FE900412E0FC2EFFA3E01C
:105DDC002EFDC3EC9EFB90042FEDF0900415E0908B
:065DEC000430F00249AA98
:0B4FA000900409EFF0A3EDF0A3EBF08C
:104FAB00900409E0FBFF90040BE0FAC39FFFE4942D
:104FBB0000FE90040DE0FD7C00122A07900411EF17
:104FCB00F0EB24FDFF90040AE024FEFDEA2404FB31
:104FDB0090040CE0240C90042FF0E4A3F0125AAED2
:104FEB00900409E0FFA3E0FDA3E0FBA3E090042FF6
:104FFB00F090040F125F3590040EE0FF900411E067
:10500B008FF0A4FF900409E02FFF90040CE004FD47
:10501B009004157401F07B03125D7C900409E0FE93
:10502B0004FFA3E004FD90040EE0FC900411E08C5F
:10503B00F0A4FCEE2CFB90040CE01490042FF090E9
:10504B00040F125AA990040EE075F00A84540FFF56
:10505B001265A6AB0790040EE0FF900411E08FF0F1
:10506B00A4FF900409E02F24FAFF90040CE024061F
:10507B00FD1251DE90040EE075F00A84E5F0540F3A
:10508B00FF1265A6AB0790040EE0FF900411E08FB2
:10509B00F0A4FF900409E02FFF90040CE02406FD20
:0650AB001251DE0262C892
:0B5FFA00900402EFF0A3EDF0A3EBF029
:10600500A3E090042FF0900406125F35E490040796
:10601500F0900402E0FF900404E0C39FFF900407A2
:10602500E0FEC39F502E900402E0FC04FFA3E004B1
:10603500FDEC2EFB900405E01490042FF09004066F
:10604500125AA91262C8126848126848900407E0FB
:0460550004F080BD16
:016059002224
:09573700900402EBF0AC05A90797
:10574000ECFF900409E4F0A3EFF0E4900405F0A36B
:10575000F0900405E0FEA3E0FFC3EE9402400302D4
:1057600057FB74372FF58274113EF583E493FF9055
:105770000403E4F0A3EFF0E4900407F0A3F0900436
:1057800004E030E70BAF01AD04900402E0FB8010B1
:10579000AF01AD04900402E070047B0180027B0045
:1057A000125A0D900404E025E0F0900403E033F079
:1057B0000CECFF900409E0FAA3E0FBC3EF9BFFE4CD
:1057C0009AFEEF64204E7005AC0309801D9004081A
:1057D000E004F07006900407E004F0C3900408E0D1
:1057E0009408900407E094004094900406E004F0CC
:0B57F0007006900405E004F002575121
:0157FB00228B
:1052CB0090040C74FFF0A37410F0A37437F07B01FF
:0452DB00E4FD7F303F
:0F52DF00900409EFF090040BEBF090040AEDF04F
:1052EE00FF900415E4F0A3EFF0E4900411F0A3F0A6
:1052FE0090040CE0FBA3E0FAA3E0F912299DFF90C5
:10530E00040FE4F0A3EFF090040DE475F001122AFF
:10531E005CE4900413F0A3F0900410E030E70D90DD
:10532E000409E0FFA3E0FDA3E0FB8012900409E076
:10533E00FFA3E0FDA3E070047B0180027B00125A04
:10534E000D900410E025E0F090040FE033F090048F
:10535E000AE004F0E0FF900415E0FCA3E0FDC3EFCB
:10536E009DFFE49CFEEF64204E700D90040AEDF05C
:10537E00900409E004F0801D900414E004F070061F
:10538E00900413E004F0C3900414E0940890041306
:10539E00E094004083900412E004F0700690041133
:1053AE00E004F0C3900412E09480900411E09400A5
:0553BE0050030252FE45
:0153C30022C7
:10559C00900408EFF090042F740CF0A37401F07BCE
:1055AC003C7D0BE4FF1251E890042F740CF0A374B3
:1055BC0001F07B3E7D0B7F781251E8900408E0707F
:1055CC002D90040C74FFF0A3740FF0A374B7F0E4E7
:1055DC00FBFD7F0A1252DF1252CB90040C74FFF0C9
:1055EC00A37410F0A374B7F07B01E4025669900425
:1055FC0008E0640190040C703D74FFF0A3740FF08C
:10560C00A374B7F07B01E4FD7F0A1252DF90040C07
:10561C0074FFF0A37410F0A37437F0E4FBFD7F303B
:10562C001252DF90040C74FFF0A37410F0A374B743
:10563C00F07B01E4802774FFF0A3740FF0A374B720
:10564C00F07B01E4FD7F0A1252DF1252CB90040C66
:10565C0074FFF0A37410F0A374B7F0E4FBFD7F5655
:04566C001252DF22D5
:1050B100900405EFF070297BFF7A00792690041F98
:1050C100740CF0E4A3F0FDFF124C5B7BFF7A0079D6
:1050D1003390041F740CF0A37401F07D0FE4802F52
:1050E100900405E0640170407BFF7A00792690040A
:1050F1001F740CF0A37401F0E4FDFF124C5B7BFF05
:105101007A00793390041F740CF0E4A3F07D0FFF53
:10511100124C5B124C477BFF7A00794690041F7456
:105121000CF0A374010251B9900405E064027BFF05
:105131007A00792690041F704A740CF0A37401F070
:10514100E4FDFF124C5B7BFF7A00793390041F74FE
:105151000CF0A37401F07D0FE4FF124C5B7BFF7A2E
:1051610000794090041F740CF0E4A3F0FD7F4E120F
:105171004C5B7BFF7A00794690041F740CF0A3749A
:10518100018035740CF0A37401F0E4FDFF124C5B57
:105191007BFF7A00793390041F740CF0A37401F043
:1051A1007D0FE4FF124C5B124C477BFF7A0079467E
:1051B10090041F740CF0E4A3F07D0F7F4E124C5B42
:0151C10022CB
:104E8500900407EFF070297BFF7A00794F90041F9B
:104E9500740CF0E4A3F0FDFF124C5B7BFF7A007904
:104EA5005A90041F740CF0A37401F07D0FE4802F59
:104EB500900407E0640170447BFF7A00794F900409
:104EC5001F740CF0A37401F0E4FDFF124C5B7BFF33
:104ED5007A00795A90041F740CF0E4A3F07D0FFF5B
:104EE500124C5B7A007965124C4B7BFF7A00794650
:104EF50090041F740CF0A37401024F97900407E00F
:104F050064027BFF7A00794F90041F704A740CF09D
:104F1500A37401F0E4FDFF124C5B7BFF7A00795A24
:104F250090041F740CF0A37401F07D0FE4FF124C84
:104F35005B7BFF7A00796590041F740CF0E4A3F0A5
:104F4500FD7F4E124C5B7BFF7A00794690041F74FF
:104F55000CF0A37401803B740CF0A37401F0E4FD24
:104F6500FF124C5B7BFF7A00795A90041F740CF09A
:104F7500A37401F07D0FE4FF124C5B7BFF7A00798F
:104F850065124C4D7BFF7A00794690041F740CF036
:0B4F9500E4A3F07D0F7F4E124C5B2266
:10133700900410EFF0A3EDF0EF2404FF7BFF7A0099
:10134700796D90041F7407F0A37401F0124C5B9041
:101357000410E02404FFA3E02410FD7BFF7A00794A
:101367007390041F7407F0A37401F0124C5B900490
:101377002F741FF0A37401F07B26E4FD7F2612492A
:10138700AAE490042FF0A304F07B28E4FD7F261243
:1013970049AA90042F740FF0A37401F07B287D0FE6
:1013A7007F261249AA90042F741FF0A37401F07BC3
:1013B700287D1F7F261249AA900410E02424F0E01C
:1013C7002406FFC007900412E0FCA3E0FDA3E0FEA3
:1013D700A3E0FF7817122BB6EF5401FFEF2430FB81
:1013E70090042F7407F0A37401F0900411E0FDD06E
:1013F700071251E8900410E0240CFFC00790041274
:10140700E0FCA3E0FDA3E0FEA3E0FF7816122BB6F5
:10141700EF5401FFEF2430FB90042F7407F0A374FF
:1014270001F0900411E0FDD0071251E8900410E09C
:101437002412FFC007900412E0FCA3E0FDA3E0FE26
:10144700A3E0FF7815122BB6EF5401FFEF2430FB12
:1014570090042F7407F0A37401F0900411E0FDD0FD
:10146700071251E8900410E02418FFC007900412F7
:10147700E0FCA3E0FDA3E0FEA3E0FF7814122BB687
:10148700EF5401FFEF2430FB90042F7407F0A3748F
:1014970001F0900411E0FDD0071251E8900410E02C
:1014A700241EFFA3E0FD90042F7407F0A37401F03E
:1014B7007B2D1251E8900410E02424FFC00790040C
:1014C70012E0FCA3E0FDA3E0FEA3E0FF7813122BDC
:1014D700B6EF5401FFEF2430FB90042F7407F0A3FD
:1014E7007401F0900411E0FDD0071251E890041048
:1014F700E0242AFFC007900412E0FCA3E0FDA3E06C
:10150700FEA3E0FF7812122BB6EF5401FFEF243051
:10151700FB90042F7407F0A37401F0900411E0FD11
:10152700D0071251E8900410E02430FFC007900460
:1015370012E0FCA3E0FDA3E0FEA3E0FF7811122B6D
:10154700B6EF5401FFEF2430FB90042F7407F0A38C
:101557007401F0900411E0FDD0071251E8900410D7
:10156700E02436FFC007900412E0FCA3E0FDA3E0EF
:10157700FEA3E0FF7810122BB6EF5401FFEF2430E3
:10158700FB90042F7407F0A37401F0900411E0FDA1
:10159700D0071251E8900410E0243CFFA3E0FD902F
:1015A700042F7407F0A37401F07B2D1251E8900407
:1015B70010E02442FFC007900412E0FCA3E0FDA363
:1015C700E0FEA3E0FF780F122BB6EF5401FFEF24E4
:1015D70030FB90042F7407F0A37401F0900411E01E
:1015E700FDD0071251E8900410E02448FFC007908F
:1015F7000412E0FCA3E0FDA3E0FEA3E0FF780E12D7
:101607002BB6EF5401FFEF2430FB90042F7407F043
:10161700A37401F0900411E0FDD0071251E8900483
:1016270010E0244EFFC007900412E0FCA3E0FDA3E6
:10163700E0FEA3E0FF780D122BB6EF5401FFEF2475
:1016470030FB90042F7407F0A37401F0900411E0AD
:10165700FDD0071251E8900410E02454FFC0079012
:101667000412E0FCA3E0FDA3E0FEA3E0FF780C1268
:101677002BB6EF5401FFEF2430FB90042F7407F0D3
:10168700A37401F0900411E0FDD0071251E8900413
:1016970010E02406FFC007A3E02408FDC005A3E06F
:1016A700FCA3E0FDA3E0FEA3E0FF780B122BB6EF4F
:1016B7005401FFEF2430FB90042F7407F0A374014B
:1016C700F0D005D0071251E8900410E0240CFFC0B9
:1016D70007A3E02408FDC005A3E0FCA3E0FDA3E009
:1016E700FEA3E0FF780A122BB6EF5401FFEF243078
:1016F700FB90042F7407F0A37401F0D005D00712F4
:1017070051E8900410E02412FFC007A3E02408FD6D
:10171700C005A3E0FCA3E0FDA3E0FEA3E0FF78097A
:10172700122BB6EF5401FFEF2430FB90042F740700
:10173700F0A37401F0D005D0071251E8900410E02F
:101747002418FFC007A3E02408FDC005A3E0FCA3FD
:10175700E0FDA3E0FEA3E0FF7808122BB6EF5401EB
:10176700FFEF2430FB90042F7407F0A37401F0D02F
:1017770005D0071251E8900410E0241EFFA3E024CF
:1017870008FD90042F7407F0A37401F07B2D12510C
:10179700E8900410E02424FFC007A3E02408FDC05C
:1017A70005A3E0FCA3E0FDA3E0FEA3E0FF7807129A
:1017B7002BB6EF5401FFEF2430FB90042F7407F092
:1017C700A37401F0D005D0071251E8900410E0246B
:1017D7002AFFC007A3E02408FDC005A3E0FCA3E09F
:1017E700FDA3E0FEA3E0FF7806122BB6EF5401FF3E
:1017F700EF2430FB90042F7407F0A37401F0D00599
:10180700D0071251E8900410E02430FFC007A3E08E
:101817002408FDC005A3E0FCA3E0FDA3E0FEA3E0D0
:10182700FF7805122BB6EF5401FFEF2430FB90042D
:101837002F7407F0A37401F0D005D0071251E89078
:101847000410E02436FFC007A3E02408FDC005A369
:10185700E0FCA3E0FDA3E0FEA3E0FF7804122BB6B3
:10186700EF5401FFEF2430FB90042F7407F0A374AB
:1018770001F0D005D0071251E8900410E0243CFF96
:10188700A3E02408FD90042F7407F0A37401F07BF4
:101897002D1251E8900410E02442FFC007A3E02472
:1018A70008FDC005A3E0FCA3E0FDA3E0FEA3E0FF65
:1018B7007803122BB6EF5401FFEF2430FB90042F6F
:1018C7007407F0A37401F0D005D0071251E8900413
:1018D70010E02448FFC007A3E02408FDC005A3E0EB
:1018E700FCA3E0FDA3E0FEA3E0FF7802122BB6EF16
:1018F7005401FFEF2430FB90042F7407F0A3740109
:10190700F0D005D0071251E8900410E0244EFFC034
:1019170007A3E02408FDC005A3E0FCA3E0FDA3E0C6
:10192700FEA3E0FF7801122BB6EF5401FFEF24303E
:10193700FB90042F7407F0A37401F0D005D00712B1
:1019470051E8900410E02454FFC007A3E02408FDE9
:10195700C005A3E0FCA3A3E0FEA3E05401FFEF242E
:1019670030FB90042F7407F0A37401F0D005D00763
:101977001251E8900410E02406FFC007A3E02410EA
:10198700FDC005900416E0FCA3E0FDA3E0FEA3E084
:10199700FF7817122BB6EF5401FFEF2430FB9004AA
:1019A7002F7407F0A37401F0D005D0071251E89007
:1019B7000410E0240CFFC007A3E02410FDC005902D
:1019C7000416E0FCA3E0FDA3E0FEA3E0FF781612F7
:1019D7002BB6EF5401FFEF2430FB90042F7407F070
:1019E700A37401F0D005D0071251E8900410E02449
:1019F70012FFC007A3E02410FDC005900416E0FC09
:101A0700A3E0FDA3E0FEA3E0FF7815122BB6EF5489
:101A170001FFEF2430FB90042F7407F0A37401F04B
:101A2700D005D0071251E8900410E02418FFC00732
:101A3700A3E02410FDC005900416E0FCA3E0FDA37D
:101A4700E0FEA3E0FF7814122BB6EF5401FFEF245A
:101A570030FB90042F7407F0A37401F0D005D00772
:101A67001251E8900410E0241EFFA3E02410FD901B
:101A7700042F7407F0A37401F07B2D1251E8900432
:101A870010E02424FFC007A3E02410FDC005900444
:101A970016E0FCA3E0FDA3E0FEA3E0FF7813122B02
:101AA700B6EF5401FFEF2430FB90042F7407F0A327
:101AB7007401F0D005D0071251E8900410E0242AF1
:101AC700FFC007A3E02410FDC005900416E0FCA3A7
:101AD700E0FDA3E0FEA3E0FF7812122BB6EF54015E
:101AE700FFEF2430FB90042F7407F0A37401F0D0AC
:101AF70005D0071251E8900410E02430FFC007A377
:101B0700E02410FDC005900416E0FCA3E0FDA3E06F
:101B1700FEA3E0FF7811122BB6EF5401FFEF24303C
:101B2700FB90042F7407F0A37401F0D005D00712BF
:101B370051E8900410E02436FFC007A3E02410FD0D
:101B4700C005900416E0FCA3E0FDA3E0FEA3E0FFC0
:101B57007810122BB6EF5401FFEF2430FB90042FBF
:101B67007407F0A37401F0D005D0071251E8900470
:101B770010E0243CFFA3E02410FD90042F7407F02D
:101B8700A37401F07B2D1251E8900410E02442FF6A
:101B9700C007A3E02410FDC005900416E0FCA3E0F5
:101BA700FDA3E0FEA3E0FF780F122BB6EF5401FF71
:101BB700EF2430FB90042F7407F0A37401F0D005D5
:101BC700D0071251E8900410E02448FFC007A3E0B3
:101BD7002410FDC005900416E0FCA3E0FDA3E0FE81
:101BE700A3E0FF780E122BB6EF5401FFEF2430FB72
:101BF70090042F7407F0A37401F0D005D007125199
:101C0700E8900410E0244EFFC007A3E02410FDC0B5
:101C170005900416E0FCA3E0FDA3E0FEA3E0FF7837
:101C27000D122BB6EF5401FFEF2430FB90042F74F5
:101C370007F0A37401F0D005D0071251E890041003
:101C4700E02454FFC007A3E02410FDC0059004164C
:101C5700E0FCA3E0FDA3E0FEA3E0FF780C122BB6A7
:101C6700EF5401FFEF2430FB90042F7407F0A374A7
:101C770001F0D005D0071251E8900410E02406FFC8
:101C8700C007A3E02418FDC005900416E0FCA3E0FC
:101C9700FDA3E0FEA3E0FF780B122BB6EF5401FF84
:101CA700EF2430FB90042F7407F0A37401F0D005E4
:101CB700D0071251E8900410E0240CFFC007A3E0FE
:101CC7002418FDC005900416E0FCA3E0FDA3E0FE88
:101CD700A3E0FF780A122BB6EF5401FFEF2430FB85
:101CE70090042F7407F0A37401F0D005D0071251A8
:101CF700E8900410E02412FFC007A3E02418FDC0F9
:101D070005900416E0FCA3E0FDA3E0FEA3E0FF7846
:101D170009122BB6EF5401FFEF2430FB90042F7408
:101D270007F0A37401F0D005D0071251E890041012
:101D3700E02418FFC007A3E02418FDC0059004168F
:101D4700E0FCA3E0FDA3E0FEA3E0FF7808122BB6BA
:101D5700EF5401FFEF2430FB90042F7407F0A374B6
:101D670001F0D005D0071251E8900410E0241EFFBF
:101D7700A3E02418FD90042F7407F0A37401F07BEF
:101D87002D1251E8900410E02424FFC007A3E0249B
:101D970018FDC005900416E0FCA3E0FDA3E0FEA338
:101DA700E0FF7807122BB6EF5401FFEF2430FB90CA
:101DB700042F7407F0A37401F0D005D0071251E87F
:101DC700900410E0242AFFC007A3E02418FDC005F3
:101DD700900416E0FCA3E0FDA3E0FEA3E0FF780675
:101DE700122BB6EF5401FFEF2430FB90042F74073A
:101DF700F0A37401F0D005D0071251E8900410E069
:101E07002430FFC007A3E02418FDC005900416E0A6
:101E1700FCA3E0FDA3E0FEA3E0FF7805122BB6EFDD
:101E27005401FFEF2430FB90042F7407F0A37401D3
:101E3700F0D005D0071251E8900410E02436FFC017
:101E470007A3E02418FDC005900416E0FCA3E0FDFD
:101E5700A3E0FEA3E0FF7804122BB6EF5401FFEFD7
:101E67002430FB90042F7407F0A37401F0D005D041
:101E7700071251E8900410E0243CFFA3E02418FD6A
:101E870090042F7407F0A37401F07B2D1251E89092
:101E97000410E02442FFC007A3E02418FDC005900A
:101EA7000416E0FCA3E0FDA3E0FEA3E0FF78031225
:101EB7002BB6EF5401FFEF2430FB90042F7407F08B
:101EC700A37401F0D005D0071251E8900410E02464
:101ED70048FFC007A3E02418FDC005900416E0FCE6
:101EE700A3E0FDA3E0FEA3E0FF7802122BB6EF54B8
:101EF70001FFEF2430FB90042F7407F0A37401F067
:101F0700D005D0071251E8900410E0244EFFC00717
:101F1700A3E02418FDC005900416E0FCA3E0FDA390
:101F2700E0FEA3E0FF7801122BB6EF5401FFEF2488
:101F370030FB90042F7407F0A37401F0D005D0078D
:101F47001251E8900410E02454FFC007A3E02418BE
:101F5700FDC005900416E0FCA3A3E0FEA3E0540136
:101F6700FFEF2430FB90042F7407F0A37401F0D027
:061F770005D0070251E84D
:1057FC00D2A47F647E00126720C2A47F647E001254
:10580C006720D2A4E4FD7FFD1265667F12126566E7
:10581C007FAE1265667F201265667F021265667F19
:10582C00B4126566E4FF1265667F101265667F60D0
:10583C001265667FD51265667FF01265667FA812C9
:10584C0065667F1F1265667FD3126566E4FF12657D
:10585C00667FA11265667FC01265667FD812656689
:10586C007F051265667FDA1265667F121265667FA8
:10587C00D91265667FF11265667F811265667FBFFE
:10588C001265667FDB1265667F341265667FA41233
:10589C0065667FA61265667FAF126566126427E4A3
:0458AC00FF0266741D
:105F9800900402122BDC53877F759850438E04902F
:105FA8000402E0F8A3E0F9A3E0FAA3E0FB7F007E97
:105FB800607D547C00122B13EFF404F5D790040293
:105FC800E0F8A3E0F9A3E0FAA3E0FB7F007E607DA0
:105FD800547C00122B13C3E49FFFE49EFE74019DC2
:105FE800FDE49CFC7808122BB68FD6438E01438EB5
:025FF800102275
:0B6853007F007EC27D017C00025F9888
:08687A008F993099FDC29922AB
:1063ED00900409EBF0A3EAF0A3E9F0900409E0FBB7
:1063FD00A3E0FAA3E0F912299D6017900409A3E424
:10640D0075F001122A72A9F0FA12299DFF12679AEE
:03641D0080D92201
:10679A00AE07EEB40A097F0D12687A7F0A8002AF4B
:0767AA000612687AAF062217
:1067C500EFC3940AEF50052430FD80032437FDAF55
:0467D5000502679AB8
:1066CF00AC077F2012679AECC4540FFF1267C5EC1A
:0B66DF00540FFF1267C57F2002679A6E
:030023000267521F
:06675200C0E0C083C0821C
:0B675800309808C298900400E599F00A
:07676300D082D083D0E032A8
:09686900D287C284C286C28522D6
:1067D900E4FEEF339284C285D285EF25E0FF0EEE09
:0367E900B408EF02
:0167EC00228A
:1066EA00C286AF051DEF601012299DFF1267D9748B
:0B66FA000129F9E43AFA80EAD2862276
:105E6300436F6465204E6F2E3A00204E4721212058
:105E7300002020202020200050415353212100499D
:105E83006E666F00565436323533382D4231005624
:105E93005436323533382D423200434F42004F4B94
:105EA3003A004E473A004144443A00534144442D9A
:105EB3004E6F2E3A000ABFAACABCB8EEC2EB2D2D14
:0F5EC3002D3E0A000ACDEAB3C9B8EEC2EB0A00C1
:10595900900423122BE800000000900427122BE882
:1059690000000000E490042BF0F090042BE0F9C350
:1059790094185071900439E0FCA3E0FDA3E0FEA364
:10598900E0FFA801122BB6EF5401FFE4FEFDFC90E5
:105999000423122BDC900427E0F8A3E0F9A3E0FA32
:1059A900A3E0FBC000C001C003900423E0FCA3E016
:1059B900FDA3E0FEA3E0FF90042BE0FBC374179B5B
:1059C900F9F8122BC9D003D001D000EB4FFFEA4EF2
:1059D900FEE94DFDE84CFC900427122BDC90042BCA
:1059E900E004F08085900427E0FCA3E0FDA3E0FE3D
:0959F900A3E0FF900439022BDC4D
:0D682F00C2CCC2C0C2B3C2B4C2B5D2B62240
:08688200EF24FF92B5C2B6221B
:0C683C00759DFFE4F5BDF5BE75BC802223
:10665100EF4488F5BC00000000E5BC30E4FB53BC0E
:10666100EFAFBDEF75F004A4ADBE7C002DFFEC359E
:03667100F0FE2216
:05645100E4FF1266519A
:106456008F828E837E037FE8AD82AC83122C49C087
:1064660006C007AE83AF82C3E49FFF74049EAB07EA
:0C647600FAE4F9F8D007D006122B13222C
:1044DA00C282C280C283C2811268481268481268C6
:1044EA004812645190043DEEF0A3EFF00000000082
:1044FA007F01126651126456900445EEF0A3EFF064
:10450A00000000007F0212665112645690044DEEBC
:10451A00F0A3EFF0000000007F0312665112645608
:10452A00900455EEF0A3EFF0000000007F0412663D
:10453A005112645690045DEEF0A3EFF00000000003
:10454A007F0512665112645690045FEEF0A3EFF0F5
:10455A00000000007F06126651126456900461EE54
:10456A00F0A3EFF0000000007F07126651126456B4
:10457A00900463EEF0A3EFF0C282C280D283D281AC
:10458A0012684812684812684812645190043FEE53
:10459A00F0A3EFF0000000007F011266511264568A
:1045AA00900447EEF0A3EFF0000000007F021266CD
:1045BA005112645690044FEEF0A3EFF00000000091
:1045CA007F03126651126456900457EEF0A3EFF07F
:1045DA00D282D280C283C2811268481268481268A5
:1045EA0048126451900441EEF0A3EFF0000000007D
:1045FA007F01126651126456900449EEF0A3EFF05F
:10460A00000000007F02126651126456900451EEB7
:10461A00F0A3EFF0000000007F0312665112645607
:10462A00900459EEF0A3EFF0D282D280D283D281E5
:10463A00126848126848126848126451900443EE9E
:10464A00F0A3EFF0000000007F01126651126456D9
:10465A0090044BEEF0A3EFF0000000007F02126618
:10466A0051126456900453EEF0A3EFF000000000DC
:10467A007F0312665112645690045BEEF0A3EFF0CA
:01468A00220D
:104B0400AB07900439122BE800000000EB6401604D
:104B140003024B9690046CE0540125E0FF90043CA2
:104B2400E054FD4FF090046CE0540225E025E0FFD2
:104B340090043CE054F74FF090046CE05404333399
:104B44003354F8FF90043CE054DF4FF090046CE0E1
:104B54005408C454F0FF90043CE0547F4FF0900498
:104B64006CE05410131313541FFF90043BE054FDE6
:104B74004FF090046CE054201313543FFF90043B17
:104B8400E054F74FF090046CE054401313543F0288
:104B94004C28EB6003024C3290046CE05401FF900B
:104BA400043CE054FE4FF090046CE0540225E0FF16
:104BB40090043CE054FB4FF090046CE0540425E076
:104BC40025E0FF90043CE054EF4FF090046CE05477
:104BD4000833333354F8FF90043CE054BF4FF09053
:104BE400046CE05410C4540FFF90043BE054FE4F97
:104BF400F090046CE05420131313541FFF90043BF3
:104C0400E054FB4FF090046CE05440131313541F12
:104C1400FF90043BE054F74FF090046CE054801391
:104C24001313541FFF90043BE054EF4FF022900401
:104C340069E0FCA3E0FDA3E0FEA3E0FF90043912C9
:034C44002BDC2244
:1033DD00D201900465122BE80000000090046CE00F
:1033ED0030E01AC390043EE0942C90043DE094012B
:1033FD004009900468E04401F08002C20190046C21
:10340D00E0C31330E01AC3900440E0942C90043FC5
:10341D00E094014009900468E04402F08002C2018A
:10342D0090046CE01313543F30E01AC3900442E053
:10343D00942C900441E094014009900468E0440408
:10344D00F08002C20190046CE0131313541F30E09E
:10345D001AC3900444E0942C900443E09401400975
:10346D00900468E04408F08002C20190046CE0C44E
:10347D00540F30E01AC3900446E0942C900445E0BC
:10348D0094014009900468E04410F08002C201905C
:10349D00046CE0C413540730E01AC3900448E09460
:1034AD002C900447E094014009900468E04420F01A
:1034BD008002C20190046CE0C41313540330E01A6F
:1034CD00C390044AE0942C900449E0940140099083
:1034DD000468E04440F08002C20190046CE0C41323
:1034ED001313540130E01AC390044CE0942C900453
:1034FD004BE094014009900468E04480F08002C2E2
:10350D000190046BE030E01AC390044EE0942C90CF
:10351D00044DE094014009900467E04401F08002FD
:10352D00C20190046BE0C31330E01AC3900450E065
:10353D00942C90044FE094014009900467E04402FC
:10354D00F08002C20190046BE01313543F30E01A77
:10355D00C3900452E0942C900451E09401400990E2
:10356D000467E04404F08002C20190046BE0131381
:10357D0013541F30E01AC3900454E0942C9004535C
:10358D00E094014009900467E04408F08002C20114
:10359D0090046BE0C4540F30E01AC3900456E094CD
:1035AD002C900455E094014009900467E04410F01C
:1035BD008002C20190046BE0C413540730E01AC3BB
:1035CD00900458E0942C900457E094014009900425
:1035DD0067E04420F08002C20190046BE0C4131335
:1035ED00540330E01AC390045AE0942C900459E02F
:1035FD0094014009900467E04440F08002C20190BC
:10360D00046BE0C4131313540130E01AC390045C2F
:10361D00E0942C90045BE094014009900467E04431
:10362D0080F08002C20190046AE030E01AC3900479
:10363D005EE0942C90045DE094014009900466E0F6
:10364D004401F08002C20190046AE0C31330E01A15
:10365D00C3900460E0942C90045FE09401400990C5
:10366D000466E04402F08002C20190046AE0131384
:10367D00543F30E01AC3900462E0942C900461E052
:10368D0094014009900466E04404F08002C2019068
:10369D00046AE0131313541F30E01AC3900464E05E
:1036AD00942C900463E094014009900466E0440872
:1036BD00F08002C201900469E0FCA3E0FDA3E0FEEE
:1036CD00A3E0FF900412122BDC900465E0FCA3E054
:1036DD00FDA3E0FEA3E0FF900416122BDCE4FDFF3A
:0836ED001213371262C8A2019A
:0136F50022B2
:10658F007804900407E0FCA3E0FDA3E0FEA3E0FF86
:07659F00122BB6EF540FFFB1
:1065A600EFC3940AEF50052430FE80032437FEAF74
:0165B60006DE
:0165B70022C1
:053E9100900410EFF0A9
:103E96009004A4122BE80000000012676A1268481A
:103EA600126848D2CD1268481268481268481268EB
:103EB60048126848126848126848126848126848EA
:103EC60012684812684878007C007D017B017A02FE
:103ED60079007E027F001229779004267420F0A3D1
:103EE60074FFF0A3745EF0A37463F0A3E4F0A3F090
:103EF600A3F0F9A3C9F0A3F0A3E9F07B78E4FDFFF2
:103F06001260B87B017A04797E122C9D900421748C
:103F1600C8F0E4A3F0900421E0FF14F0EF606A908B
:103F260004A4A3A3A3E0540FFFE4FEFDFCFBFAF9EF
:103F3600F8C3122BA560DE9004A4E0FCA3E0FDA369
:103F4600E0FEA3E0FF900422E0FB04F0EB25E02571
:103F5600E02411F582E43404F583122BDC9004226C
:103F6600E0D3940240AFE4F0900419E0FCA3E0FD36
:103F7600A3E0FEA3E0FF900415E0F8A3E0F9A3E0B8
:103F8600FAA3E0FB122BA5708C900415E0FCA3E0CD
:103F9600FDA3E0FEA3E0FF7810122BB678041265AD
:103FA6009FAB0790042F740CF0A37401F07D107F73
:103FB600161251E8900415E0FCA3E0FDA3E0FEA371
:103FC600E0FF781012659FAB0790042F740CF0A3E6
:103FD6007401F07D107F1E1251E8900415E0FCA3D9
:103FE600E0FDA3E0FEA3E0FF7808122BB6780412EA
:103FF600659FAB0790042F740CF0A37401F07D103D
:104006007F2A1251E8900415E0FCA3E0FDA3E0FE30
:10401600A3E0FF780812659FAB0790042F740CF09D
:10402600A37401F07D107F321251E8900415E0FC74
:10403600A3E0FDA3E0FEA3E0FF780412659FAB07B3
:1040460090042F740CF0A37401F07D107F3E125182
:10405600E8900415E0FCA3E0FDA3E0FEA3E0540F06
:10406600FF1265A6AB0790042F740CF0A37401F041
:104076007D107F461251E890047D7401F01262C8EB
:10408600125959900439E0FCA3E0FDA3E0FEA3E039
:104096004404FF900415E0F8A3E0F9A3E0FAA3E0D6
:1040A6006FFFEA6EFEE96DFDE86CFC90041D122BB5
:1040B600DC90041DE0FCA3E0FDA3E0FEA3E0FF907E
:0D40C6000424122BDC900410E0FF0268823D
:101F7D001233DD50030221F690040F7401F090042A
:101F8D0065E0FCA3E0FDA3E0FEA3E0FF900439E0D3
:101F9D00F8A3E0F9A3E0FAA3E06FFFEA6EFEE96DA6
:101FAD00FDE86CFC900407122BDC900407E0FCA309
:101FBD00E0FDA3E0FEA3E0FF7810122BB67804122B
:101FCD00659FAB0790042F7407F0A37401F07D0893
:101FDD00E4FF1251E8900407E0FCA3E0FDA3E0FE4E
:101FED00A3E0FF781012659FAB0790042F7407F0E4
:101FFD00A37401F07D087F061251E8900407E0FC00
:10200D00A3E0FDA3E0FEA3E0FF7808122BB6780451
:10201D0012659FAB0790042F7407F0A37401F07D38
:10202D00087F0C1251E8900407E0FCA3E0FDA3E04B
:10203D00FEA3E0FF780812659FAB0790042F74078D
:10204D00F0A37401F07D087F121251E8900407E0AF
:10205D00FCA3E0FDA3E0FEA3E0FF780412659FABB7
:10206D000790042F7407F0A37401F07D087F1812F8
:10207D0051E8900407E0FCA3E0FDA3E0FEA3E054CB
:10208D000FFF1265A6AB0790042F7407F0A3740120
:10209D00F07D087F1E1251E87BFF7A5E796D90040A
:1020AD001F7407F0A37401F07D18E4FF124C5B124E
:1020BD0062C890046DE0FCA3E0FDA3E0FEA3E02464
:1020CD0001FFE43EFEE43DFDE43CFC90046D122B6B
:1020DD00DC90047CE070417B017A04790B90041450
:1020ED007404F07F3212630A90040BE0FCA3E0FD50
:1020FD00A3E0FEA3E02401FFE43EFEE43DFDE43C4D
:10210D00FC90040B122BDC7B017A04790B900414E8
:10211D007404F07F320221B290047CE064017040BF
:10212D007B017A04790B9004147404F07F481263D8
:10213D000A90040BE0FCA3E0FDA3E0FEA3E0240164
:10214D00FFE43EFEE43DFDE43CFC90040B122BDC71
:10215D007B017A04790B9004147404F07F48804558
:10216D0090047CE0B402417B017A04790B90041455
:10217D007404F07F6412630A90040BE0FCA3E0FD8D
:10218D00A3E0FEA3E02401FFE43EFEE43DFDE43CBC
:10219D00FC90040B122BDC7B017A04790B90041458
:1021AD007404F07F6412653C7B017A04790B900412
:1021BD00147404F07F8012630A90040BE0FCA3E01A
:1021CD00FDA3E0FEA3E02401FFE43EFEE43DFDE4BB
:1021DD003CFC90040B122BDC7B017A04790B9004F0
:1021ED00147404F07F8002240EE490040FF07BFF42
:1021FD007A5E797490041F7407F0A37401F07D0862
:10220D00E4FF124C5B7BFF7A5E797B90041F7407B1
:10221D00F0A37401F07D18E4FF124C5B1262C890BC
:10222D000469E0FCA3E0FDA3E0FEA3E02401FFE4CC
:10223D003EFEE43DFDE43CFC900469122BDC900471
:10224D007CE0600464017041E47FFFFEFDFC9004BE
:10225D0069E0F8A3E0F9A3E0FAA3E0FBD3122BA504
:10226D00400A900469122BE80000000090047CE005
:10227D007B017A04796990041470077404F0E4FF0B
:10228D0080487404F07F08804190047CE0B4023DE6
:10229D0090048BE0FCA3E0FDA3E0FEA3E0FF90041F
:1022AD0069E0F8A3E0F9A3E0FAA3E0FBC3122BA5C4
:1022BD00400A900469122BE8000000007B017A04AB
:1022CD0079699004147404F07F1612653C900471C2
:1022DD00E0FCA3E0FDA3E0FEA3E02401FFE43EFE4D
:1022ED00E43DFDE43CFC900471122BDC90047CE099
:1022FD0070417B017A04790B9004147404F07F24EF
:10230D0012630A90040BE0FCA3E0FDA3E0FEA3E042
:10231D002401FFE43EFEE43DFDE43CFC90040B1281
:10232D002BDC7B017A04790B9004147404F07F2468
:10233D000223CD90047CE0640170407B017A047926
:10234D000B9004147404F07F4012630A90040BE0A8
:10235D00FCA3E0FDA3E0FEA3E02401FFE43EFEE4C8
:10236D003DFDE43CFC90040B122BDC7B017A0479DF
:10237D000B9004147404F07F40804590047CE0B40D
:10238D0002417B017A04790B9004147404F07F569A
:10239D0012630A90040BE0FCA3E0FDA3E0FEA3E0B2
