:102451003D3D3D3D3D3D3D3D3D3D3D3D3D3D3D3DAB
:102461003D3D3D3D3D3D3D3D3D3D3D3D3D3D3D3D9B
:102471003D3D3D3D3D3D3D3D3D3D3D3D3D3D3D3D8B
:102481003D3D3D3D3D3D3D0A002A2A2A2A2A2A2A70
:102491002A2A2A2A2A2A2A2A2A2A2A2A2A2A20428D
:1024A10075726E20436F64652058202A2A2A2A2AD1
:1024B1002A2A2A2A2A2A2A2A2A2A2A2A2A2A2A2A7B
:1024C1000A002A2020202020202020202020202037
:1024D10020202020202020202020202020202020FB
:1024E10020202020202020202020202020202020EB
:1024F10020202020202020202A0A002A20202020FD
:1025010056657273696F6E3A2053444B312E3030E9
:102511002E30302831313A32303A31362041707222
:102521002032202032303135292020202020202047
:10253100202A0A002A2020202020417574686F7209
:102541003A204C69616F6B657972653C4C69616FCA
:102551006B6579726540666F786D61696C2E636F2A
:102561006D3E20202020202020202A0A002A202021
:10257100417574686F723A20436865727279407967
:102581006373656D692E636F6D2E636E2040796193
:102591006E6368656E6720636F6D70616E79202070
:1025A1002020202A0A002A2A2A2A2A2A2A2A2A2AF2
:1025B1002A2A2A2A2A2A2A2A2A2A2A2A2A2A2A2A7A
:1025C1002A2A2A2A2A2A2A2A2A2A2A2A2A2A2A2A6A
:1025D1002A2A2A2A2A2A2A2A2A2A2A2A2A0A000AC4
:1025E1000A0A53797374656D204C6F6164696E6773
:1025F1002E2E2E0A000A0A0A53797374656D204C37
:102601006F6164204F6B210A000A20C9E8D6C3B864
:10261100EEC2EBCFDF200A00536574206D61782094
:102621006C696E65004E6F74696365002053657453
:10263100204F4B21000AB8EEC2EBCFDFC9E8D6C369
:10264100CEAA203A200020CCF50A000AA1BEC9E892
:10265100D6C3A1BF20B8EEC2EB20B2E2CAD40A00B1
:10266100594553004E4F004552415345204D454D6C
:102671004F5252592E2E2E00455241534520444F60
:102681004E4521000ABCC7C2BCB2C1B3CDEAB3C931
:102691000A00436C65617220616C6C206D656D6F21
:1026A1007272793F000AC9E8D6C320A1BEB8EEC252
:1026B100EBA1BF20B2E2CAD40A000AC9E8D6C320FE
:1026C100B8EEC2EB20A1BEB2E2CAD4A1BF0A004457
:1026D10045434F4445000AC7EBB8FCBBBB55392005
:1026E100A3BA434434303532200A00436865636B32
:1026F1002055392020434434303532000AC7EBB825
:10270100FCBBBB55313220A3BA43443430353220AF
:102711000A00436865636B205531322043443430ED
:102721003532004861726477617265206572726F3B
:10273100723A000A0AD7DCC9D5C2BCCFDFA1BECA32
:10274100AEBDF8D6C6A1BF203A20002020D7EEB4F6
:10275100F3C9D5C2BCB5D8D6B7A1BECAAEC1F9BD01
:10276100F8D6C6A1BF3A000A0A414443B2C9BCAF78
:10277100CDA8B5C0B2E2CAD4203A0A2D2D2D2D2DF7
:102781002D2D2D2D2D2D2D2D2D2D2D2D2D2D2D2D78
:102791002D2D2D2D2D2D2D2D2D2D2D2D2D2D2D2D68
:1027A1002D2D2D2D2D2D2D2D2D2D2D2D2D2D2D2D58
:1027B1002D2D2D2D20000ACDA8B5C030A3BA202083
:1027C10020000ACDA8B5C031A3BA202020000ACD2F
:1027D100A8B5C032A3BA202020000ACDA8B5C033C5
:1027E100A3BA202020000ACDA8B5C034A3BA202066
:1027F10020000ACDA8B5C035A3BA202020000ACDFB
:10280100A8B5C036A3BA202020000ACDA8B5C0378C
:10281100A3BA202020000ACDA8B5C038A3BA202031
:1028210020000ACDA8B5C039A3BA202020000ACDC6
:10283100A8B5C03130A3BA202020000ACDA8B5C068
:102841003131A3BA202020000ACDA8B5C03132A36E
:10285100BA202020000ACDA8B5C03133A3BA202068
:1028610020000ACDA8B5C03134A3BA202020000A27
:10287100CDA8B5C03135A3BA202020000ACDA8B516
:10288100C03136A3BA202020000ACDA8B5C0313707
:10289100A3BA202020000ACDA8B5C03138A3BA20A0
:1028A1002020000ACDA8B5C03139A3BA20202000CC
:1028B1000AC8E7B9FBC4B3B8F6CDA8B5C0D6B5CE42
:1028C100AA30BBF2D0A1D3DA3030204630A3ACC756
:0E28D100EBB8FCBBBB434434303532210A0067
:105EB70090046FEFF0A3EDF0A3EBF0900442E090B5
:105EC7000472F0900443E0F9A3E0FAA3E0900473AE
:105ED700C9F0A3EAF0A3E9F0900446E0F9A3E0FAD9
:105EE700A3E0900476C9F0A3EAF0A3E9F09004498F
:105EF700E0F9A3E0FAA3E0900479C9F0A3EAF0A3DC
:035F0700E9F0229C
:105CD1007BFF7A2479511261B87BFF7A24798A1289
:105CE10061B87BFF7A2479C31261B87BFF7A24798A
:105CF100FC1261B87BFF7A2579351261B87BFF7A96
:105D010025796E1261B87BFF7A2479C31261B87B61
:105D1100FF7A2579A71261B87BFF7A247951126144
:105D2100B87BFF7A2579E01261B87BFF7A2579F695
:035D31000261B854
:105E59007B017A0479CC9004487404F07F101261B4
:105E69000974FFFFFEFDFC9004CCE0F8A3E0F9A360
:105E7900E0FAA3E0FBC3122BDD60177FFF7EFF7DF5
:105E89000F7C009004CCE0F8A3A3A3E0D3122BDD90
:105E9900401B900467122C20000000007B017A044B
:0D5EA90079679004487404F07F10126307BD
:015EB60022C9
:1063AC001255FD1261F27B01E4FDFF125538900489
:1063BC0039741EF0A37401F07B7C7D1A7F24125D6E
:0463CC00F90260C7AB
:10002600E4F591F592F595F596F5B1F5B2F5B3F5DA
:10003600B4F5C9F5CAF593F59443B4227591FFF565
:10004600925395074396F843B10453B1FB53C9D76E
:0400560043CA28224F
:055F0A0090043DEFF0E2
:105F0F0090043F122C2000000001E490043EF0901A
:105F1F00043DE0FFA3E0C39F5023A3E0FCA3E0FDFB
:105F2F00A3E0FEA3E0FFE47B02FAF9F8122AC09087
:105F3F00043F122C1490043EE004F080D290043FF2
:0B5F4F00E0FCA3E0FDA3E0FEA3E0FFE8
:015F5A002224
:105B7D0012002612664D1266401266641263AC1254
:105B8D006632E4900480F0900462122C2000000034
:105B9D000090045E122C2000000000C2C6D2879037
:105BAD00046B7403F09004667401F0E490046EF0DD
:105BBD00C2C7C2CD43C92053CADF7FA0126537903B
:105BCD00046CEFF0D394145006E0C39401500C9084
:105BDD00046C7414F0FD7FA01265C290046CE0FF9C
:095BED00125F0A90047C022C14E2
:1040FF00E490043BF07BFF7A26790A1261B87FA027
:10410F0012653790043CEFF090046CF0D394145088
:10411F0006E0C39401500C90046C7414F0FD7FA062
:10412F001265C290046CE0FF90043CF0125F0A909D
:10413F00047C122C141261F29004587407F0A374CB
:10414F0001F07B307D0EE4FF124FE99004587407A5
:10415F00F0A37401F07B327D0E7F73124FE9900450
:10416F00587407F0A37401F07B307D0E7F79124FE6
:10417F00E97BFF7A267919900453740CF0A374012C
:10418F00F0E4FD7F14124A5A90043BE060030242B0
:10419F00D89004407413F0A304F090043CE0900412
:1041AF0042F0A37401F07B6E7D0F7F09124DA19039
:1041BF0004DBE060D39004D9E01470030242C22400
:1041CF00FE603314604D24D370030242C214600AA0
:1041DF0014602314603D243270AEE49004DBF09041
:1041EF00048004F090043CE0FF14F0EFD3940150EE
:1041FF00977414F08092E49004DBF090048004F044
:10420F0090043CE0FF04F0EFC39414500302419775
:10421F000242D2E49004DBF090048004F090044258
:10422F007420F0A374FFF0A37426F0A37426F0A3F8
:10423F0074FFF0A37426F0A3742DF0A3E4F0A3F0A1
:10424F00A3F07B50FD7F14125EB77B017A04796F68
:10425F00122CD51260C790043CE0FF90046CF01252
:10426F005F0A90047C122C1490046CE0FD7FA01266
:10427F0065C21266591266591266591266597BFF4A
:10428F007A2679361261B890046CE075F00A8424AE
:10429F0030FF12657F90046CE075F00A84E5F0241E
:1042AF0030FF12657F7BFF7A2679471261B8900441
:1042BF003B8010E49004DBF090048004F01261F274
:0942CF0090043B7401F0024197D8
:0142D80022C3
:103C7D00E490043AF0900439F0900438F090043751
:103C8D00F0900436F0FF12539D1260C77BFF7A2629
:103C9D00794C1261B8900436E06003023EC1900485
:103CAD00DBE060F19004D9E0147003023EAB24FE1A
:103CBD00606A147003023DA8240270D9E49004DBFD
:103CCD00F090048004F0900437E06042900439E0F5
:103CDD0064017027A3E0FF04F0EFC394014002E4F8
:103CED00F07BFF7A267961900453740CF090043ABE
:103CFD00E070047F0180637F00805F900438E0FFF7
:103D0D0014F0EFD3940050037403F0023E8A900434
:103D1D00667402F090043614F0023CA2E49004DBC9
:103D2D00F090048004F0900437E06062900439E074
:103D3D0064017048A3E0FF14F0EFD39400500374B6
:103D4D0001F07BFF7A267961900453740CF0900496
:103D5D003AE070047F0180027F00900454EFF07D03
:103D6D00147F46124A5A7BFF7A2679659004537464
:103D7D000CF090043AE0900454023E71900438E047
:103D8D00FF04F0EFC394034002E4F0023E8A900476
:103D9D00667401F0900436F0023CA2E49004DBF06E
:103DAD0090048004F0900437E07003023E98A3E085
:103DBD0064026003023E7BA3E064017062A3E060D5
:103DCD00461261F27BFF7A267968900453740CF0E9
:103DDD00A37401F07D0A7F02124A5A1260C7126065
:103DED003A1261F27BFF7A267979900453740CF0C4
:103DFD00A37401F07D0A7F02124A5A1260C77BFF3D
:103E0D007A2679851261B81261F2900438E0FF12BA
:103E1D004C861260C7E4900439F0A3F0023CA290E6
:103E2D0004397401F01261F27BFF7A2679939004C4
:103E3D0053740CF0A37401F0E4FD7F02124A5A7B17
:103E4D00FF7A267961900453740CF0A37401F07D10
:103E5D00147F46124A5A7BFF7A2679659004537473
:103E6D000CF0E4A3F07D147F6E124A5A8017900473
:103E7D0038E06003023CA21240FF1261F290043858
:103E8D00E0FF124C861260C7023CA21261F2900450
:103E9D0038E0FF124C861260C79004378010E49012
:103EAD0004DBF090048004F01261F290043674018A
:043EBD00F0023CA231
:013EC10022DE
:104B69009004387402F0E4900437F0900436F07F32
:104B79000112539D1260C77BFF7A2679A61261B88C
:104B8900900436E06003024C859004DBE060F1900C
:104B990004D9E0147003024C6F24FE603414605D84
:104BA900240270DCE49004DBF090048004F09004AB
:104BB90037E06011A3E0FF14F0EFD39400502F7495
:104BC90003F0024C4EE4900466F090043604F08041
:104BD900AFE49004DBF090048004F0900437E060C7
:104BE9000FA3E0FF04F0EFC394034002E4F0805503
:104BF9009004667402F090043614F08083E4900403
:104C0900DBF090048004F0900437E06046A3E0B440
:104C1900030A1261F29004367401F0221261F290D3
:104C29000438E0FF90046DF0FB900462122C200020
:104C390000000090045E122C2000000000AF031257
:104C490039F01261F2900438E0FF124EB21260C7D7
:104C5900024B891261F2900438E0FF124EB21260E1
:104C6900C79004378010E49004DBF090048004F0CE
:0C4C79001261F29004367401F0024B89C5
:014C8500220C
:103EC200900438122C2000000000E4900437F09097
:103ED2000436F01264787F0212539D1260C77BFF92
:103EE2007A2679BB1261B8900436E060030240FE84
:103EF200A3E0700302404F900495A3A3A3E0540FE4
:103F0200FFE4FEFDFCFBFAF9F8C3122BDD6014900E
:103F12000495E0FCA3E0FDA3E0FEA3E0FF900438DB
:103F2200122C14900438E0FCA3E0FDA3E0FEA3E011
:103F3200FFEC4D4E4F700302404F900438A3A3A3F1
:103F4200E07810122BEE7804122BEEEF540FFFE400
:103F5200126371AB07900458740CF0A37401F07DE6
:103F6200107F24124FE9900438E0FCA3E0FDA3E0A7
:103F7200FEA3E0FF7810122BEEEF540FFFE4126362
:103F820071AB07900458740CF0A37401F07D107F9C
:103F92002A124FE9900438E0FCA3E0FDA3E0FEA35F
:103FA200E0FF7808122BEE7804122BEEEF540FFF8D
:103FB200E4126371AB07900458740CF0A37401F01F
:103FC2007D107F36124FE9900438E0FCA3E0FDA398
:103FD200E0FEA3E0FF7808122BEEEF540FFFE4128D
:103FE2006371AB07900458740CF0A37401F07D1058
:103FF2007F3C124FE9900438E0FCA3E0FDA3E0FE11
:10400200A3E0FF7804122BEEEF540FFFE41263716A
:10401200AB07900458740CF0A37401F07D107F4834
:10402200124FE9900438E0FCA3E0FDA3E0FEA3E018
:10403200540FFFE4126371AB07900458740CF0A3A1
:104042007401F07D107F4E124FE91260C79004DBBD
:10405200E07003023EE99004D9E01470030240E8E4
:1040620024FE602A14604724026003023EE9E490C1
:1040720004DBF090048004F0900437E06003023E19
:10408200E99004667401F0900436F0023EE9E4908F
:1040920004DBF090048004F0900437E06003023EF9
:1040A200E9E4900466F090043604F0023EE9E490FC
:1040B20004DBF090048004F0900437E06003023ED9
:1040C200E91265671261F27BFF7A2679D090045378
:1040D200740CF0A37401F0E4FD7F2E124A5A1260B0
:1040E200C79004378010E49004DBF090048004F061
:0C40F2001261F29004367401F0023EE905
:0140FE00229F
:10461800E4900436F01261F2D3900405E0946490BB
:104628000404E094004069D3900407E09464900483
:1046380006E09400405AD3900409E094649004087A
:10464800E09400404BD390040BE0946490040AE09B
:104658009400403CD390040DE0946490040CE094E2
:1046680000402DD390040FE0946490040EE0940071
:10467800401ED3900411E09464900410E09400402C
:104688000FD3900413E09464900412E09400502631
:104698009004367401F07BFF7A2679D71261B87BD3
:1046A800FF7A2679EC900453740CF0A37401F07D22
:1046B8000BE4FF124A5AD3900415E0946490041452
:1046C800E094004069D3900417E09464900416E0E5
:1046D8009400405AD3900419E09464900418E0942C
:1046E80000404BD390041BE0946490041AE09400BB
:1046F800403CD390041DE0946490041CE094004076
:104708002DD390041FE0946490041EE09400401E92
:10471800D3900421E09464900420E09400400FD3E7
:10472800900423E09464900422E0940050269004BE
:10473800367411F07BFF7A2679FD1261B87BFF7A17
:10474800277913900453740CF0A37401F07D16E4D8
:10475800FF124A5A900436E060197BFF7A277924C1
:10476800900453740CF0A37401F0E4FDFF124A5A4C
:104778001260C79004D9E0B404159004DBE0600F20
:10478800E4F090048004F01261F2E4900436F090B2
:044798000436E0FF04
:01479C0022FA
:10372E00C2C1125B7DD2C1125CD17BFF7A27793484
:10373E001261B890046CE075F00A842430FF1265B3
:10374E007F90046CE075F00A84E5F02430FF12657A
:10375E007F7BFF7A27794C1261B890047CE0FCA342
:10376E00E0FDA3E0FEA3E0FF7810122BEE126496AC
:10377E0090047CE0FCA3E0FDA3E0FEA3E0FF78084C
:10378E00122BEE12649690047CA3A3A3E0FF1264A6
:10379E00961242D97BFF7A2779681261B87BFF7A3D
:1037AE002779B71261B8900404E0FF126496900472
:1037BE0004A3E0FF1264967BFF7A2779C31261B8E7
:1037CE00900406E0FF126496900406A3E0FF1264D4
:1037DE00967BFF7A2779CF1261B8900408E0FF122A
:1037EE006496900408A3E0FF1264967BFF7A277913
:1037FE00DB1261B890040AE0FF12649690040AA3EB
:10380E00E0FF1264967BFF7A2779E71261B8900485
:10381E000CE0FF12649690040CA3E0FF1264967BFA
:10382E00FF7A2779F31261B890040EE0FF126496C6
:10383E0090040EA3E0FF1264967BFF7A2779FF12A5
:10384E0061B8900410E0FF126496900410A3E0FF9C
:10385E001264967BFF7A28790B1261B8900412E0FD
:10386E00FF126496900412A3E0FF1264967BFF7A17
:10387E002879171261B8900414E0FF126496900430
:10388E0014A3E0FF1264967BFF7A2879231261B8A5
:10389E00900416E0FF126496900416A3E0FF1264E3
:1038AE00967BFF7A28792F1261B8900418E0FF12E8
:1038BE006496900418A3E0FF1264967BFF7A287931
:1038CE003C1261B890041AE0FF12649690041AA399
:1038DE00E0FF1264967BFF7A2879491261B8900452
:1038EE001CE0FF12649690041CA3E0FF1264967B0A
:1038FE00FF7A2879561261B890041EE0FF12649682
:10390E0090041EA3E0FF1264967BFF7A287963125F
:10391E0061B8900420E0FF126496900420A3E0FFAB
:10392E001264967BFF7A2879701261B8900422E0B7
:10393E00FF126496900422A3E0FF1264967BFF7A36
:10394E0028797D1261B8900424E0FF1264969004E9
:10395E0024A3E0FF1264967BFF7A28798A1261B85D
:10396E00900426E0FF126496900426A3E0FF1264F2
:10397E00967BFF7A2879971261B8900428E0FF129F
:10398E006496900428A3E0FF1264967BFF7A287950
:10399E00A41261B890042AE0FF12649690042AA340
:1039AE00E0FF1264967BFF7A2879B11261B8D2AF2C
:1039BE00C2C1900467122C20000000011261F212A5
:1039CE004618EF70FA900466E014600C14600E2432
:1039DE000270EC123C7D80E7124B6980E2123EC20F
:0239EE0080DD7A
:02624D00C1800E
:07668D000000007F18DFFE92
:0166940022E3
:05000E00120013D2A155
:070013000000007F0ADFFE80
:01001A0022C3
:0A66590000007F6C7E90DEFEDFFC87
:016663002214
:1064590012668DD2A112668DD2A212668DA2A28277
:0F646900A1500AC2A212668DC2A102668DC32283
:1066220012668DC2A212668DD2A112668DD2A222EC
:0C614800AC071264597FA0126154AF0430
:02615400AE0794
:10615600E4FD120013EE30E704D2A28002C2A212BE
:10616600000EC2A1EE25E0FE0DEDB408E512001307
:0D617600D2A212000EA2A29200C2A1A200AD
:0161830022F9
:0262AD00AE073A
:1062AF00E4FD120013D2A2FCED25E0FD12000E302A
:1062BF00A2010DC2A10CECB408EE120013D2A2EE93
:0B62CF006002C2A212000EC2A1AF05C7
:0162DA0022A1
:1065C200AC05AB071264597FA0126154AF0312618C
:0465D2004F026622EC
:10630700126148900448E0FF14F0EF60161229D597
:10631700FF126154740129F9E43AFA0CECC394FFB3
:0A63270040E122126622126659229C
:106537001261481264597FA1126154E4FF1262ADDF
:07654700AE07126622AF0649
:01654E00222A
:10610900AC07900448E0603612614A1264597FA1D5
:10611900126154E014F0900448E0FF14F0EF6012AB
:106129007F011262ADEF122A1B740129F9E43AFAD0
:0F61390080E4E4FF1262ADEF122A1B12662222ED
:10603A0090044B741EF0A37401F07B7E7D1AE4FF7A
:10604A00125D39E490043BF090043BE0FFC394FFF7
:10605A005025E4FD1265C2E0C31304FB90044B749F
:10606A001DF0A37401F07D1BFF1258AF1260C79098
:07607A00043BE004F080D1BB
:0160810022FC
:0560820090043FEFF067
:1060870070107B017A0479409004487404F0E4FFAF
:10609700801C90043FE07B017A047940900448B467
:1060A70001077404F07F0880057404F07F161261FD
:0F60B70009900440E0FCA3E0FDA3E0FEA3E0FF9E
:0160C60022B7
:055B000090043FEFF0EE
:105B0500ED7031E070107B017A047940900448749F
:105B150004F07F24805090043FE07B017A047940B3
:105B2500900448B401077404F07F4080397404F090
:105B35007F56803290043FE070107B017A047940F3
:105B45009004487404F07F32801C90043FE07B0190
:105B55007A047940900448B401077404F07F4880C2
:105B6500057404F07F64126109900440E0FCA3E031
:075B7500FDA3E0FEA3E0FF29
:015B7C002206
:10005E00312E565436323533382D423100322E562B
:10006E005436323533382D423200332E434F420050
:10007E00342E52455455524E00312E534554204C79
:10008E00494E4500322E5345542053454E530033AE
:10009E002E455241534500534144443A0052414487
:1000AE00443A000000000000000000005F00000065
:1000BE00000700070000147F147F1400242A7F2AF3
:1000CE0012002313086462003649552250000005C1
:1000DE0003000000001C224100000041221C000011
:1000EE0014083E08140008083E08080000503000AE
:1000FE0000000808080808000060600000002010DA
:10010E00080402003E5149453E0000427F40000077
:10011E004261514946002141454B31001814127F6E
:10012E0010002745454539003C4A494930000171C8
:10013E0009050300364949493600064949291E007A
:10014E00003636000000005636000000081422412A
:10015E0000001414141414000041221408000201AB
:10016E0051090600324979413E007E1111117E007F
:10017E007F49494936003E41414122007F4141229B
:10018E001C007F49494941007F09090901003E4190
:10019E0049497A007F0808087F0000417F4100002E
:1001AE002040413F01007F08142241007F40404023
:1001BE0040007F020C027F007F0408107F003E414A
:1001CE0041413E007F09090906003E4151215E0072
:1001DE007F091929460046494949310001017F012D
:1001EE0001003F4040403F001F2040201F003F4085
:1001FE0038403F00631408146300070870080700B6
:10020E00615149454300007F41410000020408103E
:10021E0020000041417F0000040201020400404022
:10022E004040400000010204000020545454780065
:10023E007F484444380038444444200038444448FD
:10024E007F00385454541800087E090102000C52E5
:10025E0052523E007F080404780000447D400000A6
:10026E002040443D00007F102844000000417F40A4
:10027E0000007C04180478007C08040478003844DC
:10028E00444438007C1414140800081414187C001C
:10029E007C0804040800485454542000043F444091
:1002AE0020003C4040207C001C2040201C003C4094
:1002BE0030403C004428102844000C5050503C0064
:1002CE004464544C440000083641000000007F0096
:1002DE000000004136080000100808100800000059
:1002EE00000000000000000000000000003F400081
:1002FE000000000000000030004000300040000010
:10030E000009000BC03D000BC03D00090018C024C1
:10031E00407FE0224031800000180024C01B000DF9
:10032E00803240018003801C4027401C8007400023
:10033E0040100060000000000000000000000000FF
:10034E000000001F80204040200000402020401F61
:10035E008000000000090006001F80060009000052
:10036E0000040004003F80040004000000001000A0
:10037E0060000000000000000004000400040004FF
:10038E00000400000000000040000000000000001B
:10039E0000002001C006003800400000001F802031
:1003AE0040204020401F800000000010403FC00051
:1003BE00400000000018C021402240244018400098
:1003CE000010802040244024401B80000002000DBD
:1003DE000011003FC0014000003C80244024402416
:1003EE0040238000001F80244024403440038000BE
:1003FE00003000200027C03800200000001B8024A1
:10040E0040244024401B8000001C0022C0224022B9
:10041E00401F8000000000000008400000000000A7
:10042E000000000000046000000000000000000456
:10043E00000A00110020804040090009000900094F
:10044E00000900000000004040208011000A000456
:10045E00001800200023402400180000001F8020F8
:10046E0040274029401F400000004007C039000FC0
:10047E000001C0004020403FC0244024401B8000AB
:10048E00001F802040204020403080000020403F50
:10049E00C0204020401F80000020403FC024402E3E
:1004AE004030C0000020403FC024402E00300000ED
:1004BE00000F001080204022403380020020403F79
:1004CE00C0040004003FC02040204020403FC02018
:1004DE0040204000000060202020203FC02000204F
:1004EE000020403FC024400B0030C0204020403F41
:1004FE00C020400040004000C03FC03C0003C03C54
:10050E00003FC0000020403FC00C4023003FC020F1
:10051E00001F802040204020401F80000020403FD0
:10052E00C024402400180000001F802140214020DC
:10053E00E01FA0000020403FC02440260019C0004C
:10054E004018C0244024402240318000003000205A
:10055E00403FC020403000000020003F800040009F
:10056E00403F80200020003E0001C00700380020E0
:10057E0000380007C03C0007C0380000002040399A
:10058E00C0060039C0204000002000384007C038A7
:10059E004020000000304021C02640384020C000DE
:1005AE0000000000007FE0402040200000000070AE
:1005BE00000C000380004000000000402040207F1F
:1005CE00E0000000000000200040002000000000BD
:1005DE0000001000100010001000100010000000AD
:1005EE0000400000000000000000000280054005F1
:1005FE004003C0004020003FC00440044003800080
:10060E000000000380044004400640000000000388
:10061E0080044024403FC000400000038005400598
:10062E004003400000000004401FC024402440202E
:10063E0000000002E0055005500650042020403F07
:10064E00C00440040003C000400000044027C00066
:10065E00400000000000100010041027E000000011
:10066E000020403FC00140070004C004402040204D
:10067E00403FC000400040000007C0040007C00417
:10068E000003C00000044007C00440040003C00083
:10069E004000000380044004400380000004100763
:1006AE00F004500440038000000000038004400466
:1006BE005007F00010044007C00240040004000080
:1006CE0000000006400540054004C0000000000484
:1006DE00001F80044000400000040007800040041A
:1006EE004007C000400400070004C001800600045B
:1006FE0000060001C0070001C0060000000440060D
:10070E00C0010006C0044000000410071004E00100
:10071E0080060004000000044005C00640044000AE
:10072E00000000000004007BE040200000000000FC
:10073E00000000FFF000000000000040207BE004FD
:10074E00000000000040008000400020002000401B
:10075E00000000000000000000000000000000008B
:10076E00000000000000001FCC000C000000000084
:10077E00000000080030006000080030006000003B
:10078E0000022003FC1E20022003FC1E200220007B
:10079E000000000E1811043FFF10840C78000000BA
:1007AE00000F0010840F3800C007781884007800FE
:1007BE000000780F8410C411240E9800E400840009
:1007CE000808006800700000000000000000000033
:1007DE000000000000000007E0181820044002008E
:1007EE0000000040022004181807E000000000007E
:1007FE00000240024001800FF001800240024000E2
:10080E00000080008000800FF800800080008000D3
:10081E00000001000D000E000000000000000000AE
:10082E0000000000800080008000800080008000BA
:10083E00800000000C000C00000000000000000012
:10084E00000000000600180060018006001800205D
:10085E0000000007F0080810041004080807F00054
:10086E00000000080408041FFC000400040000003F
:10087E000000000E0C10141024104411840E0C00F5
:10088E000000000C1810041104110412880C7000E2
:10089E0000000000E00320042408241FFC002400B4
:1008AE000000001F981084110411041088107000AD
:1008BE0000000007F0088811041104188800700069
:1008CE000000001C00100010FC13001C00100000A3
:1008DE000000000E3811441084108411440E3800AC
:1008EE000000000700088C10441044088807F00030
:1008FE0000000000000000030C030C0000000000CC
:10090E0000000000000001010600000000000000D1
:10091E0000000000800140022004100808100400AE
:10092E0000022002200220022002200220022000CB
:10093E00000000100408080410022001400080008E
:10094E000000000E001200100C106C10800F000042
:10095E000003E00C1813E4142417C4082807D00071
:10096E00000004003C03C41C40074000E4001C00CF
:10097E000410041FFC1104110411040E88007000F1
:10098E000003E00C1810041004100410081C1000D2
:10099E000010041FFC100410041004080807F000D7
:1009AE000010041FFC1104110417C41004081800D1
:1009BE000010041FFC1104110017C01000080000E5
:1009CE000003E00C181004100410441C78004000C2
:1009DE000010041FFC10840080008010841FFC1087
:1009EE00040000100410041FFC100410040000008A
:1009FE000000030001100110011FFE100010000086
:100A0E000010041FFC110403801464181C10040051
:100A1E000010041FFC1004000400040004000C006D
:100A2E000010041FFC1F0000FC1F001FFC10040020
:100A3E000010041FFC0C04030000E010181FFC1033
:100A4E000007F00808100410041004080807F0004E
:100A5E000010041FFC10841080108010800F000006
:100A6E000007F0081810241024101C080A07F200C2
:100A7E000010041FFC1104110011C011300E0C00E7
:100A8E000400000E1C11041084108410441C380045
:100A9E00001800100010041FFC10041000180000B5
:100AAE000010001FF810040004000410041FF810BA
:100ABE000010001E0011E0001C007013801C0010BE
:100ACE00001FC0103C00E01F0000E0103C1FC000E3
:100ADE00001004180C163401C001C01634180C1086
:100AEE000410001C00130400FC13041C0010000072
:100AFE00000804101C1064108413041C0410180049
:100B0E00000000000000007FFE4002400240020094
:100B1E0000000030000C0003800060001C00030089
:100B2E000000004002400240027FFE000000000074
:100B3E0000000000002000400040004000200000A7
:100B4E000000010001000100010001000100010090
:100B5E0001000040004000200000000000000000E6
:100B6E000000000098012401440144014400FC00EF
:100B7E000410001FFC0088010401040088007000AE
:100B8E0000000000700088010401040104008800C8
:100B9E00000000007000880104010411081FFC0011
:100BAE0004000000F8014401440144014400C8005F
:100BBE00000000010401040FFC11041104110018BF
:100BCE0000000000D601290129012901C9010600F2
:100BDE000010041FFC008401000100010400FC0051
:100BEE000400000104190419FC00040004000000B4
:100BFE00000000000300010101190119FE000000B0
:100C0E000010041FFC0024004001B4010C0104007C
:100C1E00000000100410041FFC000400040000007B
:100C2E0000010401FC0104010001FC0104010000AB
:100C3E00FC010401FC008401000100010400FC0021
:100C4E0004000000F8010401040104010400F8008E
:100C5E0000010101FF0085010401040088007000FD
:100C6E000000000070008801040104010501FF006E
:100C7E00010104010401FC00840104010001800053
:100C8E0000000000CC01240124012401240198005D
:100C9E000000000100010007F8010401040000003B
:100CAE0000010001F8000400040004010801FC002A
:100CBE0004010001800170000C0010016001800130
:100CCE000001F0010C003001C00030010C01F001F8
:100CDE000000000104018C00740170018C010400FD
:100CEE0000010101810171000E00180160018001F7
:100CFE000000000184010C013401440184010C0048
:100D0E0000000000000000000001003EFC40024018
:100D1E00020000000000000000FFFF0000000000C5
:100D2E00000000400240023EFC01000000000000F6
:100D3E000000006000800080004000400020002085
:100D4E000040107FF84910491049207FFF48A088C5
:100D5E00814882388C0FF01888E884488308820016
:100D6E0000008041004FFC7210421043F900014F09
:100D7E00F2480458186BE0481048084FE64003004C
:100D8E00000080010006001FFFE000508014801458
:100D9E00801480FFFF14801484148214FC00000061
:100DAE000000040804060401C40084FFFC000400D3
:100DBE00040004FFFC0044018406041C0C0804001B
:100DCE0000000000001FF01220122012201220FF3F
:100DDE00FC12221222122212221FF20002000E0018
:100DEE0000008000804080408040804082408147EB
:100DFE00FE4880508060804080008001800080002E
:100E0E00000820484049804E007FFF8A008920005C
:100E1E00204420334000400040FFFF00800080004F
:100E2E0000108010821101FFFE1200140200021346
:100E3E000412C81230FE3012481384120610040039
:100E4E000000000002000200020002000200027F09
:100E5E00FE0202020202020202020200060002006A
:100E6E000000004000400040004000400040007F75
:100E7E00FE44004600438041004000C00040000098
:100E8E0000420842087FF04211429207040018FF08
:100E9E00E00004420442047FFC4204420442040087
:100EAE000002004200320023FE0004440855FF55A4
:100EBE00505550FD505552555155FE4400040000FA
:100ECE00000000010107027904111811E01100FF62
:100EDE0000110011FC1102110211020102000E009C
:100EEE00000020802080209FFF922092209220FFE1
:100EFE00E09220922292219FFE80208020002000EE
:100F0E00000040008151014A0146F55A9362910258
:100F1E0091E2911A9326F54A0113012181010000F5
:100F2E00007FFF40004840542063C0113E11041161
:100F3E00041104FFFC110411041104113E01000000
:100F4E000000101110111011101110FFFF00000001
:100F5E00000000FFFF1110111011101110101000E1
:100F6E000008200620807F61800602100210821089
:100F7E008290827FFE1082108210821082100200F8
:100F8E00000202020CFFF082048202FFFC02020247
:100F9E00040218FFE082048202FFFC02000200003D
:100FAE000000010002000C7FF044404440444044E5
:100FBE00407FFF44404440444244417FFE000000D5
:100FCE000000010002000C1FF01100110011009131
:100FDE0000510071001100110011001F00000000EF
:100FEE0000FFFFFFFF80000001800000018600006F
:100FFE00018F0000018F803E0187C07F7583E073F3
:10100E005581F0F35580F9FF55807FFF5D803FFEDF
:10101E0001801FFC01801FF87D83FFF8558FFFF0C4
:10102E00559FFFE055BFFFE055BFFFFC01BC3F3EA3
:10103E0001B81F3F41B01F3F41801F1F7D801F0E13
:10104E0041803E0041807E000180FC000181FC0059
:10105E000181F000018000000180000001FFFFFF10
:10106E00FFFFFFFFFF8000000180000001800000F5
:10107E0001800000018000000180040001800C004E
:10108E007D800C0045801C0145801C0345803C077B
:10109E0001807C0E01807C1C7D80FC3C0581FC78EF
:1010AE000581FCF07D83DDE001879FC001871F80F5
:1010BE00418E1F00419C1E007DB81C0041B01800DF
:1010CE0041A0180001801000018000000180000086
:1010DE0001800000018000000180000001FFFFFF81
:1010EE00FFFFFFFFFF800000018000000180000075
:1010FE000180000041800000418000007D800000E2
:10110E004180000041800000018000007D800000D1
:10111E00558FFFFC5587FFF85583FFF05581FFE093
:10112E000180FFC075807F8055803F0055801E0076
:10113E0055800C005D8000000180000041800000A1
:10114E00418000007D800000418000004180000051
:10115E0001800000018000000180000001FFFFFF00
:10116E00FF0000000000000000080000000C00302E
:10117E00000E003000070030000380300001C03048
:10118E000000C03000001FFFFE007FFFFE00F000D9
:10119E000001C0000003803000070030000E003058
:1011AE00000C003000080030000000000007FF3C7B
:1011BE003C0FFFFC3E0E03F81E0C01F00E0C01F06E
:1011CE000E0C01F00E0C01F00E0C01F00E0C01F0E5
:1011DE000E0C01F00E0C01F81E0E03FFFE0F8FFF1A
:1011EE00FE078F3FFC000000000000000000000022
:1011FE0000000000000000000000000000000000E1
:10120E0000000000000000000000000000000000D0
:10121E000000000000000000000000000000204060
:10122E0000002180000027FE00003A08000022087E
:10123E00000023FC000001010000410600007FF8C1
:10124E0000004100000041000000410000007FFF4F
:10125E00000041000000010000000000000000013D
:10126E000000000600001FF8000011000000110829
:10127E0000001104000011F800001001000010021F
:10128E000000FF84000010680000901800005064F9
:10129E00000013820000101F000000000000241048
:1012AE00000024600000258000007FFF0000C500C4
:1012BE000000448000000020000044200000332085
:1012CE0000000020000000200000FFFF0000004092
:1012DE000000004000000040000000000000082058
:1012EE0000000822000008410000FFFE00000880F8
:1012FE00000009010000100100001102000011C2DF
:10130E00000011340000FF080000111400001162EB
:10131E00000011810000100100000000000000001C
:10132E0000000000000000000000000000000000AF
:10133E00000000000000000000000000000000009F
:10134E00000000000000000000000000000000008F
:10135E00000000000000000000000000000000007F
:01136E00007E
:1062DB00EF540FC454F0FEEF54F0C4540F4EFF5460
:1062EB003325E025E0FEEF54CC1313543F4EFF54FF
:0C62FB005525E0FEEF54AAC3134EFF220D
:10651D00EF4E60157D087C07ED1DAA0470011C4A25
:09652D0070F6EF1F70EA1E80E712
:016536002242
:10633100ED6004D2A58002C2A5C2A3E4FEC2A6EF0D
:1063410030E704D2A78002C2A7D2A6EF25E0FF0E54
:08635100EEB408E9D2A3D2A5C5
:016359002221
:10643900AC07ED24B0FFE4FD126331EC54F0C45411
:106449000F4410FF126331EC540F4401FF02633112
:1060C700E4FCEC24B4FFE4FD1263317F0412633176
:1060D7007F10126331E4FB75F004EBA42400F58212
:1060E700E5F03402F583E5822CF582E43583F58308
:1060F700E0FF7D011263310BEBB480DB0CECB404E1
:01610700C1D6
:016108002274
:0761EB00E490044EF0A3F064
:1061F200E4FFE4FE75F004EEA42400F582E5F03439
:1062020002F583E5822FF582E43583F583E4F00E0F
:09621200EEB480E00FEFB404D9F2
:01621B002260
:0B580300FFA3E0C399FD9004C6E0FB8A
:10580E00E490045DF0EFD3947F40030258A9ED9429
:10581E003F40030258A9ED131313541FFEC3740720
:10582E009E90045CF0ED5407FEC374079EFE740157
:10583E00A806088002C333D8FC90045DF0EB9004F8
:10584E005C602AE0FE75F004EFA42400F582E5F01A
:10585E003402F583E5822EF582E43583F583C08329
:10586E00C082E0FF90045DE0FEEF4E8029E0FE7501
:10587E00F004EFA42400F582E5F03402F583E5820E
:10588E002EF582E43583F583C083C082E0FF900459
:0B589E005DE0F4FEEF5ED082D083F0EE
:0158A90022DC
:0C479D00FBED2409900451F0A37401F01E
:0C47A90090044EEFF0A905900450EBF0D6
:1047B500E9FFA3E0C39FFEE49400900453F0A3CE69
:1047C500F090044EE0FFC3EB9FFEE4940090045587
:1047D500F0A3CEF0900453E0FEA3E0FFC3EE6480A7
:1047E50094805015C3E49FFFE49E900453F0A3EF1B
:1047F500F090045874FFF080069004587401F0900E
:104805000455E0FEA3E0FFC3EE648094805013C31B
:10481500E49FFFE49E900455F0A3EFF0A374FFF02E
:1048250080069004577401F090044EE0FFAD0190AE
:104835000452E0FB12580E900453E0FEA3E0FFA3E0
:10484500E0FAA3E0FBD39FEE6480F8EA6480984029
:1048550059EAA2E713EB13FF900453A3E0C39FFCAF
:10486500900450E0FF90044EE06F7003024902C3CC
:10487500EC648094804010900458E029F990045528
:10488500A3E0FFC3EC9FFC900457E0FF90044EE0CB
:104895002FF0900453A3E02CFC90044EE0FFAD01F3
:1048A500900452E0FB12580E80B6900453E0A2E744
:1048B50013A3E013FFA3A3E0C39FFC900451E06999
:1048C500603BC3EC648094804015900457E0FF90F2
:1048D500044EE02FF0900453A3E0FFC3EC9FFC903F
:1048E5000458E029F9900455A3E02CFC90044EE00F
:0D48F500FFAD01900452E0FB12580E80BE92
:014902002292
:10618400FD9000021229EE2F14FB9004517401F0CB
:06619400AC07AA03A905F7
:10619A00ECD39A4006AF02AA04AC07AF04AD019053
:0D61AA000451E0FB12580E0CEAC39C50EEAD
:0161B70022C5
:0663D000AC05AA03A907B9
:1063D600ECD39A4006AF02AA04AC07AF01AD049015
:0D63E6000450E0FB12580E0CEAC39C50EE70
:0163F3002287
:055D3400E090044CF0BA
:105D3900900448EFF0A3EDF0A3EBF090044CE09051
:105D49000451F0126194900448E0FF90044BE0FD87
:105D590090044AE0FB90044CE0900451F0126194E5
:105D6900900448E0FFA3E0FD90044BE0FBA3E09022
:105D79000450F01263D090044AE0FF900449E0FD1A
:0E5D890090044BE0FBA3E0900450F00263D0C6
:0558AA00E090044CF049
:0F58AF00900449EDF0900448EFF090044AEBF0BC
:1058BE00EFD39B4016900448E0FF90044DF0900407
:1058CE004AE0900448F090044AEFF090044BE0FF59
:1058DE00900449E0FED39F400F90044DEEF09004EB
:1058EE0049EFF090044BEEF090044BE0FF9004492A
:1058FE00E0FDB50715900448E0FF90044AE0FB90E8
:10590E00044CE0900451F002619490044AE0FF9040
:10591E000448E06F602B90044BE0FF900449E0FDDB
:10592E00D39F501D900448E0FF90044AE0FB900482
:10593E004CE0900451F0126194900449E004F08020
:01594E00D583
:01594F002235
:105F5B009004D0EFF0AE03A905EE603EEEFD900489
:105F6B00D0E02DFDE433FCD3ED9480EC6480948081
:105F7B005028EEFDE92DFDE433FCD3ED9420EC64C9
:105F8B0080948050159004D0E0FFAD012EFBE92EDC
:0B5F9B0090044BF09004D3125D342200
:105FA6009004D4EFF0AE03A905EE603EEEFD90043A
:105FB600D4E02DFDE433FCD3ED9480EC6480948032
:105FC6005028EEFDE92DFDE433FCD3ED9420EC647E
:105FD60080948050159004D4E0FFAD012EFBE92E8D
:0B5FE60090044BF09004D71258AA2240
:0E52B3009004A4EBF0A3EAF0A3E9F0A3EDF061
:1052C100700302539C9004A7E0B401359004A4E05C
:1052D100FBA3E475F001122AAAA9F0FA1229D590CC
:1052E10004A9F09004A4E0FBA3E0FAA3E0F91229D9
:1052F100D5FC9004A9E0FFAD049004A8E0FB12588E
:105301000E9004A4E0FBA3E475F001122AAAA9F00F
:10531100FA1229D59004A9F09004A4E0FBA3E47546
:10532100F001122AAAA9F0FA1229D5FC9004AC7452
:1053310001F09004A7E0FF9004ACE0C39F505C90A3
:1053410004A4E0FBA3E475F001122AAAA9F0FA1261
:1053510029D59004AAF09004A4E0FBA3E475F00120
:10536100122AAAA9F0FA1229D59004ABF09004A947
:10537100E0FFAD04A3E0FBA3E0900451F09004A88A
:10538100E0900452F01247A99004AAE09004A9F019
:0B5391009004ABE0FCA3E004F0809768
:01539C0022EE
:0856B1009004C2EFF0A3EDF03C
:1056B900E4FCAF03A907EF25E0FFC374039FFAECED
:1056C900D39940030257599004C2E02CFFA3E02963
:1056D9001258089004C2E02C1258039004C2E0C387
:1056E9009CFFA3E0291258089004C2E0C39C1258F9
:1056F900039004C2E029FFA3E02C1258089004C2C9
:10570900E029FFA3E0C39C1258089004C2E0C399A2
:10571900FFA3E02C1258089004C2E0C399FFA3E04C
:10572900C39C125808C3EA64809480500FAF040CDC
:10573900EF25E025E024062AFA0256C8AF0119AE82
:10574900040CC3EE9F25E025E0240A2AFA0256C874
:01575900222D
:0B2CD50090043FEBF0A3EAF0A3E9F04D
:102CE0009000021229EEFEC39414401690043FE0B7
:102CF000FBA3E0FAA3E0F99000031229EEC39414B9
:102D000050037F0022EEFF1229D52FFFE433FED3BC
:102D1000EF9480EE6480948040037F002290043F13
:102D2000E0FBA3E0FAA3E0F99000031229EEFF9084
:102D300000011229EE2FFFE433FED3EF9420EE645E
:102D400080948040037F002290043FE0FBA3E0FAE0
:102D5000A3E0F91229D5FCFFC0079000011229EE6B
:102D6000FD9000021229EE2C14FBC00390043FE0FA
:102D7000FB9000031229EEFF9000011229EE2F14A0
:102D800090044BF0E4A3F0D003D0071258AF9004A6
:102D90003FE0FBA3E0FAA3E0F91229D5FCFFC0074E
:102DA0009000011229EEFD9000021229EE2C14FB76
:102DB000C00390043FE0FB9000031229EEFF900057
:102DC000011229EE2F1490044BF0A37401F0D003EC
:102DD000D007125D3990043FE0FBA3E0FAA3E0F9CD
:102DE0001229D5FF9000011229EE24091261849066
:102DF000043FE0FBA3E0FAA3E0F99000021229EE01
:102E0000FF1229D52F24F6FF9000011229EEFD2490
:102E100009FB9004507401F01263D090043FE0FB72
:102E2000A3E0FAA3E0F99000021229EEFF1229D5DF
:102E30002FFE24F6FF9000011229EEFDEE1412473A
:102E40009D90043FE0FBA3E0FAA3E0F9900002129A
:102E500029EEFF1229D52FFE14FF9000011229EE52
:102E6000FDEE24F612479D90043FE0FBA3E0FAA399
:102E7000E0F9900004122C51E94A7003022F0990E6
:102E8000043FE0FBA3E0FAA3E0F9900004122C5108
:102E9000900442EBF0A3EAF0A3E9F090043FE0FBDA
:102EA000A3E0FAA3E0F91229D5FF2402900445F02B
:102EB0009000011229EE04900446F09000021229BD
:102EC000EE2F14900447F0900445E0FF3395E0FEA8
:102ED000EF2408FFE43EFE900447E0FD3395E0FC5C
:102EE000D3EF9DEC6480F8EE648098501C9004420F
:102EF000E0FBA3E0FAA3E0F91229D5600C124FC35E
:102F0000900445E02406F080BE90043FE0FBA3E07F
:102F1000FAA3E0F9900007122C51E94A7003022F3E
:102F2000AC90043FE0FBA3E0FAA3E0F990000712A5
:102F30002C51900442EBF0A3EAF0A3E9F090043F97
:102F4000E0FBA3E0FAA3E0F91229D5FF24029004E4
:102F500045F09000011229EE240C900446F09000F8
:102F6000021229EE2F14900447F0900445E0FF333D
:102F700095E0FEEF2408FFE43EFE900447E0FD33B9
:102F800095E0FCD3EF9DEC6480F8EE648098501CD3
:102F9000900442E0FBA3E0FAA3E0F91229D5600C0B
:102FA000124FC3900445E02406F080BE90043FE039
:102FB000FBA3E0FAA3E0F990000A122C51E94A7051
:102FC0000302309290043FE0FBA3E0FAA3E0F99003
:102FD00000031229EEC3941950037F002290043F8E
:102FE000E0FBA3E0FAA3E0F91229D5FF9000031259
:102FF00029EEFE9000011229EE2E24F61261849033
:10300000043FE0FBA3E0FAA3E0F990000A122C5180
:10301000900442EBF0A3EAF0A3E9F090043FE0FB58
:10302000A3E0FAA3E0F91229D5FF2403900445F0A8
:103030009000031229EEFE9000011229EE2E24F7D3
:10304000900446F09000021229EE2F14900447F0ED
:10305000900445E0FF3395E0FEEF2408FFE43EFED8
:10306000900447E0FD3395E0FCD3EF9DEC6480F8DD
:10307000EE648098501C900442E0FBA3E0FAA3E0C9
:10308000F91229D5600C124FC3900445E02406F0D4
:0430900080BE7F017E
:013094002219
:07627D009004C8EDF0A90335
:10628400AC07ECD399501F9004C8E0FA9004CAE01C
:10629400FFEAD39F500DAF04AD02A3E0FB12580EEA
:0962A4000A80E90C80DC0260C7ED
:104FC300900445E0FFA3E0FD900442E0FBA3E475F9
:104FD300F001122AAAA9F0FA1229D5FB90045874F9
:064FE30007F0A37401F0C9
:0C4FE900900455EFF0900457EBF0A90580
:104FF50090045BE9F0900457E024E0F0E4FC9004B1
:1050050058E0FFECC39F40030250CBEFB407299053
:105015000457E075F006A424B1F582E5F03400F5F7
:1050250083E5822CF582E43583F583E493FF1262F0
:10503500DB90045AEFF08038900458E0900457B4A0
:105045000C0FE075F00CA424EBF582E5F03402803A
:105055000DE075F010A4245FF582E5F03407F583C3
:10506500E5822CF582E43583F583E49390045AF0C8
:10507500E4FA90045AE030E70E900455E0FFAD01E4
:10508500900459E0FB8013900455E0FFAD019004B6
:1050950059E070047B0180027B0012580E90045A7F
:1050A500E025E0F009A3E0FFC3E99FFE900458E086
:1050B500B5060AA907900455E004F080050AEAB48C
:0650C50008B00C025003CC
:0150CB0022C2
:085FF1009004B6EFF0A3EDF0FF
:105FF900A3122C20000000019004B7E0FF14F0EF79
:106009006020A3E0F8A3E0F9A3E0FAA3E0FB900481
:10601900B6E0FFE4FCFDFE122AC09004B8122C146D
:1060290080D69004B8E0FCA3E0FDA3E0FEA3E0FF66
:016039002244
:08547100900499EFF0A3EDF0A7
:10547900E49004A3F09004A1F090049FE0FF90044D
:10548900A1E0FEC39F4003025537C3EF9E14FD7F81
:105499000A125FF1A804A905AA06AB0790049BE0CC
:1054A900FCA3E0FDA3E0FEA3E0FF122B4BE47B0A83
:1054B900FAF9F8122B4B9004A2EBF0A3E0703A90A2
:1054C900049FE014FF9004A1E0FEC39F502BA3E0CA
:1054D90070219004A0E0FCC3138EF0A4FF900499FE
:1054E900E02FFFA3E0FD900458ECF0A37401F07BDA
:1054F90020802F9004A37401F09004A0E0FEC31350
:10550900FFA3E0FDEF8DF0A4FF900499E02FFFA326
:10551900E0FD9004A2E02430FB900458EEF0A3745F
:0E55290001F0124FE99004A1E004F002548258
:015537002251
:104A46007A0079787BFF900453740CF0A37401F01C
:044A5600E4FD7F4EAE
:104A5A0090044EEFF0A3EDF0A3EBF0A3EAF0A3E984
:104A6A00F0900450E0FBA3E0FAA3E0F91229D57014
:104A7A0003024B68900453E06410704C90044EE0BB
:104A8A00D3947A4007E4F0A3E02410F090044FE0B6
:104A9A00D3942040031261EB90044EE0FFA3E0FDA3
:104AAA00A3E0FBA3E0FAA3E0F91229D5FB9004588E
:104ABA007410F0900454E0900459F0124FE99004F5
:104ACA004EE02408F0024B5B900453E0640C70380B
:104ADA0090044EE0D3947A4007E4F0A3E0240CF06B
:104AEA0090044FE0D3942040031261EB90044EE00F
:104AFA00FFA3E0FDA3E0FBA3E0FAA3E0F91229D5A6
:104B0A00FB900458740C803690044EE0D3947A409B
:104B1A0007E4F0A3E02408F090044FE0D394204087
:104B2A00031261EB90044EE0FFA3E0FDA3E0FBA3B8
:104B3A00E0FAA3E0F91229D5FB9004587407F09023
:104B4A000454E0900459F0124FE990044EE0240610
:0F4B5A00F0900451E475F001122A94024A6B2284
:0C59E6009004BCEFF09004BEEBF0A905AB
:1059F2009004C1E9F0E4FCECC394109004BEE0759D
:105A0200F020A4244FF582E5F0340DF583E5822CD5
:105A1200F582E43583F583E4939004C0F0E4FA90D0
:105A220004C0E030E70E9004BCE0FFAD019004BF7B
:105A3200E0FB80139004BCE0FFAD019004BFE07076
:105A4200047B0180027B0012580E9004C0E025E026
:105A5200F009A3E0FFC3E99FFEBE100AA907900464
:105A6200BCE004F080050AEAB408B40CEC642070CF
:015A720086AD
:015A73002210
:105BF600900445EFF0A3EDF0A3EBF0900445E0FF31
:105C0600C007A3E0FDA3E0FEC3EF9EFBED2E9004CC
:105C160051F0900448E0900452F0D0071247A99042
:105C26000445E0FFC007A3E0FDA3E0FEEF2EFBED79
:105C36002E900451F0900448E0900452F0D00712E0
:105C460047A9900447E0FE900445E0FC2EFFA3E040
:105C56002EFDC3EC9EFB900451EDF0900448E090BD
:065C66000452F00247A900
:0B4DA10090043DEFF0A3EDF0A3EBF059
:104DAC0090043DE0FBFF90043FE0FAC39FFFE494C6
:104DBC0000FE900441E0FD7C00122A3F900444EF79
:104DCC00F0EB24FDFF90043EE024FEFDEA2404FBFE
:104DDC00900440E0240C90044BF0E4A3F01258AF84
:104DEC0090043DE0FFA3E0FDA3E0FBA3E090044BA7
:104DFC00F0900443125D34900442E0FF900444E0D0
:104E0C008FF0A4FF90043DE02FFF900440E004FDE0
:104E1C009004487401F07B03125BF690043DE0FEB5
:104E2C0004FFA3E004FD900442E0FC900444E08CF9
:104E3C00F0A4FCEE2CFB900440E01490044BF0909A
:104E4C0004431258AA900442E075F00A84540FFFF0
:104E5C00126371AB07900442E0FF900444E08FF0C2
:104E6C00A4FF90043DE02F24FAFF900440E02406B8
:104E7C00FD124FDF900442E075F00A84E5F0540F08
:104E8C00FF126371AB07900442E0FF900444E08F83
:104E9C00F0A4FF90043DE02FFF900440E02406FDB9
:064EAC00124FDF0260C797
:0B5DF900900436EFF0A3EDF0A3EBF0F8
:105E0400A3E090044BF090043A125D34E490043B18
:105E1400F0900436E0FF900438E0C39FFF90043B09
:105E2400E0FEC39F502E900436E0FC04FFA3E00480
:105E3400FDEC2EFB900439E01490044BF090043AEE
:105E44001258AA1260C712665912665990043BE0B0
:045E540004F080BD19
:015E58002227
:09553800900436EBF0AC05A90764
:10554100ECFF90043DE4F0A3EFF0E4900439F0A304
:10555100F0900439E0FEA3E0FFC3EE9402400302A1
:1055610055FC746F2FF58274113EF583E493FF901F
:105571000437E4F0A3EFF0E490043BF0A3F09004CF
:1055810038E030E70BAF01AD04900436E0FB80104A
:10559100AF01AD04900436E070047B0180027B0012
:1055A10012580E900438E025E0F0900437E033F013
:1055B1000CECFF90043DE0FAA3E0FBC3EF9BFFE49A
:1055C1009AFEEF64204E7005AC0309801D90043CE7
:1055D100E004F0700690043BE004F0C390043CE06A
:1055E100940890043BE09400409490043AE004F065
:0B55F1007006900439E004F0025552EF
:0155FC00228C
:1050CC0090044074FFF0A37410F0A3746FF07B0194
:0450DC00E4FD7F3040
:0F50E00090043DEFF090043FEBF090043EEDF0B4
:1050EF00FF900449E4F0A3EFF0E4900445F0A3F03F
:1050FF00900440E0FBA3E0FAA3E0F91229D5FF905A
:10510F000443E4F0A3EFF0900441E475F001122A98
:10511F0094E4900447F0A3F0900444E030E70D903E
:10512F00043DE0FFA3E0FDA3E0FB801290043DE00F
:10513F00FFA3E0FDA3E070047B0180027B00125807
:10514F000E900444E025E0F0900443E033F0900427
:10515F003EE004F0E0FF900449E0FCA3E0FDC3EF64
:10516F009DFFE49CFEEF64204E700D90043EEDF029
:10517F0090043DE004F0801D900448E004F07006B8
:10518F00900447E004F0C3900448E094089004476B
:10519F00E094004083900446E004F07006900445CC
:1051AF00E004F0C3900446E09480900445E094003E
:0551BF0050030250FF47
:0151C40022C8
:10539D0090043CEFF0900458740CF0A37401F07B72
:1053AD003C7D0BE4FF124FE9900458740CF0A3748C
:1053BD0001F07B3E7D0B7F78124FE990043CE0704D
:1053CD002D90044074FFF0A3740FF0A374EFF0E47C
:1053DD00FBFD7F0A1250E01250CC90044074FFF098
:1053ED00A37410F0A374EFF07B01E402546A9004EF
:1053FD003CE06401900440703D74FFF0A3740FF025
:10540D00A374EFF07B01E4FD7F0A1250E09004409D
:10541D0074FFF0A37410F0A3746FF0E4FBFD7F3004
:10542D001250E090044074FFF0A37410F0A374EFD9
:10543D00F07B01E4802774FFF0A3740FF0A374EFE9
:10544D00F07B01E4FD7F0A1250E01250CC90044035
:10545D0074FFF0A37410F0A374EFF0E4FBFD7F561E
:04546D001250E022D7
:104EB200900439EFF070297BFF7A00795E900453F9
:104EC200740CF0E4A3F0FDFF124A5A7BFF7A0079DA
:104ED2006B900453740CF0A37401F07D0FE4802FE7
:104EE200900439E0640170407BFF7A00795E90049F
:104EF20053740CF0A37401F0E4FDFF124A5A7BFFD5
:104F02007A00796B900453740CF0E4A3F07D0FFFE8
:104F1200124A5A124A467BFF7A00797E90045374F1
:104F22000CF0A37401024FBA900439E064027BFFD3
:104F32007A00795E900453704A740CF0A37401F005
:104F4200E4FDFF124A5A7BFF7A00796B9004537496
:104F52000CF0A37401F07D0FE4FF124A5A7BFF7A32
:104F6200007978900453740CF0E4A3F0FD7F4E12A4
:104F72004A5A7BFF7A00797E900453740CF0A37432
:104F8200018035740CF0A37401F0E4FDFF124A5A5B
:104F92007BFF7A00796B900453740CF0A37401F0D8
:104FA2007D0FE4FF124A5A124A467BFF7A00797E4D
:104FB200900453740CF0E4A3F07D0F7F4E124A5A12
:014FC20022CC
:104C860090043BEFF070297BFF7A007987900453FC
:104C9600740CF0E4A3F0FDFF124A5A7BFF7A007908
:104CA60092900453740CF0A37401F07D0FE4802FEE
:104CB60090043BE0640170447BFF7A00798790049E
:104CC60053740CF0A37401F0E4FDFF124A5A7BFF03
:104CD6007A007992900453740CF0E4A3F07D0FFFF0
:104CE600124A5A7A00799D124A4A7BFF7A00797EE7
:104CF600900453740CF0A37401024D9890043BE0A9
:104D060064027BFF7A007987900453704A740CF032
:104D1600A37401F0E4FDFF124A5A7BFF7A007992F0
:104D2600900453740CF0A37401F07D0FE4FF124A53
:104D36005A7BFF7A00799D900453740CF0E4A3F03B
:104D4600FD7F4E124A5A7BFF7A00797E9004537497
:104D56000CF0A37401803B740CF0A37401F0E4FD25
:104D6600FF124A5A7BFF7A007992900453740CF032
:104D7600A37401F07D0FE4FF124A5A7BFF7A007993
:104D86009D124A4C7BFF7A00797E900453740CF096
:0B4D9600E4A3F07D0F7F4E124A5A226A
:10136F00900444EFF0A3EDF0EF2404FF7BFF7A002D
:10137F0079A59004537407F0A37401F0124A5A90A0
:10138F000444E02404FFA3E02410FD7BFF7A0079DE
:10139F00AB9004537407F0A37401F0124A5A9004EF
:1013AF0051741FF0A37401F07B26E4FD7F261247D2
:1013BF00A9E4900451F0A304F07B28E4FD7F2612EA
:1013CF0047A9900451740FF0A37401F07B287D0F8F
:1013DF007F261247A9900451741FF0A37401F07B6C
:1013EF00287D1F7F261247A9900444E02424F0E0B3
:1013FF002406FFC007900446E0FCA3E0FDA3E0FE37
:10140F00A3E0FF7817122BEEEF5401FFEF2430FB10
:10141F009004587407F0A37401F0900445E0FDD0D8
:10142F0007124FE9900444E0240CFFC007900446D4
:10143F00E0FCA3E0FDA3E0FEA3E0FF7816122BEE85
:10144F00EF5401FFEF2430FB9004587407F0A3749E
:10145F0001F0900445E0FDD007124FE9900444E0FD
:10146F002412FFC007900446E0FCA3E0FDA3E0FEBA
:10147F00A3E0FF7815122BEEEF5401FFEF2430FBA2
:10148F009004587407F0A37401F0900445E0FDD068
:10149F0007124FE9900444E02418FFC00790044658
:1014AF00E0FCA3E0FDA3E0FEA3E0FF7814122BEE17
:1014BF00EF5401FFEF2430FB9004587407F0A3742E
:1014CF0001F0900445E0FDD007124FE9900444E08D
:1014DF00241EFFA3E0FD9004587407F0A37401F0DD
:1014EF007B2D124FE9900444E02424FFC0079004A1
:1014FF0046E0FCA3E0FDA3E0FEA3E0FF7813122B70
:10150F00EEEF5401FFEF2430FB9004587407F0A363
:10151F007401F0900445E0FDD007124FE9900444A8
:10152F00E0242AFFC007900446E0FCA3E0FDA3E0FF
:10153F00FEA3E0FF7812122BEEEF5401FFEF2430E1
:10154F00FB9004587407F0A37401F0900445E0FD7C
:10155F00D007124FE9900444E02430FFC0079004F5
:10156F0046E0FCA3E0FDA3E0FEA3E0FF7811122B01
:10157F00EEEF5401FFEF2430FB9004587407F0A3F3
:10158F007401F0900445E0FDD007124FE990044438
:10159F00E02436FFC007900446E0FCA3E0FDA3E083
:1015AF00FEA3E0FF7810122BEEEF5401FFEF243073
:1015BF00FB9004587407F0A37401F0900445E0FD0C
:1015CF00D007124FE9900444E0243CFFA3E0FD90C4
:1015DF0004587407F0A37401F07B2D124FE99004A7
:1015EF0044E02442FFC007900446E0FCA3E0FDA3C3
:1015FF00E0FEA3E0FF780F122BEEEF5401FFEF2474
:10160F0030FB9004587407F0A37401F0900445E088
:10161F00FDD007124FE9900444E02448FFC0079023
:10162F000446E0FCA3E0FDA3E0FEA3E0FF780E126A
:10163F002BEEEF5401FFEF2430FB9004587407F0AA
:10164F00A37401F0900445E0FDD007124FE9900418
:10165F0044E0244EFFC007900446E0FCA3E0FDA346
:10166F00E0FEA3E0FF780D122BEEEF5401FFEF2405
:10167F0030FB9004587407F0A37401F0900445E018
:10168F00FDD007124FE9900444E02454FFC00790A7
:10169F000446E0FCA3E0FDA3E0FEA3E0FF780C12FC
:1016AF002BEEEF5401FFEF2430FB9004587407F03A
:1016BF00A37401F0900445E0FDD007124FE99004A8
:1016CF0044E02406FFC007A3E02408FDC005A3E003
:1016DF00FCA3E0FDA3E0FEA3E0FF780B122BEEEFDF
:1016EF005401FFEF2430FB9004587407F0A37401EA
:1016FF00F0D005D007124FE9900444E0240CFFC04E
:10170F0007A3E02408FDC005A3E0FCA3E0FDA3E0D0
:10171F00FEA3E0FF780A122BEEEF5401FFEF243007
:10172F00FB9004587407F0A37401F0D005D0071292
:10173F004FE9900444E02412FFC007A3E02408FD02
:10174F00C005A3E0FCA3E0FDA3E0FEA3E0FF780942
:10175F00122BEEEF5401FFEF2430FB900458740767
:10176F00F0A37401F0D005D007124FE9900444E0C4
:10177F002418FFC007A3E02408FDC005A3E0FCA3C5
:10178F00E0FDA3E0FEA3E0FF7808122BEEEF54017B
:10179F00FFEF2430FB9004587407F0A37401F0D0CE
:1017AF0005D007124FE9900444E0241EFFA3E02464
:1017BF0008FD9004587407F0A37401F07B2D124FAD
:1017CF00E9900444E02424FFC007A3E02408FDC0EF
:1017DF0005A3E0FCA3E0FDA3E0FEA3E0FF78071262
:1017EF002BEEEF5401FFEF2430FB9004587407F0F9
:1017FF00A37401F0D005D007124FE9900444E02400
:10180F002AFFC007A3E02408FDC005A3E0FCA3E066
:10181F00FDA3E0FEA3E0FF7806122BEEEF5401FFCD
:10182F00EF2430FB9004587407F0A37401F0D00537
:10183F00D007124FE9900444E02430FFC007A3E023
:10184F002408FDC005A3E0FCA3E0FDA3E0FEA3E098
:10185F00FF7805122BEEEF5401FFEF2430FB9004BD
:10186F00587407F0A37401F0D005D007124FE99018
:10187F000444E02436FFC007A3E02408FDC005A3FD
:10188F00E0FCA3E0FDA3E0FEA3E0FF7804122BEE43
:10189F00EF5401FFEF2430FB9004587407F0A3744A
:1018AF0001F0D005D007124FE9900444E0243CFF2B
:1018BF00A3E02408FD9004587407F0A37401F07B93
:1018CF002D124FE9900444E02442FFC007A3E02407
:1018DF0008FDC005A3E0FCA3E0FDA3E0FEA3E0FF2D
:1018EF007803122BEEEF5401FFEF2430FB900458D6
:1018FF007407F0A37401F0D005D007124FE99004DC
:10190F0044E02448FFC007A3E02408FDC005A3E07E
:10191F00FCA3E0FDA3E0FEA3E0FF7802122BEEEFA5
:10192F005401FFEF2430FB9004587407F0A37401A7
:10193F00F0D005D007124FE9900444E0244EFFC0C9
:10194F0007A3E02408FDC005A3E0FCA3E0FDA3E08E
:10195F00FEA3E0FF7801122BEEEF5401FFEF2430CE
:10196F00FB9004587407F0A37401F0D005D0071250
:10197F004FE9900444E02454FFC007A3E02408FD7E
:10198F00C005A3E0FCA3A3E0FEA3E05401FFEF24F6
:10199F0030FB9004587407F0A37401F0D005D00702
:1019AF00124FE9900444E02406FFC007A3E024107F
:1019BF00FDC00590044AE0FCA3E0FDA3E0FEA3E018
:1019CF00FF7817122BEEEF5401FFEF2430FB90043A
:1019DF00587407F0A37401F0D005D007124FE990A7
:1019EF000444E0240CFFC007A3E02410FDC00590C1
:1019FF00044AE0FCA3E0FDA3E0FEA3E0FF7816128B
:101A0F002BEEEF5401FFEF2430FB9004587407F0D6
:101A1F00A37401F0D005D007124FE9900444E024DD
:101A2F0012FFC007A3E02410FDC00590044AE0FC9C
:101A3F00A3E0FDA3E0FEA3E0FF7815122BEEEF5419
:101A4F0001FFEF2430FB9004587407F0A37401F0EA
:101A5F00D005D007124FE9900444E02418FFC007C7
:101A6F00A3E02410FDC00590044AE0FCA3E0FDA311
:101A7F00E0FEA3E0FF7814122BEEEF5401FFEF24EA
:101A8F0030FB9004587407F0A37401F0D005D00711
:101A9F00124FE9900444E0241EFFA3E02410FD90B0
:101AAF0004587407F0A37401F07B2D124FE99004D2
:101ABF0044E02424FFC007A3E02410FDC0059004D8
:101ACF004AE0FCA3E0FDA3E0FEA3E0FF7813122B96
:101ADF00EEEF5401FFEF2430FB9004587407F0A38E
:101AEF007401F0D005D007124FE9900444E0242A86
:101AFF00FFC007A3E02410FDC00590044AE0FCA33B
:101B0F00E0FDA3E0FEA3E0FF7812122BEEEF5401ED
:101B1F00FFEF2430FB9004587407F0A37401F0D04A
:101B2F0005D007124FE9900444E02430FFC007A30B
:101B3F00E02410FDC00590044AE0FCA3E0FDA3E003
:101B4F00FEA3E0FF7811122BEEEF5401FFEF2430CC
:101B5F00FB9004587407F0A37401F0D005D007125E
:101B6F004FE9900444E02436FFC007A3E02410FDA2
:101B7F00C00590044AE0FCA3E0FDA3E0FEA3E0FF54
:101B8F007810122BEEEF5401FFEF2430FB90045826
:101B9F007407F0A37401F0D005D007124FE9900439
:101BAF0044E0243CFFA3E02410FD9004587407F098
:101BBF00A37401F07B2D124FE9900444E02442FFFF
:101BCF00C007A3E02410FDC00590044AE0FCA3E089
:101BDF00FDA3E0FEA3E0FF780F122BEEEF5401FF01
:101BEF00EF2430FB9004587407F0A37401F0D00574
:101BFF00D007124FE9900444E02448FFC007A3E048
:101C0F002410FDC00590044AE0FCA3E0FDA3E0FE14
:101C1F00A3E0FF780E122BEEEF5401FFEF2430FB01
:101C2F009004587407F0A37401F0D005D007124F39
:101C3F00E9900444E0244EFFC007A3E02410FDC048
:101C4F000590044AE0FCA3E0FDA3E0FEA3E0FF78CB
:101C5F000D122BEEEF5401FFEF2430FB900458745C
:101C6F0007F0A37401F0D005D007124FE990044498
:101C7F00E02454FFC007A3E02410FDC00590044AE0
:101C8F00E0FCA3E0FDA3E0FEA3E0FF780C122BEE37
:101C9F00EF5401FFEF2430FB9004587407F0A37446
:101CAF0001F0D005D007124FE9900444E02406FF5D
:101CBF00C007A3E02418FDC00590044AE0FCA3E090
:101CCF00FDA3E0FEA3E0FF780B122BEEEF5401FF14
:101CDF00EF2430FB9004587407F0A37401F0D00583
:101CEF00D007124FE9900444E0240CFFC007A3E093
:101CFF002418FDC00590044AE0FCA3E0FDA3E0FE1C
:101D0F00A3E0FF780A122BEEEF5401FFEF2430FB14
:101D1F009004587407F0A37401F0D005D007124F48
:101D2F00E9900444E02412FFC007A3E02418FDC08B
:101D3F000590044AE0FCA3E0FDA3E0FEA3E0FF78DA
:101D4F0009122BEEEF5401FFEF2430FB900458746F
:101D5F0007F0A37401F0D005D007124FE9900444A7
:101D6F00E02418FFC007A3E02418FDC00590044A23
:101D7F00E0FCA3E0FDA3E0FEA3E0FF7808122BEE4A
:101D8F00EF5401FFEF2430FB9004587407F0A37455
:101D9F0001F0D005D007124FE9900444E0241EFF54
:101DAF00A3E02418FD9004587407F0A37401F07B8E
:101DBF002D124FE9900444E02424FFC007A3E02430
:101DCF0018FDC00590044AE0FCA3E0FDA3E0FEA3CC
:101DDF00E0FF7807122BEEEF5401FFEF2430FB905A
:101DEF0004587407F0A37401F0D005D007124FE91F
:101DFF00900444E0242AFFC007A3E02418FDC00587
:101E0F0090044AE0FCA3E0FDA3E0FEA3E0FF780608
:101E1F00122BEEEF5401FFEF2430FB9004587407A0
:101E2F00F0A37401F0D005D007124FE9900444E0FD
:101E3F002430FFC007A3E02418FDC00590044AE03A
:101E4F00FCA3E0FDA3E0FEA3E0FF7805122BEEEF6D
:101E5F005401FFEF2430FB9004587407F0A3740172
:101E6F00F0D005D007124FE9900444E02436FFC0AC
:101E7F0007A3E02418FDC00590044AE0FCA3E0FD91
:101E8F00A3E0FEA3E0FF7804122BEEEF5401FFEF67
:101E9F002430FB9004587407F0A37401F0D005D0E0
:101EAF0007124FE9900444E0243CFFA3E02418FDFF
:101EBF009004587407F0A37401F07B2D124FE99032
:101ECF000444E02442FFC007A3E02418FDC005909E
:101EDF00044AE0FCA3E0FDA3E0FEA3E0FF780312B9
:101EEF002BEEEF5401FFEF2430FB9004587407F0F2
:101EFF00A37401F0D005D007124FE9900444E024F9
:101F0F0048FFC007A3E02418FDC00590044AE0FC79
:101F1F00A3E0FDA3E0FEA3E0FF7802122BEEEF5447
:101F2F0001FFEF2430FB9004587407F0A37401F005
:101F3F00D005D007124FE9900444E0244EFFC007AC
:101F4F00A3E02418FDC00590044AE0FCA3E0FDA324
:101F5F00E0FEA3E0FF7801122BEEEF5401FFEF2418
:101F6F0030FB9004587407F0A37401F0D005D0072C
:101F7F00124FE9900444E02454FFC007A3E0241853
:101F8F00FDC00590044AE0FCA3A3E0FEA3E05401CA
:101F9F00FFEF2430FB9004587407F0A37401F0D0C6
:061FAF0005D007024FE916
:1055FD00D2A47F647E0012651DC2A47F647E00125A
:10560D00651DD2A4E4FD7FFD1263317F121263315B
:10561D007FAE1263317F201263317F021263317FBF
:10562D00B4126331E4FF1263317F101263317F6076
:10563D001263317FD51263317FF01263317FA8126F
:10564D0063317F1F1263317FD3126331E4FF126325
:10565D00317FA11263317FC01263317FD812633164
:10566D007F051263317FDA1263317F121263317F4E
:10567D00D91263317FF11263317F811263317FBFA4
:10568D001263317FDB1263317F341263317FA412D9
:10569D0063317FA61263317FAF1263311261F2E481
:0456AD00FF0264395B
:105D9700900436122C1453877F759850438E0490C5
:105DA7000436E0F8A3E0F9A3E0FAA3E0FB7F007E66
:105DB700607D547C00122B4BEFF404F5D79004362A
:105DC700E0F8A3E0F9A3E0FAA3E0FB7F007E607DA3
:105DD700547C00122B4BC3E49FFFE49EFE74019D8D
:105DE700FDE49CFC7808122BEE8FD6438E01438E80
:025DF700102278
:0B6664007F007EC27D017C00025D977C
:086695008F993099FDC2992292
:1061B80090043DEBF0A3EAF0A3E9F090043DE0FB86
:1061C800A3E0FAA3E0F91229D5601790043DA3E4EF
:1061D80075F001122AAAA9F0FA1229D5FF12657FD3
:0361E80080D92239
:10657F00AE07EEB40A097F0D1266957F0A8002AF4F
:07658F0006126695AF06221B
:1065D600EFC3940AEF50052430FD80032437FDAF46
:0465E6000502657FC6
:10649600AC077F2012657FECC4540FFF1265D6EC63
:0B64A600540FFF1265D67F2002657FB7
:0300230002654F24
:06654F00C0E0C083C08221
:0B655500309808C298900434E599F0DB
:07656000D082D083D0E032AD
:09668400D287C284C286C28522BD
:1065EA00E4FEEF339284C285D285EF25E0FF0EEEFA
:0365FA00B408EFF3
:0165FD00227B
:1064B100C286AF051DEF60101229D5FF1265EA747F
:0B64C1000129F9E43AFA80EAD28622B1
:105C6C00204E4721212000202020202020005041C0
:105C7C005353212100496E666F005654363235332A
:105C8C00382D423100565436323533382D423200DD
:105C9C00434F42004F4B3A004E473A004144443A7E
:105CAC0000534144442D4E6F2E3A000ABFAACABC81
:105CBC00B8EEC2EB2D2D2D3E0A000ACDEAB3C9B8C1
:055CCC00EEC2EB0A002E
:10575A009004AD122C20000000009004B1122C20FD
:10576A0000000000E49004B5F0F09004B5E0F9C33D
:10577A0094185071900400E0FCA3E0FDA3E0FEA39E
:10578A00E0FFA801122BEEEF5401FFE4FEFDFC90AE
:10579A0004AD122C149004B1E0F8A3E0F9A3E0FAE6
:1057AA00A3E0FBC000C001C0039004ADE0FCA3E08D
:1057BA00FDA3E0FEA3E0FF9004B5E0FBC374179BD2
:1057CA00F9F8122C01D003D001D000EB4FFFEA4EBA
:1057DA00FEE94DFDE84CFC9004B1122C149004B57E
:1057EA00E004F080859004B1E0FCA3E0FDA3E0FEB4
:0957FA00A3E0FF900400022C144E
:0D664000C2CCC2C0C2B3C2B4C2B5D2B62231
:10659600EF24FF92B5C2B690046B7403F0126659ED
:0665A600126659D2B62274
:0C664D00759DFFE4F5BDF5BE75BC802214
:1063F400EF4488F5BC00000000E5BC30E4FB53BC6E
:10640400EFAFBDEF75F004A4ADBE7C002DFFEC35FD
:03641400F0FE2275
:05621C00E4FF1263F431
:106221008F828E837E037FE8AD82AC83122C81C086
:1062310006C007AE83AF82C3E49FFF74049EAB0721
:0C624100FAE4F9F8D007D006122B4B222B
:1042D900C282C280C283C2811266591266591266AD
:1042E9005912621C900404EEF0A3EFF000000000E4
:1042F9007F011263F412622190040CEEF0A3EFF037
:10430900000000007F021263F4126221900414EE8F
:10431900F0A3EFF0000000007F031263F4126221A2
:1043290090041CEEF0A3EFF0000000007F0412637C
:10433900F4126221900424EEF0A3EFF000000000D3
:104349007F051263F4126221900426EEF0A3EFF0C8
:10435900000000007F061263F4126221900428EE27
:10436900F0A3EFF0000000007F071263F41262214E
:1043790090042AEEF0A3EFF0C282C280D283D281E8
:1043890012665912665912665912621C900406EE99
:10439900F0A3EFF0000000007F011263F412622124
:1043A90090040EEEF0A3EFF0000000007F0212630C
:1043B900F4126221900416EEF0A3EFF00000000061
:1043C9007F031263F412622190041EEEF0A3EFF052
:1043D900D282D280C283C28112665912665912668C
:1043E9005912621C900408EEF0A3EFF000000000DF
:1043F9007F011263F4126221900410EEF0A3EFF032
:10440900000000007F021263F4126221900418EE8A
:10441900F0A3EFF0000000007F031263F4126221A1
:10442900900420EEF0A3EFF0D282D280D283D28121
:1044390012665912665912665912621C90040AEEE4
:10444900F0A3EFF0000000007F011263F412622173
:10445900900412EEF0A3EFF0000000007F02126357
:10446900F412622190041AEEF0A3EFF000000000AC
:104479007F031263F4126221900422EEF0A3EFF09D
:014489002210
:10490300AB07900400122C2000000000EB64016050
:1049130003024995900433E0540125E0FF9004031A
:10492300E054FD4FF0900433E0540225E025E0FF0E
:10493300900403E054F74FF0900433E0540433330E
:104943003354F8FF900403E054DF4FF0900433E056
:104953005408C454F0FF900403E0547F4FF09004D4
:1049630033E05410131313541FFF900402E054FD5B
:104973004FF0900433E054201313543FFF9004028C
:10498300E054F74FF0900433E054401313543F02C4
:104993004A27EB6003024A31900433E05401FF904D
:1049A3000403E054FE4FF0900433E0540225E0FF8B
:1049B300900403E054FB4FF0900433E0540425E0EB
:1049C30025E0FF900403E054EF4FF0900433E054EC
:1049D3000833333354F8FF900403E054BF4FF0908F
:1049E3000433E05410C4540FFF900402E054FE4F0C
:1049F300F0900433E05420131313541FFF90040268
:104A0300E054FB4FF0900433E05440131313541F4E
:104A1300FF900402E054F74FF0900433E054801306
:104A23001313541FFF900402E054EF4FF02290043D
:104A330030E0FCA3E0FDA3E0FEA3E0FF900400123E
:034A43002C14220E
:10341500D20190042C122C2000000000900433E00F
:1034250030E01AC3900405E0942C900404E0940164
:10343500400990042FE04401F08002C2019004335A
:10344500E0C31330E01AC3900407E0942C900406FF
:10345500E09401400990042FE04402F08002C2018B
:10346500900433E01313543F30E01AC3900409E08D
:10347500942C900408E09401400990042FE0440442
:10348500F08002C201900433E0131313541F30E09F
:103495001AC390040BE0942C90040AE094014009AF
:1034A50090042FE04408F08002C201900433E0C488
:1034B500540F30E01AC390040DE0942C90040CE0F6
:1034C5009401400990042FE04410F08002C201905D
:1034D5000433E0C413540730E01AC390040FE0949A
:1034E5002C90040EE09401400990042FE04420F054
:1034F5008002C201900433E0C41313540330E01A70
:10350500C3900411E0942C900410E09401400990BC
:10351500042FE04440F08002C201900433E0C4135C
:103525001313540130E01AC3900413E0942C900453
:1035350012E09401400990042FE04480F08002C21B
:1035450001900432E030E01AC3900415E0942C9009
:103555000414E09401400990042EE04401F0800237
:10356500C201900432E0C31330E01AC3900417E09F
:10357500942C900416E09401400990042EE0440236
:10358500F08002C201900432E01313543F30E01A78
:10359500C3900419E0942C900418E094014009901C
:1035A500042EE04404F08002C201900432E01313BB
:1035B50013541F30E01AC390041BE0942C90041A96
:1035C500E09401400990042EE04408F08002C20115
:1035D500900432E0C4540F30E01AC390041DE09407
:1035E5002C90041CE09401400990042EE04410F056
:1035F5008002C201900432E0C413540730E01AC3BC
:1036050090041FE0942C90041EE09401400990045E
:103615002EE04420F08002C201900432E0C413136E
:10362500540330E01AC3900421E0942C900420E068
:103635009401400990042EE04440F08002C20190BC
:103645000432E0C4131313540130E01AC390042369
:10365500E0942C900422E09401400990042EE0446B
:1036650080F08002C201900431E030E01AC390047A
:1036750025E0942C900424E09401400990042DE069
:103685004401F08002C201900431E0C31330E01A16
:10369500C3900427E0942C900426E09401400990FF
:1036A500042DE04402F08002C201900431E01313BE
:1036B500543F30E01AC3900429E0942C900428E08C
:1036C5009401400990042DE04404F08002C2019069
:1036D5000431E0131313541F30E01AC390042BE098
:1036E500942C90042AE09401400990042DE04408AC
:1036F500F08002C201900430E0FCA3E0FDA3E0FEEF
:10370500A3E0FF900446122C1490042CE0FCA3E0E7
:10371500FDA3E0FEA3E0FF90044A122C14E4FDFF94
:0837250012136F1260C7A2012C
:01372D002279
:10635A00780490043BE0FCA3E0FDA3E0FEA3E0FF89
:07636A00122BEEEF540FFFB0
:10637100EFC3940AEF50052430FE80032437FEAFAB
:016381000615
:0163820022F8
:1064CC00C007900444E0FCA3E0FDA3E0FEA3E0FFC2
:0B64DC00900449122C14D007026596B2
:101FB500123415500302222E9004437401F090044C
:101FC5002CE0FCA3E0FDA3E0FEA3E0FF900400E00D
:101FD500F8A3E0F9A3E0FAA3E06FFFEA6EFEE96D6E
:101FE500FDE86CFC90043B122C1490043BE0FCA330
:101FF500E0FDA3E0FEA3E0FF7810122BEE780412BB
:10200500636AAB079004587407F0A37401F07D0868
:10201500E4FF124FE990043BE0FCA3E0FDA3E0FEE2
:10202500A3E0FF781012636AAB079004587407F0B9
:10203500A37401F07D087F06124FE990043BE0FC94
:10204500A3E0FDA3E0FEA3E0FF7808122BEE7804E1
:1020550012636AAB079004587407F0A37401F07D0E
:10206500087F0C124FE990043BE0FCA3E0FDA3E0E0
:10207500FEA3E0FF780812636AAB07900458740763
:10208500F0A37401F07D087F12124FE990043BE044
:10209500FCA3E0FDA3E0FEA3E0FF780412636AABB6
:1020A500079004587407F0A37401F07D087F181297
:1020B5004FE990043BE0FCA3E0FDA3E0FEA3E05460
:1020C5000FFF126371AB079004587407F0A37401F6
:1020D500F07D087F1E124FE97BFF7A5C796C9004D6
:1020E500537407F0A37401F07D18E4FF124A5A12E5
:1020F50060C790045EE0FCA3E0FDA3E0FEA3E0243E
:1021050001FFE43EFEE43DFDE43CFC90045E122C40
:102115001490046DE070417B017A04793F90044886
:102125007404F07F3212610990043FE0FCA3E0FDE6
:10213500A3E0FEA3E02401FFE43EFEE43DFDE43C14
:10214500FC90043F122C147B017A04793F900448DB
:102155007404F07F320221EA90046DE0640170405E
:102165007B017A04793F9004487404F07F4812613A
:102175000990043FE0FCA3E0FDA3E0FEA3E02401F9
:10218500FFE43EFEE43DFDE43CFC90043F122C14CC
:102195007B017A04793F9004487404F07F488045B8
:1021A50090046DE0B402417B017A04793F900448C4
:1021B5007404F07F6412610990043FE0FCA3E0FD24
:1021C500A3E0FEA3E02401FFE43EFEE43DFDE43C84
:1021D500FC90043F122C147B017A04793F9004484B
:1021E5007404F07F641263077B017A04793F9004DD
:1021F500487404F07F8012610990043FE0FCA3E07D
:10220500FDA3E0FEA3E02401FFE43EFEE43DFDE482
:102215003CFC90043F122C147B017A04793F900416
:10222500487404F07F80022446E4900443F07BFF69
:102235007A5C79739004537407F0A37401F07D08F8
:10224500E4FF124A5A7BFF7A5C797A90045374074B
:10225500F0A37401F07D18E4FF124A5A1260C7908A
:102265000430E0FCA3E0FDA3E0FEA3E02401FFE4CD
:102275003EFEE43DFDE43CFC900430122C14900439
:102285006DE0600464017041E47FFFFEFDFC900495
:1022950030E0F8A3E0F9A3E0FAA3E0FBD3122BDDCD
:1022A500400A900430122C200000000090046DE0DC
:1022B5007B017A04793090044870077404F0E4FFD8
:1022C50080487404F07F08804190046DE0B4023DBD
:1022D50090047CE0FCA3E0FDA3E0FEA3E0FF9004F6
:1022E50030E0F8A3E0F9A3E0FAA3E0FBC3122BDD8D
:1022F500400A900430122C20000000007B017A0473
:1023050079309004487404F07F16126307900462D4
:10231500E0FCA3E0FDA3E0FEA3E02401FFE43EFE14
:10232500E43DFDE43CFC900462122C1490046DE045
:1023350070417B017A04793F9004487404F07F244E
:1023450012610990043FE0FCA3E0FDA3E0FEA3E0D9
:102355002401FFE43EFEE43DFDE43CFC90043F1215
:102365002C147B017A04793F9004487404F07F248F
:1023750002240590046DE0640170407B017A0479C4
:102385003F9004487404F07F4012610990043FE0D7
:10239500FCA3E0FDA3E0FEA3E02401FFE43EFEE490
:1023A5003DFDE43CFC90043F122C147B017A04793A
:1023B5003F9004487404F07F40804590046DE0B47C
:1023C50002417B017A04793F9004487404F07F56FA
:1023D50012610990043FE0FCA3E0FDA3E0FEA3E049
:1023E5002401FFE43EFEE43DFDE43CFC90043F1285
:1023F5002C147B017A04793F9004487404F07F56CD
:102405001263077B017A04793F9004487404F07FD6
:102415007212610990043FE0FCA3E0FDA3E0FEA376
:10242500E02401FFE43EFEE43DFDE43CFC90043F76
:10243500122C147B017A04793F9004487404F07FD0
:0C24450072126307900443E0FF0264CCB5
:1065AC0090043B122C147B017A04793B7D04126419
:0665BC00B1D2C6C2872225
:10638300C2C7124903900430E0FCA3E0FDA3E0FE82
:10639300A3E0FF1265AC90046BE0B401030080F648
:0963A3001242D91261F2021FB589
:1030950078007C007D017B017A0279007E027F0049
:1030A5001229AF9004427420F0A374FFF0A3745C5E
:1030B500F0A37481F0A3E4F0A3F0A3F0F9A3C9F0A1
:1030C500A3F0A3E9F07B78E4FDFF125EB77B017AFC
:1030D50004796F122CD590046DE0FFE4FD125B00BE
:1030E50090043B122C1490046DE070087BFF7A5C11
:1030F5007986801390046DE07BFFB401067A5C79D4
:103105009180047A5C799C9004537407F0A3740150
:10311500F07D027F1E124A5A7BFF7A5C79A09004EB
:10312500537407F0A37401F07D0B7F02124A5A9085
:10313500043BE0FCA3E0FDA3E0FEA3E0FF78101252
:103145002BEE780412636AAB079004587407F0A35A
:103155007401F07D0B7F16124FE9781012635CAB9A
:10316500079004587407F0A37401F07D0B7F1C12BF
:103175004FE990043BE0FCA3E0FDA3E0FEA3E0FFE4
:103185007808122BEE780412636AAB079004587422
:1031950007F0A37401F07D0B7F22124FE990043BE9
:1031A500E0FCA3E0FDA3E0FEA3E0FF780812636A5C
:1031B500AB079004587407F0A37401F07D0B7F28CA
:1031C500124FE912635AAB079004587407F0A374C1
:1031D50001F07D0B7F2E124FE990043BE0FCA3E04C
:1031E500FDA3E0FEA3E0540FFF126371AB0790044B
