:10391D003D3D3D3D3D3D3D3D3D3D3D3D3D3D3D3DCA
:10392D003D3D3D3D3D3D3D3D3D3D3D3D3D3D3D3DBA
:10393D003D3D3D3D3D3D3D3D3D3D3D3D3D3D3D3DAA
:10394D003D3D3D3D3D3D3D0A002A2A2A2A2A2A2A8F
:10395D002A2A2A2A2A2A2A2A2A2A2A2A2A2A2042AC
:10396D0075726E20436F64652058202A2A2A2A2AF0
:10397D002A2A2A2A2A2A2A2A2A2A2A2A2A2A2A2A9A
:10398D000A002A2020202020202020202020202056
:10399D00202020202020202020202020202020201A
:1039AD00202020202020202020202020202020200A
:1039BD0020202020202020202A0A002A202020201C
:1039CD0056657273696F6E3A2053444B312E303009
:1039DD002E30302831313A32303A31362041707242
:1039ED002032202032303135292020202020202067
:1039FD00202A0A002A2020202020417574686F7229
:103A0D003A204C69616F6B657972653C4C69616FE9
:103A1D006B6579726540666F786D61696C2E636F49
:103A2D006D3E20202020202020202A0A002A202040
:103A3D00417574686F723A20436865727279407986
:103A4D006373656D692E636F6D2E636E20407961B2
:103A5D006E6368656E6720636F6D70616E7920208F
:103A6D002020202A0A002A2A2A2A2A2A2A2A2A2A11
:103A7D002A2A2A2A2A2A2A2A2A2A2A2A2A2A2A2A99
:103A8D002A2A2A2A2A2A2A2A2A2A2A2A2A2A2A2A89
:103A9D002A2A2A2A2A2A2A2A2A2A2A2A2A0A000AE3
:103AAD000A0A53797374656D204C6F6164696E6792
:103ABD002E2E2E0A000A0A0A53797374656D204C56
:103ACD006F6164204F6B210A00594553004E4F0022
:103ADD004552415345204D454D4F5252592E2E2E94
:103AED0000455241534520444F4E452100446F201F
:103AFD00796F752077616E7420636C6561722061DA
:103B0D006C6C206D656D6F7272793F004445434F4B
:033B1D004445001C
:10557A00900474EFF0A3EDF0A3EBF0900451E090E7
:10558A000477F0900452E0F9A3E0FAA3E0900478DB
:10559A00C9F0A3EAF0A3E9F0900455E0F9A3E0FA10
:1055AA00A3E090047BC9F0A3EAF0A3E9F0900458C1
:1055BA00E0F9A3E0FAA3E090047EC9F0A3EAF0A31D
:0355CA00E9F022E3
:10534D007BFF7A39791D1258E37BFF7A3979561232
:10535D0058E37BFF7A39798F1258E37BFF7A3979DD
:10536D00C81258E37BFF7A3A79011258E37BFF7A32
:10537D003A793A1258E37BFF7A39798F1258E37BE9
:10538D00FF7A3A79731258E37BFF7A39791D1258F7
:10539D00E37BFF7A3A79AC1258E37BFF7A3A79C214
:0353AD000258E3C0
:105412007B017A0479C49004487404F07F10125717
:10542200C874FFFFFEFDFC9004C4E0F8A3E0F9A3FA
:10543200E0FAA3E0FBC3122A7A60177FFF7EFF7DAA
:105442000F7C009004C4E0F8A3A3A3E0D3122A7A4D
:10545200401B90046D122ABD000000007B017A04FB
:0D546200796D9004487404F07F10125A5DBB
:01546F00221A
:105B0200124D6812591D7B01E4FDFF124CA3900453
:105B120039741EF0A37401F07B7C7D1A7F2412522B
:045B2200E3025786BD
:10587B00E4F591F592F595F596F5B1F5B2F5B3F52D
:10588B00B4F5C9F5CAF593F59443B4227591FFF5B8
:10589B00925395074396F843B10453B1FB53C9DFB9
:0458AB0043CA2022AA
:1057430012587B125D35125D28125D4C125B0212FA
:105753005D1AE4900481F0900468122ABD000000F1
:1057630000900464122ABD00000000C2C6D287E480
:10577300900471F090046C04F0E4900473F0C2C7D9
:03578300C2CD2272
:10348C00E490043AF0900439F0900438F09004374A
:10349C00F0900436F0FF124B080236B9900436E077
:1034AC0060030236E89004D3E060F19004D1E0149C
:1034BC0070030236D224FE700302356214700302CC
:1034CC0035F1240270D6E49004D3F090048104F01A
:1034DC00900437E06072900439E06401704FA3E00F
:1034EC00FF04F0EFC394014002E4F07BFF7A3A79D9
:1034FC00D6900453740CF090043AE070047F018071
:10350C00027F00900454EFF07D147F461244077B39
:10351C00FF7A3A79DA900453740CF090043AE09004
:10352C000454F07D147F6E1244070236B9900438AF
:10353C00E0FF14F0EFD3940050037403F0900438C0
:10354C00E0FF1245160236B990046C7402F0900438
:10355C003614F00234A8E49004D3F090048104F003
:10356C00900437E06072900439E064017050A3E07D
:10357C00FF14F0EFD3940050037401F07BFF7A3A00
:10358C0079D6900453740CF090043AE070047F01E7
:10359C0080027F00900454EFF07D147F46124407A4
:1035AC007BFF7A3A79DA900453740CF090043AE089
:1035BC00900454F07D147F6E1244070236B99004C7
:1035CC0038E0FF04F0EFC394034002E4F0900438B9
:1035DC00E0FF1245160236B990046C7401F09004A9
:1035EC0036F00234A8E49004D3F090048104F090F7
:1035FC000437E070030236BFA3E0640260030234B8
:10360C00A8A3E064017059A3E0603D12591D7BFF33
:10361C007A3A79DD900453740CF0A37401F07D0AAE
:10362C007F021244071257861256B612591D7BFFA1
:10363C007A3A79EE900453740CF0A37401F07D0A7D
:10364C007F0212440712578612591D900438E0FF6E
:10365C00124516125786E4900439F0A3F00234A8F0
:10366C009004397401F012591D7BFF7A3A79FA9063
:10367C000453740CF0A37401F0E4FD7F02124407B0
:10368C007BFF7A3A79D6900453740CF0A37401F052
:10369C007D147F461244077BFF7A3A79DA90045303
:1036AC00740CF0E4A3F07D147F6E1244071257865D
:1036BC000234A812591D900438E0FF124516125717
:1036CC00869004378010E49004D3F090048104F0C9
:0C36DC0012591D9004367401F00234A84D
:0136E80022BF
:1042D000E4900438F0900437F0900436F07F011237
:1042E0004B080243C3900436E060030243F290049B
:1042F000D3E060F19004D1E01470030243DC24FEAB
:10430000603C14606E240270DCE49004D3F09004EE
:104310008104F0900437E06019A3E0FF14F0EFD3BC
:10432000940050037403F0900438E0FF1246310209
:1043300043C3E490046CF090043604F080A7E4904A
:1043400004D3F090048104F0900437E06017A3E0F8
:10435000FF04F0EFC394034002E4F0900438E0FF60
:10436000124631805E90046C7402F090043614F0B2
:104370000242E5E49004D3F090048104F090043705
:10438000E06046A3E0B4030A12591D90043674019C
:10439000F02212591D900438E0FF900472F0FB9057
:1043A0000468122ABD00000000900464122ABD00B7
:1043B000000000AF0312320B12591D900438E0FFC9
:1043C0001246311257860242E512591D900438E018
:1043D000FF1246311257869004378010E49004D3C0
:1043E000F090048104F012591D9004367401F0021B
:0243F00042E5A4
:0143F20022A8
:1036E900900438122ABD00000000E4900437F090DD
:1036F9000436F0125C7B7F02124B08125786900445
:1037090036E0600302391CA3E0700302386D9004AF
:1037190096A3A3A3E0540FFFE4FEFDFCFBFAF9F81E
:10372900C3122A7A6014900496E0FCA3E0FDA3E09A
:10373900FEA3E0FF900438122AB1900438E0FCA3FC
:10374900E0FDA3E0FEA3E0FFEC4D4E4F700302380D
:103759006D900438A3A3A3E07810122A8B78041281
:103769002A8BEF540FFFE4125AC7AB0790045A741F
:103779000CF0A37401F07D107F2412484D90043899
:10378900E0FCA3E0FDA3E0FEA3E0FF7810122A8B82
:10379900EF540FFFE4125AC7AB0790045A740CF0A8
:1037A900A37401F07D107F2A12484D900438E0FC83
:1037B900A3E0FDA3E0FEA3E0FF7808122A8B7804BA
:1037C900122A8BEF540FFFE4125AC7AB0790045A21
:1037D900740CF0A37401F07D107F3612484D9004EB
:1037E90038E0FCA3E0FDA3E0FEA3E0FF7808122A7D
:1037F9008BEF540FFFE4125AC7AB0790045A740CAD
:10380900F0A37401F07D107F3C12484D900438E01C
:10381900FCA3E0FDA3E0FEA3E0FF7804122A8BEFEE
:10382900540FFFE4125AC7AB0790045A740CF0A363
:103839007401F07D107F4812484D900438E0FCA3D4
:10384900E0FDA3E0FEA3E0540FFFE4125AC7AB0763
:1038590090045A740CF0A37401F07D107F4E124845
:103869004D1257869004D3E070030237079004D1B4
:10387900E014700302390624FE602A14604724020A
:103889006003023707E49004D3F090048104F090B8
:103899000437E0600302370790046C7401F0900468
:1038A90036F0023707E49004D3F090048104F090D5
:1038B9000437E06003023707E490046CF0900436A3
:1038C90004F0023707E49004D3F090048104F090E7
:1038D9000437E06003023707125C6312591D7BFF4E
:1038E9007A3B7919900453740CF0A37401F0E4FD48
:1038F9007F2E1244071257869004378010E49004F3
:10390900D3F090048104F012591D9004367401F02B
:033919000237076B
:01391C002288
:0100060022D7
:10584300C2C1125743D2C112534DD2AFC2C1900449
:105853006D122ABD0000000112591D90046CE01462
:10586300600C14600E240270F212348C80ED12422C
:08587300D080E81236E980E361
:02597800C180EC
:075D6B000000007F18DFFEBD
:015D7200220E
:05000E00120013D2A155
:070013000000007F0ADFFE80
:01001A0022C3
:0A5D410000007F6C7E90DEFEDFFCA8
:015D4B002235
:105B8D00125D6BD2A1125D6BD2A2125D6BA2A282CD
:0F5B9D00A1500AC2A2125D6BC2A1025D6BC322AE
:105D0A00125D6BC2A2125D6BD2A1125D6BD2A2228E
:0C580700AC07125B8D7FA0125813AF0499
:02581300AE07DE
:10581500E4FD120013EE30E704D2A28002C2A21208
:10582500000EC2A1EE25E0FE0DEDB408E512001351
:0D583500D2A212000EA2A29200C2A1A200F7
:015842002243
:0259D800AE0718
:1059DA00E4FD120013D2A2FCED25E0FD12000E3008
:1059EA00A2010DC2A10CECB408EE120013D2A2EE71
:0B59FA006002C2A212000EC2A1AF05A5
:015A0500227E
:105CAA00AC05AB07125B8D7FA0125813AF031258D5
:045CBA000E025D0A6F
:105A5D00125807900448E0FF14F0EF60161228C7A3
:105A6D00FF125813740129F9E43AFA0CECC394FFB0
:0A5A7D0040E122125D0A125D412291
:105C3300125807125B8D7FA1125813E4FF1259D833
:075C4300AE07125D0AAF0677
:015C4A002237
:1057C800AC07900448E06036125809125B8D7FA13F
:1057D800125813E014F0900448E0FF14F0EF601240
:1057E8007F011259D8EF12290D740129F9E43AFA08
:0F57F80080E4E4FF1259D8EF12290D125D0A2246
:1056B60090045A741EF0A37401F07B7E7D1AE4FFF9
:1056C600125470E490043BF090043BE0FFC394FF57
:1056D6005025E4FD125CAAE0C31304FB90045A743F
:1056E6001DF0A37401F07D1BFF1250151257869012
:0756F600043BE004F080D149
:0156FD00228A
:0556FE0090043FEFF0F5
:1057030070107B017A0479409004487404F0E4FF3C
:10571300801C90043FE07B017A047940900448B4F4
:1057230001077404F07F0880057404F07F16125794
:0F573300C8900440E0FCA3E0FDA3E0FEA3E0FF6C
:015742002244
:0552660090043FEFF091
:10526B00ED7031E070107B017A0479409004487442
:10527B0004F07F24805090043FE07B017A04794056
:10528B00900448B401077404F07F4080397404F033
:10529B007F56803290043FE070107B017A04794096
:1052AB009004487404F07F32801C90043FE07B0133
:1052BB007A047940900448B401077404F07F488065
:1052CB00057404F07F641257C8900440E0FCA3E01F
:0752DB00FDA3E0FEA3E0FFCC
:0152E20022A9
:10002600312E565436323533382D423100322E5663
:100036005436323533382D423200332E434F420088
:10004600342E52455455524E00312E5345542053AA
:10005600454E00322E5345542041444400332E452C
:100066005241534500534144443A00524144443AB4
:10007600000000000000000000005F000000000714
:1000860000070000147F147F1400242A7F2A120020
:100096002313086462003649552250000005030008
:1000A6000000001C224100000041221C0000140830
:1000B6003E08140008083E08080000503000000002
:1000C6000808080808000060600000002010080406
:1000D60002003E5149453E0000427F400000426119
:1000E600514946002141454B31001814127F10003A
:1000F6002745454539003C4A494930000171090503
:100106000300364949493600064949291E0000368A
:100116003600000000563600000008142241000098
:100126001414141414000041221408000201510989
:100136000600324979413E007E1111117E007F4949
:10014600494936003E41414122007F4141221C007F
:100156007F49494941007F09090901003E41494952
:100166007A007F0808087F0000417F410000204098
:10017600413F01007F08142241007F40404040007B
:100186007F020C027F007F0408107F003E41414140
:100196003E007F09090906003E4151215E007F09A4
:1001A6001929460046494949310001017F010100EC
:1001B6003F4040403F001F2040201F003F40384046
:1001C6003F006314081463000708700807006151B4
:1001D60049454300007F4141000002040810200009
:1001E6000041417F000004020102040040404040FB
:1001F60040000001020400002054545478007F4857
:1002060044443800384444442000384444487F007D
:10021600385454541800087E090102000C525252F8
:100226003E007F080404780000447D400000204022
:10023600443D00007F102844000000417F4000003C
:100246007C04180478007C0804047800384444448C
:1002560038007C1414140800081414187C007C0858
:1002660004040800485454542000043F444020002D
:100276003C4040207C001C2040201C003C4030407C
:100286003C004428102844000C5050503C00446464
:10029600544C440000083641000000007F00000076
:1002A6000041360800001008081008000000000091
:1002B60000000000000000000000003F40000000B9
:1002C600000000000030004000300040000000093F
:1002D600000BC03D000BC03D00090018C024407F44
:1002E600E0224031800000180024C01B000D80323F
:1002F60040018003801C4027401C800740004010BE
:100306000060000000000000000000000000000087
:10031600001F80204040200000402020401F800019
:10032600000000090006001F800600090000000406
:100336000004003F8004000400000000100060007C
:100346000000000000000004000400040004000493
:100356000000000000004000000000000000000057
:100366002001C006003800400000001F8020402009
:100376004020401F800000000010403FC0004000A9
:1003860000000018C0214022402440184000001000
:10039600802040244024401B80000002000D0011F4
:1003A600003FC0014000003C8024402440244023FC
:1003B6008000001F80244024403440038000003029
:1003C60000200027C03800200000001B80244024A5
:1003D6004024401B8000001C0022C0224022401FF7
:1003E600800000000000000840000000000000003F
:1003F6000000000460000000000000000004000A85
:100406000011002080404009000900090009000988
:1004160000000000004040208011000A000400187F
:1004260000200023402400180000001F80204027E1
:100436004029401F400000004007C039000F00015E
:10044600C0004020403FC0244024401B8000001FC5
:10045600802040204020403080000020403FC020C7
:100466004020401F80000020403FC024402E4030E6
:10047600C0000020403FC024402E00300000000F86
:10048600001080204022403380020020403FC004FC
:100496000004003FC02040204020403FC0204020B4
:1004A6004000000060202020203FC02000200020C7
:1004B600403FC024400B0030C0204020403FC020B9
:1004C600400040004000C03FC03C0003C03C003F2D
:1004D600C0000020403FC00C4023003FC020001F4A
:1004E600802040204020401F80000020403FC02444
:1004F600402400180000001F802140214020E01FFA
:10050600A0000020403FC02440260019C00040182B
:10051600C024402440224031800000300020403F6B
:10052600C020403000000020003F80004000403FD7
:1005360080200020003E0001C0070038002000385F
:100546000007C03C0007C038000000204039C00644
:100556000039C0204000002000384007C038402045
:10056600000000304021C02640384020C000000076
:100576000000007FE0402040200000000070000CDA
:10058600000380004000000000402040207FE00083
:1005960000000000002000400020000000000000D5
:1005A60010001000100010001000100000000040A5
:1005B6000000000000000000000280054005400326
:1005C600C0004020003FC0044004400380000000FB
:1005D600000380044004400640000000000380043D
:1005E6004024403FC0004000000380054005400312
:1005F600400000000004401FC024402440200000AA
:100606000002E0055005500650042020403FC0047B
:1006160040040003C000400000044027C000400022
:1006260000000000100010041027E0000000002069
:10063600403FC00140070004C00440204020403F26
:10064600C000400040000007C0040007C0040003CB
:10065600C00000044007C00440040003C00040007E
:100666000003800440044003800000041007F004E7
:10067600500440038000000000038004400450073B
:10068600F00010044007C00240040004000000000F
:100696000006400540054004C00000000004001F9D
:1006A600800440004000000400078000400440072A
:1006B600C000400400070004C001800600040006D4
:1006C6000001C0070001C006000000044006C0018A
:1006D6000006C0044000000410071004E001800674
:1006E6000004000000044005C0064004400000006D
:1006F60000000004007BE040200000000000000035
:1007060000FFF000000000000040207BE004000035
:100716000000004000800040002000200040000053
:1007260000000000000000000000000000000000C3
:1007360000000000001FCC000C00000000000000BC
:100746000008003000600008003000600000000271
:100756002003FC1E20022003FC1E200220000000B5
:10076600000E1811043FFF10840C78000000000FE3
:100776000010840F3800C007781884007800000045
:10078600780F8410C411240E9800E4008400080831
:10079600006800700000000000000000000000007B
:1007A600000000000007E0181820044002000000C6
:1007B6000040022004181807E000000000000002B4
:1007C60040024001800FF00180024002400000001C
:1007D60080008000800FF80080008000800000000C
:1007E60001000D000E0000000000000000000000E7
:1007F6000000800080008000800080008000800073
:1008060000000C000C0000000000000000000000CA
:100816000000060018006001800600180020000095
:100826000007F0080810041004080807F00000008C
:1008360000080408041FFC00040004000000000077
:10084600000E0C10141024104411840E0C0000002D
:10085600000C1810041104110412880C700000001A
:100866000000E00320042408241FFC0024000000EC
:10087600001F9810841104110410881070000000E5
:100886000007F008881104110418880070000000A1
:10089600001C00100010FC13001C001000000000DB
:1008A600000E3811441084108411440E38000000E4
:1008B600000700088C10441044088807F000000068
:1008C6000000000000030C030C0000000000000004
:1008D600000000000101060000000000000000000A
:1008E60000008001400220041008081004000002E5
:1008F6002002200220022002200220022000000006
:1009060000100408080410022001400080000000C6
:10091600000E001200100C106C10800F0000000377
:10092600E00C1813E4142417C4082807D0000000AC
:1009360004003C03C41C40074000E4001C000410F3
:10094600041FFC1104110411040E8800700000033A
:10095600E00C1810041004100410081C10000010FD
:10096600041FFC100410041004080807F00000100F
:10097600041FFC1104110417C41004081800001009
:10098600041FFC1104110017C0100008000000032A
:10099600E00C181004100410441C780040000010ED
:1009A600041FFC10840080008010841FFC100400CB
:1009B60000100410041FFC100410040000000000C6
:1009C600030001100110011FFE10001000000010AE
:1009D600041FFC110403801464181C10040000108A
:1009E600041FFC1004000400040004000C000010A6
:1009F600041FFC1F0000FC1F001FFC100400001059
:100A0600041FFC0C04030000E010181FFC10000774
:100A1600F00808100410041004080807F00000107D
:100A2600041FFC10841080108010800F0000000747
:100A3600F0081810241024101C080A07F2000010F1
:100A4600041FFC1104110011C011300E0C0004002B
:100A5600000E1C11041084108410441C3800001869
:100A660000100010041FFC100410001800000010F5
:100A7600001FF810040004000410041FF8100010F2
:100A8600001E0011E0001C007013801C0010001FE7
:100A9600C0103C00E01F0000E0103C1FC00000102A
:100AA60004180C163401C001C01634180C100410BA
:100AB600001C00130400FC13041C001000000008B6
:100AC60004101C1064108413041C04101800000089
:100AD60000000000007FFE400240024002000000CD
:100AE6000030000C0003800060001C0003000000C2
:100AF600004002400240027FFE00000000000000AD
:100B060000000020004000400040002000000000DF
:100B160001000100010001000100010001000100C7
:100B2600004000400020000000000000000000001F
:100B3600000098012401440144014400FC00041013
:100B4600001FFC00880104010400880070000000FA
:100B56000000700088010401040104008800000000
:100B660000007000880104010411081FFC00040045
:100B76000000F8014401440144014400C80000009B
:100B860000010401040FFC110411041100180000F7
:100B96000000D601290129012901C901060000101A
:100BA600041FFC008401000100010400FC00040095
:100BB600000104190419FC000400040000000000F0
:100BC60000000300010101190119FE0000000010D8
:100BD600041FFC0024004001B4010C0104000000C5
:100BE60000100410041FFC000400040000000001B3
:100BF6000401FC0104010001FC0104010000FC01E8
:100C06000401FC008401000100010400FC00040052
:100C16000000F8010401040104010400F8000001C9
:100C26000101FF0085010401040088007000000036
:100C3600000070008801040104010501FF000101A4
:100C460004010401FC00840104010001800000008D
:100C56000000CC0124012401240124019800000095
:100C6600000100010007F801040104000000000172
:100C76000001F8000400040004010801FC0004015E
:100C86000001800170000C0010016001800100016C
:100C9600F0010C003001C00030010C01F001000031
:100CA600000104018C00740170018C010400000134
:100CB6000101810171000E00180160018001000030
:100CC600000184010C013401440184010C00000080
:100CD6000000000000000001003EFC40024002004F
:100CE60000000000000000FFFF0000000000000000
:100CF60000400240023EFC0100000000000000002F
:100D0600006000800080004000400020002000407D
:100D1600107FF84910491049207FFF48A088814874
:100D260082388C0FF01888E8844883088200000017
:100D36008041004FFC7210421043F900014FF24807
:100D46000458186BE0481048084FE64003000000BE
:100D560080010006001FFFE00050801480148014FC
:100D660080FFFF14801484148214FC00000000002D
:100D7600040804060401C40084FFFC000400040007
:100D860004FFFC0044018406041C0C080400000057
:100D96000000001FF01220122012201220FFFC1269
:100DA600221222122212221FF20002000E0000005E
:100DB6008000804080408040804082408147FE48DD
:100DC60080508060804080008001800080000008A4
:100DD60020484049804E007FFF8A00892000204439
:100DE60020334000400040FFFF00800080000010DC
:100DF6008010821101FFFE12001402000213041279
:100E0600C81230FE30124813841206100400000087
:100E1600000002000200020002000200027FFE0241
:100E260002020202020202020200060002000000A2
:100E3600004000400040004000400040007FFE446B
:100E4600004600438041004000C0004000000042D0
:100E56000842087FF04211429207040018FFE000A2
:100E660004420442047FFC4204420442040000029D
:100E7600004200320023FE0004440855FF55505539
:100E860050FD505552555155FE44000400000000D7
:100E960000010107027904111811E01100FF001189
:100EA6000011FC1102110211020102000E000000E5
:100EB60020802080209FFF922092209220FFE092A7
:100EC60020922292219FFE80208020002000000098
:100ED60040008151014A0146F55A9362910291E21E
:100EE600911A9326F54A0113012181010000007F22
:100EF600FF40004840542063C0113E110411041104
:100F060004FFFC110411041104113E01000000004D
:100F1600101110111011101110FFFF000000000039
:100F260000FFFF1110111011101110101000000811
:100F3600200620807F6180060210021082108290B7
:100F4600827FFE1082108210821082100200000240
:100F560002020CFFF082048202FFFC02020204027B
:100F660018FFE082048202FFFC020002000000007B
:100F7600010002000C7FF044404440444044407F5E
:100F8600FF44404440444244417FFE0000000000CC
:100F9600010002000C1FF011001100110091005118
:100FA6000071001100110011001F0000000000FF79
:100FB600FFFFFF8000000180000001860000018F16
:100FC6000000018F803E0187C07F7583E0735581E5
:100FD600F0F35580F9FF55807FFF5D803FFE01806D
:100FE6001FFC01801FF87D83FFF8558FFFF0559F8A
:100FF600FFE055BFFFE055BFFFFC01BC3F3E01B817
:101006001F3F41B01F3F41801F1F7D801F0E418043
:101016003E0041807E000180FC000181FC000181D0
:10102600F000018000000180000001FFFFFFFFFFCC
:10103600FFFFFF80000001800000018000000180AA
:101046000000018000000180040001800C007D800A
:101056000C0045801C0145801C0345803C0701802F
:101066007C0E01807C1C7D80FC3C0581FC78058122
:10107600FCF07D83DDE001879FC001871F80418EE4
:101086001F00419C1E007DB81C0041B0180041A005
:10109600180001801000018000000180000001801E
:1010A6000000018000000180000001FFFFFFFFFF3C
:1010B600FFFFFF800000018000000180000001802A
:1010C600000041800000418000007D8000004180DA
:1010D600000041800000018000007D800000558FE7
:1010E600FFFC5587FFF85583FFF05581FFE001802F
:1010F600FFC075807F8055803F0055801E0055805B
:101106000C005D80000001800000418000004180ED
:1011160000007D80000041800000418000000180C9
:101126000000018000000180000001FFFFFFFF00BA
:1011360000000000000000080000000C0030000E57
:10114600003000070030000380300001C03000008E
:10115600C03000001FFFFE007FFFFE00F000000110
:10116600C0000003803000070030000E0030000C85
:10117600003000080030000000000007FF3C3C0F74
:10118600FFFC3E0E03F81E0C01F00E0C01F00E0CD7
:1011960001F00E0C01F00E0C01F00E0C01F00E0C1D
:1011A60001F00E0C01F81E0E03FFFE0F8FFFFE0767
:1011B6008F3FFC000000000000000000000000005F
:1011C6000000000000000000000000000000000019
:1011D6000000000000000000000000000000000009
:1011E6000000000000000000000000002040000099
:1011F6002180000027FE00003A08000022080000B7
:1012060023FC000001010000410600007FF80000F9
:101216004100000041000000410000007FFF000087
:101226004100000001000000000000000001000075
:10123600000600001FF80000110000001108000061
:101246001104000011F80000100100001002000057
:10125600FF84000010680000901800005064000031
:1012660013820000101F0000000000002410000080
:1012760024600000258000007FFF0000C5000000FC
:1012860044800000002000004420000033200000BD
:101296000020000000200000FFFF000000400000CA
:1012A6000040000000400000000000000820000090
:1012B6000822000008410000FFFE00000880000030
:1012C60009010000100100001102000011C2000017
:1012D60011340000FF080000111400001162000024
:1012E6001181000010010000000000000000000055
:1012F60000000000000000000000000000000000E8
:1013060000000000000000000000000000000000D7
:1013160000000000000000000000000000000000C7
:0F132600000000000000000000000000000000B8
:105A0600EF540FC454F0FEEF54F0C4540F4EFF543D
:105A16003325E025E0FEEF54CC1313543F4EFF54DC
:0C5A26005525E0FEEF54AAC3134EFF22EA
:105C1900EF4E60157D087C07ED1DAA0470011C4A32
:095C290070F6EF1F70EA1E80E71F
:015C3200224F
:105A8700ED6004D2A58002C2A5C2A3E4FEC2A6EFC0
:105A970030E704D2A78002C2A7D2A6EF25E0FF0E07
:085AA700EEB408E9D2A3D2A578
:015AAF0022D4
:105B6D00AC07ED24B0FFE4FD125A87EC54F0C45499
:105B7D000F4410FF125A87EC540F4401FF025A874D
:10578600E4FCEC24B4FFE4FD125A877F04125A8726
:105796007F10125A87E4FB75F004EBA42400F5820F
:1057A600E5F03402F583E5822CF582E43583F58352
:1057B600E0FF7D01125A870BEBB480DB0CECB404DE
:0157C600C121
:0157C70022BF
:07591600E490044EF0A3F041
:10591D00E4FFE4FE75F004EEA42400F582E5F03416
:10592D0002F583E5822FF582E43583F583E4F00EED
:09593D00EEB480E00FEFB404D9D0
:01594600223E
:0B4F6E00FFA3E0C399FD9004BEE0FB30
:104F7900E4900463F0EFD3947F4003025014ED945E
:104F89003F4003025014ED131313541FFEC374075B
:104F99009E900462F0ED5407FEC374079EFE7401EF
:104FA900A806088002C333D8FC900463F0EB900490
:104FB90062602AE0FE75F004EFA42400F582E5F0B2
:104FC9003402F583E5822EF582E43583F583C083C7
:104FD900C082E0FF900463E0FEEF4E8029E0FE7599
:104FE900F004EFA42400F582E5F03402F583E582AC
:104FF9002EF582E43583F583C083C082E0FF9004F7
:0B50090063E0F4FEEF5ED082D083F085
:015014002279
:0C402700FBED240990045AF0A37401F092
:0C403300900457EFF0A905900459EBF041
:10403F00E9FFA3E0C39FFEE4940090045CF0A3CEDD
:10404F00F0900457E0FFC3EB9FFEE4940090045EF2
:10405F00F0A3CEF090045CE0FEA3E0FFC3EE64801B
:10406F0094805015C3E49FFFE49E90045CF0A3EF8F
:10407F00F090046174FFF080069004617401F09079
:10408F00045EE0FEA3E0FFC3EE648094805013C390
:10409F00E49FFFE49E90045EF0A3EFF0A374FFF0A3
:1040AF0080069004607401F0900457E0FFAD01901A
:1040BF00045BE0FB124F7990045CE0FEA3E0FFA3EA
:1040CF00E0FAA3E0FBD39FEE6480F8EA64809840A7
:1040DF0059EAA2E713EB13FF90045CA3E0C39FFC24
:1040EF00900459E0FF900457E06F700302418CC3B6
:1040FF00EC648094804010900461E029F990045E94
:10410F00A3E0FFC3EC9FFC900460E0FF900457E036
:10411F002FF090045CA3E02CFC900457E0FFAD015E
:10412F0090045BE0FB124F7980B690045CE0A2E74D
:10413F0013A3E013FFA3A3E0C39FFC90045AE0690D
:10414F00603BC3EC648094804015900460E0FF9066
:10415F000457E02FF090045CA3E0FFC3EC9FFC90AA
:10416F000461E029F990045EA3E02CFC900457E071
:0D417F00FFAD0190045BE0FB124F7980BEA4
:01418C002210
:1058AF00FD9000021228E02F14FB9004607401F0A9
:0658BF00AC07AA03A905D5
:1058C500ECD39A4006AF02AA04AC07AF04AD019031
:0D58D5000460E0FB124F790CEAC39C50EE1A
:0158E20022A3
:065B2600AC05AA03A9076B
:105B2C00ECD39A4006AF02AA04AC07AF01AD0490C7
:0D5B3C00045FE0FB124F790CEAC39C50EEB1
:015B49002239
:10547000900457EFF0A3EDF0A3EBF090045BE09005
:105480000460F01258BF900457E0FF90045AE0FD0A
:10549000900459E0FB90045BE0900460F01258BF68
:1054A000900457E0FFA3E0FD90045AE0FBA3E090D6
:1054B000045FF0125B26900459E0FF900458E0FD71
:0E54C00090045AE0FBA3E090045FF0025B262C
:0F501500900458EDF0900457EFF0900459EBF031
:10502400EFD39B4016900457E0FF90045CF090048B
:1050340059E0900457F0900459EFF090045AE0FFBF
:10504400900458E0FED39F400F90045CEEF090046F
:1050540058EFF090045AEEF090045AE0FF90045890
:10506400E0FDB50715900457E0FF900459E0FB906C
:10507400045BE0900460F00258BF900459E0FF9094
:105084000457E06F602B90045AE0FF900458E0FD51
:10509400D39F501D900457E0FF900459E0FB900407
:1050A4005BE0900460F01258BF900458E004F08074
:0150B400D526
:0150B50022D8
:1055CD009004C8EFF0AE03A905EE6043EEFD900424
:1055DD00C8E02DFDE433FCD3ED9480EC6480948021
:1055ED00502DEEFDE92DFDE433FCD3ED9420EC645C
:1055FD00809480501A9004C8E0FFAD012EFBE92E77
:10560D0090045AF09004CBE090045BF01254702299
:10561D009004CCEFF0AE03A905EE6043EEFD9004CF
:10562D00CCE02DFDE433FCD3ED9480EC64809480CC
:10563D00502DEEFDE92DFDE433FCD3ED9420EC640B
:10564D00809480501A9004CCE0FFAD012EFBE92E22
:10565D0090045AF09004CFE090045BF012501522A4
:0E4A1E009004A5EBF0A3EAF0A3E9F0A3EDF0FD
:104A2C007003024B079004A8E0B401359004A5E094
:104A3C00FBA3E475F001122947A9F0FA1228C790DC
:104A4C0004AAF09004A5E0FBA3E0FAA3E0F9122875
:104A5C00C7FC9004AAE0FFAD049004A9E0FB124F40
:104A6C00799004A5E0FBA3E475F001122947A9F0A5
:104A7C00FA1228C79004AAF09004A5E0FBA3E475F1
:104A8C00F001122947A9F0FA1228C7FC9004AD7462
:104A9C0001F09004A8E0FF9004ADE0C39F505C903F
:104AAC0004A5E0FBA3E475F001122947A9F0FA1262
:104ABC0028C79004ABF09004A5E0FBA3E475F001CB
:104ACC00122947A9F0FA1228C79004ACF09004AA56
:104ADC00E0FFAD04A3E0FBA3E090045AF09004A91E
:104AEC00E090045BF01240339004ABE09004AAF029
:0B4AFC009004ACE0FCA3E004F0809705
:014B0700228B
:084E1C009004BAEFF0A3EDF0E1
:104E2400E4FCAF03A907EF25E0FFC374039FFAEC8A
:104E3400D3994003024EC49004BAE02CFFA3E029A6
:104E4400124F739004BAE02C124F6E9004BAE0C370
:104E54009CFFA3E029124F739004BAE0C39C124F45
:104E64006E9004BAE029FFA3E02C124F739004BAA9
:104E7400E029FFA3E0C39C124F739004BAE0C399E6
:104E8400FFA3E02C124F739004BAE0C399FFA3E090
:104E9400C39C124F73C3EA64809480500FAF040C18
:104EA400EF25E025E024062AFA024E33AF0119AEBD
:104EB400040CC3EE9F25E025E0240A2AFA024E33AF
:014EC40022CB
:0B239F0090044EEBF0A3EAF0A3E9F07D
:1023AA009000021228E0FEC39414401690044EE0F6
:1023BA00FBA3E0FAA3E0F99000031228E0C3941407
:1023CA0050037F0022EEFF1228C72FFFE433FED30B
:1023DA00EF9480EE6480948040037F002290044E44
:1023EA00E0FBA3E0FAA3E0F99000031228E0FF90D3
:1023FA0000011228E02FFFE433FED3EF9420EE64AD
:10240A0080948040037F002290044EE0FBA3E0FA10
:10241A00A3E0F91228C7FCFFC0079000011228E0C8
:10242A00FD9000021228E02C14FBC00390044EE039
:10243A00FB9000031228E0FF9000011228E02F14FD
:10244A0090045AF0E4A3F0D003D007125015900478
:10245A004EE0FBA3E0FAA3E0F91228C7FCFFC0078D
:10246A009000011228E0FD9000021228E02C14FBD3
:10247A00C00390044EE0FB9000031228E0FF900096
:10248A00011228E02F1490045AF0A37401F0D0032B
:10249A00D00712547090044EE0FBA3E0FAA3E0F9CF
:1024AA001228C7FF9000011228E024091258AF90A1
:1024BA00044EE0FBA3E0FAA3E0F99000021228E040
:1024CA00FF1228C72F24F6FF9000011228E0FD24EE
:1024DA0009FB90045F7401F0125B2690044EE0FB46
:1024EA00A3E0FAA3E0F99000021228E0FF1228C73D
:1024FA002FFE24F6FF9000011228E0FDEE14124090
:10250A002790044EE0FBA3E0FAA3E0F99000021240
:10251A0028E0FF1228C72FFE14FF9000011228E0BE
:10252A00FDEE24F612402790044EE0FBA3E0FAA346
:10253A00E0F9900004122AEEE94A70030225F990A4
:10254A00044EE0FBA3E0FAA3E0F9900004122AEE9D
:10255A00900451EBF0A3EAF0A3E9F090044EE0FBFB
:10256A00A3E0FAA3E0F91228C7FF2402900454F06A
:10257A009000011228E004900455F09000021228FD
:10258A00E02F14900456F0900454E0FF3395E0FED7
:10259A00EF2408FFE43EFE900456E0FD3395E0FC8C
:1025AA00D3EF9DEC6480F8EE648098504290045119
:1025BA00E0FBA3E0FAA3E0F91228C76032900454C2
:1025CA00E0FFA3E0FD900451E0FBA3E475F00112E3
:1025DA002947A9F0FA1228C7FB90045A7407F0A3F6
:1025EA007401F012484D900454E02406F08098904B
:1025FA00044EE0FBA3E0FAA3E0F9900007122AEEEA
:10260A00E94A70030226C290044EE0FBA3E0FAA353
:10261A00E0F9900007122AEE900451EBF0A3EAF0D9
:10262A00A3E9F090044EE0FBA3E0FAA3E0F9122834
:10263A00C7FF2402900454F09000011228E0240CF1
:10264A00900455F09000021228E02F14900456F0DE
:10265A00900454E0FF3395E0FEEF2408FFE43EFEC9
:10266A00900456E0FD3395E0FCD3EF9DEC6480F8CE
:10267A00EE6480985042900451E0FBA3E0FAA3E094
:10268A00F91228C76032900454E0FFA3E0FD9004D9
:10269A0051E0FBA3E475F001122947A9F0FA1228C8
:1026AA00C7FB90045A7407F0A37401F012484D90C6
:1026BA000454E02406F0809890044EE0FBA3E0FA6C
:1026CA00A3E0F990000A122AEEE94A70030227CE23
:1026DA0090044EE0FBA3E0FAA3E0F990000312286D
:1026EA00E0C3941950037F002290044EE0FBA3E05C
:1026FA00FAA3E0F91228C7FF9000031228E0FE901F
:10270A0000011228E02E24F61258AF90044EE0FB86
:10271A00A3E0FAA3E0F990000A122AEE900451EB22
:10272A00F0A3EAF0A3E9F090044EE0FBA3E0FAA3D9
:10273A00E0F91228C7FF2403900454F09000031212
:10274A0028E0FE9000011228E02E24F7900455F0AC
:10275A009000021228E02F14900456F0900454E0DE
:10276A00FF3395E0FEEF2408FFE43EFE900456E0B6
:10277A00FD3395E0FCD3EF9DEC6480F8EE6480981D
:10278A005042900451E0FBA3E0FAA3E0F91228C7F3
:10279A006032900454E0FFA3E0FD900451E0FBA3F3
:1027AA00E475F001122947A9F0FA1228C7FB900430
:1027BA005A7407F0A37401F012484D900454E024AF
:0627CA0006F080987F017B
:0127D00022E6
:0759A8009004C0EDF0A9031B
:1059AF00AC07ECD399501F9004C0E0FA9004C2E00A
:1059BF00FFEAD39F500DAF04AD02A3E0FB124F7966
:0959CF000A80E90C80DC02578615
:10483B00FFA3E02408FD90045A7407F0A37401F061
:02484B007B2DC3
:0C484D00900457EFF0900459EBF0A9051F
:1048590090045DE9F0900459E024E0F0E4FC900450
:104869005AE0FFECC39F400302492FEFB407299098
:104879000459E075F006A42477F582E5F03400F5D3
:1048890083E5822CF582E43583F583E493FF125A9C
:104899000690045CEFF0803890045AE0900459B413
:1048A9000C0FE075F00CA424B1F582E5F034028018
:1048B9000DE075F010A42425F582E5F03407F583A1
:1048C900E5822CF582E43583F583E49390045CF06A
:1048D900E4FA90045CE030E70E900457E0FFAD0184
:1048E90090045BE0FB8013900457E0FFAD01900456
:1048F9005BE070047B0180027B00124F7990045CBD
:10490900E025E0F009A3E0FFC3E99FFE90045AE027
:10491900B5060AA907900457E004F080050AEAB42D
:0649290008B00C02486713
:01492F002265
:08566D009004AEEFF0A3EDF094
:10567500A3122ABD000000019004AFE0FF14F0EF73
:105685006020A3E0F8A3E0F9A3E0FAA3E0FB90040F
:10569500AEE0FFE4FCFDFE12295D9004B0122AB1D4
:1056A50080D69004B0E0FCA3E0FDA3E0FEA3E0FFFC
:0156B50022D2
:084BDC0090049AEFF0A3EDF044
:104BE400E49004A4F09004A2F09004A0E0FF9004E8
:104BF400A2E0FEC39F4003024CA2C3EF9E14FD7FBC
:104C04000A12566DA804A905AA06AB0790049CE0F5
:104C1400FCA3E0FDA3E0FEA3E0FF1229E8E47B0A85
:104C2400FAF9F81229E89004A3EBF0A3E0703A90A3
:104C340004A0E014FF9004A2E0FEC39F502BA3E065
:104C440070219004A1E0FCC3138EF0A4FF90049A99
:104C5400E02FFFA3E0FD90045AECF0A37401F07B75
:104C640020802F9004A47401F09004A1E0FEC313EB
:104C7400FFA3E0FDEF8DF0A4FF90049AE02FFFA3C3
:104C8400E0FD9004A3E02430FB90045AEEF0A374FA
:0E4C940001F012484D9004A2E004F0024BED36
:014CA20022EF
:1043F3007A0079407BFF900453740CF0A37401F0AE
:04440300E4FD7F4E07
:1044070090044EEFF0A3EDF0A3EBF0A3EAF0A3E9DD
:10441700F0900450E0FBA3E0FAA3E0F91228C7707C
:1044270003024515900453E06410704C90044EE06D
:10443700D3947A4007E4F0A3E02410F090044FE00F
:10444700D39420400312591690044EE0FFA3E0FDD9
:10445700A3E0FBA3E0FAA3E0F91228C7FB90045AF4
:104467007410F0900454E090045BF012484D9004EF
:104477004EE02408F0024508900453E0640C7038BD
:1044870090044EE0D3947A4007E4F0A3E0240CF0C4
:1044970090044FE0D39420400312591690044EE045
:1044A700FFA3E0FDA3E0FBA3E0FAA3E0F91228C70E
:1044B700FB90045A740C803690044EE0D3947A40F3
:1044C70007E4F0A3E02408F090044FE0D3942040E1
:1044D7000312591690044EE0FFA3E0FDA3E0FBA3EF
:1044E700E0FAA3E0F91228C7FB90045A7407F0908A
:1044F7000454E090045BF012484D90044EE024060B
:0F450700F0900451E475F001122931024418229A
:0C514C009004B4EFF09004B6EBF0A9055D
:105158009004B9E9F0E4FCECC394109004B6E0754F
:10516800F020A42415F582E5F0340DF583E5822CB2
:10517800F582E43583F583E4939004B8F0E4FA907B
:1051880004B8E030E70E9004B4E0FFAD019004B736
:10519800E0FB80139004B4E0FFAD019004B7E07029
:1051A800047B0180027B00124F799004B8E025E06F
:1051B800F009A3E0FFC3E99FFEBE100AA907900407
:1051C800B4E004F080050AEAB408B40CEC6420707A
:0151D8008650
:0151D90022B3
:0B52E300900436EFF0A3EDF0A3EBF019
:1052EE00A3E090045AF090043AE090045BF012545C
:1052FE0070E490043BF0900436E0FF900438E0C375
:10530E009FFF90043BE0FEC39F5033900436E0FCB9
:10531E0004FFA3E004FDEC2EFB900439E01490048E
:10532E005AF090043AE090045BF012501512578632
:0E533E00125D41125D4190043BE004F080B826
:01534C00223E
:094CA300900436EBF0AC05A90702
:104CAC00ECFF90043DE4F0A3EFF0E4900439F0A3A2
:104CBC00F0900439E0FEA3E0FFC3EE94024003023F
:104CCC004D6774352FF58274113EF583E493FF9094
:104CDC000437E4F0A3EFF0E490043BF0A3F090046D
:104CEC0038E030E70BAF01AD04900436E0FB8010E8
:104CFC00AF01AD04900436E070047B0180027B00B0
:104D0C00124F79900438E025E0F0900437E033F04E
:104D1C000CECFF90043DE0FAA3E0FBC3EF9BFFE437
:104D2C009AFEEF64204E7005AC0309801D90043C84
:104D3C00E004F0700690043BE004F0C390043CE007
:104D4C00940890043BE09400409490043AE004F002
:0B4D5C007006900439E004F0024CBD2A
:014D67002229
:1047420090044074FFF0A37410F0A37435F07B0161
:04475200E4FD7F30D3
:0F47560090043DEFF090043FEBF090043EEDF047
:10476500FF900449E4F0A3EFF0E4900445F0A3F0D2
:10477500900440E0FBA3E0FAA3E0F91228C7FF90FC
:104785000443E4F0A3EFF0900441E475F00112292D
:1047950031E4900447F0A3F0900444E030E70D9035
:1047A500043DE0FFA3E0FDA3E0FB801290043DE0A3
:1047B500FFA3E0FDA3E070047B0180027B00124FA4
:1047C50079900444E025E0F0900443E033F0900450
:1047D5003EE004F0E0FF900449E0FCA3E0FDC3EFF8
:1047E5009DFFE49CFEEF64204E700D90043EEDF0BD
:1047F50090043DE004F0801D900448E004F070064C
:10480500900447E004F0C3900448E09408900447FE
:10481500E094004083900446E004F070069004455F
:10482500E004F0C3900446E09480900445E09400D1
:0548350050030247756D
:01483A00225B
:104B080090043CEFF090045A740CF0A37401F07B0D
:104B18003C7D0BE4FF12484D90045A740CF0A374CA
:104B280001F07B3E7D0B7F7812484D90043CE0708D
:104B38002D90044074FFF0A3740FF0A374B5F0E453
:104B4800FBFD7F0A12475612474290044074FFF05B
:104B5800A37410F0A374B5F07B01E4024BD5900464
:104B68003CE06401900440703D74FFF0A3740FF0C2
:104B7800A374B5F07B01E4FD7F0A12475690044008
:104B880074FFF0A37410F0A37435F0E4FBFD7F30DC
:104B980012475690044074FFF0A37410F0A374B544
:104BA800F07B01E4802774FFF0A3740FF0A374B5C1
:104BB800F07B01E4FD7F0A124756124742900440F9
:104BC80074FFF0A37410F0A374B5F0E4FBFD7F56F6
:044BD8001247562208
:10463100900439EFF070297BFF7A007926900453BA
:10464100740CF0E4A3F0FDFF1244077BFF7A0079BC
:1046510033900453740CF0A37401F07D0FE4802FA8
:10466100900439E0640170407BFF7A007926900460
:1046710053740CF0A37401F0E4FDFF1244077BFFB7
:104681007A007933900453740CF0E4A3F07D0FFFAA
:104691001244071243F37BFF7A0079469004537466
:1046A1000CF0A37401024739900439E064027BFFE6
:1046B1007A007926900453704A740CF0A37401F0C7
:1046C100E4FDFF1244077BFF7A00793390045374B1
:1046D1000CF0A37401F07D0FE4FF1244077BFF7A15
:1046E100007940900453740CF0E4A3F0FD7F4E1266
:1046F10044077BFF7A007946900453740CF0A3744D
:10470100018035740CF0A37401F0E4FDFF1244073D
:104711007BFF7A007933900453740CF0A37401F099
:104721007D0FE4FF1244071243F37BFF7A007946C1
:10473100900453740CF0E4A3F07D0F7F4E124407F4
:014741002255
:1045160090043BEFF070297BFF7A00794F900453AB
:10452600740CF0E4A3F0FDFF1244077BFF7A0079D8
:1045360059900453740CF0A37401F07D0FE4802F9E
:1045460090043BE0640170447BFF7A00794F90044D
:1045560053740CF0A37401F0E4FDFF1244077BFFD3
:104566007A007959900453740CF0E4A3F07D0FFFA0
:104576001244077A0079631243F77BFF7A00794683
:10458600900453740CF0A3740102462890043BE097
:1045960064027BFF7A00794F900453704A740CF0E2
:1045A600A37401F0E4FDFF1244077BFF7A007959FA
:1045B600900453740CF0A37401F07D0FE4FF1244D1
:1045C600077BFF7A007963900453740CF0E4A3F040
:1045D600FD7F4E1244077BFF7A00794690045374A0
:1045E6000CF0A37401803B740CF0A37401F0E4FD9D
:1045F600FF1244077BFF7A007959900453740CF03C
:10460600A37401F07D0FE4FF1244077BFF7A007963
:10461600631243F97BFF7A007946900453740CF0D9
:0B462600E4A3F07D0F7F4E124407223A
:10133500900444EFF0A3EDF0EF2404FF7BFF7A0067
:10134500796B9004537407F0A37401F0124407906D
:101355000444E02404FFA3E02410FD7BFF7A007918
:10136500719004537407F0A37401F01244079004BC
:101375005A741FF0A37401F07B26E4FD7F2612400A
:1013850033E490045AF0A304F07B28E4FD7F261291
:10139500403390045A740FF0A37401F07B287D0F3D
:1013A5007F2612403390045A741FF0A37401F07B1A
:1013B500287D1F7F26124033900444E02424F0E06A
:1013C5002406FFC007900446E0FCA3E0FDA3E0FE71
:1013D500A3E0FF7817122A8BEF5401FFEF2430FBAF
:1013E50090045A7407F0A37401F0900445E0FDD011
:1013F5000712484D900444E0240CFFC007900446B2
:10140500E0FCA3E0FDA3E0FEA3E0FF7816122A8B23
:10141500EF5401FFEF2430FB90045A7407F0A374D6
:1014250001F0900445E0FDD00712484D900444E0DA
:101435002412FFC007900446E0FCA3E0FDA3E0FEF4
:10144500A3E0FF7815122A8BEF5401FFEF2430FB40
:1014550090045A7407F0A37401F0900445E0FDD0A0
:101465000712484D900444E02418FFC00790044635
:10147500E0FCA3E0FDA3E0FEA3E0FF7814122A8BB5
:10148500EF5401FFEF2430FB90045A7407F0A37466
:1014950001F0900445E0FDD00712484D900444E06A
:1014A500241EFFA3E0124840900444E02424FFC01A
:1014B50007900446E0FCA3E0FDA3E0FEA3E0FF786F
:1014C50013122A8BEF5401FFEF2430FB90045A745A
:1014D50007F0A37401F0900445E0FDD00712484DD4
:1014E500900444E0242AFFC007900446E0FCA3E0F2
:1014F500FDA3E0FEA3E0FF7812122A8BEF5401FF53
:10150500EF2430FB90045A7407F0A37401F09004A3
:1015150045E0FDD00712484D900444E02430FFC05B
:1015250007900446E0FCA3E0FDA3E0FEA3E0FF78FE
:1015350011122A8BEF5401FFEF2430FB90045A74EB
:1015450007F0A37401F0900445E0FDD00712484D63
:10155500900444E02436FFC007900446E0FCA3E075
:10156500FDA3E0FEA3E0FF7810122A8BEF5401FFE4
:10157500EF2430FB90045A7407F0A37401F0900433
:1015850045E0FDD00712484D900444E0243CFFA3FC
:10159500E0124840900444E02442FFC0079004460E
:1015A500E0FCA3E0FDA3E0FEA3E0FF780F122A8B89
:1015B500EF5401FFEF2430FB90045A7407F0A37435
:1015C50001F0900445E0FDD00712484D900444E039
:1015D5002448FFC007900446E0FCA3E0FDA3E0FE1D
:1015E500A3E0FF780E122A8BEF5401FFEF2430FBA6
:1015F50090045A7407F0A37401F0900445E0FDD0FF
:101605000712484D900444E0244EFFC0079004465D
:10161500E0FCA3E0FDA3E0FEA3E0FF780D122A8B1A
:10162500EF5401FFEF2430FB90045A7407F0A374C4
:1016350001F0900445E0FDD00712484D900444E0C8
:101645002454FFC007900446E0FCA3E0FDA3E0FEA0
:10165500A3E0FF780C122A8BEF5401FFEF2430FB37
:1016650090045A7407F0A37401F0900445E0FDD08E
:101675000712484D900444E02406FFC007A3E02468
:1016850008FDC005A3E0FCA3E0FDA3E0FEA3E0FF89
:10169500780B122A8BEF5401FFEF2430FB90045A8C
:1016A5007407F0A37401F0D005D00712484D9004DB
:1016B50044E0240CFFC007A3E02408FDC005A3E017
:1016C500FCA3E0FDA3E0FEA3E0FF780A122A8BEF5E
:1016D5005401FFEF2430FB90045A7407F0A3740102
:1016E500F0D005D00712484D900444E02412FFC005
:1016F50007A3E02408FDC005A3E0FCA3E0FDA3E0EB
:10170500FEA3E0FF7809122A8BEF5401FFEF243086
:10171500FB90045A7407F0A37401F0D005D00712AA
:10172500484D900444E02418FFC007A3E02408FDB9
:10173500C005A3E0FCA3E0FDA3E0FEA3E0FF78085D
:10174500122A8BEF5401FFEF2430FB90045A7407E3
:10175500F0A37401F0D005D00712484D900444E081
:10176500241E12483B900444E02424FFC007A3E054
:101775002408FDC005A3E0FCA3E0FDA3E0FEA3E073
:10178500FF7807122A8BEF5401FFEF2430FB9004FA
:101795005A7407F0A37401F0D005D00712484D9094
:1017A5000444E0242AFFC007A3E02408FDC005A3E4
:1017B500E0FCA3E0FDA3E0FEA3E0FF7806122A8B80
:1017C500EF5401FFEF2430FB90045A7407F0A37423
:1017D50001F0D005D00712484D900444E02430FFB5
:1017E500C007A3E02408FDC005A3E0FCA3E0FDA31A
:1017F500E0FEA3E0FF7805122A8BEF5401FFEF24EA
:1018050030FB90045A7407F0A37401F0D005D0079B
:1018150012484D900444E02436FFC007A3E0240895
:10182500FDC005A3E0FCA3E0FDA3E0FEA3E0FF7877
:1018350004122A8BEF5401FFEF2430FB90045A74F5
:1018450007F0A37401F0D005D00712484D90044469
:10185500E0243C12483B900444E02442FFC007A327
:10186500E02408FDC005A3E0FCA3E0FDA3E0FEA382
:10187500E0FF7803122A8BEF5401FFEF2430FB9031
:10188500045A7407F0A37401F0D005D00712484D2F
:10189500900444E02448FFC007A3E02408FDC005E8
:1018A500A3E0FCA3E0FDA3E0FEA3E0FF7802122A7B
:1018B5008BEF5401FFEF2430FB90045A7407F0A31B
:1018C5007401F0D005D00712484D900444E0244E31
:1018D500FFC007A3E02408FDC005A3E0FCA3E0FDCD
:1018E500A3E0FEA3E0FF7801122A8BEF5401FFEF7E
:1018F5002430FB90045A7407F0A37401F0D005D08E
:101905000712484D900444E02454FFC007A3E02487
:1019150008FDC005A3E0FCA3A3E0FEA3E05401FF7E
:10192500EF2430FB90045A7407F0A37401F0D0053E
:10193500D00712484D900444E02406FFC007A3E0F9
:101945002410FDC00590044AE0FCA3E0FDA3E0FEE1
:10195500A3E0FF7817122A8BEF5401FFEF2430FB29
:1019650090045A7407F0A37401F0D005D00712480B
:101975004D900444E0240CFFC007A3E02410FDC0F3
:101985000590044AE0FCA3E0FDA3E0FEA3E0FF7898
:1019950016122A8BEF5401FFEF2430FB90045A7482
:1019A50007F0A37401F0D005D00712484D90044408
:1019B500E02412FFC007A3E02410FDC00590044AEF
:1019C500E0FCA3E0FDA3E0FEA3E0FF7815122A8B5F
:1019D500EF5401FFEF2430FB90045A7407F0A37411
:1019E50001F0D005D00712484D900444E02418FFBB
:1019F500C007A3E02410FDC00590044AE0FCA3E065
:101A0500FDA3E0FEA3E0FF7814122A8BEF5401FF3B
:101A1500EF2430FB90045A7407F0A37401F0D0054D
:101A2500D00712484D900444E0241EFFA3E0241083
:101A3500124840900444E02424FFC007A3E024108A
:101A4500FDC00590044AE0FCA3E0FDA3E0FEA3E091
:101A5500FF7813122A8BEF5401FFEF2430FB90041B
:101A65005A7407F0A37401F0D005D00712484D90C1
:101A75000444E0242AFFC007A3E02410FDC005901C
:101A8500044AE0FCA3E0FDA3E0FEA3E0FF78121208
:101A95002A8BEF5401FFEF2430FB90045A7407F0B2
:101AA500A37401F0D005D00712484D900444E024FA
:101AB50030FFC007A3E02410FDC00590044AE0FCF8
:101AC500A3E0FDA3E0FEA3E0FF7811122A8BEF54FB
:101AD50001FFEF2430FB90045A7407F0A37401F062
:101AE500D005D00712484D900444E02436FFC007C6
:101AF500A3E02410FDC00590044AE0FCA3E0FDA38B
:101B0500E0FEA3E0FF7810122A8BEF5401FFEF24CB
:101B150030FB90045A7407F0A37401F0D005D00788
:101B250012484D900444E0243CFFA3E024101248E1
:101B350040900444E02442FFC007A3E02410FDC008
:101B45000590044AE0FCA3E0FDA3E0FEA3E0FF78D6
:101B55000F122A8BEF5401FFEF2430FB90045A74C7
:101B650007F0A37401F0D005D00712484D90044446
:101B7500E02448FFC007A3E02410FDC00590044AF7
:101B8500E0FCA3E0FDA3E0FEA3E0FF780E122A8BA4
:101B9500EF5401FFEF2430FB90045A7407F0A3744F
:101BA50001F0D005D00712484D900444E0244EFFC3
:101BB500C007A3E02410FDC00590044AE0FCA3E0A3
:101BC500FDA3E0FEA3E0FF780D122A8BEF5401FF81
:101BD500EF2430FB90045A7407F0A37401F0D0058C
:101BE500D00712484D900444E02454FFC007A3E0F9
:101BF5002410FDC00590044AE0FCA3E0FDA3E0FE2F
:101C0500A3E0FF780C122A8BEF5401FFEF2430FB81
:101C150090045A7407F0A37401F0D005D007124858
:101C25004D900444E02406FFC007A3E02418FDC03E
:101C35000590044AE0FCA3E0FDA3E0FEA3E0FF78E5
:101C45000B122A8BEF5401FFEF2430FB90045A74DA
:101C550007F0A37401F0D005D00712484D90044455
:101C6500E0240CFFC007A3E02418FDC00590044A3A
:101C7500E0FCA3E0FDA3E0FEA3E0FF780A122A8BB7
:101C8500EF5401FFEF2430FB90045A7407F0A3745E
:101C950001F0D005D00712484D900444E02412FF0E
:101CA500C007A3E02418FDC00590044AE0FCA3E0AA
:101CB500FDA3E0FEA3E0FF7809122A8BEF5401FF94
:101CC500EF2430FB90045A7407F0A37401F0D0059B
:101CD500D00712484D900444E02418FFC007A3E044
:101CE5002418FDC00590044AE0FCA3E0FDA3E0FE36
:101CF500A3E0FF7808122A8BEF5401FFEF2430FB95
:101D050090045A7407F0A37401F0D005D007124867
:101D15004D900444E0241EFFA3E02418124840908F
:101D25000444E02424FFC007A3E02418FDC0059067
:101D3500044AE0FCA3E0FDA3E0FEA3E0FF78071260
:101D45002A8BEF5401FFEF2430FB90045A7407F0FF
:101D5500A37401F0D005D00712484D900444E02447
:101D65002AFFC007A3E02418FDC00590044AE0FC43
:101D7500A3E0FDA3E0FEA3E0FF7806122A8BEF5453
:101D850001FFEF2430FB90045A7407F0A37401F0AF
:101D9500D005D00712484D900444E02430FFC00719
:101DA500A3E02418FDC00590044AE0FCA3E0FDA3D0
:101DB500E0FEA3E0FF7805122A8BEF5401FFEF2424
:101DC50030FB90045A7407F0A37401F0D005D007D6
:101DD50012484D900444E02436FFC007A3E02418C0
:101DE500FDC00590044AE0FCA3E0FDA3E0FEA3E0EE
:101DF500FF7804122A8BEF5401FFEF2430FB900487
:101E05005A7407F0A37401F0D005D00712484D901D
:101E15000444E0243CFFA3E0241812484090044405
:101E2500E02442FFC007A3E02418FDC00590044A42
:101E3500E0FCA3E0FDA3E0FEA3E0FF7803122A8BFC
:101E4500EF5401FFEF2430FB90045A7407F0A3749C
:101E550001F0D005D00712484D900444E02448FF16
:101E6500C007A3E02418FDC00590044AE0FCA3E0E8
:101E7500FDA3E0FEA3E0FF7802122A8BEF5401FFD9
:101E8500EF2430FB90045A7407F0A37401F0D005D9
:101E9500D00712484D900444E0244EFFC007A3E04C
:101EA5002418FDC00590044AE0FCA3E0FDA3E0FE74
:101EB500A3E0FF7801122A8BEF5401FFEF2430FBDA
:101EC50090045A7407F0A37401F0D005D0071248A6
:101ED5004D900444E02454FFC007A3E02418FDC03E
:101EE5000590044AE0FCA3A3E0FEA3E05401FFEF44
:101EF5002430FB90045A7407F0A37401F0D005D088
:041F05000702484D3A
:104D6800D2A47F647E00125C19C2A47F647E001204
:104D78005C19D2A4E4FD7FFD125A877F12125A876C
:104D88007FAE125A877F20125A877F02125A877F76
:104D9800B4125A87E4FF125A877F10125A877F602D
:104DA800125A877FD5125A877FF0125A877FA81226
:104DB8005A877F1F125A877FD3125A87E4FF125AE5
:104DC800877FA1125A877FC0125A877FD8125A87C5
:104DD8007F05125A877FDA125A877F12125A877F05
:104DE800D9125A877FF1125A877F81125A877FBF5B
:104DF800125A877FDB125A877F34125A877FA41290
:104E08005A877FA6125A877FAF125A8712591DE414
:044E1800FF025B6DCD
:1053B000900436122AB153877F759850438E04901B
:1053C0000436E0F8A3E0F9A3E0FAA3E0FB7F007E57
:1053D000307D2A7C001229E8EFF404F5D7900436DA
:1053E000E0F8A3E0F9A3E0FAA3E0FB7F007E307DC4
:1053F0002A7C001229E8C3E49FFFE49EFE74019D0D
:10540000FDE49CFC7808122A8B8FD6438E01438ED4
:02541000102268
:0B5D4C007F007EC27D017C000253B08E
:085D73008F993099FDC29922BD
:1058E300900436EBF0A3EAF0A3E9F0900436E0FB72
:1058F300A3E0FAA3E0F91228C76017900436A3E4E3
:1059030075F001122947A9F0FA1228C7FF125C9318
:0359130080D92216
:105C9300AE07EEB40A097F0D125D737F0A8002AF6F
:075CA30006125D73AF06223B
:105CBE00EFC3940AEF50052430FD80032437FDAF67
:045CCE0005025C93DC
:105BC800AC077F20125C93ECC4540FFF125CBEEC50
:0B5BD800540FFF125CBE7F20025C93A4
:03002300025C4B31
:065C4B00C0E0C083C0822E
:0B5C5100309808C298900434E599F0E8
:075C5C00D082D083D0E032BA
:095D6200D287C284C286C28522E8
:105CD200E4FEEF339284C285D285EF25E0FF0EEE1B
:035CE200B408EF14
:015CE500229C
:105BE300C286AF051DEF60101228C7FF125CD27486
:0B5BF3000129F9E43AFA80EAD2862288
:10552500436F6465204E6F2E3A00204E472121209F
:1055350000202020202020005041535321210049E4
:105545006E666F00565436323533382D423100566B
:105555005436323533382D423200434F42004F4BDB
:105565003A004E473A004144443A00534144442DE1
:055575004E6F2E3A000C
:104EC50090044E122ABD00000000900452122ABD23
:104ED50000000000E4900456F0F0900456E0F9C399
:104EE50094185071900400E0FCA3E0FDA3E0FEA33C
:104EF500E0FFA801122A8BEF5401FFE4FEFDFC90B0
:104F0500044E122AB1900452E0F8A3E0F9A3E0FAA6
:104F1500A3E0FBC000C001C00390044EE0FCA3E089
:104F2500FDA3E0FEA3E0FF900456E0FBC374179BCE
:104F3500F9F8122A9ED003D001D000EB4FFFEA4EBC
:104F4500FEE94DFDE84CFC900452122AB19004563E
:104F5500E004F08085900452E0FCA3E0FDA3E0FEB0
:094F6500A3E0FF900400022AB150
:0D5D2800C2CCC2C0C2B3C2B4C2B5C2B62262
:0554CE0090044EEFF018
:1054D300E4FBFA90044FE0FCA3E0FDA3E0FEA3E0AD
:1054E300FFA802122A8BEF5401FFEF6003EA2BFBA4
:1054F3000AEAB418DE90044EE024FF92CCEB139238
:10550300C0EBC3131392B3EB1313543F1392B4EBD7
:10551300131313541F1392B5AF03EFC4540F139215
:01552300B6D1
:015524002264
:0C5D3500759DFFE4F5BDF5BE75BC802235
:105B4A00EF4488F5BC00000000E5BC30E4FB53BC20
:105B5A00EFAFBDEF75F004A4ADBE7C002DFFEC35B0
:035B6A00F0FE2228
:05594700E4FF125B4AC1
:10594C008F828E837E037FE8AD82AC83122B1EC0C8
:10595C0006C007AE83AF82C3E49FFF74049EAB07FF
:0C596C00FAE4F9F8D007D0061229E8226E
:103CF200C283C281C282C280125D411259479004BE
:103D020004EEF0A3EFF0000000007F01125B4A1204
:103D1200594C90040CEEF0A3EFF0000000007F027B
:103D2200125B4A12594C900414EEF0A3EFF000001B
:103D320000007F03125B4A12594C90041CEEF0A360
:103D4200EFF0000000007F04125B4A12594C90040D
:103D520024EEF0A3EFF0000000007F05125B4A1290
:103D6200594C900426EEF0A3EFF0000000007F060D
:103D7200125B4A12594C900428EEF0A3EFF00000B7
:103D820000007F07125B4A12594C90042AEEF0A3FE
:103D9200EFF0C283C281D282D280125D41125947B2
:103DA200900406EEF0A3EFF0900406E0FF125BC869
:103DB200900406A3E0FF125BC8000000007F01121E
:103DC2005B4A12594C90040EEEF0A3EFF000000093
:103DD200007F02125B4A12594C900416EEF0A3EFD8
:103DE200F0000000007F03125B4A12594C90041E3F
:103DF200EEF0A3EFF0D283D281C282C280125D4183
:103E0200125947900408EEF0A3EFF0000000007F83
:103E120001125B4A12594C900410EEF0A3EFF0002D
:103E22000000007F02125B4A12594C900418EEF017
:103E3200A3EFF0000000007F03125B4A12594C907E
:103E42000420EEF0A3EFF0D283D281D282D280128C
:103E52005D4112594790040AEEF0A3EFF000000012
:103E6200007F01125B4A12594C900412EEF0A3EF4C
:103E7200F0000000007F02125B4A12594C90041AB3
:103E8200EEF0A3EFF0000000007F03125B4A12592C
:093E92004C900422EEF0A3EFF0C5
:013E9B002204
:10418D00AB07900400122ABD00000000EB64016033
:10419D000302421F900433E0540125E0FF90040315
:1041AD00E054FD4FF0900433E0540225E025E0FF8C
:1041BD00900403E054F74FF0900433E0540433338C
:1041CD003354F8FF900403E054DF4FF0900433E0D4
:1041DD005408C454F0FF900403E0547F4FF0900452
:1041ED0033E05410131313541FFF900402E054FDD9
:1041FD004FF0900433E054201313543FFF9004020A
:10420D00E054F74FF0900433E054401313543F0241
:10421D0042B1EB60030242BB900433E05401FF90C6
:10422D000403E054FE4FF0900433E0540225E0FF08
:10423D00900403E054FB4FF0900433E0540425E068
:10424D0025E0FF900403E054EF4FF0900433E05469
:10425D000833333354F8FF900403E054BF4FF0900C
:10426D000433E05410C4540FFF900402E054FE4F89
:10427D00F0900433E05420131313541FFF900402E5
:10428D00E054FB4FF0900433E05440131313541FCC
:10429D00FF900402E054F74FF0900433E054801384
:1042AD001313541FFF900402E054EF4FF0229004BB
:1042BD0030E0FCA3E0FDA3E0FEA3E0FF90040012BC
:0342CD002AB122F1
:102EF200D20190042C122ABD00000000900433E09D
:102F020030E01AC3900405E0942C900404E094018C
:102F1200400990042FE04401F08002C20190043382
:102F2200E0C31330E01AC3900407E0942C90040627
:102F3200E09401400990042FE04402F08002C201B3
:102F4200900433E01313543F30E01AC3900409E0B5
:102F5200942C900408E09401400990042FE044046A
:102F6200F08002C201900433E0131313541F30E0C7
:102F72001AC390040BE0942C90040AE094014009D7
:102F820090042FE04408F08002C201900433E0C4B0
:102F9200540F30E01AC390040DE0942C90040CE01E
:102FA2009401400990042FE04410F08002C2019085
:102FB2000433E0C413540730E01AC390040FE094C2
:102FC2002C90040EE09401400990042FE04420F07C
:102FD2008002C201900433E0C41313540330E01A98
:102FE200C3900411E0942C900410E09401400990E5
:102FF200042FE04440F08002C201900433E0C41385
:103002001313540130E01AC3900413E0942C90047B
:1030120012E09401400990042FE04480F08002C243
:1030220001900432E030E01AC3900415E0942C9031
:103032000414E09401400990042EE04401F080025F
:10304200C201900432E0C31330E01AC3900417E0C7
:10305200942C900416E09401400990042EE044025E
:10306200F08002C201900432E01313543F30E01AA0
:10307200C3900419E0942C900418E0940140099044
:10308200042EE04404F08002C201900432E01313E3
:1030920013541F30E01AC390041BE0942C90041ABE
:1030A200E09401400990042EE04408F08002C2013D
:1030B200900432E0C4540F30E01AC390041DE0942F
:1030C2002C90041CE09401400990042EE04410F07E
:1030D2008002C201900432E0C413540730E01AC3E4
:1030E20090041FE0942C90041EE094014009900487
:1030F2002EE04420F08002C201900432E0C4131397
:10310200540330E01AC3900421E0942C900420E090
:103112009401400990042EE04440F08002C20190E4
:103122000432E0C4131313540130E01AC390042391
:10313200E0942C900422E09401400990042EE04493
:1031420080F08002C201900431E030E01AC39004A2
:1031520025E0942C900424E09401400990042DE091
:103162004401F08002C201900431E0C31330E01A3E
:10317200C3900427E0942C900426E0940140099027
:10318200042DE04402F08002C201900431E01313E6
:10319200543F30E01AC3900429E0942C900428E0B4
:1031A2009401400990042DE04404F08002C2019091
:1031B2000431E0131313541F30E01AC390042BE0C0
:1031C200942C90042AE09401400990042DE04408D4
:1031D200F08002C201900430E0FCA3E0FDA3E0FE17
:1031E200A3E0FF900446122AB190042CE0FCA3E075
:1031F200FDA3E0FEA3E0FF90044A122AB1E4FDFF22
:08320200121335125786A201D8
:01320A0022A1
:105AB000780490043BE0FCA3E0FDA3E0FEA3E0FF3C
:075AC000122A8BEF540FFFC7
:105AC700EFC3940AEF50052430FE80032437FEAF5E
:015AD70006C8
:015AD80022AB
:053B2000900444EFF0E9
:103B2500125C63125D41D2CD78007C007D017B0182
:103B35007A0279007E027F001228A1900451742038
:103B4500F0A374FFF0A37455F0A37425F0A3E4F07B
:103B5500A3F0A3F0F9A3C9F0A3F0A3E9F07B78E4FF
:103B6500FDFF12557A7B017A04797412239FE49044
:103B7500044DF0900496A3A3A3E0540FFFE4FEFDCB
:103B8500FCFBFAF9F8C3122A7A6016900496E0FC59
:103B9500A3E0FDA3E0FEA3E0FF900445122AB18057
:103BA5000A90044DE004F0E0B41EC8900445E0FC22
:103BB500A3E0FDA3E0FEA3E0FF7810122A8B7804B2
:103BC500125AC0AB0790045A740CF0A37401F07D2F
:103BD500107F1612484D900445E0FCA3E0FDA3E0DC
:103BE500FEA3E0FF7810125AC0AB0790045A740C7C
:103BF500F0A37401F07D107F1E12484D900445E03E
:103C0500FCA3E0FDA3E0FEA3E0FF7808122A8B7871
:103C150004125AC0AB0790045A740CF0A37401F057
:103C25007D107F2A12484D900445E0FCA3E0FDA3DA
:103C3500E0FEA3E0FF7808125AC0AB0790045A745F
:103C45000CF0A37401F07D107F3212484D900445AD
:103C5500E0FCA3E0FDA3E0FEA3E0FF7804125AC058
:103C6500AB0790045A740CF0A37401F07D107F3EED
:103C750012484D900445E0FCA3E0FDA3E0FEA3E05F
:103C8500540FFF125AC7AB0790045A740CF0A37473
:103C950001F07D107F4612484D9004737401F012B7
:103CA5005786124EC5900400E0FCA3E0FDA3E0FE9C
:103CB500A3E04404FF900445E0F8A3E0F9A3E0FA8B
:103CC500A3E06FFFEA6EFEE96DFDE86CFCA3122A26
:103CD500B1900449E0FCA3E0FDA3E0FEA3E0FF9062
:0D3CE500044F122AB1900444E0FF0254CEB7
:101F0900122EF250030221829004437401F09004CE
:101F19002CE0FCA3E0FDA3E0FEA3E0FF900400E0B9
:101F2900F8A3E0F9A3E0FAA3E06FFFEA6EFEE96D1A
:101F3900FDE86CFC90043B122AB190043BE0FCA341
:101F4900E0FDA3E0FEA3E0FF7810122A8B780412CB
:101F59005AC0AB0790045A7407F0A37401F07D08C6
:101F6900E4FF12484D90043BE0FCA3E0FDA3E0FE32
:101F7900A3E0FF7810125AC0AB0790045A7407F017
:101F8900A37401F07D087F0612484D90043BE0FCE4
:101F9900A3E0FDA3E0FEA3E0FF7808122A8B7804F2
:101FA900125AC0AB0790045A7407F0A37401F07D6C
:101FB900087F0C12484D90043BE0FCA3E0FDA3E030
:101FC900FEA3E0FF7808125AC0AB0790045A7407C1
:101FD900F0A37401F07D087F1212484D90043BE094
:101FE900FCA3E0FDA3E0FEA3E0FF7804125AC0AB16
:101FF9000790045A7407F0A37401F07D087F181242
:10200900484D90043BE0FCA3E0FDA3E0FEA3E054AF
:102019000FFF125AC7AB0790045A7407F0A3740153
:10202900F07D087F1E12484D7BFF7A55792F900469
:10203900537407F0A37401F07D18E4FF12440712EA
:102049005786900464E0FCA3E0FDA3E0FEA3E0242E
:1020590001FFE43EFEE43DFDE43CFC900464122AE9
:10206900B1900472E070417B017A04793F90044891
:102079007404F07F321257C890043FE0FCA3E0FDDE
:10208900A3E0FEA3E02401FFE43EFEE43DFDE43CC1
:10209900FC90043F122AB17B017A04793F900448ED
:1020A9007404F07F3202213E900472E064017040B2
:1020B9007B017A04793F9004487404F07F481257F1
:1020C900C890043FE0FCA3E0FDA3E0FEA3E02401E7
:1020D900FFE43EFEE43DFDE43CFC90043F122AB1DE
:1020E9007B017A04793F9004487404F07F48804565
:1020F900900472E0B402417B017A04793F9004486C
:102109007404F07F641257C890043FE0FCA3E0FD1B
:10211900A3E0FEA3E02401FFE43EFEE43DFDE43C30
:10212900FC90043F122AB17B017A04793F9004485C
:102139007404F07F64125A5D7B017A04793F90043C
:10214900487404F07F801257C890043FE0FCA3E074
:10215900FDA3E0FEA3E02401FFE43EFEE43DFDE42F
:102169003CFC90043F122AB17B017A04793F900428
:10217900487404F07F80022394E4900443F07BFFC9
:102189007A5579369004537407F0A37401F07D08E9
:10219900E4FF1244077BFF7A55793D900453740795
:1021A900F0A37401F07D18E4FF12440712578690DA
:1021B9000430E0FCA3E0FDA3E0FEA3E02401FFE47A
:1021C9003EFEE43DFDE43CFC900430122AB190044B
:1021D90072E0600464017041E47FFFFEFDFC90043D
:1021E90030E0F8A3E0F9A3E0FAA3E0FBD3122A7ADE
:1021F900400A900430122ABD00000000900472E0E9
:102209007B017A04793090044870077404F0E4FF84
:1022190080427404F07F08803B900472E0B4023776
:102229007FFF7EFF7D0F7C00900430E0F8A3E0F98A
:10223900A3E0FAA3E0FBD3122A7A400A90043012F1
:102249002ABD000000007B017A04793090044874AB
:1022590004F07F16125A5D900468E0FCA3E0FDA328
:10226900E0FEA3E02401FFE43EFEE43DFDE43CFC86
:10227900900468122AB1900472E070417B017A04DB
:10228900793F9004487404F07F241257C890043FA2
:10229900E0FCA3E0FDA3E0FEA3E02401FFE43EFE91
:1022A900E43DFDE43CFC90043F122AB17B017A0431
:1022B900793F9004487404F07F24022353900472F8
:1022C900E0640170407B017A04793F90044874040A
:1022D900F07F401257C890043FE0FCA3E0FDA3E063
:1022E900FEA3E02401FFE43EFEE43DFDE43CFC9056
:1022F900043F122AB17B017A04793F90044874049F
:10230900F07F408045900472E0B402417B017A0479
:10231900793F9004487404F07F561257C890043FDF
:10232900E0FCA3E0FDA3E0FEA3E02401FFE43EFE00
:10233900E43DFDE43CFC90043F122AB17B017A04A0
:10234900793F9004487404F07F56125A5D7B017AF4
:1023590004793F9004487404F07F721257C89004BE
:102369003FE0FCA3E0FDA3E0FEA3E02401FFE43E7F
:10237900FEE43DFDE43CFC90043F122AB17B017A66
:1023890004793F9004487404F07F72125A5D9004F6
:0623990043E0FF023B20BF
:105BAC0090043B122AB17B017A04793B7D04125B91
:0C5BBC00E3D2C6C2879004717401F0228D
:105A3200C2C712418D900430E0FCA3E0FDA3E0FE5A
:105A4200A3E0FF125BAC900471E060030080F712E8
:0B5A52003CF212591D121F09D2C7229E
:102B720078007C007D017B017A0279007E027F0071
:102B82001228A19004517420F0A374FFF0A374558D
:102B9200F0A37444F0A3E4F0A3F0A3F0F9A3C9F006
:102BA200A3F0A3E9F07B78E4FDFF12557A7B017A6A
:102BB20004797412239F900472E0FFE4FD125266BE
:102BC20090043B122AB1900472E070087BFF7A55A0
:102BD20079498013900472E07BFFB401067A55793B
:102BE2005480047A55795F9004537407F0A37401FA
:102BF200F07D027F1E1244077BFF7A5579639004B1
:102C0200537407F0A37401F07D0B7F021244079006
:102C1200043BE0FCA3E0FDA3E0FEA3E0FF7810127A
:102C22002A8B7804125AC0AB0790045A7407F0A397
:102C32007401F07D0B7F1612484D7810125AB2AB18
:102C42000790045A7407F0A37401F07D0B7F1C12E5
:102C5200484D90043BE0FCA3E0FDA3E0FEA3E0FFAF
:102C62007808122A8B7804125AC0AB0790045A745F
:102C720007F0A37401F07D0B7F2212484D90043BB4
:102C8200E0FCA3E0FDA3E0FEA3E0FF7808125AC037
:102C9200AB0790045A7407F0A37401F07D0B7F28F0
:102CA20012484D125AB0AB0790045A7407F0A3743D
:102CB20001F07D0B7F2E12484D90043BE0FCA3E017
:102CC200FDA3E0FEA3E0540FFF125AC7AB07900426
:102CD2005A7407F0A37401F07D0B7F3412484D90B3
:102CE2000472E0FF7D0112526690043B122AB17B0E
:102CF200FF7A5579679004537407F0A37401F07D4D
:102D02000B7F3E12440790043BE0FCA3E0FDA3E0EE
:102D1200FEA3E0FF7810122A8B7804125AC0AB0788
:102D220090045A7407F0A37401F07D0B7F5212488D
:102D32004D90043BE0FCA3E0FDA3E0FEA3E0FF789E
:102D420010125AC0AB0790045A7407F0A37401F032
:102D52007D0B7F5812484D90043BE0FCA3E0FDA39D
:102D6200E0FEA3E0FF7808122A8B7804125AC0AB67
:102D72000790045A7407F0A37401F07D0B7F5E1272
:102D8200484D90043BE0FCA3E0FDA3E0FEA3E0FF7E
:102D92007808125AC0AB0790045A7407F0A3740162
:102DA200F07D0B7F6412484D125AB0AB0790045A63
:102DB2007407F0A37401F07D0B7F6A12484D9004F2
:102DC2003BE0FCA3E0FDA3E0FEA3E0540FFF125A98
:102DD200C7AB0790045A7407F0A37401F07D0B7F10
:102DE2007012484D900472E0FF1256FE90043B129E
:102DF2002AB17BFF7A55796B9004537407F0A37460
:102E020001F07D147F0212440790043BE0FCA3E032
:102E1200FDA3E0FEA3E0FF7810122A8B7804125A79
:102E2200C0AB0790045A7407F0A37401F07D147FBD
:102E32001C12484D90043BE0FCA3E0FDA3E0FEA37E
:102E4200E0FF7810125AC0AB0790045A7407F0A33F
:102E52007401F07D147F2212484D90043BE0FCA3E4
:102E6200E0FDA3E0FEA3E0FF7808122A8B780412AB
:102E72005AC0AB0790045A7407F0A37401F07D1492
:102E82007F2812484D90043BE0FCA3E0FDA3E0FE46
:102E9200A3E0FF7808125AC0AB0790045A7407F0F7
:102EA200A37401F07D147F2E12484D125AB0AB0765
:102EB20090045A7407F0A37401F07D147F34124811
:102EC2004D90043BE0FCA3E0FDA3E0FEA3E0540F21
:102ED200FF125AC7AB0790045A7407F0A37401F0AB
:102EE2007D147F3A12484D9004737402F0025786A3
:05320B00900439EFF012
:10321000E4A3F01256FE900430122AB17BFF7A55D7
:103220007970900453740CF0A37401F0E4FD7F1ED8
:10323000124407900430E0FCA3E0FDA3E0FEA3E00D
:10324000FF7810122A8B7804122A8BEF540FFF128A
:103250005AC7AB0790045A740CF0A37401F07D0FA9
:10326000E4FF12484D900430E0FCA3E0FDA3E0FE33
:10327000A3E0FF7810122A8BEF540FFF125AC7AB4E
:103280000790045A740CF0A37401F07D0F7F0812AC
:10329000484D900430E0FCA3E0FDA3E0FEA3E0FF76
:1032A0007808122A8B7804122A8BEF540FFF125AD7
:1032B000C7AB0790045A740CF0A37401F07D0F7F24
:1032C0001012484D900430E0FCA3E0FDA3E0FEA303
:1032D000E0FF7808122A8BEF540FFF125AC7AB0792
:1032E00090045A740CF0A37401F07D0F7F181248FB
:1032F0004D900430E0FCA3E0FDA3E0FEA3E0FF78E6
:1033000004122A8BEF540FFF125AC7AB0790045ACE
:10331000740CF0A37401F07D0F7F2012484D9004CF
:1033200030E0FCA3E0FDA3E0FEA3E0540FFF125A3F
:10333000C7AB0790045A740CF0A37401F07D0F7FA3
:103340002812484D12578678007C007D017B017A57
:103350000279007E027F001228A190043AE0600307
:1033600002348B9004D1E0B405189004D3E06012CD
:10337000E4F090048104F0125D28900439E0FF121B
:103380005A329004D1E0B404109004D3E0600AE40F
:10339000F090048104F0122B729004D1E0FFB4018C
:1033A000119004D3E0600BE4F090048104F09004E9
:1033B0003AF0EF640370609004D3E0605AE4F09058
:1033C000048104F0900430E0FCA3E0FDA3E0FEA340
:1033D000E02401FFE43EFEE43DFDE43CFC900430CB
:1033E000122AB112591D900430E0FCA3E0FDA3E0C5
:1033F000FEA3E0FF900446122AB1900430E0FCA343
:10340000E0FDA3E0FEA3E0FF90044A122AB1E4FD30
:10341000FF1213351257869004D1E0640260030254
:10342000335A9004D3E0700302335AE4F0900481DD
:1034300004F0900430E0FCA3E0FDA3E0FEA3E02450
:10344000FFFFEE34FFFEED34FFFDEC34FFFC900493
:1034500030122AB112591D900430E0FCA3E0FDA304
:10346000E0FEA3E0FF900446122AB1900430E0FC95
:10347000A3E0FDA3E0FEA3E0FF90044A122AB1E41A
:0B348000FDFF12133512578602335A6D
:01348B00221E
:10597A004104870041048800440489000000004172
:10598A00048D0041048E0041048F004204900000FF
:05599A00420492000030
:105C6300D2A8E4900494F0A3F0A3122ABD0000008C
:085C730000D28CD2A9D2C72295
:105C7B00C2A8C28CE4900494F0A3F0A3122ABD0036
:085C8B00000000C2C7C2CD22D7
:105CF900C28C438E805389F0758A23758CFEC28DC0
:015D09002277
:105CE600C28E438E4053890FE4F58B758D28C28F83
:035CF600D28E2229
:0B5D570043B10453B2FBC2B2C2882269
:0E5D1A00125CF9125CE6D2AB125D57025C63BC
:03000300023E9C1E
:103E9C00C0E0C0F0C083C082C0D075D000C000C0EC
:0B3EAC0002C003C004C005C006C00730
:103EB700900487E06003023F5E30B264A3E0FF70C6
:103EC7000D900494F0A3F090048804F08052EF64FE
:103ED70002704D900494E0FEA3E0FF900482EEF0A0
:103EE700A3EFF0900494E4F0A3F0900488F0C3905B
:103EF7000485E09F900484E09E5025900482E0FEB4
:103F0700A3E0FFC3947DEE94004015D3EF94EEEE4B
:103F17009402500C9004877401F09004867418F092
:103F270030B20302400E900488E0900494B4011C60
:103F3700E0FFA3E0900484CFF0A3EFF0900494E4B3
:103F4700F0A3F09004887402F002400EE4F0A3F0AE
:103F5700900488F002400E20B226900494E0FEA35D
:103F6700E0FF900484EEF0A3EFF0900494E4F0A354
:103F7700F0D3EF941EEE9400500302400E02400966
:103F870020B20302400E900494E0FEA3E0FF9004E9
:103F970082EEF0FAA3EFF0FB900494E4F0A3F09024
:103FA7000489E0FCA3E0FDA3E0FEA3E0FF78011293
:103FB7002A9E900489122AB1D3900485E09B90042D
:103FC70084E09A4017900489E0FCA3E0FDA3E0FE9B
:103FD700A3E04401FFEC900489122AB1900486E023
:103FE70014F07023900489E0FCA3E0FDA3E0FEA396
:103FF700E0FF900496122AB1900489122ABD0000AE
:074007000000900487E4F0C3
:10400E00D007D006D005D004D003D002D000D0D037
:09401E00D082D083D0F0D0E03252
:03000B00025BFE97
:105BFE00C0E0C083C082900495E004F0700690046B
:0B5C0E0094E004F0D082D083D0E0329C
:03001B0002493067
:10493000C0E0C0F0C083C082C0D075D000C000C04D
:0D49400001C002C003C004C005C006C007CE
:10494D0090048EE004F090048DE004F0E0C39464D4
:10495D004004E4F0B2C590048EE0D3940F400812E9
:10496D0050B690048EE4F0900481E0B40117D2C1EA
:10497D0090048FE0FF04F0EFC394054008C2C1E43A
:10498D00F0900481F0900471E0B40124900492E45D
:10499D0075F001122947FEC3E5F09407EE9400402F
:1049AD000FC2C6D287900471E4F0900492F0A3F088
:1049BD00900473E0FF603F7E007C017D9012291F03
:1049CD00900490E475F001122947FCC3E5F09FECCB
:1049DD009E4023900490E4F0A3F0900473F07800CF
:1049ED007C027D017B017A0079007E02FF1228A1F5
:0649FD00125786125C7BDC
:104A0300D007D006D005D004D003D002D001D00007
:0B4A1300D0D0D082D083D0F0D0E032B1
:08599F004104D3004104D000D3
:105AD90020C2047404801E20C3047403801720C4E8
:105AE900047402801020A0047401800920B7047492
:095AF90005800274FF12290D2240
:1050B60090043574FFF0FF7B017A047935125AD9D2
:1050C600900435E0FEF4702C9004D2E0FDC39412F7
:1050D60040099004D0E04440FF800DEDC3940340A6
:1050E600079004D0E04430FF9004D0EEF0E4900442
:1050F600D2F0804C9004D0E0FE900435E0FD6E6066
:105106000F9004D0EDF0E49004D2F0A304F08030C8
:105116009004D2E004F0E0FDB40304AF068021ED74
