:101A13003D3D3D3D3D3D3D3D3D3D3D3D3D3D3D3DF3
:101A23003D3D3D3D3D3D3D3D3D3D3D3D3D3D3D3DE3
:101A33003D3D3D3D3D3D3D3D3D3D3D3D3D3D3D3DD3
:101A43003D3D3D3D3D3D3D0A002A2A2A2A2A2A2AB8
:101A53002A2A2A2A2A2A2A2A2A2A2A2A2A2A2042D5
:101A630075726E20436F64652058202A2A2A2A2A19
:101A73002A2A2A2A2A2A2A2A2A2A2A2A2A2A2A2AC3
:101A83000A002A202020202020202020202020207F
:101A93002020202020202020202020202020202043
:101AA3002020202020202020202020202020202033
:101AB30020202020202020202A0A002A2020202045
:101AC30056657273696F6E3A2053444B312E303032
:101AD3002E30302831313A32303A3136204170726B
:101AE3002032202032303135292020202020202090
:101AF300202A0A002A2020202020417574686F7252
:101B03003A204C69616F6B657972653C4C69616F12
:101B13006B6579726540666F786D61696C2E636F72
:101B23006D3E20202020202020202A0A002A202069
:101B3300417574686F723A204368657272794079AF
:101B43006373656D692E636F6D2E636E20407961DB
:101B53006E6368656E6720636F6D70616E792020B8
:101B63002020202A0A002A2A2A2A2A2A2A2A2A2A3A
:101B73002A2A2A2A2A2A2A2A2A2A2A2A2A2A2A2AC2
:101B83002A2A2A2A2A2A2A2A2A2A2A2A2A2A2A2AB2
:101B93002A2A2A2A2A2A2A2A2A2A2A2A2A0A000A0C
:101BA3000A0A53797374656D204C6F6164696E67BB
:101BB3002E2E2E0A000A0A0A53797374656D204C7F
:091BC3006F6164204F6B210A00E0
:102A2B007BFF7A1A7913122DDF7BFF7A1A794C12FE
:102A3B002DDF7BFF7A1A7985122DDF7BFF7A1A79CE
:102A4B00BE122DDF7BFF7A1A79F7122DDF7BFF7A0F
:102A5B001B7930122DDF7BFF7A1A7985122DDF7BE4
:102A6B00FF7A1B7969122DDF7BFF7A1A7913122DEE
:102A7B00DF7BFF7A1B79A2122DDF7BFF7A1B79B8E4
:032A8B00022DDF3A
:102AF0007B017A0279B09002A07404F07F10122D4D
:102B00003074FFFFFEFDFC9002B0E0F8A3E0F9A3F3
:102B1000E0FAA3E0FBC312172C60177FFF7EFF7D56
:102B20000F7C009002B0E0F8A3A3A3E0D312172C0F
:102B3000401B9002B4121791000000007B017A0242
:0D2B400079B490029B7404F07F10122EFFF8
:012B4D002265
:0F31B700122527122E4BE4FDFF1225DB022CEE12
:0100060022D7
:0C31D5001200061231F81231B702321756
:103170001231D5122A2B759504E4F595D2AF1218A9
:033180001980FBB8
:02310400C18088
:073220000000007F18DFFE33
:013227002284
:05000E00120013D2A155
:070013000000007F0ADFFE80
:01001A0022C3
:0A31ED0000007F6C7E90DEFEDFFC28
:0131F70022B5
:10300300123220D2A1123220D2A2123220A2A282E4
:0F301300A1500AC2A2123220C2A1023220C3224F
:1031A700123220C2A2123220D2A1123220D2A2227F
:0C2D6F00AC071230037FA0122D7BAF04D4
:022D7B00AE07A1
:102D7D00E4FD120013EE30E704D2A28002C2A212CB
:102D8D00000EC2A1EE25E0FE0DEDB408E512001314
:0D2D9D00D2A212000EA2A29200C2A1A200BA
:012DAA002206
:022EA500AE0776
:102EA700E4FD120013D2A2FCED25E0FD12000E3066
:102EB700A2010DC2A10CECB408EE120013D2A2EECF
:0B2EC7006002C2A212000EC2A1AF0503
:012ED20022DD
:1030ED00AC05AB071230037FA0122D7BAF03122D61
:0730FD00761231A70231ED4C
:102EFF00122D6F90029BE0FF14F0EF601612152455
:102F0F00FF122D7B740129F9E43AFA0CECC394FFFC
:0A2F1F0040E1221231A71231ED2229
:10308D00122D6F1230037FA1122D7BE4FF122EA59E
:07309D00AE071231A7AF06D8
:0130A4002209
:102D3000AC079002A0E06036122D711230037FA123
:102D4000122D7BE014F09002A0E0FF14F0EF60126F
:102D50007F01122EA5EF12156A740129F9E43AFADF
:0F2D600080E4E4FF122EA5EF12156A1231A722AC
:100026000000000000000000005F00000000070064
:10003600070000147F147F1400242A7F2A1200234D
:10004600130864620036495522500000050300007B
:1000560000001C224100000041221C000014083E42
:1000660008140008083E0808000050300000000888
:10007600080808080000606000000020100804025C
:10008600003E5149453E0000427F4000004261511A
:100096004946002141454B31001814127F100027B4
:1000A60045454539003C4A49493000017109050377
:1000B60000364949493600064949291E00003636A8
:1000C600000000005636000000081422410000140B
:1000D60014141414000041221408000201510906E8
:1000E60000324979413E007E1111117E007F494957
:1000F6004936003E41414122007F4141221C007F9A
:1001060049494941007F09090901003E4149497AA7
:10011600007F0808087F0000417F41000020404121
:100126003F01007F08142241007F40404040007F8D
:10013600020C027F007F0408107F003E4141413ED1
:10014600007F09090906003E4151215E007F091919
:1001560029460046494949310001017F0101003F16
:100166004040403F001F2040201F003F4038403F96
:1001760000631408146300070870080700615149FA
:10018600454300007F4141000002040810200000A2
:1001960041417F000004020102040040404040400B
:1001A600000001020400002054545478007F4844A3
:1001B600443800384444442000384444487F0038DA
:1001C6005454541800087E090102000C5252523E43
:1001D600007F080404780000447D4000002040446D
:1001E6003D00007F102844000000417F4000007C55
:1001F60004180478007C0804047800384444443821
:10020600007C1414140800081414187C007C0804DC
:10021600040800485454542000043F444020003C45
:100226004040207C001C2040201C003C4030403CCC
:10023600004428102844000C5050503C004464549C
:100246004C440000083641000000007F000000001A
:1002560041360800001008081008000000000000E1
:10026600000000000000000000003F400000000009
:10027600000000003000400030004000000009008F
:100286000BC03D000BC03D00090018C024407FE0B4
:10029600224031800000180024C01B000D8032402F
:1002A600018003801C4027401C800740004010004E
:1002B60060000000000000000000000000000000D8
:1002C6001F80204040200000402020401F8000006A
:1002D6000000090006001F80060009000000040057
:1002E60004003F80040004000000001000600000CD
:1002F60000000000000004000400040004000400E4
:100306000000000000400000000000000000002087
:1003160001C006003800400000001F802040204039
:1003260020401F800000000010403FC00040000039
:10033600000018C0214022402440184000001080D0
:100346002040244024401B80000002000D001100C4
:100356003FC0014000003C802440244024402380CC
:1003660000001F80244024403440038000003000F9
:10037600200027C03800200000001B8024402440B5
:1003860024401B8000001C0022C0224022401F8007
:10039600000000000000084000000000000000000F
:1003A60000000460000000000000000004000A00D5
:1003B60011002080404009000900090009000900D9
:1003C600000000004040208011000A0004001800D0
:1003D600200023402400180000001F8020402740F2
:1003E60029401F400000004007C039000F0001C02F
:1003F600004020403FC0244024401B8000001F8056
:100406002040204020403080000020403FC0204057
:1004160020401F80000020403FC024402E4030C0B6
:10042600000020403FC024402E00300000000F0096
:100436001080204022403380020020403FC004004C
:1004460004003FC02040204020403FC020402040C4
:1004560000000060202020203FC020002000204017
:100466003FC024400B0030C0204020403FC0204009
:100476000040004000C03FC03C0003C03C003FC0FD
:10048600000020403FC00C4023003FC020001F80DA
:100496002040204020401F80000020403FC02440D4
:1004A6002400180000001F802140214020E01FA0EA
:1004B600000020403FC02440260019C0004018C05C
:1004C60024402440224031800000300020403FC0BC
:1004D60020403000000020003F80004000403F8068
:1004E600200020003E0001C0070038002000380030
:1004F60007C03C0007C038000000204039C0060095
:1005060039C0204000002000384007C03840200095
:100516000000304021C02640384020C000000000C6
:1005260000007FE0402040200000000070000C002A
:100536000380004000000000402040207FE00000D3
:100546000000000020004000200000000000001015
:100556000010001000100010001000000000400005
:10056600000000000000000002800540054003C0B6
:10057600004020003FC0044004400380000000000B
:10058600038004400440064000000000038004404D
:1005960024403FC000400000038005400540034062
:1005A6000000000004401FC024402440200000003A
:1005B60002E0055005500650042020403FC004408C
:1005C600040003C000400000044027C000400000B3
:1005D600000000100010041027E00000000020407A
:1005E6003FC00140070004C00440204020403FC0F7
:1005F60000400040000007C0040007C0040003C01C
:100606000000044007C00440040003C0004000008E
:1006160003800440044003800000041007F00450E7
:10062600044003800000000003800440045007F0EB
:100636000010044007C0024004000400000000004F
:1006460006400540054004C00000000004001F806D
:10065600044000400000040007800040044007C03A
:1006660000400400070004C00180060004000600E4
:1006760001C0070001C006000000044006C00100DA
:1006860006C0044000000410071004E001800600C4
:1006960004000000044005C00640044000000000BD
:1006A600000004007BE04020000000000000000085
:1006B600FFF000000000000040207BE00400000086
:1006C60000004000800040002000200040000000A4
:1006D6000000000000000000000000000000000014
:1006E600000000001FCC000C00000000000000000D
:1006F60008003000600008003000600000000220A2
:1007060003FC1E20022003FC1E2002200000000025
:100716000E1811043FFF10840C78000000000F0033
:1007260010840F3800C0077818840078000000781D
:100736000F8410C411240E9800E4008400080800F9
:1007460068007000000000000000000000000000CB
:100756000000000007E01818200440020000000016
:1007660040022004181807E00000000000000240C4
:10077600024001800FF0018002400240000000802C
:10078600008000800FF800800080008000000001DB
:10079600000D000E00000000000000000000000038
:1007A60000800080008000800080008000800000C3
:1007B600000C000C0000000000000000000000001B
:1007C60000060018006001800600180020000000E6
:1007D60007F0080810041004080807F000000000DD
:1007E600080408041FFC00040004000000000000C8
:1007F6000E0C10141024104411840E0C000000007E
:100806000C1810041104110412880C70000000006A
:1008160000E00320042408241FFC0024000000003C
:100826001F98108411041104108810700000000035
:1008360007F00888110411041888007000000000F1
:100846001C00100010FC13001C001000000000002B
:100856000E3811441084108411440E380000000034
:100866000700088C10441044088807F000000000B8
:1008760000000000030C030C000000000000000054
:10088600000000010106000000000000000000005A
:100896000080014002200410080810040000022015
:1008A6000220022002200220022002200000000076
:1008B6001004080804100220014000800000000017
:1008C6000E001200100C106C10800F00000003E0E8
:1008D6000C1813E4142417C4082807D000000004D9
:1008E600003C03C41C40074000E4001C0004100444
:1008F6001FFC1104110411040E880070000003E0AF
:100906000C1810041004100410081C100000100429
:100916001FFC100410041004080807F0000010045F
:100926001FFC1104110417C4100408180000100459
:100936001FFC1104110017C010000800000003E09E
:100946000C181004100410441C7800400000100419
:100956001FFC10840080008010841FFC100400001F
:10096600100410041FFC1004100400000000000313
:100976000001100110011FFE1000100000001004FD
:100986001FFC110403801464181C100400001004DA
:100996001FFC1004000400040004000C00001004F6
:1009A6001FFC1F0000FC1F001FFC100400001004A9
:1009B6001FFC0C04030000E010181FFC100007F0D9
:1009C6000808100410041004080807F000001004BA
:1009D6001FFC10841080108010800F00000007F0AC
:1009E600081810241024101C080A07F2000010042E
:1009F6001FFC1104110011C011300E0C0004000080
:100A06000E1C11041084108410441C3800001800B9
:100A1600100010041FFC1004100018000000100045
:100A26001FF810040004000410041FF81000100042
:100A36001E0011E0001C007013801C0010001FC077
:100A4600103C00E01F0000E0103C1FC00000100436
:100A5600180C163401C001C01634180C100410000E
:100A66001C00130400FC13041C0010000000080402
:100A7600101C1064108413041C04101800000000DD
:100A8600000000007FFE400240024002000000001D
:100A960030000C0003800060001C00030000000012
:100AA6004002400240027FFE0000000000000000FD
:100AB600000020004000400040002000000000012F
:100AC6000001000100010001000100010001000019
:100AD6004000400020000000000000000000000070
:100AE6000098012401440144014400FC0004100064
:100AF6001FFC00880104010400880070000000004B
:100B06000070008801040104010400880000000050
:100B1600007000880104010411081FFC0004000095
:100B260000F8014401440144014400C800000000EB
:100B3600010401040FFC1104110411001800000047
:100B460000D601290129012901C901060000100466
:100B56001FFC008401000100010400FC00040000E9
:100B66000104190419FC0004000400000000000040
:100B7600000300010101190119FE00000000100424
:100B86001FFC0024004001B4010C01040000000019
:100B9600100410041FFC00040004000000000104FF
:100BA60001FC0104010001FC0104010000FC010438
:100BB60001FC008401000100010400FC00040000A7
:100BC60000F8010401040104010400F80000010119
:100BD60001FF008501040104008800700000000088
:100BE6000070008801040104010501FF00010104F1
:100BF600010401FC008401040100018000000000E2
:100C060000CC0124012401240124019800000000E5
:100C16000100010007F801040104000000000100C2
:100C260001F8000400040004010801FC00040100AE
:100C360001800170000C001001600180010001F0CC
:100C4600010C003001C00030010C01F00100000071
:100C56000104018C00740170018C01040000010183
:100C660001810171000E0018016001800100000081
:100C76000184010C013401440184010C00000000D0
:100C860000000000000001003EFC4002400200009F
:100C9600000000000000FFFF000000000000000050
:100CA600400240023EFC010000000000000000007F
:100CB60060008000800040004000200020004010BE
:100CC6007FF84910491049207FFF48A08881488253
:100CD600388C0FF01888E88448830882000000806A
:100CE60041004FFC7210421043F900014FF24804D4
:100CF60058186BE0481048084FE640030000008093
:100D0600010006001FFFE00050801480148014804C
:100D1600FFFF14801484148214FC000000000004F9
:100D26000804060401C40084FFFC00040004000457
:100D3600FFFC0044018406041C0C080400000000AB
:100D460000001FF01220122012201220FFFC122297
:100D56001222122212221FF20002000E0000008050
:100D660000804080408040804082408147FE48802D
:100D76005080608040800080018000800000082054
:100D8600484049804E007FFF8A0089200020442089
:100D9600334000400040FFFF0080008000001080CC
:100DA60010821101FFFE120014020002130412C881
:100DB6001230FE30124813841206100400000000A0
:100DC6000002000200020002000200027FFE020290
:100DD60002020202020202020006000200000000F5
:100DE6004000400040004000400040007FFE4400BC
:100DF6004600438041004000C00040000000420819
:100E060042087FF04211429207040018FFE00004F6
:100E1600420442047FFC42044204420400000200F1
:100E26004200320023FE0004440855FF5550555039
:100E3600FD505552555155FE440004000000000077
:100E4600010107027904111811E01100FF001100D9
:100E560011FC1102110211020102000E0000002015
:100E6600802080209FFF922092209220FFE09220F7
:100E7600922292219FFE80208020002000000040C8
:100E8600008151014A0146F55A9362910291E2911D
:100E96001A9326F54A0113012181010000007FFF04
:100EA60040004840542063C0113E1104110411044F
:100EB600FFFC110411041104113E01000000001092
:100EC6001110111011101110FFFF0000000000009A
:100ED600FFFF111011101110111010100000082042
:100EE6000620807F618006021002108210829082A6
:100EF6007FFE108210821082108210020000020211
:100F0600020CFFF082048202FFFC020202040218B5
:100F1600FFE082048202FFFC0200020000000001E2
:100F26000002000C7FF044404440444044407FFFB0
:100F360044404440444244417FFE0000000000011A
:100F46000002000C1FF01100110011009100510069
:100F560071001100110011001F00000000000000C8
:100F6600000000000000000000000000000000007B
:100F7600000000000000000000000000000000006B
:100F860000000003E000001FF800007F800001FE63
:100F9600000003E0000003E00000078000000F806F
:100FA60000000F0000001E0780001E1F00001C32FC
:100FB60000001C72C0001C7EC7001E7E1F801EFE25
:100FC6003FC01EFF3FC01FFFFFE00FFFFFE00FFF08
:100FD600FFE007FFFFC007FFFFC003FFFF8001FF21
:100FE600FF0000FFFE00003FFC00000FF0000000C5
:100FF600000000000000000000000000008000006B
:1010060000800000008000000080001FFEBE003F40
:10101600FE82003FFE8200308280003082AE0030C9
:1010260082800031C69E001FFEA8001F7CA8000E0D
:10103600389E000000800000009C0037FEA20037AA
:10104600FEA20000009C000000800001F8BE000324
:10105600FC8800070E94000606A200040280000425
:1010660002BE000402AA000606AA00070EA200039A
:10107600FC800001F8A20000009400060088001F12
:10108600FCB0001FFE80001FFEBE000602A8000086
:1010960000AC0001F8920003FC8000077EBE00064B
:1010A6004EAA000446AA000446A200044680000692
:1010B60046BE000346A20001C4B60000809C0000A4
:1010C60000800000F0BE0003FCAA0003FCAA000694
:1010D60006A200040280000402BA000402AA000468
:1010E60006AA000004AE00000080003FFE80003F1C
:1010F600FEAE00060080000600BE000600A2000646
:1011060000AA000600AE0007FE800007FEBE000330
:10111600FEA0000000A0000000BE0000008000004D
:1011260000800000008000000080000000800000B9
:1011360000000000000000000000000000000000A9
:101146000000000000000000000000000000000099
:0E11560000000000000000000000000000008B
:102ED300EF540FC454F0FEEF54F0C4540F4EFF549C
:102EE3003325E025E0FEEF54CC1313543F4EFF543B
:0C2EF3005525E0FEEF54AAC3134EFF2249
:10307300EF4E60157D087C07ED1DAA0470011C4A04
:0930830070F6EF1F70EA1E80E7F1
:01308C002221
:102F2900ED6004D2A58002C2A5C2A3E4FEC2A6EF49
:102F390030E704D2A78002C2A7D2A6EF25E0FF0E90
:082F4900EEB408E9D2A3D2A501
:012F5100225D
:102FE300AC07ED24B0FFE4FD122F29EC54F0C454D8
:102FF3000F4410FF122F29EC540F4401FF022F2915
:102CEE00E4FCEC24B4FFE4FD122F297F04122F29FB
:102CFE007F10122F29E4FB75F004EBA42400F5825B
:102D0E00E5F03400F583E5822CF582E43583F58316
:102D1E00E0FF7D01122F290BEBB480DB0CECB40429
:012D2E00C1E3
:012D2F002281
:072E4400E490028BF0A3F003
:102E4B00E4FFE4FE75F004EEA42400F582E5F03413
:102E5B0000F583E5822FF582E43583F583E4F00EEC
:092E6B00EEB480E00FEFB404D9CD
:012E7400223B
:0B273300FFA3E0C399FD9002AAE0FBA9
:10273E00E4900265F0EFD3947F40030227D9ED9425
:10274E003F40030227D9ED131313541FFEC3740722
:10275E009E900264F0ED5407FEC374079EFE740152
:10276E00A806088002C333D8FC900265F0EB9002F5
:10277E0064602AE0FE75F004EFA42400F582E5F013
:10278E003400F583E5822EF582E43583F583C0832C
:10279E00C082E0FF900265E0FEEF4E8029E0FE75FC
:1027AE00F004EFA42400F582E5F03400F583E58211
:1027BE002EF582E43583F583C083C082E0FF90025C
:0B27CE0065E0F4FEEF5ED082D083F0E7
:0127D90022DD
:0C1F1000FBED2409900248F0A37401F0DE
:0C1F1C00900245EFF0A905900247EBF0A1
:101F2800E9FFA3E0C39FFEE4940090024AF0A3CE29
:101F3800F0900245E0FFC3EB9FFEE4940090024C52
:101F4800F0A3CEF090024AE0FEA3E0FFC3EE648067
:101F580094805015C3E49FFFE49E90024AF0A3EFDB
:101F6800F090024F74FFF0800690024F7401F090D9
:101F7800024CE0FEA3E0FFC3EE648094805013C3DC
:101F8800E49FFFE49E90024CF0A3EFF0A374FFF0EF
:101F9800800690024E7401F0900245E0FFAD01907A
:101FA8000249E0FB12273E90024AE0FEA3E0FFA3AD
:101FB800E0FAA3E0FBD39FEE6480F8EA64809840DF
:101FC80059EAA2E713EB13FF90024AA3E0C39FFC70
:101FD800900247E0FF900245E06F7003022075C34E
:101FE800EC64809480401090024FE029F990024CF4
:101FF800A3E0FFC3EC9FFC90024EE0FF900245E097
:102008002FF090024AA3E02CFC900245E0FFAD01BE
:10201800900249E0FB12273E80B690024AE0A2E710
:1020280013A3E013FFA3A3E0C39FFC900248E06959
:10203800603BC3EC64809480401590024EE0FF90B2
:102048000245E02FF090024AA3E0FFC3EC9FFC900A
:10205800024FE029F990024CA3E02CFC900245E0E5
:0D206800FFAD01900249E0FB12273E80BE53
:012075002248
:102DAB00FD90000212153D2F14FB9002BB7401F035
:062DBB00AC07AA03A90504
:102DC100ECD39A4006AF02AA04AC07AF04AD019060
:0D2DD10002BBE0FB12273E0CEAC39C50EE53
:012DDE0022D2
:062F7B00AC05AA03A90742
:102F8100ECD39A4006AF02AA04AC07AF01AD04909E
:0D2F910002BFE0FB12273E0CEAC39C50EE8D
:012F9E002210
:102B4E009002A1EFF0A3EDF0A3EBF09002A5E090C0
:102B5E0002BBF0122DBB9002A1E0FF9002A4E0FD9B
:102B6E009002A3E0FB9002A5E09002BBF0122DBBF9
:102B7E009002A1E0FFA3E0FD9002A4E0FBA3E09091
:102B8E0002BFF0122F7B9002A3E0FF9002A2E0FDA5
:0E2B9E009002A4E0FBA3E09002BFF0022F7BA8
:0F27DA00900280EDF090027FEFF0900281EBF023
:1027E900EFD39B401690027FE0FF900284F09002A5
:1027F90081E090027FF0900281EFF0900282E0FF89
:10280900900280E0FED39F400F900284EEF0900288
:1028190080EFF0900282EEF0900282E0FF90028059
:10282900E0FDB5071590027FE0FF900281E0FB9083
:102839000283E09002BBF0022DBB900281E0FF9081
:10284900027FE06F602B900282E0FF900280E0FD42
:10285900D39F501D90027FE0FF900281E0FB900220
:1028690083E09002BBF0122DBB900280E004F0805F
:01287900D589
:01287A00223B
:102C05009002C0EFF0AE03A905EE6043EEFD900221
:102C1500C0E02DFDE433FCD3ED9480EC648094801A
:102C2500502DEEFDE92DFDE433FCD3ED9420EC644D
:102C3500809480501A9002C0E0FFAD012EFBE92E72
:102C45009002A4F09002C3E09002A5F0122B4E2250
:102C55009002C4EFF0AE03A905EE6043EEFD9002CD
:102C6500C4E02DFDE433FCD3ED9480EC64809480C6
:102C7500502DEEFDE92DFDE433FCD3ED9420EC64FD
:102C8500809480501A9002C4E0FFAD012EFBE92E1E
:102C9500900282F09002C7E0900283F01227DA22B8
:0E237600900266EBF0A3EAF0A3E9F0A3EDF00D
:10238400700302245F900269E0B40135900266E0B4
:10239400FBA3E475F0011215F9A9F0FA12152490C3
:1023A400026BF0900266E0FBA3E0FAA3E0F91215D9
:1023B40024FC90026BE0FFAD0490026AE0FB12275C
:1023C4003E900266E0FBA3E475F0011215F9A9F052
:1023D400FA12152490026BF0900266E0FBA3E475F8
:1023E400F0011215F9A9F0FA121524FC90026E748A
:1023F40001F0900269E0FF90026EE0C39F505C9090
:102404000266E0FBA3E475F0011215F9A9F0FA12D3
:10241400152490026CF0900266E0FBA3E475F001D1
:102424001215F9A9F0FA12152490026DF090026BBE
:10243400E0FFAD04A3E0FBA3E0900248F090026A41
:10244400E0900249F0121F1C90026CE090026BF0C5
:0B24540090026DE0FCA3E004F0809714
:01245F00225A
:08268A009002A6EFF0A3EDF0B1
:10269200E4FCAF03A907EF25E0FFC374039FFAEC44
:1026A200D39940030227329002A6E02CFFA3E0292F
:1026B2001227389002A6E02C1227339002A6E0C31C
:1026C2009CFFA3E0291227389002A6E0C39C1227A0
:1026D200339002A6E029FFA3E02C1227389002A62D
:1026E200E029FFA3E0C39C1227389002A6E0C39919
:1026F200FFA3E02C1227389002A6E0C399FFA3E0C3
:10270200C39C122738C3EA64809480500FAF040C34
:10271200EF25E025E024062AFA0226A1AF0119AE30
:10272200040CC3EE9F25E025E0240A2AFA0226A122
:012732002284
:0B11640090026FEBF0A3EAF0A3E9F0AB
:10116F0090000212153DFEC39414401690026FE0DA
:10117F00FBA3E0FAA3E0F990000312153DC394140A
:10118F0050037F0022EEFF1215242FFFE433FED30E
:10119F00EF9480EE6480948040037F002290026F72
:1011AF00E0FBA3E0FAA3E0F990000312153DFF90D6
:1011BF00000112153D2FFFE433FED3EF9420EE64B0
:1011CF0080948040037F002290026FE0FBA3E0FA3F
:1011DF00A3E0F9121524FCFFC00790000112153D82
:1011EF00FD90000212153D2C14FBC00390026FE01E
:1011FF00FB90000312153DFF90000112153D2F14B7
:10120F00900282F0E4A3F0D003D0071227DA900205
:10121F006FE0FBA3E0FAA3E0F9121524FCFFC0076F
:10122F0090000112153DFD90000212153D2C14FB8C
:10123F00C00390026FE0FB90000312153DFF90007A
:10124F000112153D2F149002A4F0A37401F0D003E6
:10125F00D007122B4E90026FE0FBA3E0FAA3E0F948
:10126F00121524FF90000112153D2409122DAB9089
:10127F00026FE0FBA3E0FAA3E0F990000212153D24
:10128F00FF1215242F24F6FF90000112153DFD24A7
:10129F0009FB9002BF7401F0122F7B90026FE0FBED
:1012AF00A3E0FAA3E0F990000212153DFF121524F6
:1012BF002FFE24F6FF90000112153DFDEE14121FB4
:1012CF001090026FE0FBA3E0FAA3E0F99000021286
:1012DF00153DFF1215242FFE14FF90000112153D2E
:1012EF00FDEE24F6121F1090026FE0FBA3E0FAA3AD
:1012FF00E0F99000041217C2E94A700302139890A4
:10130F00026FE0FBA3E0FAA3E0F99000041217C20A
:10131F00900272EBF0A3EAF0A3E9F090026FE0FB0A
:10132F00A3E0FAA3E0F9121524FF2402900275F04E
:10133F0090000112153D04900276F09000021215F4
:10134F003D2F14900277F0900275E0FF3395E0FE89
:10135F00EF2408FFE43EFE900277E0FD3395E0FCBA
:10136F00D3EF9DEC6480F8EE648098501C9002726D
:10137F00E0FBA3E0FAA3E0F9121524600C1220762B
:10138F00900275E02406F080BE90026FE0FBA3E0B0
:10139F00FAA3E0F99000071217C2E94A700302148A
:1013AF003B90026FE0FBA3E0FAA3E0F99000071275
:1013BF0017C2900272EBF0A3EAF0A3E9F090026F6C
:1013CF00E0FBA3E0FAA3E0F9121524FF2402900238
:1013DF0075F090000112153D240C900276F09000EC
:1013EF000212153D2F14900277F0900275E0FF3333
:1013FF0095E0FEEF2408FFE43EFE900277E0FD3318
:10140F0095E0FCD3EF9DEC6480F8EE648098501C5F
:10141F00900272E0FBA3E0FAA3E0F9121524600C2E
:10142F00122076900275E02406F080BE90026FE0E5
:10143F00FBA3E0FAA3E0F990000A1217C2E94A7081
:10144F000302152190026FE0FBA3E0FAA3E0F990ED
:10145F00000312153DC3941950037F002290026FB1
:10146F00E0FBA3E0FAA3E0F9121524FF90000312AA
:10147F00153DFE90000112153D2E24F6122DAB9056
:10148F00026FE0FBA3E0FAA3E0F990000A1217C283
:10149F00900272EBF0A3EAF0A3E9F090026FE0FB89
:1014AF00A3E0FAA3E0F9121524FF2403900275F0CC
:1014BF0090000312153DFE90000112153D2E24F7EA
:1014CF00900276F090000212153D2F14900277F0E3
:1014DF00900275E0FF3395E0FEEF2408FFE43EFE37
:1014EF00900277E0FD3395E0FCD3EF9DEC6480F83C
:1014FF00EE648098501C900272E0FBA3E0FAA3E028
:10150F00F9121524600C122076900275E02406F073
:04151F0080BE7F010A
:0115230022A5
:072E75009002ACEDF0A9038F
:102E7C00AC07ECD399501F9002ACE0FA9002AEE094
:102E8C00FFEAD39F500DAF04AD02A3E0FB12273E27
:092E9C000A80E90C80DC022CEE36
:10207600900275E0FFA3E0FD900272E0FBA3E47519
:10208600F0011215F9A9F0FA121524FB7407900253
:062096007BF0A37401F0D1
:0C209C00900278EFF090027AEBF0A905BA
:1020A80090027EE9F090027AE024E0F0E4FC9002ED
:1020B8007BE0FFECC39F400302217EEFB407299029
:1020C800027AE075F006A42426F582E5F03400F5DE
:1020D80083E5822CF582E43583F583E493FF122EA1
:1020E800D390027DEFF0803890027BE090027AB4C2
:1020F8000C0FE075F00CA42460F582E5F034028042
:102108000DE075F010A424D4F582E5F03406F583CB
:10211800E5822CF582E43583F583E49390027DF023
:10212800E4FA90027DE030E70E900278E0FFAD011E
:1021380090027CE0FB8013900278E0FFAD019002F2
:102148007CE070047B0180027B0012273E90027DB8
:10215800E025E0F009A3E0FFC3E99FFE90027BE0E1
:10216800B5060AA907900278E004F080050AEAB4E7
:0621780008B00C0220B6C5
:01217E00223E
:082CA500900285EFF0A3EDF0B1
:102CAD00A312179100000001900286E0FF14F0EFCF
:102CBD006020A3E0F8A3E0F9A3E0FAA3E0FB900203
:102CCD0085E0FFE4FCFDFE12160F900287121785BA
:102CDD0080D6900287E0FCA3E0FDA3E0FEA3E0FF19
:012CED0022C4
:08246000900250EFF0A3EDF033
:10246800E490025AF0900258F0900256E0FF900271
:1024780058E0FEC39F4003022526C3EF9E14FD7F4C
:102488000A122CA5A804A905AA06AB07900252E0D7
:10249800FCA3E0FDA3E0FEA3E0FF12169AE47B0A8A
:1024A800FAF9F812169A900259EBF0A3E0703A90F4
:1024B8000256E014FF900258E0FEC39F502BA3E0A1
:1024C8007021900257E0FCC3138EF0A4FF900250D5
:1024D800E02FFFA3E0FD90027BECF0A37401F07BFA
:1024E80020802F90025A7401F0900257E0FEC31327
:1024F800FFA3E0FDEF8DF0A4FF900250E02FFFA3B3
:10250800E0FD900259E02430FB90027BEEF0A374CA
:0E25180001F012209C900258E004F0022471A1
:012526002292
:10227C0090028BEFF0A3EDF0A3EBF0A3EAF0A3E94F
:10228C00F090028DE0FBA3E0FAA3E0F912152470A4
:10229C0003022375900290E06410704090028BE072
:1022AC00D3947A4007E4F0A3E02410F090028CE081
:1022BC00D394204003122E4490028BE0FFA3E0FD48
:1022CC00A3E0FBA3E0FAA3E0F9121524FB741012AF
:1022DC00209490028BE02408F0022368900290E096
:1022EC00640C703890028BE0D3947A4007E4F0A32E
:1022FC00E02410F090028CE0D394204003122E4482
:10230C0090028BE0FFA3E0FDA3E0FBA3E0FAA3E0C7
:10231C00F9121524FB90027B740C803690028BE032
:10232C00D3947A4007E4F0A3E02410F090028CE000
:10233C00D394204003122E4490028BE0FFA3E0FDC7
:10234C00A3E0FBA3E0FAA3E0F9121524FB90027BB7
:10235C00740712209790028BE02406F090028EE412
:0A236C0075F0011215E302228D2224
:0C291100900291EFF0900293EBF0A9050A
:10291D00900296E9F0E4FCECC39410900293E075FC
:10292D00F020A424C4F582E5F0340CF583E5822C67
:10293D00F582E43583F583E493900295F0E4FA9003
:10294D000295E030E70E900291E0FFAD0190029408
:10295D00E0FB8013900291E0FFAD01900294E070D6
:10296D00047B0180027B0012273E900295E025E05A
:10297D00F009A3E0FFC3E99FFEBE100AA90790026C
:10298D0091E004F080050AEAB408B40CEC64207000
:01299D0086B3
:01299E002216
:0425DB00AC05A9079B
:1025DF00ECFF900262E4F0A3EFF0E490025EF0A350
:1025EF00F090025EE0FEA3E0FFC3EE940240030210
:1025FF00268974642FF582740F3EF583E493FF9060
:10260F00025CE4F0A3EFF0E4900260F0A3F090021C
:10261F005DE0AF01AD0430E7047B018002E4FB1203
:10262F00273E90025DE025E0F090025CE033F00C75
:10263F00ECFF900262E0FAA3E0FBC3EF9BFFE49A8A
:10264F00FEEF64204E7005AC0309801D900261E01F
:10265F0004F07006900260E004F0C3900261E09411
:10266F0008900260E0940040A590025FE004F070D3
:0A267F000690025EE004F00225F070
:01268900222E
:10252700D2A47F647E00123073C2A47F647E00123F
:102537003073D2A4E4FD7FFD122F297F12122F29B9
:102547007FAE122F297F20122F297F02122F297F7A
:10255700B4122F29E4FF122F297F10122F297F6031
:10256700122F297FD5122F297FF0122F297FA8122A
:102577002F297F1F122F297FD3122F29E4FF122F14
:10258700297FA1122F297FC0122F297FD8122F2927
:102597007F05122F297FDA122F297F12122F297F09
:1025A700D9122F297FF1122F297F81122F297FBF5F
:1025B700122F297FDB122F297F34122F297FA41294
:1025C7002F297FA6122F297FAF122F29122E4BE416
:0425D700FF022FE3ED
:102A8E0090025C12178553877F759850438E049081
:102A9E00025CE0F8A3E0F9A3E0FAA3E0FB7F007E7E
:102AAE00307D2A7C0012169AEFF404F5D790025C62
:102ABE00E0F8A3E0F9A3E0FAA3E0FB7F007E307D0F
:102ACE002A7C0012169AC3E49FFFE49EFE74019DB9
:102ADE00FDE49CFC780812173D8FD6438E01438E81
:022AEE001022B4
:0B31F8007F007EC27D017C00022A8E59
:083228008F993099FDC2992233
:102DDF0090025CEBF0A3EAF0A3E9F090025CE0FB59
:102DEF00A3E0FAA3E0F9121524601790025CA3E4A4
:102DFF0075F0011215F9A9F0FA121524FF12311B03
:032E0F0080D92245
:10311B00AE07EEB40A097F0D1232287F0A8002AF88
:07312B0006123228AF062254
:10314800EFC3940AEF50052430FD80032437FDAF08
:043158000502311B20
:10302200AC077F2012311BECC4540FFF123148EC65
:0B303200540FFF1231487F2002311BB9
:030023000230A503
:0630A500C0E0C083C08200
:0B30AB00309808C29890025BE599F095
:0730B600D082D083D0E0328C
:09320E00D287C284C286C2852267
:10315C00E4FEEF339284C285D285EF25E0FF0EEEBC
:03316C00B408EFB5
:01316F00223D
:10303D00C286AF051DEF6010121524FF12315C74AE
:0B304D000129F9E43AFA80EAD2862259
:102BAC000A7374617274206D61736B3A2070616387
:102BBC006B61676520747970652031202C20504141
:102BCC00434B5F414444203D2030202C2049435F3F
:102BDC00414444203D20300A0A000A00504E5F5404
:102BEC004D50204249542031353A300A006D617302
:092BFC006B206F766572210A005E
:043106004102000082
:0C31E100759DFFE4F5BDF5BE75BC8022B5
:102F9F00EF4488F5BC00000000E5BC30E4FB53BCF7
:102FAF00EFAFBDEF75F004A4ADBE7C002DFFEC3587
:032FBF00F0FE22FF
:0530BD00E4FF122F9F4B
:1030C200C3E49FFD74049EFC12158E7C037DE812FE
:0330D200157C2248
:101BCC00C283C281C282C2800000000000000000FB
:101BDC0000001230BD900205EEF0A3EFF000000003
:101BEC00007F01122F9F1230C290020DEEF0A3EF76
:101BFC00F0000000007F02122F9F1230C2900215DD
:101C0C00EEF0A3EFF0000000007F03122F9F1230C4
:101C1C00C290021DEEF0A3EFF0000000007F041252
:101C2C002F9F1230C2900225EEF0A3EFF0000000BF
:101C3C00007F05122F9F1230C2A3EEF0A3EFF0002D
:101C4C000000007F06122F9F1230C2A3EEF0A3EF0C
:101C5C00F0000000007F07122F9F1230C2A3EEF09D
:101C6C00A3EFF0C283C281D282D2800000000000B8
:101C7C0000000000001230BD900207EEF0A3EFF060
:101C8C00000000007F01122F9F1230C290020FEE55
:101C9C00F0A3EFF0000000007F02122F9F1230C261
:101CAC00900217EEF0A3EFF0000000007F03122F5C
:101CBC009F1230C290021FEEF0A3EFF0D283D281BC
:101CCC00C282C28000000000000000000000123040
:101CDC00BD900209EEF0A3EFF0000000007F0112AE
:101CEC002F9F1230C2900211EEF0A3EFF000000013
:101CFC00007F02122F9F1230C2900219EEF0A3EF58
:101D0C00F0000000007F03122F9F1230C2900221BE
:101D1C00EEF0A3EFF0D283D281D282D28000000009
:101D2C00000000000000001230BD90020BEEF0A38A
:101D3C00EFF0000000007F01122F9F1230C29002C2
:101D4C0013EEF0A3EFF0000000007F02122F9F12A1
:101D5C0030C290021BEEF0A3EFF0000000007F03F6
:0F1D6C00122F9F1230C2900223EEF0A3EFF0224D
:10217F00AB0790020112179100000000EB60030201
:10218F002262900234E05401FF900204E054FE4FAB
:10219F00F0900234E0540225E0FF900204E054FB7B
:1021AF004FF0900234E0540425E025E0FF90020444
:1021BF00E054EF4FF0900234E0540833333354F8C7
:1021CF00FF900204E054BF4FF0900234E05410C46B
:1021DF00540FFF900203E054FE4FF0900234E0548E
:1021EF00201313543FFF900203E054F74FF0900277
:1021FF0034E05440C313FF900203E054DF4FF090DC
:10220F000234E05480C313FF900203E054BF4FF039
:10221F00900233E05401C43333335480FF900203F0
:10222F00E0547F4FF0900233E05402FF900202E03F
:10223F0054FD4FF0900233E05404FF900202E0543B
:10224F00FB4FF0900233E05408FF900202E054F786
:10225F004FF022EB64016014900231E0FCA3E0FD2B
:0D226F00A3E0FEA3E0FF90020112178522FC
:0E31C600D20190022D12179100000000A2010C
:0131D40022D8
:102E12001231C6402C90022DE0FCA3E0FDA3E0FE9F
:102E2200A3E0FF900201E0F8A3E0F9A3E0FAA3E037
:102E32006FFFEA6EFEE96DFDE86CFC9002C81217A6
:012E4200850A
:012E4300226C
:1018190090023112179100000000900201121791F5
:10182900000000007BFF7A2B79AC122DDF900200BB
:10183900E06003021A0AFF12217F7BFF7A2B79E607
:10184900122DDF7BFF7A2B79E8122DDF900233E02E
:10185900C41313135401FF123022900233E0C4134E
:10186900135401FF123022900233E0C4135401FFD4
:10187900123022900233E0C45401FF123022900248
:1018890033E01313135401FF123022900233E01393
:10189900135401FF123022900233E0C3135401FFA5
:1018A900123022900233E05401FF123022900234A8
:1018B900E0C41313135401FF123022900234E0C420
:1018C90013135401FF123022900234E0C41354015F
:1018D900FF123022900234E0C45401FF12302290EA
:1018E9000234E01313135401FF123022900234E042
:1018F90013135401FF123022900234E0C313540130
:10190900FF123022900234E05401FF1230227BFF93
:101919007A2B79E8122DDF900203E0C413131354D4
:1019290001FF123022900203E0C413135401FF1285
:101939003022900203E0C4135401FF1230229002B6
:1019490003E0C45401FF123022900203E013131381
:101959005401FF123022900203E013135401FF12C5
:101969003022900203E0C3135401FF123022900287
:1019790003E05401FF123022900204E0C413131350
:101989005401FF123022900204E0C413135401FFE2
:10199900123022900204E0C4135401FF1230229045
:1019A9000204E0C45401FF123022900204E0131330
:1019B900135401FF123022900204E013135401FF63
:1019C900123022900204E0C3135401FF1230229016
:1019D9000204E05401FF1230227BFF7A2B79E612D0
:1019E9002DDF900231121750E47BFF7A0FF9F8D3FB
:1019F90012172C40030218369002007401F00218E5
:0A1A0900367BFF7A2B79F9022DDFFE
:08310A0041023A0041023B00C2
:10319600C28C438E805389F0758A46758CFEC28D2B
:0131A6002206
:10318300C28E438E4053890FE4F58B758D28C28F11
:03319300D28E22B7
:0B32030043B10453B2FBC2B2C28822E8
:09321700123196123183D2AB2270
:1030D500D2A8E490023DF0A3F090024112179100AE
:0830E500000000D28CD2AB22E6
:10313200C2A8C28CE490023DF0A3F09002411217A3
:06314200910000000022D4
:03000300021D7B60
:101D7B00C0E0C0F0C083C082C0D075D000C000C02E
:0B1D8B0002C003C004C005C006C00772
:101D960090023AE06003021E6820B203021E31A3DD
:101DA600E0FF700D90023DF0A3F090023B04F0803E
:101DB6007AEF6402707590023DE0FEA3E0FF9002A8
:101DC60035EEF0A3EFF090023DE4F0A3F090023B75
:101DD600F0C3900238E09F900237E09E504D90028B
:101DE60035E0FEA3E0FFC3947DEE9400403DD3EFC3
:101DF60094EEEE9402503490023A7401F090023957
:101E06007418F07C007D2812157C7D7C12158EEFEF
:101E16007803CEC313CE13D8F9FDAC067E037FE854
:101E260012158E90023FEEF0A3EFF030B203021EC1
:101E3600F790023BE090023DB4011CE0FFA3E09066
:101E46000237CFF0A3EFF090023DE4F0A3F090024A
:101E56003B7402F0021EF7E4F0A3F090023BF0029E
:101E66001EF720B22790023DE0FEA3E0FF90023766
:101E7600EEF0A3EFF090023DE4F0A3F0D3EF941E52
:101E8600EE9400406C90023AE4F0806530B26290C5
:101E9600023DE0FEA3E0FF900235EEF0FAA3EFF07C
:101EA600FB90023DE4F0A3F0900241E0FCA3E0FDCC
:101EB600A3E0FEA3E0FF780112173D90024112173E
:101EC60085D3900238E09B900237E09A4019900241
:101ED60041E0FCA3E0FDA3E0FEA3E0FFED4480FDAE
:101EE600EC900241121785900239E014F07002A3BB
:011EF600F0FB
:101EF700D007D006D005D004D003D002D000D0D070
:091F0700D082D083D0F0D0E0328A
:03000B0002305868
:10305800C0E0C083C08290023EE004F07006900297
:0B3068003DE004F0D082D083D0E032C5
:03001B00022FC2EF
:082FC200C0E0C083C082C0D052
:102FCA0090023CE004F0E0C394644004E4F0B2C52B
:092FDA00D0D0D082D083D0E032C7
:083112004102CF004102CC0094
:102F520020C3047401801E20C4047402801720A0C0
:102F6200047403801020A1047404800920B704743F
:092F720005800274FF12156A22A9
:10287B009002D074FFF0FF7B017A0279D0122F52B5
:10288B009002D0E0FEF4702C9002CEE0FDC39410C9
:10289B0040099002CCE04440FF800DEDC394024010
:1028AB00079002CCE04430FF9002CCEEF0E49002B3
:1028BB00CEF0804C9002CCE0FE9002D0E0FD6E603A
:1028CB000F9002CCEDF0E49002CEF0A304F0803038
:1028DB009002CEE004F0E0FDB40204AF068021EDDF
:1028EB00B410099002CCE04410FF80149002CEE0AB
:1028FB00B4130D9002CCE04420FF9002CE7410F084
:05290B009002CDEFF089
:0129100022A4
:0300000002299F33
:0C299F00787FE4F6D8FD7581200229E65F
:10152400BB010689828A83E0225002E722BBFE02C5
:09153400E32289828A83E49322F8
:10153D00BB010CE58229F582E5833AF583E0225063
:10154D0006E92582F8E622BBFE06E92582F8E222AD
:0D155D00E58229F582E5833AF583E49322C7
:10156A00BB010689828A83F0225002F722BBFE0160
:02157A00F3225A
:10157C00EF8DF0A4A8F0CF8CF0A428CE8DF0A42E83
:02158C00FE223D
:10158E00BC000BBE0029EF8DF084FFADF022E4CC41
:10159E00F875F008EF2FFFEE33FEEC33FCEE9DEC0A
:1015AE00984005FCEE9DFE0FD5F0E9E4CEFD22ED50
:1015BE00F8F5F0EE8420D21CFEADF075F008EF2F9A
:1015CE00FFED33FD4007985006D5F0F222C398FD8B
:0515DE000FD5F0EA2228
:1015E300C5F0F8A3E028F0C5F0F8E5821582700293
:0615F3001583E038F02230
:1015F900A3F8E0C5F025F0F0E582158270021583A5
:06160900E0C838F0E82201
:10160F00E88FF0A4CC8BF0A42CFCE98EF0A42CFC7A
:10161F008AF0EDA42CFCEA8EF0A4CDA8F08BF0A4F8
:10162F002DCC3825F0FDE98FF0A42CCD35F0FCEB57
:10163F008EF0A4FEA9F0EB8FF0A4CFC5F02ECD391C
:0F164F00FEE43CFCEAA42DCE35F0FDE43CFC2289
:10165E0075F008758200EF2FFFEE33FECD33CDCC43
:10166E0033CCC58233C5829BED9AEC99E5829840C6
:10167E000CF582EE9BFEED9AFDEC99FC0FD5F0D6A3
:10168E00E4CEFBE4CDFAE4CCF9A88222B800C1B9CD
:10169E000059BA002DEC8BF084CFCECDFCE5F0CB0B
:1016AE00F97818EF2FFFEE33FEED33FDEC33FCEB44
:1016BE0033FB10D703994004EB99FB0FD8E5E4F9FF
:1016CE00FA227818EF2FFFEE33FEED33FDEC33FCEC
:1016DE00C933C910D7059BE99A4007EC9BFCE99AE0
:1016EE00F90FD8E0E4C9FAE4CCFB2275F010EF2F25
:1016FE00FFEE33FEED33FDCC33CCC833C810D70725
:10170E009BEC9AE899400AED9BFDEC9AFCE899F85F
:0E171E000FD5F0DAE4CDFBE4CCFAE4C8F922F2
:10172C00EB9FF5F0EA9E42F0E99D42F0E89C45F013
:01173C00228A
:10173D00E8600FECC313FCED13FDEE13FEEF13FF8A
:03174D00D8F122AE
:101750007401FF3395E0FEFDFCA3A3A3E0CF2FF0BF
:10176000E582158270021583E0CE3EF0E582158297
:1017700070021583E0CD3DF0E5821582700215837D
:05178000E0CC3CF0226A
:0C178500ECF0A3EDF0A3EEF0A3EFF022D7
:10179100A8828583F0D083D0821217A81217A812CD
:1017A10017A81217A8E473E493A3C583C5F0C583F2
:1017B100C8C582C8F0A3C583C5F0C583C8C582C8A2
:0117C1002205
:1017C200BB010DE58229F582E5833AF5830217FB19
:1017D2005007E92582F80217F2BBFE07E92582F8D5
:1017E200021804E58229F582E5833AF58302180D91
:1029AB00023170E493A3F8E493A34003F68001F2A1
:1029BB0008DFF48029E493A3F85407240CC8C3332D
:1029CB00C4540F4420C8834004F456800146F6DFFC
:1029DB00E4800B0102040810204080903104E47E57
:1029EB00019360BCA3FF543F30E509541FFEE493F1
:1029FB00A360010ECF54C025E060A840B8E493A3B8
:102A0B00FAE493A3F8E493A3C8C582C8CAC583CAE2
:102A1B00F0A3C8C582C8CAC583CADFE9DEE780BE9A
:01311A0000B4
:0917F200E6FB08E6FA08E6F9221C
:0917FB00E0FBA3E0FAA3E0F922EF
:09180400E2FB08E2FA08E2F92215
:0C180D00E493FB740193FA740293F92237
:00000001FF
