:102942003D3D3D3D3D3D3D3D3D3D3D3D3D3D3D3DB5
:102952003D3D3D3D3D3D3D3D3D3D3D3D3D3D3D3DA5
:102962003D3D3D3D3D3D3D3D3D3D3D3D3D3D3D3D95
:102972003D3D3D3D3D3D3D0A002A2A2A2A2A2A2A7A
:102982002A2A2A2A2A2A2A2A2A2A2A2A2A2A204297
:1029920075726E20436F64652058202A2A2A2A2ADB
:1029A2002A2A2A2A2A2A2A2A2A2A2A2A2A2A2A2A85
:1029B2000A002A2020202020202020202020202041
:1029C2002020202020202020202020202020202005
:1029D20020202020202020202020202020202020F5
:1029E20020202020202020202A0A002A2020202007
:1029F20056657273696F6E3A2053444B312E3030F4
:102A02002E30302831313A32303A3136204170722C
:102A12002032202032303135292020202020202051
:102A2200202A0A002A2020202020417574686F7213
:102A32003A204C69616F6B657972653C4C69616FD4
:102A42006B6579726540666F786D61696C2E636F34
:102A52006D3E20202020202020202A0A002A20202B
:102A6200417574686F723A20436865727279407971
:102A72006373656D692E636F6D2E636E204079619D
:102A82006E6368656E6720636F6D70616E7920207A
:102A92002020202A0A002A2A2A2A2A2A2A2A2A2AFC
:102AA2002A2A2A2A2A2A2A2A2A2A2A2A2A2A2A2A84
:102AB2002A2A2A2A2A2A2A2A2A2A2A2A2A2A2A2A74
:102AC2002A2A2A2A2A2A2A2A2A2A2A2A2A0A000ACE
:102AD2000A0A53797374656D204C6F6164696E677D
:102AE2002E2E2E0A000A0A0A53797374656D204C41
:092AF2006F6164204F6B210A00A2
:103A99007BFF7A297942123DF47BFF7A29797B12DF
:103AA9003DF47BFF7A2979B4123DF47BFF7A2979B9
:103AB900ED123DF47BFF7A2A7926123DF47BFF7AD9
:103AC9002A795F123DF47BFF7A2979B4123DF47BA0
:103AD900FF7A2A7998123DF47BFF7A297942123DBF
:103AE900F47BFF7A2A79D1123DF47BFF7A2A79E7B0
:033AF900023DF497
:103B5E007B017A0279B89002A87404F07F10123DAE
:103B6E004574FFFFFEFDFC9002B8E0F8A3E0F9A358
:103B7E00E0FAA3E0FBC312268460177FFF7EFF7D71
:103B8E000F7C009002B8E0F8A3A3A3E0D312268422
:103B9E00401B9002871226C7000000007B017A02AC
:0D3BAE0079879002A37404F07F10123F137A
:013BBB0022E7
:0F423000123444123E2EE4FDFF1235AB023D0363
:103F8F00E4F591F592F595F596F5B1F5B2F5B3F532
:103F9F00B4F5C9F5CAF593F59443B4227591FFF5BD
:083FAF00925395074396F82296
:10419700123F8F12423F124256124230124275E4CA
:0541A70090028CF022E3
:1034F800124197D2C1123A99D2AFC2C1E4FDFF126C
:1035080035AB9002871226C7000000017B017A02C2
:1035180079877D041240BBC287C2C6D287E4900275
:103528008BF0123E2E9002CDE0B4021B9002CFE049
:103538006015900287E0FCA3E0FDA3E0FEA3E0FF96
:10354800780112269580209002CDE0B403369002CF
:10355800CFE06030900287E0FCA3E0FDA3E0FEA38B
:10356800E0FF78011226A89002871226BB7B017A19
:103578000279877D041240BBE49002CFF090028C60
:1035880004F080A19002CDE0640470999002CFE02D
:103598006093E4FF124045E49002CFF090028C045F
:0335A800F080822E
:0241E900C18093
:07427E000000007F18DFFEC5
:014285002216
:05000E00120013D2A155
:070013000000007F0ADFFE80
:01001A0022C3
:0A424B0000007F6C7E90DEFEDFFCB9
:014255002246
:1040650012427ED2A112427ED2A212427EA2A28228
:0F407500A1500AC2A212427EC2A102427EC32201
:1042200012427EC2A212427ED2A112427ED2A222AB
:0C3D8400AC071240657FA0123D90AF0418
:023D9000AE077C
:103D9200E4FD120013EE30E704D2A28002C2A212A6
:103DA200000EC2A1EE25E0FE0DEDB408E5120013EF
:0D3DB200D2A212000EA2A29200C2A1A20095
:013DBF0022E1
:023EB900AE0752
:103EBB00E4FD120013D2A2FCED25E0FD12000E3042
:103ECB00A2010DC2A10CECB408EE120013D2A2EEAB
:0B3EDB006002C2A212000EC2A1AF05DF
:013EE60022B9
:10415300AC05AB071240657FA0123D90AF03123D43
:074163008B12422002424BC7
:103F1300123D849002A3E0FF14F0EF601612247C9C
:103F2300FF123D90740129F9E43AFA0CECC394FFB3
:0A3F330040E12212422012424B220C
:10410B00123D841240657FA1123D90E4FF123EB92F
:07411B00AE07124220AF06BF
:01412200227A
:103D4500AC079002A8E06036123D861240657FA15F
:103D5500123D90E014F09002A8E0FF14F0EF60121D
:103D65007F01123EB9EF1224C2740129F9E43AFA2F
:0F3D750080E4E4FF123EB9EF1224C21242202272
:10002600534144443A00524144443A00000000001F
:1000360000000000005F0000000007000700001439
:100046007F147F1400242A7F2A1200231308646277
:1000560000364955225000000503000000001C220E
:100066004100000041221C000014083E081400084C
:10007600083E08080000503000000008080808087C
:10008600000060600000002010080402003E514994
:10009600453E0000427F4000004261514946002132
:1000A60041454B31001814127F100027454545394C
:1000B600003C4A49493000017109050300364949A7
:1000C600493600064949291E000036360000000060
:1000D60056360000000814224100001414141414AB
:1000E6000000412214080002015109060032497934
:1000F600413E007E1111117E007F49494936003E7E
:1001060041414122007F4141221C007F494949412A
:10011600007F09090901003E4149497A007F080824
:10012600087F0000417F4100002040413F01007FE1
:1001360008142241007F40404040007F020C027FAD
:10014600007F0408107F003E4141413E007F0909BF
:100156000906003E4151215E007F091929460046E5
:10016600494949310001017F0101003F4040403FBC
:10017600001F2040201F003F4038403F0063140806
:1001860014630007087008070061514945430000E1
:100196007F414100000204081020000041417F0019
:1001A60000040201020400404040404000000102F9
:1001B6000400002054545478007F484444380038E2
:1001C6004444442000384444487F0038545454186A
:1001D60000087E090102000C5252523E007F0804BC
:1001E60004780000447D4000002040443D00007F2C
:1001F600102844000000417F4000007C0418047869
:10020600007C08040478003844444438007C141404
:10021600140800081414187C007C0804040800481C
:100226005454542000043F444020003C4040207C6D
:10023600001C2040201C003C4030403C004428105C
:100246002844000C5050503C004464544C44000078
:10025600083641000000007F00000000413608001B
:100266000010080810080000000000000000000050
:100276000000000000003F400000000000000000F9
:100286003000400030004000000009000BC03D0077
:100296000BC03D00090018C024407FE02240318099
:1002A6000000180024C01B000D803240018003802E
:1002B6001C4027401C8007400040100060000000E2
:1002C6000000000000000000000000001F80204029
:1002D60040200000402020401F8000000000090050
:1002E60006001F80060009000000040004003F808D
:1002F6000400040000000010006000000000000080
:1003060000000400040004000400040000000000D3
:1003160000400000000000000000002001C00600B0
:100326003800400000001F802040204020401F80F1
:100336000000000010403FC000400000000018C050
:1003460021402240244018400000108020402440D4
:1003560024401B80000002000D0011003FC0014038
:1003660000003C80244024402440238000001F805D
:10037600244024403440038000003000200027C081
:100386003800200000001B802440244024401B80AD
:1003960000001C0022C0224022401F8000000000F6
:1003A600000008400000000000000000000004609B
:1003B600000000000000000004000A001100208078
:1003C600404009000900090009000900000000007A
:1003D6004040208011000A0004001800200023403D
:1003E6002400180000001F802040274029401F409D
:1003F6000000004007C039000F0001C00040204047
:100406003FC0244024401B8000001F802040204025
:1004160020403080000020403FC0204020401F8008
:10042600000020403FC024402E4030C00000204045
:100436003FC024402E00300000000F0010802040F6
:1004460022403380020020403FC0040004003FC029
:100456002040204020403FC0204020400000006057
:10046600202020203FC02000200020403FC0244004
:100476000B0030C0204020403FC0204000400040DC
:1004860000C03FC03C0003C03C003FC0000020400D
:100496003FC00C4023003FC020001F80204020406A
:1004A60020401F80000020403FC024402400180048
:1004B60000001F802140214020E01FA000002040B6
:1004C6003FC02440260019C0004018C024402440E4
:1004D600224031800000300020403FC020403000E4
:1004E600000020003F80004000403F8020002000A8
:1004F6003E0001C0070038002000380007C03C005D
:1005060007C038000000204039C0060039C020402E
:1005160000002000384007C038402000000030406E
:1005260021C02640384020C00000000000007FE0C7
:10053600402040200000000070000C0003800040B6
:1005460000000000402040207FE000000000000086
:1005560020004000200000000000001000100010E5
:100566000010001000100000000040000000000015
:100576000000000002800540054003C00040200046
:100586003FC0044004400380000000000380044094
:1005960004400640000000000380044024403FC0A1
:1005A60000400000038005400540034000000000B5
:1005B60004401FC0244024402000000002E00550F3
:1005C60005500650042020403FC00440040003C0EC
:1005D60000400000044027C000400000000000105A
:1005E6000010041027E00000000020403FC001403A
:1005F600070004C00440204020403FC000400040A7
:10060600000007C0040007C0040003C00000044047
:1006160007C00440040003C00040000003800440FB
:10062600044003800000041007F0045004400380D7
:100636000000000003800440045007F0001004404E
:1006460007C0024004000400000000000640054008
:10065600054004C00000000004001F800440004064
:100666000000040007800040044007C0004004006A
:10067600070004C0018006000400060001C0070050
:1006860001C006000000044006C0010006C0044088
:1006960000000410071004E00180060004000000BA
:1006A600044005C0064004400000000000000400AD
:1006B6007BE040200000000000000000FFF000008A
:1006C6000000000040207BE0040000000000400025
:1006D60080004000200020004000000000000000D4
:1006E6000000000000000000000000000000000004
:1006F6001FCC000C000000000000000008003000C5
:1007060060000800300060000000022003FC1E208C
:10071600022003FC1E200220000000000E18110417
:100726003FFF10840C78000000000F0010840F3883
:1007360000C0077818840078000000780F8410C481
:1007460011240E9800E40084000808006800700078
:100756000000000000000000000000000000000093
:1007660007E01818200440020000000040022004A0
:10077600181807E000000000000002400240018057
:100786000FF00180024002400000008000800080DF
:100796000FF800800080008000000001000D000EB0
:1007A6000000000000000000000000000080008043
:1007B600008000800080008000800000000C000C9B
:1007C6000000000000000000000000000006001805
:1007D60000600180060018002000000007F00808ED
:1007E60010041004080807F00000000008040804BC
:1007F6001FFC000400040000000000000E0C101492
:100806001024104411840E0C000000000C18100473
:100816001104110412880C700000000000E003208F
:10082600042408241FFC0024000000001F981084E4
:1008360011041104108810700000000007F00888E9
:100846001104110418880070000000001C0010003C
:1008560010FC13001C001000000000000E381144AC
:100866001084108411440E38000000000700088C24
:1008760010441044088807F0000000000000000043
:10088600030C030C00000000000000000000000143
:10089600010600000000000000000000008001408A
:1008A6000220041008081004000002200220022082
:1008B6000220022002200220000000001004080886
:1008C6000410022001400080000000000E0012000B
:1008D600100C106C10800F00000003E00C1813E4DD
:1008E600142417C4082807D000000004003C03C4E1
:1008F6001C40074000E4001C000410041FFC110407
:10090600110411040E880070000003E00C18100496
:100916001004100410081C10000010041FFC100422
:1009260010041004080807F0000010041FFC11044E
:10093600110417C410040818000010041FFC110449
:10094600110017C010000800000003E00C18100486
:10095600100410441C780040000010041FFC108492
:100966000080008010841FFC100400001004100496
:100976001FFC100410040000000000030001100119
:1009860010011FFE10001000000010041FFC1104CF
:1009960003801464181C1004000010041FFC1004CB
:1009A600000400040004000C000010041FFC1F00DB
:1009B60000FC1F001FFC1004000010041FFC0C04A8
:1009C600030000E010181FFC100007F008081004D0
:1009D60010041004080807F0000010041FFC10841F
:1009E6001080108010800F00000007F008181024F7
:1009F6001024101C080A07F2000010041FFC110442
:100A0600110011C011300E0C000400000E1C110460
:100A16001084108410441C380000180010001004C4
:100A26001FFC100410001800000010001FF810042E
:100A36000004000410041FF8100010001E0011E04E
:100A4600001C007013801C0010001FC0103C00E04A
:100A56001F0000E0103C1FC000001004180C1634E4
:100A660001C001C01634180C100410001C00130439
:100A760000FC13041C00100000000804101C106485
:100A8600108413041C04101800000000000000006D
:100A96007FFE4002400240020000000030000C00D1
:100AA60003800060001C00030000000040024002BA
:100AB60040027FFE00000000000000000000200051
:100AC600400040004000200000000001000100013D
:100AD600000100010001000100010000400040008B
:100AE6002000000000000000000000000098012423
:100AF60001440144014400FC000410001FFC00886E
:100B060001040104008800700000000000700088E5
:100B16000104010401040088000000000070008840
:100B26000104010411081FFC0004000000F8014440
:100B360001440144014400C800000000010401040E
:100B46000FFC1104110411001800000000D6012941
:100B56000129012901C90106000010041FFC0084B7
:100B660001000100010400FC000400000104190456
:100B760019FC00040004000000000000000300014E
:100B86000101190119FE0000000010041FFC0024D9
:100B9600004001B4010C0104000000001004100420
:100BA6001FFC0004000400000000010401FC010415
:100BB600010001FC0104010000FC010401FC0084A9
:100BC60001000100010400FC0004000000F801041B
:100BD60001040104010400F80000010101FF008581
:100BE6000104010400880070000000000070008805
:100BF60001040104010501FF00010104010401FCD7
:100C060000840104010001800000000000CC0124E2
:100C160001240124012401980000000001000100C4
:100C260007F80104010400000000010001F80004B7
:100C360000040004010801FC0004010001800170A9
:100C4600000C001001600180010001F0010C003071
:100C560001C00030010C01F0010000000104018C0C
:100C660000740170018C0104000001010181017111
:100C7600000E001801600180010000000184010CD3
:100C8600013401440184010C000000000000000052
:100C9600000001003EFC400240020000000000008F
:100CA6000000FFFF000000000000000040024002BC
:100CB6003EFC010000000000000000006000800013
:100CC6008000400040002000200040107FF84910BE
:100CD600491049207FFF48A088814882388C0FF050
:100CE6001888E884488308820000008041004FFC91
:100CF6007210421043F900014FF2480458186BE095
:100D0600481048084FE64003000000800100060036
:100D16001FFFE0005080148014801480FFFF1480B1
:100D26001484148214FC0000000000040804060465
:100D360001C40084FFFC000400040004FFFC00441E
:100D4600018406041C0C08040000000000001FF0CB
:100D56001220122012201220FFFC1222122212222E
:100D660012221FF20002000E000000800080408068
:100D7600408040804082408147FE488050806080AD
:100D860040800080018000800000082048404980A3
:100D96004E007FFF8A008920002044203340004017
:100DA6000040FFFF008000800000108010821101CB
:100DB600FFFE120014020002130412C81230FE30A5
:100DC60012481384120610040000000000020002FC
:100DD60000020002000200027FFE0202020202027C
:100DE600020202020006000200000000400040006D
:100DF60040004000400040007FFE44004600438023
:100E060041004000C00040000000420842087FF058
:100E16004211429207040018FFE000044204420413
:100E26007FFC4204420442040000020042003200F9
:100E360023FE0004440855FF55505550FD505552A9
:100E4600555155FE44000400000000000101070250
:100E56007904111811E01100FF00110011FC1102B4
:100E6600110211020102000E0000002080208020E5
:100E76009FFF922092209220FFE0922092229221C0
:100E86009FFE80208020002000000040008151014C
:100E96004A0146F55A9362910291E2911A9326F518
:100EA6004A0113012181010000007FFF40004840F4
:100EB600542063C0113E110411041104FFFC1104F7
:100EC60011041104113E0100000000101110111050
:100ED60011101110FFFF000000000000FFFF1110AD
:100EE6001110111011101010000008200620807F2C
:100EF6006180060210021082108290827FFE1082AC
:100F0600108210821082100200000202020CFFF012
:100F160082048202FFFC020202040218FFE082043D
:100F26008202FFFC02000200000000010002000C29
:100F36007FF044404440444044407FFF44404440A6
:100F4600444244417FFE0000000000010002000C04
:100F56001FF01100110011009100510071001100E5
:100F6600110011001F00000000000000000000003A
:100F76000000080000000C0030000E0030000700E2
:100F860030000380300001C0300000C03000001F78
:100F9600FFFE007FFFFE00F0000001C0000003809E
:100FA6003000070030000E0030000C003000080052
:100FB60030000000000007FF3C3C0FFFFC3E0E0324
:100FC600F81E0C01F00E0C01F00E0C01F00E0C01D7
:100FD600F00E0C01F00E0C01F00E0C01F00E0C01DF
:100FE600F81E0E03FFFE0F8FFFFE078F3FFC00006B
:100FF60000000000000000000000000000000000EB
:1010060000000000000000000000000000000000DA
:1010160000000000000000000000000000000000CA
:101026000000000000000020400000218000002792
:10103600FE00003A0800002208000023FC00000120
:10104600010000410600007FF80000410000004159
:10105600000000410000007FFF0000410000000189
:101066000000000000000000010000000600001F54
:10107600F800001100000011080000110400001122
:10108600F800001001000010020000FF84000010AC
:1010960068000090180000506400001382000010E1
:1010A6001F0000000000002410000024600000253E
:1010B6008000007FFF0000C50000004480000000A3
:1010C6002000004420000033200000002000000023
:1010D600200000FFFF00000040000000400000006C
:1010E6004000000000000008200000082200000860
:1010F600410000FFFE00000880000009010000100A
:101106000100001102000011C2000011340000FFAE
:101116000800001114000011620000118100001087
:1011260001000000000000000000000000000000B8
:1011360000000000000000000000000000000000A9
:101146000000000000000000000000000000000099
:101156000000000000000000000000000000000089
:0A116600000000000000000000007F
:103EE700EF540FC454F0FEEF54F0C4540F4EFF5478
:103EF7003325E025E0FEEF54CC1313543F4EFF5417
:0C3F07005525E0FEEF54AAC3134EFF2224
:1040F100EF4E60157D087C07ED1DAA0470011C4A76
:0941010070F6EF1F70EA1E80E762
:01410A002292
:103F3D00ED6004D2A58002C2A5C2A3E4FEC2A6EF25
:103F4D0030E704D2A78002C2A7D2A6EF25E0FF0E6C
:083F5D00EEB408E9D2A3D2A5DD
:013F65002239
:10402500AC07ED24B0FFE4FD123F3DEC54F0C45461
:104035000F4410FF123F3DEC540F4401FF023F3D7A
:103D0300E4FCEC24B4FFE4FD123F3D7F04123F3D8D
:103D13007F10123F3DE4FB75F004EBA42400F58211
:103D2300E5F03400F583E5822CF582E43583F583F1
:103D3300E0FF7D01123F3D0BEBB480DB0CECB404E0
:013D4300C1BE
:013D4400225C
:073E2700E4900248F0A3F053
:103E2E00E4FFE4FE75F004EEA42400F582E5F03420
:103E3E0000F583E5822FF582E43583F583E4F00EF9
:093E4E00EEB480E00FEFB404D9DA
:013E57002248
:0B370300FFA3E0C399FD9002B2E0FBC1
:10370E00E4900256F0EFD3947F40030237A9ED9474
:10371E003F40030237A9ED131313541FFEC3740762
:10372E009E900255F0ED5407FEC374079EFE740181
:10373E00A806088002C333D8FC900256F0EB900224
:10374E0055602AE0FE75F004EFA42400F582E5F042
:10375E003400F583E5822EF582E43583F583C0834C
:10376E00C082E0FF900256E0FEEF4E8029E0FE752B
:10377E00F004EFA42400F582E5F03400F583E58231
:10378E002EF582E43583F583C083C082E0FF90027C
:0B379E0056E0F4FEEF5ED082D083F016
:0137A90022FD
:0C2C9000FBED240990024BF0A37401F04E
:0C2C9C00900248EFF0A90590024AEBF00E
:102CA800E9FFA3E0C39FFEE4940090024DF0A3CE99
:102CB800F0900248E0FFC3EB9FFEE4940090024FBF
:102CC800F0A3CEF090024DE0FEA3E0FFC3EE6480D7
:102CD80094805015C3E49FFFE49E90024DF0A3EF4B
:102CE800F090025274FFF080069002527401F09046
:102CF800024FE0FEA3E0FFC3EE648094805013C34C
:102D0800E49FFFE49E90024FF0A3EFF0A374FFF05E
:102D180080069002517401F0900248E0FFAD0190E6
:102D2800024CE0FB12370E90024DE0FEA3E0FFA339
:102D3800E0FAA3E0FBD39FEE6480F8EA6480984051
:102D480059EAA2E713EB13FF90024DA3E0C39FFCDF
:102D580090024AE0FF900248E06F7003022DF5C32D
:102D6800EC648094804010900252E029F990024F60
:102D7800A3E0FFC3EC9FFC900251E0FF900248E003
:102D88002FF090024DA3E02CFC900248E0FFAD012B
:102D980090024CE0FB12370E80B690024DE0A2E79D
:102DA80013A3E013FFA3A3E0C39FFC90024BE069C9
:102DB800603BC3EC648094804015900251E0FF9022
:102DC8000248E02FF090024DA3E0FFC3EC9FFC9077
:102DD8000252E029F990024FA3E02CFC900248E04F
:0D2DE800FFAD0190024CE0FB12370E80BEE3
:012DF50022BB
:103DC000FD9000021224952F14FB9002BF7401F0A5
:063DD000AC07AA03A905DF
:103DD600ECD39A4006AF02AA04AC07AF04AD01903B
:0D3DE60002BFE0FB12370E0CEAC39C50EE4A
:013DF30022AD
:063FDE00AC05AA03A907CF
:103FE400ECD39A4006AF02AA04AC07AF01AD04902B
:0D3FF40002C3E0FB12370E0CEAC39C50EE36
:01400100229C
:103BBC009002A9EFF0A3EDF0A3EBF09002ADE09032
:103BCC0002BFF0123DD09002A9E0FF9002ACE0FDE4
:103BDC009002ABE0FB9002ADE09002BFF0123DD042
:103BEC009002A9E0FFA3E0FD9002ACE0FBA3E09003
:103BFC0002C3F0123FDE9002ABE0FF9002AAE0FDA0
:0E3C0C009002ACE0FBA3E09002C3F0023FDEAA
:0F37AA0090028EEDF090028DEFF090028FEBF019
:1037B900EFD39B401690028DE0FF900292F09002A9
:1037C9008FE090028DF090028FEFF0900290E0FF71
:1037D90090028EE0FED39F400F900292EEF090028D
:1037E9008EEFF0900290EEF0900290E0FF90028E42
:1037F900E0FDB5071590028DE0FF90028FE0FB9088
:103809000291E09002BFF0023DD090028FE0FF905C
:10381900028DE06F602B900290E0FF90028EE0FD38
:10382900D39F501D90028DE0FF90028FE0FB900224
:1038390091E09002BFF0123DD090028EE004F0803A
:01384900D5A9
:01384A00225B
:103C1A009002C4EFF0AE03A905EE6043EEFD9002F8
:103C2A00C4E02DFDE433FCD3ED9480EC64809480F1
:103C3A00502DEEFDE92DFDE433FCD3ED9420EC6428
:103C4A00809480501A9002C4E0FFAD012EFBE92E49
:103C5A009002ACF09002C7E09002ADF0123BBC2299
:103C6A009002C8EFF0AE03A905EE6043EEFD9002A4
:103C7A00C8E02DFDE433FCD3ED9480EC648094809D
:103C8A00502DEEFDE92DFDE433FCD3ED9420EC64D8
:103C9A00809480501A9002C8E0FFAD012EFBE92EF5
:103CAA00900290F09002CBE0900291F01237AA2293
:0E329300900275EBF0A3EAF0A3E9F0A3EDF0D2
:1032A100700302337C900278E0B40135900275E03E
:1032B100FBA3E475F001122551A9F0FA12247C90C8
:1032C100027AF0900275E0FBA3E0FAA3E0F9122480
:1032D1007CFC90027AE0FFAD04900279E0FB1237AA
:1032E1000E900275E0FBA3E475F001122551A9F0DF
:1032F100FA12247C90027AF0900275E0FBA3E47547
:10330100F001122551A9F0FA12247CFC90027D747F
:1033110001F0900278E0FF90027DE0C39F505C9045
:103321000275E0FBA3E475F001122551A9F0FA1230
:10333100247C90027BF0900275E0FBA3E475F00120
:10334100122551A9F0FA12247C90027CF090027AA5
:10335100E0FFAD04A3E0FBA3E090024BF090027903
:10336100E090024CF0122C9C90027BE090027AF0EB
:0B33710090027CE0FCA3E004F08097D9
:01337C00222E
:08365A009002AEEFF0A3EDF0C9
:10366200E4FCAF03A907EF25E0FFC374039FFAEC64
:10367200D39940030237029002AEE02CFFA3E02967
:103682001237089002AEE02C1237039002AEE0C36C
:103692009CFFA3E0291237089002AEE0C39C1237C8
:1036A200039002AEE029FFA3E02C1237089002AE8D
:1036B200E029FFA3E0C39C1237089002AEE0C39951
:1036C200FFA3E02C1237089002AEE0C399FFA3E0FB
:1036D200C39C123708C3EA64809480500FAF040C75
:1036E200EF25E025E024062AFA023671AF0119AE71
:1036F200040CC3EE9F25E025E0240A2AFA02367163
:0137020022A4
:0B1D310090027EEBF0A3EAF0A3E9F0C3
:101D3C00900002122495FEC39414401690027EE08B
:101D4C00FBA3E0FAA3E0F9900003122495C39414CA
:101D5C0050037F0022EEFF12247C2FFFE433FED3CE
:101D6C00EF9480EE6480948040037F002290027E8A
:101D7C00E0FBA3E0FAA3E0F9900003122495FF9096
:101D8C0000011224952FFFE433FED3EF9420EE6470
:101D9C0080948040037F002290027EE0FBA3E0FA57
:101DAC00A3E0F912247CFCFFC007900001122495DB
:101DBC00FD9000021224952C14FBC00390027EE0CF
:101DCC00FB900003122495FF9000011224952F1410
:101DDC00900290F0E4A3F0D003D0071237AA90023F
:101DEC007EE0FBA3E0FAA3E0F912247CFCFFC00721
:101DFC00900001122495FD9000021224952C14FBE6
:101E0C00C00390027EE0FB900003122495FF90002B
:101E1C00011224952F149002ACF0A37401F0D0039E
:101E2C00D007123BBC90027EE0FBA3E0FAA3E0F9E2
:101E3C0012247CFF9000011224952409123DC090BD
:101E4C00027EE0FBA3E0FAA3E0F9900002122495D5
:101E5C00FF12247C2F24F6FF900001122495FD2400
:101E6C0009FB9002C37401F0123FDE90027EE0FB8E
:101E7C00A3E0FAA3E0F9900002122495FF12247C4F
:101E8C002FFE24F6FF900001122495FDEE14122C67
:101E9C009090027EE0FBA3E0FAA3E0F9900002121E
:101EAC002495FF12247C2FFE14FF90000112249520
:101EBC00FDEE24F6122C9090027EE0FBA3E0FAA338
:101ECC00E0F99000041226F8E94A7003021F8B9087
:101EDC00027EE0FBA3E0FAA3E0F99000041226F8DE
:101EEC00900281EBF0A3EAF0A3E9F090027EE0FB14
:101EFC00A3E0FAA3E0F912247CFF2402900284F000
:101F0C0090000112249504900285F0900002122496
:101F1C00952F14900286F0900284E0FF3395E0FE3A
:101F2C00EF2408FFE43EFE900286E0FD3395E0FCD2
:101F3C00D3EF9DEC6480F8EE64809850429002815F
:101F4C00E0FBA3E0FAA3E0F912247C603290028457
:101F5C00E0FFA3E0FD900281E0FBA3E475F0011229
:101F6C002551A9F0FA12247CFB9002517407F0A3BE
:101F7C007401F01231B0900284E02406F080989045
:101F8C00027EE0FBA3E0FAA3E0F99000071226F82A
:101F9C00E94A700302205490027EE0FBA3E0FAA30E
:101FAC00E0F99000071226F8900281EBF0A3EAF01A
:101FBC00A3E9F090027EE0FBA3E0FAA3E0F912247F
:101FCC007CFF2402900284F0900001122495240CD2
:101FDC00900285F09000021224952F14900286F046
:101FEC00900284E0FF3395E0FEEF2408FFE43EFE10
:101FFC00900286E0FD3395E0FCD3EF9DEC6480F815
:10200C00EE6480985042900281E0FBA3E0FAA3E0DA
:10201C00F912247C6032900284E0FFA3E0FD900270
:10202C0081E0FBA3E475F001122551A9F0FA12240A
:10203C007CFB9002517407F0A37401F01231B09044
:10204C000284E02406F0809890027EE0FBA3E0FA84
:10205C00A3E0F990000A1226F8E94A700302216005
:10206C0090027EE0FBA3E0FAA3E0F99000031224B7
:10207C0095C3941950037F002290027EE0FBA3E0ED
:10208C00FAA3E0F912247CFF900003122495FE9031
:10209C0000011224952E24F6123DC090027EE0FB26
:1020AC00A3E0FAA3E0F990000A1226F8900281EB63
:1020BC00F0A3EAF0A3E9F090027EE0FBA3E0FAA320
:1020CC00E0F912247CFF2403900284F090000312A8
:1020DC002495FE9000011224952E24F7900285F091
:1020EC009000021224952F14900286F0900284E046
:1020FC00FF3395E0FEEF2408FFE43EFE900286E0FD
:10210C00FD3395E0FCD3EF9DEC6480F8EE64809891
:10211C005042900281E0FBA3E0FAA3E0F912247C88
:10212C006032900284E0FFA3E0FD900281E0FBA30B
:10213C00E475F001122551A9F0FA12247CFB9002EF
:10214C00517407F0A37401F01231B0900284E024B2
:06215C0006F080987F01EF
:01216200225A
:073E89009002B4EDF0A90363
:103E9000AC07ECD399501F9002B4E0FA9002B6E060
:103EA000FFEAD39F500DAF04AD02A3E0FB12370E23
:093EB0000A80E90C80DC023D03EC
:10319E00FFA3E02408FD9002517407F0A37401F020
:0231AE007B2D77
:0C31B00090024EEFF0900250EBF0A905E9
:1031BC00900254E9F0900250E024E0F0E4FC90021C
:1031CC0051E0FFECC39F4003023292EFB407299009
:1031DC000250E075F006A42432F582E5F03400F5D7
:1031EC0083E5822CF582E43583F583E493FF123E6C
:1031FC00E7900253EFF08038900251E0900250B407
:10320C000C0FE075F00CA4246CF582E5F034028010
:10321C000DE075F010A424E0F582E5F03406F5839A
:10322C00E5822CF582E43583F583E493900253F028
:10323C00E4FA900253E030E70E90024EE0FFAD014D
:10324C00900252E0FB801390024EE0FFAD01900221
:10325C0052E070047B0180027B0012370E90025307
:10326C00E025E0F009A3E0FFC3E99FFE900251E0E6
:10327C00B5060AA90790024EE004F080050AEAB4EC
:06328C0008B00C0231CA7B
:013292002219
:083CBA00900293EFF0A3EDF07E
:103CC200A31226C700000001900294E0FF14F0EF57
:103CD2006020A3E0F8A3E0F9A3E0FAA3E0FB9002DE
:103CE20093E0FFE4FCFDFE1225679002951226BBCD
:103CF20080D6900295E0FCA3E0FDA3E0FEA3E0FFE6
:013D0200229E
:08337D0090026AEFF0A3EDF0ED
:10338500E4900274F0900272F0900270E0FF9002F7
:1033950072E0FEC39F4003023443C3EF9E14FD7FDA
:1033A5000A123CBAA804A905AA06AB0790026CE06C
:1033B500FCA3E0FDA3E0FEA3E0FF1225F2E47B0AF7
:1033C500FAF9F81225F2900273EBF0A3E0703A9047
:1033D5000270E014FF900272E0FEC39F502BA3E041
:1033E5007021900271E0FCC3138EF0A4FF90026A75
:1033F500E02FFFA3E0FD900251ECF0A37401F07BF8
:1034050020802F9002747401F0900271E0FEC313C6
:10341500FFA3E0FDEF8DF0A4FF90026AE02FFFA36C
:10342500E0FD900273E02430FB900251EEF0A374AE
:0E34350001F01231B0900272E004F002338E0A
:013443002266
:08308F007BFF90024D7407F075
:10309700900248EFF0A3EDF0A3EBF0A3EAF0A3E969
:1030A700F090024AE0FBA3E0FAA3E0F912247C7057
:1030B7000302319D90024DE064107048900248E091
:1030C700D3947A4007E4F0A3E02410F0900249E09B
:1030D700D394204003123E27900248E0FFA3E0FD6F
:1030E700A3E0FBA3E0FAA3E0F912247CFB900251D2
:1030F7007410F0A37401F01231B0900248E0240874
:10310700F002319090024DE0640C7038900248E074
:10311700D3947A4007E4F0A3E02410F0900249E04A
:10312700D394204003123E27900248E0FFA3E0FD1E
:10313700A3E0FBA3E0FAA3E0F912247CFB90025181
:10314700740C8036900248E0D3947A4007E4F0A3E9
:10315700E02410F0900249E0D394204003123E2768
:10316700900248E0FFA3E0FDA3E0FBA3E0FAA3E0A1
:10317700F912247CFB9002517407F0A37401F0123A
:1031870031B0900248E02406F090024BE475F0015C
:0731970012253B0230A822C3
:0C397F00900299EFF090029BEBF0A9057C
:10398B0090029EE9F0E4FCECC3941090029BE0756E
:10399B00F020A424D0F582E5F0340CF583E5822CDD
:1039AB00F582E43583F583E49390029DF0E4FA907D
:1039BB00029DE030E70E900299E0FFAD0190029C72
:1039CB00E0FB8013900299E0FFAD0190029CE07048
:1039DB00047B0180027B0012370E90029DE025E0F4
:1039EB00F009A3E0FFC3E99FFEBE100AA9079002EE
:1039FB0099E004F080050AEAB408B40CEC6420707A
:013A0B008634
:013A0C002297
:0435AB00AC05A907BB
:1035AF00ECFF90023EE4F0A3EFF0E490023AF0A3B8
:1035BF00F090023AE0FEA3E0FFC3EE940240030254
:1035CF00365974702FF582740F3EF583E493FF9094
:1035DF000238E4F0A3EFF0E490023CF0A3F0900285
:1035EF0039E0AF01AD0430E7047B018002E4FB1248
:1035FF00370E900239E025E0F0900238E033F00CFE
:10360F00ECFF90023EE0FAA3E0FBC3EF9BFFE49ACE
:10361F00FEEF64204E7005AC0309801D90023DE063
:10362F0004F0700690023CE004F0C390023DE09479
:10363F000890023CE0940040A590023BE004F0703B
:0A364F000690023AE004F00235C0D4
:01365900224E
:0811700090023CEFF0A3EDF04A
:10117800EF2404FF7A00792612308F90023CE02495
:1011880004FFA3E02410FD7A00792C12308F90021E
:101198004B741FF0A37401F07B26E4FD7F26122C0C
:1011A8009CE490024BF0A304F07B28E4FD7F261218
:1011B8002C9C90024B740FF0A37401F07B287D0FD8
:1011C8007F26122C9C90024B741FF0A37401F07BB5
:1011D800287D1F7F26122C9CE4900247F090023C49
:1011E800E02424F0E02406FFC00790023EE0FCA3C0
:1011F800E0FDA3E0FEA3E0FF7817122695EF540167
:10120800FFEF2430FB9002517407F0A37401F090B3
:10121800023DE0FDD0071231B090023CE0240CFF03
:10122800C00790023EE0FCA3E0FDA3E0FEA3E0FFC0
:101238007816122695EF5401FFEF2430FB900251E7
:101248007407F0A37401F090023DE0FDD00712315D
:10125800B090023CE02412FFC00790023EE0FCA3DD
:10126800E0FDA3E0FEA3E0FF7815122695EF5401F8
:10127800FFEF2430FB9002517407F0A37401F09043
:10128800023DE0FDD0071231B090023CE02418FF87
:10129800C00790023EE0FCA3E0FDA3E0FEA3E0FF50
:1012A8007814122695EF5401FFEF2430FB90025179
:1012B8007407F0A37401F090023DE0FDD0071231ED
:1012C800B090023CE0241EFFA3E01231A390023C40
:1012D800E02424FFC00790023EE0FCA3E0FDA3E069
:1012E800FEA3E0FF7813122695EF5401FFEF243098
:1012F800FB9002517407F0A37401F090023DE0FDE9
:10130800D0071231B090023CE0242AFFC0079002B7
:101318003EE0FCA3E0FDA3E0FEA3E0FF7812122666
:1013280095EF5401FFEF2430FB9002517407F0A3AE
:101338007401F090023DE0FDD0071231B090023CFC
:10134800E02430FFC00790023EE0FCA3E0FDA3E0EC
:10135800FEA3E0FF7811122695EF5401FFEF243029
:10136800FB9002517407F0A37401F090023DE0FD78
:10137800D0071231B090023CE02436FFC00790023B
:101388003EE0FCA3E0FDA3E0FEA3E0FF78101226F8
:1013980095EF5401FFEF2430FB9002517407F0A33E
:1013A8007401F090023DE0FDD0071231B090023C8C
:1013B800E0243CFFA3E01231A390023CE02442FF6A
:1013C800C00790023EE0FCA3E0FDA3E0FEA3E0FF1F
:1013D800780F122695EF5401FFEF2430FB9002514D
:1013E8007407F0A37401F090023DE0FDD0071231BC
:1013F800B090023CE02448FFC00790023EE0FCA306
:10140800E0FDA3E0FEA3E0FF780E122695EF54015D
:10141800FFEF2430FB9002517407F0A37401F090A1
:10142800023DE0FDD0071231B090023CE0244EFFAF
:10143800C00790023EE0FCA3E0FDA3E0FEA3E0FFAE
:10144800780D122695EF5401FFEF2430FB900251DE
:101458007407F0A37401F090023DE0FDD00712314B
:10146800B090023CE02454FFC00790023EE0FCA389
:10147800E0FDA3E0FEA3E0FF780C122695EF5401EF
:10148800FFEF2430FB9002517407F0A37401F09031
:10149800023DE0FDD0071231B090023CE02406FF87
:1014A800C007A3E02408FDC005A3E0FCA3E0FDA35A
:1014B800E0FEA3E0FF780B122695EF5401FFEF241E
:1014C80030FB9002517407F0A37401F0D005D007E7
:1014D8001231B090023CE0240CFFC007A3E02408BE
:1014E800FDC005A3E0FCA3E0FDA3E0FEA3E0FF78B8
:1014F8000A122695EF5401FFEF2430FB9002517435
:1015080007F0A37401F0D005D0071231B090023C67
:10151800E02412FFC007A3E02408FDC005A3E0FCF7
:10152800A3E0FDA3E0FEA3E0FF7809122695EF549F
:1015380001FFEF2430FB9002517407F0A37401F00F
:10154800D005D0071231B090023CE02418FFC00744
:10155800A3E02408FDC005A3E0FCA3E0FDA3E0FE92
:10156800A3E0FF7808122695EF5401FFEF2430FB23
:101578009002517407F0A37401F0D005D00712311E
:10158800B090023CE0241E12319E90023CE02424DC
:10159800FFC007A3E02408FDC005A3E0FCA3E0FD0D
:1015A800A3E0FEA3E0FF7807122695EF5401FFEFB2
:1015B8002430FB9002517407F0A37401F0D005D0D9
:1015C800071231B090023CE0242AFFC007A3E024B0
:1015D80008FDC005A3E0FCA3E0FDA3E0FEA3E0FF37
:1015E8007806122695EF5401FFEF2430FB90025144
:1015F8007407F0A37401F0D005D0071231B090023F
:101608003CE02430FFC007A3E02408FDC005A3E0A8
:10161800FCA3E0FDA3E0FEA3E0FF7805122695EF0A
:101628005401FFEF2430FB9002517407F0A37401BA
:10163800F0D005D0071231B090023CE02436FFC04C
:1016480007A3E02408FDC005A3E0FCA3E0FDA3E098
:10165800FEA3E0FF7804122695EF5401FFEF243033
:10166800FB9002517407F0A37401F0D005D0071263
:1016780031B090023CE0243C12319E90023CE024C0
:1016880042FFC007A3E02408FDC005A3E0FCA3E0D7
:10169800FDA3E0FEA3E0FF7803122695EF5401FFB7
:1016A800EF2430FB9002517407F0A37401F0D005C9
:1016B800D0071231B090023CE02448FFC007A3E0F5
:1016C8002408FDC005A3E0FCA3E0FDA3E0FEA3E021
:1016D800FF7802122695EF5401FFEF2430FB9002A9
:1016E800517407F0A37401F0D005D0071231B090FF
:1016F800023CE0244EFFC007A3E02408FDC005A378
:10170800E0FCA3E0FDA3E0FEA3E0FF78011226952C
:10171800EF5401FFEF2430FB9002517407F0A374DB
:1017280001F0D005D0071231B090023CE02454FFFC
:10173800C007A3E02408FDC005A3E0FCA3A3E0FEC6
:10174800A3E05401FFEF2430FB9002517407F0A38B
:101758007401F0D005D0071231B090023CE02406A5
:10176800FFC007A3E02410FDC005900242E0FCA3DF
:10177800E0FDA3E0FEA3E0FF7817122695EF5401E1
:10178800FFEF2430FB9002517407F0A37401F0D0EE
:1017980005D0071231B090023CE0240CFFC007A32B
:1017A800E02410FDC005900242E0FCA3E0FDA3E0A8
:1017B800FEA3E0FF7816122695EF5401FFEF2430C0
:1017C800FB9002517407F0A37401F0D005D0071202
:1017D80031B090023CE02412FFC007A3E02410FDC2
:1017E800C005900242E0FCA3E0FDA3E0FEA3E0FFF9
:1017F8007815122695EF5401FFEF2430FB90025123
:101808007407F0A37401F0D005D0071231B090022C
:101818003CE02418FFC007A3E02410FDC005900297
:1018280042E0FCA3E0FDA3E0FEA3E0FF781412264B
:1018380095EF5401FFEF2430FB9002517407F0A399
:101848007401F0D005D0071231B090023CE0241E9C
:10185800FFA3E024101231A390023CE02424FFC02F
:1018680007A3E02410FDC005900242E0FCA3E0FDC0
:10187800A3E0FEA3E0FF7813122695EF5401FFEFD3
:101888002430FB9002517407F0A37401F0D005D006
:10189800071231B090023CE0242AFFC007A3E024DD
:1018A80010FDC005900242E0FCA3E0FDA3E0FEA30A
:1018B800E0FF7812122695EF5401FFEF2430FB90D9
:1018C80002517407F0A37401F0D005D0071231B0AB
:1018D80090023CE02430FFC007A3E02410FDC005BF
:1018E800900242E0FCA3E0FDA3E0FEA3E0FF781134
:1018F800122695EF5401FFEF2430FB900251740734
:10190800F0A37401F0D005D0071231B090023CE08A
:101918002436FFC007A3E02410FDC005900242E072
:10192800FCA3E0FDA3E0FEA3E0FF7810122695EFEC
:101938005401FFEF2430FB9002517407F0A37401A7
:10194800F0D005D0071231B090023CE0243CFFA350
:10195800E024101231A390023CE02442FFC007A308
:10196800E02410FDC005900242E0FCA3E0FDA3E0E6
:10197800FEA3E0FF780F122695EF5401FFEF243005
:10198800FB9002517407F0A37401F0D005D0071240
:1019980031B090023CE02448FFC007A3E02410FDCA
:1019A800C005900242E0FCA3E0FDA3E0FEA3E0FF37
:1019B800780E122695EF5401FFEF2430FB90025168
:1019C8007407F0A37401F0D005D0071231B090026B
:1019D8003CE0244EFFC007A3E02410FDC0059002A0
:1019E80042E0FCA3E0FDA3E0FEA3E0FF780D122691
:1019F80095EF5401FFEF2430FB9002517407F0A3D8
:101A08007401F0D005D0071231B090023CE02454A4
:101A1800FFC007A3E02410FDC005900242E0FCA32C
:101A2800E0FDA3E0FEA3E0FF780C122695EF540139
:101A3800FFEF2430FB9002517407F0A37401F0D03B
:101A480005D0071231B090023CE02406FFC007A37E
:101A5800E02418FDC005900242E0FCA3E0FDA3E0ED
:101A6800FEA3E0FF780B122695EF5401FFEF243018
:101A7800FB9002517407F0A37401F0D005D007124F
:101A880031B090023CE0240CFFC007A3E02418FD0D
:101A9800C005900242E0FCA3E0FDA3E0FEA3E0FF46
:101AA800780A122695EF5401FFEF2430FB9002517B
:101AB8007407F0A37401F0D005D0071231B090027A
:101AC8003CE02412FFC007A3E02418FDC0059002E3
:101AD80042E0FCA3E0FDA3E0FEA3E0FF78091226A4
:101AE80095EF5401FFEF2430FB9002517407F0A3E7
:101AF8007401F0D005D0071231B090023CE02418F0
:101B0800FFC007A3E02418FDC005900242E0FCA333
:101B1800E0FDA3E0FEA3E0FF7808122695EF54014C
:101B2800FFEF2430FB9002517407F0A37401F0D04A
:101B380005D0071231B090023CE0241EFFA3E02438
:101B4800181231A390023CE02424FFC007A3E0242C
:101B580018FDC005900242E0FCA3E0FDA3E0FEA34F
:101B6800E0FF7807122695EF5401FFEF2430FB9031
:101B780002517407F0A37401F0D005D0071231B0F8
:101B880090023CE0242AFFC007A3E02418FDC0050A
:101B9800900242E0FCA3E0FDA3E0FEA3E0FF78068C
:101BA800122695EF5401FFEF2430FB900251740781
:101BB800F0A37401F0D005D0071231B090023CE0D8
:101BC8002430FFC007A3E02418FDC005900242E0BE
:101BD800FCA3E0FDA3E0FEA3E0FF7805122695EF45
:101BE8005401FFEF2430FB9002517407F0A37401F5
:101BF800F0D005D0071231B090023CE02436FFC087
:101C080007A3E02418FDC005900242E0FCA3E0FD14
:101C1800A3E0FEA3E0FF7804122695EF5401FFEF3E
:101C28002430FB9002517407F0A37401F0D005D062
:101C3800071231B090023CE0243CFFA3E0241812C4
:101C480031A390023CE02442FFC007A3E02418FD22
:101C5800C005900242E0FCA3E0FDA3E0FEA3E0FF84
:101C68007803122695EF5401FFEF2430FB900251C0
:101C78007407F0A37401F0D005D0071231B09002B8
:101C88003CE02448FFC007A3E02418FDC0059002EB
:101C980042E0FCA3E0FDA3E0FEA3E0FF78021226E9
:101CA80095EF5401FFEF2430FB9002517407F0A325
:101CB8007401F0D005D0071231B090023CE0244EF8
:101CC800FFC007A3E02418FDC005900242E0FCA372
:101CD800E0FDA3E0FEA3E0FF7801122695EF540192
:101CE800FFEF2430FB9002517407F0A37401F0D089
:101CF80005D0071231B090023CE02454FFC007A37E
:101D0800E02418FDC005900242E0FCA3A3E0FEA376
:101D1800E05401FFEF2430FB9002517407F0A374E4
:091D280001F0D005D0070231B032
:10344400D2A47F647E001240F1C2A47F647E001285
:1034540040F1D2A4E4FD7FFD123F3D7F12123F3DB7
:103464007FAE123F3D7F20123F3D7F02123F3D7FE2
:10347400B4123F3DE4FF123F3D7F10123F3D7F6099
:10348400123F3D7FD5123F3D7FF0123F3D7FA81292
:103494003F3D7F1F123F3D7FD3123F3DE4FF123F6C
:1034A4003D7FA1123F3D7FC0123F3D7FD8123F3D7B
:1034B4007F05123F3D7FDA123F3D7F12123F3D7F71
:1034C400D9123F3D7FF1123F3D7F81123F3D7FBFC7
:1034D400123F3D7FDB123F3D7F34123F3D7FA412FC
:1034E4003F3D7FA6123F3D7FAF123F3D123E2EE48B
:0434F400FF0240256E
:103AFC009002381226BB53877F759850438E0490E2
:103B0C000238E0F8A3E0F9A3E0FAA3E0FB7F007E23
:103B1C00307D2A7C001225F2EFF404F5D7900238A0
:103B2C00E0F8A3E0F9A3E0FAA3E0FB7F007E307D90
:103B3C002A7C001225F2C3E49FFFE49EFE74019DD3
:103B4C00FDE49CFC78081226958FD6438E01438E9B
:023B5C00102235
:0B4256007F007EC27D017C00023AFC6C
:084286008F993099FDC29922C5
:103DF400900238EBF0A3EAF0A3E9F0900238E0FB7C
:103E0400A3E0FAA3E0F912247C6017900238A3E43B
:103E140075F001122551A9F0FA12247CFF12416AAF
:033E240080D92220
:10416A00AE07EEB40A097F0D1242867F0A8002AFBB
:07417A0006124286AF062287
:1041C100EFC3940AEF50052430FD80032437FDAF7F
:0441D1000502416A38
:1040A000AC077F2012416AECC4540FFF1241C1ECEF
:0B40B000540FFF1241C17F2002416A43
:0300230002412374
:06412300C0E0C083C08271
:0B412900309808C298900234E599F02D
:07413400D082D083D0E032FD
:09426C00D287C284C286C28522F9
:1041D500E4FEEF339284C285D285EF25E0FF0EEE33
:0341E500B408EF2C
:0141E80022B4
:1040BB00C286AF051DEF601012247CFF1241D57430
:0B40CB000129F9E43AFA80EAD28622CB
:1041AC00204E47212120002020202020200050419B
:0541BC00535321210016
:0C423F00759DFFE4F5BDF5BE75BC802246
:10400200EF4488F5BC00000000E5BC30E4FB53BC83
:10401200EFAFBDEF75F004A4ADBE7C002DFFEC3513
:03402200F0FE228B
:053E5800E4FF1240022E
:103E5D008F828E837E037FE8AD82AC83122728C0CC
:103E6D0006C007AE83AF82C3E49FFF74049EAB0709
:0C3E7D00FAE4F9F8D007D0061225F22272
:10277C00C283C281C282C28000000000000000003F
:10278C000000123E58900204EEF0A3EFF00000009F
:10279C00007F01124002123E5D90020CEEF0A3EF9E
:1027AC00F0000000007F02124002123E5D90021405
:1027BC00EEF0A3EFF0000000007F03124002123E87
:1027CC005D90021CEEF0A3EFF0000000007F0412FD
:1027DC004002123E5D900224EEF0A3EFF0000000E8
:1027EC00007F05124002123E5D900226EEF0A3EF30
:1027FC00F0000000007F06124002123E5D9002289D
:10280C00EEF0A3EFF0000000007F07124002123E32
:10281C005D90022AEEF0A3EFF0C283C281D282D285
:10282C008000000000000000000000123E589002E2
:10283C0006EEF0A3EFF0000000007F011240021240
:10284C003E5D90020EEEF0A3EFF0000000007F0260
:10285C00124002123E5D900216EEF0A3EFF0000063
:10286C0000007F03124002123E5D90021EEEF0A3A8
:10287C00EFF0D283D281C282C2800000000000003F
:10288C0000000000123E58900208EEF0A3EFF0009A
:10289C000000007F01124002123E5D900210EEF02B
:1028AC00A3EFF0000000007F02124002123E5D9088
:1028BC000218EEF0A3EFF0000000007F03124002BC
:1028CC00123E5D900220EEF0A3EFF0D283D281D2C3
:1028DC0082D28000000000000000000000123E5870
:1028EC0090020AEEF0A3EFF0000000007F0112400E
:1028FC0002123E5D900212EEF0A3EFF00000000019
:10290C007F02124002123E5D90021AEEF0A3EFF02D
:10291C0090021AE0FF1240A090021AA3E0FF1240AE
:10292C00A0000000007F03124002123E5D900222C4
:05293C00EEF0A3EFF036
:012941002273
:102F4C00AB079002001226C700000000EB600302E2
:102F5C002FDC900233E0540125E0FF900203E05493
:102F6C00FD4FF0900233E0540225E025E0FF900283
:102F7C0003E054F74FF0900233E0540433333354EE
:102F8C00F8FF900203E054DF4FF0900233E0540856
:102F9C00C454F0FF900203E0547F4FF0900233E0F2
:102FAC005410131313541FFF900202E054FD4FF002
:102FBC00900233E054201313543FFF900202E0546C
:102FCC00F74FF0900233E054401313543F0230702B
:102FDC00EB6401600302307A900233E05401FF90FD
:102FEC000203E054FE4FF0900233E0540225E0FF60
:102FFC00900203E054FB4FF0900233E0540425E0C0
:10300C0025E0FF900203E054EF4FF0900233E054C0
:10301C000833333354F8FF900203E054BF4FF09061
:10302C000233E05410C4540FFF900202E054FE4FE0
:10303C00F0900233E05420131313541FFF9002023C
:10304C00E054FB4FF0900233E05440131313541F21
:10305C00FF900202E054F74FF0900233E0548013DB
:10306C001313541FFF900202E054EF4FF022900212
:10307C0030E0FCA3E0FDA3E0FEA3E0FF9002001211
:03308C0026BB223E
:10216300D20190022C1226C700000000900203E067
:1021730030E01AC3900205E094D0900204E0940783
:10218300400990022FE04401F08002C20190020353
:10219300E0C31330E01AC3900207E094D090020624
:1021A300E09407400990022FE04402F08002C2014C
:1021B300900203E01313543F30E01AC3900209E086
:1021C30094D0900208E09407400990022FE0440461
:1021D300F08002C201900203E0131313541F30E096
:1021E3001AC390020BE094D090020AE094074009CE
:1021F30090022FE04408F08002C201900203E0C481
:10220300540F30E01AC390020DE094D090020CE01A
:102213009407400990022FE04410F08002C201901D
:102223000203E0C413540730E01AC390020FE09492
:10223300D090020EE09407400990022FE04420F072
:102243008002C201900203E0C41313540330E01A66
:10225300C3900211E094D0900210E09407400990DB
:10226300022FE04440F08002C201900203E0C41355
:102273001313540130E01AC3900213E094D0900278
:1022830012E09407400990022FE04480F08002C2DC
:1022930001900202E030E01AC3900215E094D0905E
:1022A3000214E09407400990022EE04401F08002FA
:1022B300C201900202E0C31330E01AC3900217E098
:1022C30094D0900216E09407400990022EE0440255
:1022D300F08002C201900202E01313543F30E01A6F
:1022E300C3900219E094D0900218E094074009903B
:1022F300022EE04404F08002C201900202E01313B4
:1023030013541F30E01AC390021BE094D090021ABA
:10231300E09407400990022EE04408F08002C201D5
:10232300900202E0C4540F30E01AC390021DE094FF
:10233300D090021CE09407400990022EE04410F074
:102343008002C201900202E0C413540730E01AC3B2
:1023530090021FE094D090021EE09407400990027F
:102363002EE04420F08002C201900202E0C4131365
:10237300540330E01AC3900221E094D0900220E08D
:102383009407400990022EE04440F08002C201907D
:102393000202E0C4131313540130E01AC390022362
:1023A300E094D0900222E09407400990022EE0448A
:1023B30080F08002C201900201E030E01AC3900273
:1023C30025E094D0900224E09407400990022DE088
:1023D3004401F08002C201900201E0C31330E01A0D
:1023E300C3900227E094D0900226E094074009901E
:1023F300022DE04402F08002C201900201E01313B7
:10240300543F30E01AC3900229E094D0900228E0B0
:102413009407400990022DE04404F08002C2019029
:102423000201E0131313541F30E01AC390022BE090
:1024330094D090022AE09407400990022DE04408CA
:10244300F08002C201900200E0FCA3E0FDA3E0FEE5
:10245300A3E0FF90023E1226BB90022CE0FCA3E017
:10246300FDA3E0FEA3E0FF9002421226BBE4FDFFC2
:08247300121170123D03A201D9
:01247B00223E
:103FB700900238E0FCA3E0FDA3E0FEA3E0FF122699
:053FC70095EF540FFF0F
:103FCC00EFC3940AEF50052430FE80032437FEAF74
:013FDC0006DE
:013FDD0022C1
:102DF6001221635003022F0490022CE0FCA3E0FD95
:102E0600A3E0FEA3E0FF900200E0F8A3E0F9A3E050
:102E1600FAA3E06FFFEA6EFEE96DFDE86CFC900236
:102E2600381226BB900238E0FCA3E0FDA3E0FEA327
:102E3600E0FF78101226957804123FC5AB07900282
:102E4600517407F0A37401F07D08E4FF1231B078E5
:102E560010123FB7AB079002517407F0A37401F04C
:102E66007D087F061231B0900238E0FCA3E0FDA396
:102E7600E0FEA3E0FF78081226957804123FC5AB62
:102E8600079002517407F0A37401F07D087F0C12BD
:102E960031B0900238E0FCA3E0FDA3E0FEA3E0FF22
:102EA6007808123FC5AB079002517407F0A374016E
:102EB600F07D087F121231B07804123FB7AB07904D
:102EC60002517407F0A37401F07D087F181231B027
:102ED600900238E0FCA3E0FDA3E0FEA3E0540FFF60
:102EE600123FCCAB079002517407F0A37401F07D3A
:102EF600087F1E1231B07BFF7A4179AC80197BFFC7
:102F06007A4179B390024D7407F07D08E4FF1230E0
:102F1600977BFF7A4179BA90024D7407F07D18E4E9
:102F2600FF123097123D03900230E0FCA3E0FDA3B0
:102F3600E0FEA3E02401FFE43EFEE43DFDE43CFCAC
:062F46009002300226BBE0
:104084009002381226BB7B017A0279387D041240F3
:0C409400BBD2C6C28790028B7401F022E0
:10404500122F4C900200E0FCA3E0FDA3E0FEA3E0EC
:10405500FF12408490028BE060030080F7022DF68A
:0841EB0041025C0041025D008D
:10420F00C28C438E805389F0758A46758CFEC28DA1
:01421F00227C
:1041FC00C28E438E4053890FE4F58B758D28C28F88
:03420C00D28E222D
:0B42610043B10453B2FBC2B2C288227A
:0942750012420F1241FCD2AB22EF
:10413B00D2A8E4900262F0A3F09002661226C700A8
:08414B00000000D28CD2AB226F
:10418100C2A8C28CE4900262F0A3F09002661226EB
:06419100C700000000223F
:03000300022AFBD3
:102AFB00C0E0C0F0C083C082C0D075D000C000C0A1
:0B2B0B0002C003C004C005C006C007E4
:102B160090025CE06003022BE820B203022BB1A313
:102B2600E0FF700D900262F0A3F090025D04F08069
:102B36007AEF64027075900262E0FEA3E0FF9002F5
:102B460057EEF0A3EFF0900262E4F0A3F090025D7E
:102B5600F0C390025AE09F900259E09E504D9002B9
:102B660057E0FEA3E0FFC3947DEE9400403DD3EF13
:102B760094EEEE9402503490025C7401F090025B85
:102B86007418F07C007D281224D47D7C1224E6EF94
:102B96007803CEC313CE13D8F9FDAC067E037FE8C7
:102BA6001224E6900264EEF0A3EFF030B203022C9A
:102BB6007790025DE0900262B4011CE0FFA3E09012
:102BC6000259CFF0A3EFF0900262E4F0A3F0900276
:102BD6005D7402F0022C77E4F0A3F090025DF0023F
:102BE6002C7720B227900262E0FEA3E0FF90025904
:102BF600EEF0A3EFF0900262E4F0A3F0D3EF941EA0
:102C0600EE9400406C90025CE4F0806530B2629015
:102C16000262E0FEA3E0FF900257EEF0FAA3EFF0A7
:102C2600FB900262E4F0A3F0900266E0FCA3E0FDF4
:102C3600A3E0FEA3E0FF7801122695900266122615
:102C4600BBD390025AE09B900259E09A4019900239
:102C560066E0FCA3E0FDA3E0FEA3E0FFED4480FDFB
:102C6600EC9002661226BB90025BE014F07002A3A1
:012C7600F06D
:102C7700D007D006D005D004D003D002D000D0D0E2
:092C8700D082D083D0F0D0E032FD
:03000B000240D6DA
:1040D600C0E0C083C082900263E004F070069002E4
:0B40E60062E004F0D082D083D0E03212
:03001B0002384B5D
:10384B00C0E0C0F0C083C082C0D075D000C000C043
:0D385B0001C002C003C004C005C006C007C4
:1038680090025FE004F090025EE004F0E0C394642C
:103878004004E4F0B2C590025FE0D3940F40081210
:1038880038E990025FE4F090028CE0B40117D2C1ED
:10389800900260E0FF04F0EFC394054008C2C1E461
:1038A800F090028CF090028BE0B4011A900261E073
:1038B800FF04F0EFC39407400DC2C6D28790028B75
:0638C800E4F0900261F043
:1038CE00D007D006D005D004D003D002D001D0004E
:0B38DE00D0D0D082D083D0F0D0E032F8
:0841F3004102CF004102CC00A3
:103F660020C2047404801E20C3047402801720C477
:103F7600047403801020A0047401800920B704741F
:093F860005800274FF1224C2221E
:1038E90090023574FFF0FF7B017A027935123F6649
:1038F900900235E0FEF4702C9002CEE0FDC39412E4
:1039090040099002CCE04440FF800DEDC394034090
:10391900079002CCE04430FF9002CCEEF0E4900234
:10392900CEF0804C9002CCE0FE900235E0FD6E6056
:103939000F9002CCEDF0E49002CEF0A304F08030B9
:103949009002CEE004F0E0FDB40304AF068021ED5F
:10395900B412099002CCE04410FF80149002CEE02A
:10396900B4170D9002CCE04420FF9002CE7412F0FF
:053979009002CDEFF00B
:01397E002226
:03000000023A0DB4
:0C3A0D00787FE4F6D8FD758120023A5461
:10247C00BB010689828A83E0225002E722BBFE025E
:09248C00E32289828A83E4932291
:10249500BB010CE58229F582E5833AF583E02250FC
:1024A50006E92582F8E622BBFE06E92582F8E22246
:0D24B500E58229F582E5833AF583E4932260
:1024C200BB010689828A83F0225002F722BBFE01F9
:0224D200F322F3
:1024D400EF8DF0A4A8F0CF8CF0A428CE8DF0A42E1C
:0224E400FE22D6
:1024E600BC000BBE0029EF8DF084FFADF022E4CCDA
:1024F600F875F008EF2FFFEE33FEEC33FCEE9DECA3
:10250600984005FCEE9DFE0FD5F0E9E4CEFD22EDE8
:10251600F8F5F0EE8420D21CFEADF075F008EF2F32
:10252600FFED33FD4007985006D5F0F222C398FD23
:052536000FD5F0EA22C0
:10253B00C5F0F8A3E028F0C5F0F8E582158270022B
:06254B001583E038F022C8
:10255100A3F8E0C5F025F0F0E5821582700215833D
:06256100E0C838F0E8229A
:10256700E88FF0A4CC8BF0A42CFCE98EF0A42CFC13
:102577008AF0EDA42CFCEA8EF0A4CDA8F08BF0A491
:102587002DCC3825F0FDE98FF0A42CCD35F0FCEBF0
:102597008EF0A4FEA9F0EB8FF0A4CFC5F02ECD39B5
:0F25A700FEE43CFCEAA42DCE35F0FDE43CFC2222
:1025B60075F008758200EF2FFFEE33FECD33CDCCDC
:1025C60033CCC58233C5829BED9AEC99E58298405F
:1025D6000CF582EE9BFEED9AFDEC99FC0FD5F0D63C
:1025E600E4CEFBE4CDFAE4CCF9A88222B800C1B966
:1025F6000059BA002DEC8BF084CFCECDFCE5F0CBA4
:10260600F97818EF2FFFEE33FEED33FDEC33FCEBDC
:1026160033FB10D703994004EB99FB0FD8E5E4F997
:10262600FA227818EF2FFFEE33FEED33FDEC33FC84
:10263600C933C910D7059BE99A4007EC9BFCE99A78
:10264600F90FD8E0E4C9FAE4CCFB2275F010EF2FBD
:10265600FFEE33FEED33FDCC33CCC833C810D707BD
:102666009BEC9AE899400AED9BFDEC9AFCE899F8F8
:0E2676000FD5F0DAE4CDFBE4CCFAE4C8F9228B
:10268400EB9FF5F0EA9E42F0E99D42F0E89C45F0AC
:012694002223
:10269500E8600FECC313FCED13FDEE13FEEF13FF23
:0326A500D8F12247
:1026A800E8600FEFC333FFEE33FEED33FDEC33FC90
:0326B800D8F12234
:0C26BB00ECF0A3EDF0A3EEF0A3EFF02292
:1026C700A8828583F0D083D0821226DE1226DE12FE
:1026D70026DE1226DEE473E493A3C583C5F0C58323
:1026E700C8C582C8F0A3C583C5F0C583C8C582C85D
:0126F70022C0
:1026F800BB010DE58229F582E5833AF58302275E61
:102708005007E92582F8022755BBFE07E92582F81C
:10271800022767E58229F582E5833AF58302277067
:10272800EC8EF0A4CCC5F0CCCDF8EFA4CEC5F02D3E
:10273800FDE43CFCE8A42EC8C5F03DFDE43CFCEFFC
:0D274800A4FFE5F028FEE43DFDE43CFC228A
:103A19000234F8E493A3F8E493A34003F68001F297
:103A290008DFF48029E493A3F85407240CC8C333AE
:103A3900C4540F4420C8834004F456800146F6DF7D
:103A4900E4800B01020408102040809041E9E47EE3
:103A5900019360BCA3FF543F30E509541FFEE49372
:103A6900A360010ECF54C025E060A840B8E493A339
:103A7900FAE493A3F8E493A3C8C582C8CAC583CA64
:103A8900F0A3C8C582C8CAC583CADFE9DEE780BE1C
:0141FB0000C3
:09275500E6FB08E6FA08E6F922A9
:09275E00E0FBA3E0FAA3E0F9227C
:09276700E2FB08E2FA08E2F922A3
:0C277000E493FB740193FA740293F922C5
:00000001FF
